:100000000C948F170C94B0170C94B0170C94B01775
:100010000C94B0170C94B0170C94B0170C94B01744
:100020000C94B0170C94B0170C94B0170C94B01734
:100030000C94B0170C942B240C94B0170C94B0179C
:100040000C94B0170C94B0170C94B0170C94B01714
:100050000C94B0170C94B0170C94B0170C94B01704
:100060000C94B0170C944F450C94B0170C94254584
:100070000C94B0170C94B0170C94B0170C94B017E4
:100080000C94B0170C94B0170C94B0170C94B017D4
:100090000C94B0170C94B0170C94B0170C94B017C4
:1000A0000C94B0170C94B0170C94B0170C94B017B4
:1000B0000C94B0170C94B0170C9403240C94B01744
:1000C0000C94B0170C94B0170C94B0170C94B01794
:1000D0000C94B0170C94B0170C94B0170C94B01784
:1000E0000C94B0170C94B0170C94B0170C94B01774
:1000F0000C94B0170C94B0170C94B0170C94B01764
:100100000C94B0170C94B0170C94B0170C94B01753
:100110000C94B0170C94B0170C94B0170C94B01743
:100120000C94B0170C94B0170C94B0170C94B01733
:100130000C94B0170C94B0170C94B0170C94B01723
:100140000C94B0170C94B0170C94B0170C94B01713
:100150000C94B0170C94B0170C94B0170C94B01703
:100160000C94B0170C94B0170C94B0170C94B017F3
:100170000C94B0170C94B0170C94B0170C94B017E3
:100180000C94B0170C94B0170C94B0170C94B017D3
:100190000C94B0170C94B0170C94B0170C94B017C3
:1001A0000C94B0170C94B0170C94B0170C94B017B3
:1001B0000C94B0170C94B0170C94B0170C94B017A3
:1001C0000C94B0170C94B0170C94B0170C94B01793
:1001D0000C94B0170C94B0170C94B0170C94B01783
:1001E0000C94B0170C94B017ED25C025EA25C32553
:1001F000C625C925CC25CF25D225D525D825DB2553
:10020000DE25E125E425E7251F3224322A3230326B
:1002100036323C3242324A32E572E172AE72E172FB
:10022000B372B872BC72C172C672CA72CF72D47223
:10023000D8720C94B11B0C94DE1B0C9482320C947B
:10024000086A0C9430320C94CA720C94AD1B0C9456
:1002500024320C94851A0C94EA250C94F7310C94F2
:1002600036320C9425190C9422300C94FD190C9400
:10027000F62A0C94CC250C947A300C94E1720C94F0
:10028000D8250C94882B0C94041E0C94BC720C94EE
:10029000B2170C94E4250C942A200C941E450C945F
:1002A000AC190C945A1B0C94B8720C94591A0C94F7
:1002B000E1250C944A320C94C7190C94B5560C9451
:1002C0002B560C94802B0C9422200C94AE720C9420
:1002D0006F2A0C94C6250C94A9310C94A3310C946C
:1002E000C3250C94DD550C94842B0C94B1300C94E4
:1002F000F71B0C9442320C94C0250C94B71A0C9442
:10030000EF180C94DC170C9433590C945C300C945B
:10031000DB2A0C9440190C942F2B0C94EC1A0C949F
:1003200076190C94BC1C0C94F81E0C94CF720C948F
:100330005E2A0C94D3310C94CB2A0C940A190C9499
:10034000EF1F0C94D4720C94E7250C94582A0C944B
:10035000DB550C94DE250C942A320C94B71E0C94B9
:10036000CF250C9478180C94B3720C9469580C94A3
:1003700064230C9491190C94501E0C94ED250C944C
:100380003C320C9405590C94211B0C94ED300C94C8
:10039000E5720C9422210C94931A0C94E2190C949B
:1003A0005B190C94C81F0C94C6720C94D8720C94F0
:1003B00072300C94D2250C941F320C94181A0C94A1
:1003C000261A0C94341A0C94D4180C94C9250C9445
:1003D000D5250C94C1720C94DB250C9432310C940D
:1003E0008C2B0C942A186364696E6F70737578583F
:1003F0005B0001DF0001D50001CC0001C20001B9A2
:100400000001B00001A800019F00019900019100C6
:10041000018900018000017900017100016C010176
:100420006401015F01015901015201014B010144C5
:1004300001013D01013702012F02012A02012402BC
:10044000011F02011A02011402010E020108020139
:100450000102028701028001027A01027401026C2A
:1004600001026601025F02025E02025802025202AB
:10047000024C02024602023F02023A020236030224
:100480002F03022A03022403021F04021E0402187F
:1004900004021204020E0402080402020404BE0153
:1004A00004B80104B10104AB0104A60204A00204D3
:1004B0009C02049602049002048B020485020480CC
:1004C00002047A02047402046F03046B03046603DB
:1004D000046003045E03045803045403044F03043C
:1004E0004A03044503044003043C04043704043372
:1004F00004042E04042A04042404042004041E0416
:10050000041A04041604041204040D040409040467
:10051000040404000408BC0008B70008B20008AED8
:100520000008A90008A40008A000089C0008970083
:10053000089300088F01088C0108880108840108CD
:100540007F01087B01087601087201086F01086BC2
:1005500001086701086301085F01085C0108580190
:10056000085401085101084F02084C0208480208CB
:100570004402084102083D020839020836020832E6
:1005800002082F02082C020828020825021D03ED8C
:1005900001DCFDCCF5BCE5ACC5A86EBCE5ACC59CEA
:1005A00085960392C1912190966572726F723A207E
:1005B000756E7265636F676E697A656420636F6DCF
:1005C0006D616E64206F7074696F6E0A00596F758B
:1005D0002068617665206265656E206772616E7461
:1005E000656420726F6F74207065726D69737369D2
:1005F0006F6E73210A0054686973206973206E6FEF
:100600007420616E206F7065726174696E6720730B
:10061000797374656D210A00436F6D6D616E64734B
:100620003A0A0055736167653A205B636D645D202B
:100630005B2D7C2D2D5D5B617267315D205B2D7CB8
:100640002D2D5D5B617267325D2E2E2E0A00547572
:10065000726E206F6666206F7574707574732028D3
:10066000706572206368616E6E656C292E0053653B
:1006700074207072657363616C617220666F7220A2
:1006800063616C6C6962726174696F6E2E00536590
:10069000742063616C6C6962726174696F6E204E64
:1006A00020646976696465722E004368616E6765CF
:1006B00020696E7465726E616C2072656665726524
:1006C0006E636520444143206F75747075742076A5
:1006D0006F6C74616765004144524636353138208D
:1006E0004C6F772042616E6400414452463635318A
:1006F0003820486967682062616E64005365742021
:10070000746865205246534120617474656E747537
:100710006174696F6E2E203020746F20323820286B
:1007200030644220746F202D32386442292E0042FA
:1007300069742062616E67206F7065726174696FA1
:100740006E2E20313A20777269746520303A20721B
:10075000656164004269742062616E67206461743F
:1007600061206F66204441432E004269742062611B
:100770006E672061646472657373206F6620444104
:10078000432E004578656375746520746865207331
:10079000657264657320746573742E2028302D355E
:1007A000292074657374207061747465726E2E00F4
:1007B0005365742074686520696E746572706F6C1F
:1007C0006174696F6E2031782830292C20327828A6
:1007D00031292C2034782832292C203878283429C3
:1007E000206F72203136782838292E00456E6162DC
:1007F0006C65207468652050412028706F776572A1
:1008000020616D706C6966696572292070726F7401
:10081000656374696F6E20636972637569742E20F5
:100820003120746F20656E61626C652E00536574B3
:100830002074686520636D6420696E70757420662D
:10084000726F6D204A455344283029206F7220531F
:1008500050492831292E005365742074686520287A
:100860004629206672616D657320706572206D7512
:100870006C74692D6672616D652E00536574207409
:10088000686520284D2920636F6E766572746572E5
:100890007320706572206C696E6B2E005365742036
:1008A00074686520284C29206C616E657320706522
:1008B00072206C696E6B2E0053657420746865201D
:1008C00066726571206F7574707574206F6620652F
:1008D000787465726E616C2044414320636C6B20B8
:1008E000616674657220696E7465726E616C204316
:1008F0004C4B206369726375697420284D487A29CE
:100900002E0001DF0001D50001CC0001C20001B9B9
:100910000001B00001A800019F00019900019100B1
:10092000018900018000017900017100016C010161
:100930006401015F01015901015201014B010144B0
:1009400001013D01013702012F02012A02012402A7
:10095000011F02011A02011402010E020108020124
:100960000102028701028001027A01027401026C15
:1009700001026601025F02025E0202580202520296
:10098000024C02024602023F02023A02023603020F
:100990002F03022A03022403021F04021E0402186A
:1009A00004021204020E0402080402020404BE013E
:1009B00004B80104B10104AB0104A60204A00204BE
:1009C0009C02049602049002048B020485020480B7
:1009D00002047A02047402046F03046B03046603C6
:1009E000046003045E03045803045403044F030427
:1009F0004A03044503044003043C0404370404335D
:100A000004042E04042A04042404042004041E0400
:100A1000041A04041604041204040D040409040452
:100A2000040404000408BC0008B70008B20008AEC3
:100A30000008A90008A40008A000089C000897006E
:100A4000089300088F01088C0108880108840108B8
:100A50007F01087B01087601087201086F01086BAD
:100A600001086701086301085F01085C010858017B
:100A7000085401085101084F02084C0208480208B6
:100A80004402084102083D020839020836020832D1
:100A900002082F02082C020828020825021D03ED77
:100AA00001DCFDCCF5BCE5ACC5A86EBCE5ACC59CD5
:100AB00085960392C1912190965072696E7473204D
:100AC0006F7574207468652068656C70206D656E44
:100AD0007520666F722074686520626F6172642E83
:100AE0000045786974732066726F6D20746869734D
:100AF00020626F617264206261636B20746F207486
:100B00006865204449474954414C20626F617264D2
:100B10002E00426F6F746C6F61646572206F707429
:100B2000696F6E732E004F4E2F4F464620737769C4
:100B300074636865732C202830206973204F464603
:100B40002C2031206973204F4E2900436F6D6D6159
:100B50006E647320666F7220616363657373696E80
:100B600067207468652068656172746265617420CD
:100B700073746174757300436F6E74726F6C73205D
:100B800074686520626F617264206C6576656C20A4
:100B900066756E6374696F6E732E2053657175652B
:100BA0006E7469616C2065786563206F6620617280
:100BB00067756D656E74732E005265616420616E99
:100BC0006420777269746520636F6D6D616E647304
:100BD00020666F7220646562756767696E672E00B4
:100BE000436F6D6D616E647320666F722073657400
:100BF00074696E6720484D433938382067726F75C5
:100C0000702064656C6179732E00436F6D6D616E49
:100C1000647320666F722073657474696E67204A0E
:100C20004553442F504C4C204E2F52206469766916
:100C30006465727300436F6D6D616E647320666FDF
:100C4000722073657474696E6720746865204C4DFA
:100C50004B30343832382064656C617920636C6FB6
:100C6000636B732E00436F6D6D616E647320666FEE
:100C7000722073657474696E6720746865204C4DCA
:100C80004B30343832382064656C617920636C6F86
:100C9000636B732E00436F6D6D616E647320666FBE
:100CA00072206D616E6167696E67207468652043AC
:100CB0004C4B2067656E65726174696F6E20746855
:100CC000726F756768204C4D4B30343832382C20A9
:100CD000414435363234522C20484D433938372E72
:100CE00000436F6D6D616E647320666F72206D617D
:100CF0006E6167696E672074686520434C4B20679E
:100D0000656E65726174696F6E207468726F756765
:100D100068204C4D4B30343832382C204144353625
:100D20003234522C20484D433938372E00507269E6
:100D30006E7473206F7574207468652068656C70BC
:100D4000206D656E7520666F722074686520626F15
:100D50006172642E0045786974732066726F6D202D
:100D60007468697320626F617264206261636B20D2
:100D7000746F20746865204449474954414C20628F
:100D80006F6172642E00426F6F746C6F6164657284
:100D9000206F7074696F6E732E004F4E2F4F464652
:100DA0002073776974636865732C20283020697319
:100DB000204F46462C2031206973204F4E29005386
:100DC000746174757320616E642066756E637469F6
:100DD0006F6E73207573656420666F72206368653B
:100DE000636B696E672074686520626F6172642E40
:100DF0002000436F6E74726F6C732074686520629C
:100E00006F617264206C6576656C2066756E6374C4
:100E1000696F6E732E2053657175656E7469616CB0
:100E20002065786563206F6620617267756D656EF9
:100E300074732E00457865637574657320746573EB
:100E40007420766563746F72732E005265676973E0
:100E50007465722064756D707320666F72207265A0
:100E60007370656374697665207065726970686512
:100E700072616C732E00436F6E74726F6C732074AA
:100E800068652066726F6E74656E642052462073CA
:100E9000776974636865732E00436F6D6D616E646E
:100EA0007320666F7220746865204144524636355F
:100EB0003138207661726961626C65206761696EA4
:100EC00020616D706C69666965722E005072696E82
:100ED0007473206F7574207468652068656C702069
:100EE0006D656E7520666F722074686520626F6133
:100EF00072642E0045786974732066726F6D207479
:100F000068697320626F617264206261636B207430
:100F10006F20746865204449474954414C20626FF2
:100F20006172642E00426F6F746C6F616465722031
:100F30006F7074696F6E732E004F4E2F4F464620B0
:100F400073776974636865732C2028302069732077
:100F50004F46462C2031206973204F4E2900436FA5
:100F60006E74726F6C732074686520626F61726456
:100F7000206C6576656C2066756E6374696F6E7340
:100F80002E2053657175656E7469616C2065786596
:100F900063206F6620617267756D656E74732E00D5
:100FA00050726F766964657320746865207374612C
:100FB000747573206F662074686520626F61726457
:100FC0002E0052656769737465722064756D707365
:100FD00020666F7220726573706563746976652030
:100FE0007065726970686572616C732E00436F6E14
:100FF00074726F6C73207468652066726F6E7465AE
:101000006E642052462073776974636865732E009E
:10101000436F6D6D616E647320666F7220746865D6
:101020002044414333384A38342E0052756E7320C1
:10103000737065636966696564207465737420768E
:101040006563746F72206F66207468652041445236
:1010500046363531380052756E732073706563699A
:1010600066696564207465737420766563746F7255
:10107000206F6620746865204144433136445833FC
:1010800037300052756E73207370656369666965E9
:1010900064207465737420766563746F72206F6664
:1010A0002074686520504341393533382E00436C35
:1010B000656172207468652073706563696669652F
:1010C00064204750494F582070696E206C6F772E0E
:1010D0000053657420746865207370656369666980
:1010E0006564204750494F582070696E20686967D1
:1010F000682E00E921D110AE10831056102B10502D
:1011000072696E7473206F757420696E20766572D3
:10111000626F7365206D6F64652E203120746F20BF
:10112000656E61626C652E004E6F20617267756D31
:10113000656E74206E65636573736172792E004508
:101140006E7465722074686520626F6F746C6F6175
:101150006465722E00484D43393837004C4D4B3092
:10116000343032380052657475726E73204D4355B9
:101170002064657669636520696E666F726D61745F
:10118000696F6E2E00476574732C20616E64207445
:1011900068656E207265736574732C20504C4C200A
:1011A0004C6F7373206F66204C6F636B20537461B8
:1011B0007475732E004765747320504C4C204C6F2F
:1011C000636B204465746563742053746174757334
:1011D0000048656172746265617420696E69746942
:1011E000616C697A6174696F6E2066756E6374698B
:1011F0006F6E20746F2073657420636F756E7465F5
:101200007220746F20300048656172746265617489
:101210002066756E6374696F6E20746F20726573DB
:1012200065742074686520686561727462656174B4
:1012300020636F756E7465720048656172746265D3
:1012400061742066756E6374696F6E20746F2061BF
:101250006E642066726F6D207468652073657276A7
:1012600065720053656C6563747320474C45206D4F
:101270006F64653A204D43555F474C45283129201E
:101280006F722053594E54485F465047415F474C58
:1012900045202832290050726F7669646573207486
:1012A000686520616D6F756E74206F662052414DC8
:1012B000206C65667420286279746573292E00504D
:1012C000726F7669646573207468652074656D70EB
:1012D000657261747572652028302D31292E0042A7
:1012E0006C696E6B7320746865204C4544206120E6
:1012F000737065636966696564206E756D62657299
:10130000206F662074696D65732E005072696E746B
:1013100073206F75742074686520736F66747761CD
:10132000726520616E642068617264776172652005
:1013300076657273696F6E2E005475726E732065D8
:10134000766572797468696E67206F66662E0054E0
:1013500075726E206F66662070657269706865725E
:10136000616C732E00506F776572206379636C65D2
:10137000207065726970686572616C7320616E645B
:101380002072756E7320626F61726420696E697479
:101390002028706572206368616E6E656C292E006E
:1013A00052756E7320646961676E6F737469632030
:1013B0006F6E207065726970686572616C2028704C
:1013C0006572206368616E6E656C292E2053686FAC
:1013D000756C64207072696E7420616C6C2072652B
:1013E000676973746572732E005475726E206F6E28
:1013F000206F75747075747320287065722063682F
:10140000616E6E656C292E00526577726974652075
:10141000616C6C207265677320666F7220656E74F4
:1014200069726520626F6172642E0052656164208A
:10143000616E6420777269746520636F6D6D616E93
:10144000647320666F7220646562756767696E6792
:101450002E004765742F73657420484D43205278E1
:1014600020427566666572206269617320283020AB
:1014700069732064656661756C742C203120666F19
:10148000722073696E75736F6469616C202F206EB2
:101490006F6E2D4C565045434C20414320636F7571
:1014A000706C696E672E29004765742F7365742010
:1014B000484D43207265666572656E636520696E8E
:1014C000707574206469766964657273202876612A
:1014D0006C69642064697669646572732061726501
:1014E000203D20325E6E2C206E3D312E2E3529009F
:1014F0004765742F7365742064656C6179206C692D
:101500006E6520736574706F696E742E0047657424
:101510002F73657420746865206F757470757420FE
:101520006C61756E63682070686173652E00536529
:1015300074206569746865722053594E43206F7238
:1015400020534C4950207573696E672053504920D1
:10155000636F6D6D756E69636174696F6E2E0047A0
:1015600065742F736574207468652053594E432049
:1015700064656C617920646976696465722E0053D4
:10158000656C65637473206265747765656E20743D
:1015900068652074776F20484D433938382064657A
:1015A000766963657320287265666572656E63652A
:1015B00020616E64206C6D6B292E0053657420636E
:1015C0006C6F636B20646976696465722E00536585
:1015D00074204E206469766964657220666F72209B
:1015E000504C4C2E00536574205220646976696417
:1015F000657220666F7220504C4C2E0053656C65EE
:101600006374206469766964657220746F20736501
:10161000742E00536574206469676974616C20647A
:10162000656C617920636C6F636B2E0053656C652C
:1016300063742064657669636520636C6F636B2EE9
:101640000053656C656374204A455344206F7220D3
:10165000504C4C2E0052652D73796368726F6E6921
:101660007A65206F75747075742064697669646535
:1016700072732066726F6D20626F7468204C4D4BE0
:101680007300536574207468652044414320636F80
:101690006E74726F6C6C696E6720584F205672655D
:1016A000662C20302D3430393620667261637469BF
:1016B0006F6E2056657874004973737565205359B1
:1016C000535245462070756C7365732066726F6D5A
:1016D000204A4553442E00456E61626C6520657852
:1016E000742D31304D487A207265666572656E637F
:1016F00065202831292E005072696E7473206F7531
:101700007420696E20766572626F7365206D6F64F8
:10171000652E203120746F20656E61626C652E002D
:10172000456E7465722074686520626F6F746C6FAB
:10173000616465722E004E6F20617267756D656E13
:1017400074206E65636573736172792E0041444342
:1017500031364458333730004144524636353138FB
:1017600000484D433833784C503647005265747505
:10177000726E73204D4355206465766963652069F8
:101780006E666F726D6174696F6E2E00504C4C20E6
:101790004C6F636B20446574656374696F6E204D94
:1017A000656368616E69736D2E004865617274626D
:1017B00065617420696E7469616C697A6174696FBE
:1017C0006E2066756E6374696F6E20746F2073652A
:1017D0007420636F756E74657220746F20300043DF
:1017E0006F6D6D616E6420666F72207265736574D3
:1017F00074696E67207468652068656172746265DB
:1018000061742076616C756520666F7220746865FE
:1018100020525820626F61726400436F6D6D616E7B
:101820006420666F72207072696E74696E672074CE
:1018300068652063757272656E7420686561727484
:10184000626561742076616C7565206F66207468CE
:101850006520525820626F6172640053656C656345
:10186000747320474C45206D6F64653A204D435595
:101870005F474C45283129206F7220465047415F11
:10188000474C452028322900426C696E6B732074E6
:101890006865204C45442061207370656369666902
:1018A0006564206E756D626572206F662074696D67
:1018B00065732E0050726F76696465732074686575
:1018C0002074656D70657261747572652028302DA5
:1018D00031292E004F757470757473206120313674
:1018E0002D62697420726570656174696E6720731A
:1018F000657175656E6365205B302C203236323839
:10190000302C20302C202D32363332385D20667258
:101910006F6D207468652041444320636F72652EAB
:1019200000456E61626C696E67207468652053596A
:101930005352454620646574656374696F6E206711
:101940006174652E203120746F20656E61626C6554
:101950002C203020746F2064697361626C650054C0
:101960006865204144432077696C6C206F75747002
:101970007574204A45534420546573742050617433
:101980007465726E732E20303A206F66662C20319B
:101990003A204432312E352C20323A204B32382E28
:1019A000352C20333A2072707420494C412C20345D
:1019B0003A2072616D702C20353A20484947482EF4
:1019C00000546865204144432077696C6C20656E43
:1019D00061626C65207468652053595352454620F6
:1019E000646574656374696F6E20676174652066F1
:1019F0006F72204A45534420696E697469616C694D
:101A00007A6174696F6E2E0050726F7669646573C7
:101A10002074686520616D6F756E74206F6620524A
:101A2000414D206C65667420286279746573292E97
:101A3000005072696E7473206F757420746865202D
:101A4000736F66747761726520616E64206861727D
:101A500064776172652076657273696F6E2E0054CB
:101A600075726E732065766572797468696E672029
:101A70006F66662E005475726E206F666620706504
:101A8000726970686572616C732E00506F77657251
:101A9000206379636C652070657269706865726136
:101AA0006C7320616E642072756E7320626F617258
:101AB0006420696E69742028706572206368616EA5
:101AC0006E656C292E005475726E206F6666206FED
:101AD0007574707574732028706572206368616E08
:101AE0006E656C292E0052756E7320646961676E95
:101AF0006F73746963206F6E2070657269706865BA
:101B000072616C2028706572206368616E6E656C0E
:101B1000292E2053686F756C64207072696E742072
:101B2000616C6C207265676973746572732E005402
:101B300075726E206F6E206F7574707574732028C7
:101B4000706572206368616E6E656C292E00526547
:101B5000777269746520616C6C20726567732066AA
:101B60006F7220656E7469726520626F6172642E97
:101B70000044756D707320616C6C20746865207210
:101B8000656769737465727320666F722074686527
:101B90002041445246363531380044756D7073200B
:101BA0007468652072656769737465727320666F07
:101BB000722074686520726567756C617220616E51
:101BC00064205246204750494F580044756D707349
:101BD00020616C6C20746865207265676973746538
:101BE000727320666F7220746865204144433136F9
:101BF00044583337302E00414446343335352F4175
:101C0000444635333535206175746F63616C2065EA
:101C10006E61626C6520283120666F7220656E618E
:101C2000626C65293E3E00414446343335352F41D0
:101C300044463533353520446972656374205265F6
:101C400067697374657220416363657373203C3CFC
:101C5000323862697420646174613E3C3462697434
:101C600020616464726573733E3E0053656C656306
:101C700074732044534120417474656E75617469B6
:101C80006F6E2C2028303A203064426D202D3E208B
:101C90003132373A2033312E373564426D290053C3
:101CA000656C65637420504C4C204F75747075746E
:101CB00020506F7765722028303A202D3464426DB1
:101CC0002C20313A202D3164426D2C20323A2032C2
:101CD00064426D2C20333A203564426D29004D75E5
:101CE00074657320746865204C4F20467265717569
:101CF000656E63792053796E74686573697A65726D
:101D0000207768656E20757365640053656C656344
:101D100074732074686520636F7272656374204603
:101D2000696C7465722042616E6B20666F7220610F
:101D300020676976656E206672657175656E637978
:101D400020696E206B487A00456E61626C652F4495
:101D5000697361626C652056434F204F75747075CE
:101D600074204672657175656E637920446F756283
:101D70006C65720053657420504C4C2056434F20C4
:101D80004F75747075742044697669646572207645
:101D9000616C75652E20312C20322C20342C20369D
:101DA000202E2E2036320053657420504C4C204695
:101DB0006565646261636B2044697669646572205D
:101DC00076616C75652E20313620746F2035323483
:101DD0003235350053657420504C4C20496E707577
:101DE0007420446976696465722076616C75652E2D
:101DF000203120746F2031363338330053656C65E1
:101E00006374207468652074617267657420504C37
:101E10004C2028302920484D4338333020283129A0
:101E200020484D4338333300536574732042617347
:101E3000652042616E64205661726163746F722026
:101E4000766F6C746167652028302D3430393629FF
:101E5000203056202D20322E355600504C4C204933
:101E60006E707574205265666572656E6365204696
:101E700072657175656E637900537765657073205F
:101E8000484D43383333206672657175656E6379EA
:101E90002066726F6D20302E3247487A20746F2092
:101EA0003647487A207769746820612073746570BA
:101EB000206F662031304D487A0053657473206678
:101EC000726571206F6620484D43383333206F753B
:101ED000747075742C20696E204B487A2E004279FC
:101EE0007061737320746865204C4E41206F6E20C2
:101EF00074686520686967682062616E642E20429C
:101F0000797061737328312920746865204C4E41C3
:101F1000206F72206E6F742830292E0043686F6F17
:101F200073652074686520686967682028302E35DD
:101F30002D362047487A29206F72206C6F77202831
:101F40004443202D20302E352047487A29206261D5
:101F50006E642E2048696768283129206F72206CD2
:101F60006F772830292E0053657420564741277318
:101F7000207077722D6D6F646520626173656420D7
:101F80006F6E204C5020636F726E657220667265B2
:101F9000712E20312069662066696C746572206D2F
:101FA0006F646520616E642033314D487A203C2097
:101FB00042572C20656C7365203630204D487A20BE
:101FC0003C204257005365742056474127732069CF
:101FD0006E70757420616E616C6F672061747465DA
:101FE0006E756174696F6E20696E2064422E2047A1
:101FF0006F6573207468726F756768204144353669
:102000003234522E00536574205647412773207096
:102010006F737420616D70206761696E2E20302DA2
:10202000313A20332F3964422E00536574205647CD
:1020300041277320616E616C6F67206761696E2E46
:1020400020302E31644220636F6E74726F6C6C6549
:10205000642C20496E7075743A2030202D20373260
:102060003020282D3130326442202D202D33306431
:1020700042290053657420564741277320646967DD
:102080006974616C206761696E2E20336442206937
:102090006E6372656D656E74732C20496E70757415
:1020A0003A2030202D2038202834326442202D2040
:1020B000363664422900436865636B2069662056A2
:1020C0004741206761696E20697320746F6F2048F3
:1020D00069676820666F7220746865204144432EEA
:1020E0002028303A204E6F2C20313A205965732930
:1020F0000053656C65637420564741204368616EE8
:102100006E656C2028303A20426F74682C20493A62
:1021100020312C20513A203229004765742056473F
:10212000412773206761696E2E00536574205647FE
:10213000412773206761696E2E202843616C6C73A0
:1021400020646761696E20616E6420616761696EF9
:10215000292E20496E7075743A2030202D20393593
:1021600020282D36306442202D203335644229004A
:10217000536574205647412773204C5020636F727B
:102180006E6572206672657120696E204D487A2EE8
:102190000042797061737320746865205647412747
:1021A00073204C502066696C7465722E2031207447
:1021B0006F20656E61626C652E004E756C6C2074CC
:1021C0006865205647412773206F757470757420B9
:1021D0004443206F6666736574732E203120746FDC
:1021E00020656E61626C652E005370656369667967
:1021F000207768696368206368616E6E656C206132
:102200002C622C632C64204F5220626974206D6113
:10221000736B2E204D555354207370656369667936
:102220002066697273742E005072696E7473206F29
:10223000757420696E20766572626F7365206D6FAC
:1022400064652E203120746F20656E61626C652E8E
:10225000004E6F20617267756D656E74206E6563E8
:102260006573736172792E00456E746572207468AF
:102270006520626F6F746C6F616465722E00484DEB
:10228000433833784C5036470044414333384A385A
:10229000340053656C65637420474C45206D6F6452
:1022A000653A204D43555F474C452831292046501B
:1022B00047415F474C4528322900456E61626C6595
:1022C00073204A4553442053595352454620476191
:1022D0007465004F757470757420656E61626C650D
:1022E000283129206F722064697361626C6528301F
:1022F000292E0050726F76696465732074686520BA
:10230000616D6F756E74206F662052414D206C6553
:10231000667420286279746573292E0050726F7676
:1023200069646573207468652074656D7065726199
:10233000747572652028302D31292E00426C696E2B
:102340006B7320746865204C454420612073706570
:10235000636966696564206E756D626572206F667B
:102360002074696D65732E005072696E7473206FEE
:1023700075742074686520736F6674776172652068
:10238000616E64206861726477617265207665723F
:1023900073696F6E2E005475726E73206576657268
:1023A000797468696E67206F66662E005475726E68
:1023B000206F6666207065726970686572616C7303
:1023C0002E00506F776572206379636C65207065AD
:1023D000726970686572616C7320616E64207275D9
:1023E0006E7320626F61726420696E697420287058
:1023F0006572206368616E6E656C292E005475727B
:102400006E206F6666206F75747075747320287007
:102410006572206368616E6E656C292E0052756E60
:102420007320646961676E6F73746963206F6E20D7
:102430007065726970686572616C202870657220C1
:102440006368616E6E656C292E2053686F756C64CD
:10245000207072696E7420616C6C2072656769739C
:10246000746572732E005475726E206F6E206F75D6
:1024700074707574732028706572206368616E6E65
:10248000656C292E005265777269746520616C6CE9
:10249000207265677320666F7220656E746972655D
:1024A00020626F6172642E0052657475726E7320C3
:1024B0004D43552064657669636520696E666F7269
:1024C0006D6174696F6E2E004C6F636B2044657490
:1024D000656374696F6E204D656368616E69736DC5
:1024E0000048656172746265617420696E6974691F
:1024F000616C697A6174696F6E2066756E63746968
:102500006F6E20746F2073657420636F756E7465D1
:102510007220746F203000436F6D6D616E642066B1
:102520006F7220726573657474696E672074686574
:102530002063757272656E7420686561727462657D
:1025400061742076616C7565206F66205458206236
:102550006F61726400436F6D6D616E6420666F72AF
:10256000207468652063757272656E742068656199
:102570007274626561742076616C7565206F662087
:1025800074686520545820626F6172640044756DF0
:1025900070732074686520726567697374657273FF
:1025A00020666F72207468652044414333384A388E
:1025B000340044756D7073207468652072656769B6
:1025C000737465727320666F72207468652072651B
:1025D00067756C617220616E6420524620475049D5
:1025E0004F5800414446343335352F414446353346
:1025F0003535206175746F63616C20656E61626C46
:102600006520283120666F7220656E61626C6529D5
:102610003E3E00414446343335352F414446353340
:102620003535204469726563742052656769737437
:10263000657220416363657373203C3C3238626984
:102640007420646174613E3C346269742061646426
:10265000726573733E3E00524620417474656E7518
:1026600061746F722053657474696E672028303A04
:1026700020306442202D3E203132373A202D333134
:102680002E373564422900504C4C204F75747075BC
:102690007420506F7765722028303A202D346442C0
:1026A0006D2C20313A202D3164426D2C20323A209D
:1026B0002B3264426D2C20333A202B3564426D2935
:1026C0000053656C656374732074686520636F7272
:1026D000726563742046696C7465722042616E6B2A
:1026E00020666F72206120676976656E206672656C
:1026F0007175656E637920696E206B487A004D753F
:1027000074657320746865204C4F2046726571753E
:10271000656E63792053796E74686573697A657242
:10272000207768656E207573656400456E61626C24
:10273000652F44697361626C652056434F204F7565
:1027400074707574204672657175656E6379204486
:102750006F75626C65720053657420504C4C205646
:10276000434F204F757470757420446976696465B1
:10277000722076616C75652E20312C20322C20342D
:102780002C2036202E2E2036320053657420504CDB
:102790004C20466565646261636B204469766964B8
:1027A00065722076616C75652E20313620746F203D
:1027B0003532343235350053657420504C4C204945
:1027C0006E70757420446976696465722076616CF8
:1027D00075652E203120746F203136333833005325
:1027E000656C6563742074686520746172676574D4
:1027F00020504C4C2028302920484D43383330207D
:1028000028312920484D43383333004E65656473C1
:1028100020746F2062652063616C6C6564206C615C
:1028200073742E2053657473207468652049512099
:102830004D6F64756C61746F722E202869652E204F
:102840002D69203137202D71203133202D6D290045
:1028500053657420746865204951204D6F64756C10
:1028600061746F722051206269617320766F6C749D
:102870006167652028696E2064562C2066726F6D32
:1028800020302D3234206456292E00536574207474
:102890006865204951204D6F64756C61746F7220BA
:1028A00049206269617320766F6C746167652028C6
:1028B000696E2064562C2066726F6D20302D323484
:1028C000206456292E00504C4C2052656665726576
:1028D0006E636520496E7075742028696E206B48A0
:1028E0007A2900536574732066726571206F6620C3
:1028F000484D43383333206F75747075742C2069DC
:102900006E204B487A2E0042797061737320746890
:1029100065204C4E41206F6E2074686520686967A1
:10292000682062616E642E20427970617373283171
:102930002920746865204C4E41206F72206E6F74A0
:102940002830292E0043686F6F73652074686520F6
:10295000686967682028302E352D362047487A2947
:10296000206F72206C6F7720284443202D20302E5A
:10297000352047487A292062616E642E20486967B5
:1029800068283129206F72206C6F772830292E003B
:1029900052657475726E7320746865206F72276457
:1029A000206C616E65206572726F7273206F662095
:1029B0007468652066697273742034206C616E657A
:1029C0007300536574207468652073656C65637467
:1029D0006564205461702076616C756520666F7245
:1029E0002074686520536D616C6C2046726163745D
:1029F000696F6E616C2044656C617900536D616C28
:102A00006C204672616374696F6E616C2044656C02
:102A10006179205461702073656C6563746F720016
:102A20004C61726765204672616374696F6E616C98
:102A30002044656C61792C20436F65666669636923
:102A4000656E74205365742073656C656374696F7B
:102A50006E2E2028496E2044617461736865657428
:102A60002900536574207468652044697468657230
:102A700020416D706C69747564652C203020697319
:102A8000204D6178696D756D2028342062697473FA
:102A90002900456E61626C652F44697361626C65E3
:102AA00020446974686572204D6978657200456ECE
:102AB00061626C652F44697361626C65204469745E
:102AC000686572696E6700456E61626C652F446966
:102AD0007361626C6520496E766572736520536917
:102AE0006E632046696C74657200536D616C6C2076
:102AF0004672616374696F6E616C2044656C6179C4
:102B000020506174682053657474696E6773005354
:102B10006D616C6C204672616374696F6E616C20CC
:102B200044656C61792053657474696E6773004CF9
:102B300061726765204672616374696F6E616C20B3
:102B400044656C61792053657474696E67730051D4
:102B50004D43207068617365206F66667365742CE1
:102B6000203132626974732C202D302E35202D20B7
:102B7000302E34393937352C2072656665722074F1
:102B80006F2064617461736865657400514D432002
:102B90006761696E206F66667365742C20313162DF
:102BA0006974732C20646563696D616C20706E7448
:102BB0002040206C656674206F6620626974392C31
:102BC0002072616E67652030202D20312E39393911
:102BD000302C204C53423D302E3030303937363691
:102BE00000514D43204443206F66667365742C206A
:102BF0003133626974732C206D656173757265641D
:102C000020696E20444143204C5342277300496E93
:102C1000697469616C697A657320616E6420636FA1
:102C20006E6669677572657320746865204A4553DE
:102C300044206C696E6B2E0044756D70206F757446
:102C400020616C6C206F662074686520726567690E
:102C500073746572732E0047657473207468652001
:102C600074656D7065726174757265206F6620742D
:102C70006865204441432E00456E61626C65207496
:102C80006865206D697865722E203120746F20652B
:102C90006E61626C652E0053657420746865204E09
:102CA000434F206C6F7765722033322D62697473E5
:102CB0002072656769737465722C20777269746518
:102CC00020746F2075707065722033322D626974C4
:102CD0007320666972737421212A2A005365742057
:102CE000746865204E434F207570706572203332D2
:102CF0002D626974732072656769737465722E0042
:102D00005370656369667920776869636820696EC6
:102D10007465726E616C20444143206368616E6E1D
:102D2000656C3A2028302D332920412D442E005344
:102D30007065636966792077686963682063686194
:102D40006E6E656C20612C622C632C642C204F52BB
:102D500020626974206D61736B2E204D5553542091
:102D6000737065636966792066697273742E00E119
:102D70000C950C650C350C0A0CE00BB90B770B4B62
:102D80000B260B120BE10AB90A990E760E4B0E3484
:102D90000EF20DBF0D9A0D860D550D2D0D1010ED77
:102DA0000FC20FA00F5E0F390F250FF40ECC0EFFD0
:102DB0001028113F115C11551139120712D111B5AC
:102DC00011851165110814E913A01365134F133908
:102DD000130B13DF12BF129612631241162B147FCE
:102DE000155F152E150D15F014A81452144116FC7C
:102DF00015E515CE15BB1541162C16131641162CCC
:102E0000161316B8165516D716B8168216F71620CA
:102E1000173617E921611758174D17E9211A18DFDE
:102E200017AA178C176C17E9214E1B2F1BE61AC621
:102E30001A8B1A751A5F1A311A081AC1195F1921EB
:102E400019D418B41888185B18E921CB1B9A1B7188
:102E50001BE9211C1FDE1EBA1E791E5B1E281EFCEC
:102E60001DD41DA71D741D481D0B1DDE1C9F1C6B52
:102E70001C271CF71BE921BA21912170212A211A54
:102E800021F120B62073202A200520C51F671F28A6
:102E900022512268222F2D89227E222F2D85246601
:102EA000241D24FD23C223AC23962368233C231C2A
:102EB00023F322D322BA2292222F2D55251725E162
:102EC00024C824A8242F2DB2258D252F2D45290770
:102ED00029E328C6288B2850280B28DF27B7278A04
:102EE0002757272B27FE26C126872657261326E39A
:102EF000252F2D002DDC2C972C782C572C382C0EC0
:102F00002CE12B8C2B4F2B2F2B0F2BEA2AC72AAE11
:102F10002A922A622A202AFC29C2299029001124F7
:102F20001FBECFEFCDBFDFE5DEBF00E00CBF12E379
:102F3000A0E0B0E2E2E7F1E001E00BBF02C00790E1
:102F40000D92A037B107D9F72AE3A0E7B2E301C099
:102F50001D92AD3EB207E1F70E94EA750C94B7806E
:102F60000C940000CF93DF9300D01F92CDB7DEB753
:102F70002091E53A3091E63A2115310511F42DEE14
:102F80003AE3CE010196821B930B1F921F929F93EF
:102F90008F9386E196E29F938F930E946F7A0F90B2
:102FA0000F900F900F900F900F9080E02496CDBF60
:102FB000DEBFDF91CF9108958091A4229091A52248
:102FC000A091A622B091A722AC01BD0141505109A8
:102FD00061097109443651056105710558F4AC0168
:102FE000BD01405151096109710941355105610522
:102FF0007105F8F48BE296E29F938F930E946F7AAB
:103000008091A7228F938091A6228F938091A522F1
:103010008F938091A4228F9383E396E29F938F9363
:103020000E946F7A8DB79EB708968DBF9EBF81E0D4
:10303000089581369105A105B10540F081569109A9
:1030400091E001C0990F8A95EAF7892F8093F524C2
:1030500080E0089580912F2090913020A091312020
:10306000B0913220AC01BD01415051096109710993
:10307000443651056105710558F4AC01BD0140515C
:103080005109610971094135510561057105F8F46E
:103090008BE296E29F938F930E946F7A8091322009
:1030A0008F93809131208F93809130208F938091E6
:1030B0002F208F9383E396E29F938F930E946F7AE2
:1030C0008DB79EB708968DBF9EBF81E0089581366B
:1030D0009105A105B10540F08156910991E001C02B
:1030E000990F8A95EAF7892F8093F52480E0089557
:1030F0008091952090919620A0919720B091982052
:10310000AC01BD01415051096109710944365105B5
:103110006105710558F4AC01BD01405151096109C7
:1031200071094135510561057105F8F48BE296E2AC
:103130009F938F930E946F7A809198208F938091B4
:1031400097208F93809196208F93809195208F93D5
:1031500083E396E29F938F930E946F7A8DB79EB719
:1031600008968DBF9EBF81E0089581369105A10527
:10317000B10540F08156910991E001C0990F8A95FF
:10318000EAF7892F8093F5248091F5241F928F937D
:1031900083E496E29F938F930E946F7A0F900F9033
:1031A0000F900F9080E00895EEE3F2E283818F9319
:1031B00082818F9381818F9380818F938091F52479
:1031C0001F928F9382E596E29F938F930E946F7A6E
:1031D0008DB79EB708968DBF9EBF80E00895EDE243
:1031E000F2E283818F9382818F9381818F9380819B
:1031F0008F938091F5241F928F9387E696E29F9399
:103200008F930E946F7A8DB79EB708968DBF9EBF31
:1032100080E00895ECE1F2E283818F9382818F93C5
:1032200081818F9380818F938091F5241F928F935A
:103230008DE796E29F938F930E946F7A8DB79EB72A
:1032400008968DBF9EBF80E00895EBE0F2E2838197
:103250008F9382818F9381818F9380818F938091CF
:10326000F5241F928F9383E996E29F938F930E9498
:103270006F7A8DB79EB708968DBF9EBF80E0089588
:10328000EAEFF1E283818F9382818F9381818F9323
:1032900080818F938091F5241F928F9389EA96E223
:1032A0009F938F930E946F7A8DB79EB708968DBFBC
:1032B0009EBF80E00895E9EEF1E283818F938281E1
:1032C0008F9381818F9380818F938091F5241F92BA
:1032D0008F938EEB96E29F938F930E946F7A8DB7B8
:1032E0009EB708968DBF9EBF80E00895E6EBF1E2A1
:1032F00083818F9382818F9381818F9380818F933C
:103300008091F5241F928F9384ED96E29F938F9383
:103310000E946F7A8DB79EB708968DBF9EBF80E0E2
:103320000895E3E8F1E283818F9382818F93818115
:103330008F9380818F938091F5241F928F9385EED8
:1033400096E29F938F930E946F7A8DB79EB70896EF
:103350008DBF9EBF80E00895E2E7F1E283818F9305
:1033600082818F9381818F9380818F938091F524C7
:103370001F928F9385EF96E29F938F930E946F7AAF
:103380008DB79EB708968DBF9EBF80E00895E1E699
:10339000F1E283818F9382818F9381818F938081EA
:1033A0008F938091F5241F928F9384E097E29F93EF
:1033B0008F930E946F7A8DB79EB708968DBF9EBF80
:1033C00080E00895E0E5F1E283818F9382818F931D
:1033D00081818F9380818F938091F5241F928F93A9
:1033E00083E197E29F938F930E946F7A8DB79EB788
:1033F00008968DBF9EBF80E00895EEE2F1E28381E2
:103400008F9382818F9381818F9380818F9380911D
:10341000F5241F928F9382E297E29F938F930E94ED
:103420006F7A8DB79EB708968DBF9EBF80E00895D6
:103430000E94825B882341F08BE296E29F938F93F8
:103440000E946F7A0F900F9080E008950E94965925
:10345000882341F08BE296E29F938F930E946F7ACC
:103460000F900F9080E00895CF93DF93C5EAD1E2EB
:10347000688179818A819B810E940F578B818F930C
:103480008A818F9389818F9388818F938091F5248E
:103490001F928F9385E397E29F938F930E946F7A99
:1034A0008DB79EB708968DBF9EBF80E0DF91CF910C
:1034B0000895EF92FF920F931F93CF93DF93C0E095
:1034C000D0E00FE010E0EE24E394F12CC8010C2EC4
:1034D00002C0959587950A94E2F780FF0AC0C7015C
:1034E0000C2E01C0880F0A94EAF78093F5240E94FD
:1034F000C52F2196C430D10549F780E0DF91CF91E7
:103500001F910F91FF90EF9008950E94B159882369
:1035100041F08BE296E29F938F930E946F7A0F9017
:103520000F9080E008958091F5249FEF980F9F30D1
:1035300028F084E597E20E94877A06C060E772E38C
:103540000E947C2F8111F5CF8091F5249FEF980F79
:103550009F3028F084E597E20E94877A06C06CE9E4
:1035600072E30E947C2F8111F5CF80E0089561E025
:1035700070E00090732002C0660F771F0A94E2F794
:1035800040E080E792E30E94BB2E882341F08BE26B
:1035900096E29F938F930E946F7A0F900F90809185
:1035A00076208F93809175208F93809174208F93D4
:1035B000809173208F938091F5241F928F938BE5D8
:1035C00097E29F938F930E946F7A8DB79EB708966C
:1035D0008DBF9EBF80E0089561E070E000906220A2
:1035E00002C0660F771F0A94E2F741E080E792E39A
:1035F0000E94BB2E882341F08BE296E29F938F932B
:103600000E946F7A0F900F90809165208F93809128
:1036100064208F93809163208F93809162208F9399
:103620008091F5241F928F938BE597E29F938F9360
:103630000E946F7A8DB79EB708968DBF9EBF80E0BF
:1036400008959091FB208091F524923070F4815080
:103650008F3058F4913011F441E001C040E061E056
:1036600080E792E30E94BB2E08C08BE296E29F9314
:103670008F930E946F7A0F900F908091FE208F930E
:103680008091FD208F938091FC208F938091FB206F
:103690008F938091F5241F928F9388E797E29F93F1
:1036A0008F930E946F7A8DB79EB708968DBF9EBF8D
:1036B00080E00895CF938FE08093F52482E792E332
:1036C0000E948146C82F88E992E30E944F48C80FA4
:1036D0008AE992E30E94995CC80F86E992E30E940E
:1036E000312AC80F40E064E080E792E30E94BB2EDD
:1036F000C80F40E068E080E792E30E94BB2EC80F4D
:1037000040E060E480E792E30E94BB2EC80F6AE3CA
:103710007FE880E090E00E94184540E060E880E7A4
:1037200092E30E94BB2EC80F6AE37FE880E090E03E
:103730000E94184540E060E280E792E30E94BB2EC1
:103740008C0F41F08BE296E29F938F930E946F7AE9
:103750000F900F9080E0CF9108950E94376380E032
:103760000895CF938091F52481508F3048F08BE2FB
:1037700096E29F938F930E946F7A0F900F901BC0D9
:1037800082E792E30E946F46C82F88E992E30E9485
:103790003F48C80F8AE992E30E947E5DC80F86E920
:1037A00092E30E94EF29C80F60E070E0CB010E9415
:1037B0000F578C0FE1F680E0CF91089586E992E3F0
:1037C0000E94EF2960E070E0CB010E940F578091CA
:1037D000F5241F928F9380E997E29F938F930E9425
:1037E0006F7A0F900F900F900F9080E00895CF9315
:1037F0008091F52481508F3048F08BE296E29F93C0
:103800008F930E946F7A0F900F90B3C041E060E8F1
:103810008CE992E30E94BB2EC82F40E060E48CE963
:1038200092E30E94BB2EC80F41E060E28CE992E374
:103830000E94BB2EC80F41E060E18CE992E30E9438
:10384000BB2EC80F41E064E08CE992E30E94BB2EDE
:10385000C80F40E061E080E792E30E94BB2EC80FF2
:1038600041E062E080E792E30E94BB2EC80F41E096
:1038700064E080E792E30E94BB2EC80F41E068E05D
:1038800080E792E30E94BB2EC80F41E060E180E731
:1038900092E30E94BB2EC80F41E060E280E792E312
:1038A0000E94BB2EC80F6AE37FE880E090E00E9490
:1038B000184541E060E880E792E30E94BB2EC80F04
:1038C0006AE37FE880E090E00E94184541E060E410
:1038D00080E792E30E94BB2EC80F6AE37FE880E096
:1038E00090E00E9418458AE992E30E94196061E025
:1038F0008AE992E30E945A3461E08AE992E30E94E5
:10390000093482E792E30E948346C80F88E992E374
:103910000E945148C80F8AE992E30E94535FC80F82
:1039200086E992E30E94EF29C80F60E070E0CB01C6
:103930000E940F57C80F41E060E88CE992E30E94B3
:10394000BB2EC80F40E060E48CE992E30E94BB2EDE
:10395000C80F41E060E28CE992E30E94BB2EC80FE1
:1039600041E060E18CE992E30E94BB2E8C0F09F0EC
:1039700044CF80E0CF910895FF920F931F93CF9390
:10398000DF9300D01F92CDB7DEB78FE0F82EF09214
:10399000F52440E061E080E792E30E94EC2D40E0F6
:1039A00062E080E792E30E94EC2D40E064E080E773
:1039B00092E30E94EC2D40E068E080E792E30E94F1
:1039C000EC2D40E060E180E792E30E94EC2D40E0C6
:1039D00060E280E792E30E94EC2D40E060E480E743
:1039E00092E30E94EC2D40E060E880E792E30E94C1
:1039F000EC2D40E061E080E792E30E94BB2E40E0C6
:103A000062E080E792E30E94BB2E40E064E080E742
:103A100092E30E94BB2E40E068E080E792E30E94C0
:103A2000BB2E40E060E180E792E30E94BB2E40E0C5
:103A300060E280E792E30E94BB2E40E060E480E712
:103A400092E30E94BB2E40E060E880E792E30E9490
:103A5000BB2E85E08093F52441E061E080E792E3AE
:103A60000E94BB2E41E064E080E792E30E94BB2EFF
:103A700041E060E180E792E30E94BB2E41E060E418
:103A800080E792E30E94BB2E8AE08093F52441E018
:103A900062E080E792E30E94BB2E41E068E080E7AD
:103AA00092E30E94BB2E41E060E280E792E30E9435
:103AB000BB2E41E060E880E792E30E94BB2E81E0EC
:103AC0008093F5248E010F5F1F4F9E012E5F3F4FA5
:103AD000AE014D5F5F4FBE016C5F7F4F80E792E3A9
:103AE0000E94D72B89811F928F938A811F928F9377
:103AF0008B811F928F938C811F928F938DE997E218
:103B00009F938F930E946F7A82E08093F5249E01A9
:103B10002E5F3F4FAE014D5F5F4FBE016C5F7F4F29
:103B200080E792E30E94D72B89811F928F938A812D
:103B30001F928F938B811F928F938C811F928F93F3
:103B40008BEC97E29F938F930E946F7A84E080932F
:103B5000F5249E012E5F3F4FAE014D5F5F4FBE01CA
:103B60006C5F7F4F80E792E30E94D72B89811F9281
:103B70008F938A811F928F938B811F928F938C8159
:103B80001F928F9389EF97E29F938F930E946F7A92
:103B900088E08093F5249E012E5F3F4FAE014D5F7C
:103BA0005F4FBE016C5F7F4F80E792E30E94D72B8F
:103BB00089811F928F938A811F928F938B811F928D
:103BC0008F938C811F928F9387E298E29F938F93BC
:103BD0000E946F7AF092F524CDBFDEBF1F92FF9254
:103BE00085E598E29F938F930E946F7A0F900F90D4
:103BF0000F900F9080E02496CDBFDEBFDF91CF9174
:103C00001F910F91FF9008950F931F93CF93DF9310
:103C10001F921F92CDB7DEB78BE698E20E94877A9B
:103C20008BEA98E20E94877A40E560E088E992E3B7
:103C30000E943847AE014F5F5F4F60E088E992E332
:103C40000E94E8468A818F9389818F930FE718E25B
:103C50001F930F930E946F7A40E561E088E992E339
:103C60000E943847AE014F5F5F4F61E088E992E301
:103C70000E94E8468A818F9389818F931F930F93C7
:103C80000E946F7A8AE090E00E94817ACDBFDEBF09
:103C900080E00F900F90DF91CF911F910F910895C9
:103CA0000F931F93CF93DF9300D0CDB7DEB782E998
:103CB00098E20E94877A89EA98E20E94877ABE0198
:103CC0006D5F7F4F8AE992E30E94275C8B811F9290
:103CD0008F9380EC98E29F938F930E946F7ABE013E
:103CE0006F5F7F4F8AE992E30E94663B8A818F93E0
:103CF00089818F9383ED98E29F938F930E946F7ACF
:103D000062E08AE992E30E94695CBE016D5F7F4FC9
:103D10008AE992E30E94485C8B811F928F9306EEA2
:103D200018E21F930F930E946F7A60E08AE992E392
:103D30000E94695CBE016D5F7F4F8AE992E30E9439
:103D4000485C8B811F928F931F930F930E946F7A11
:103D50008AE090E00E94817ACDBFDEBF80E02396AA
:103D6000CDBFDEBFDF91CF911F910F910895CF930B
:103D7000DF931F921F92CDB7DEB719821A82BE0160
:103D80006F5F7F4F88E992E30E940C48882341F0DF
:103D900088EF98E29F938F930E946F7A0F900F9015
:103DA00080E099E20E94877A89811F928F9388E14F
:103DB00099E29F938F930E946F7A8A811F928F93CB
:103DC00086E299E29F938F930E946F7A8091F52407
:103DD0001F928F9384E399E29F938F930E946F7A4F
:103DE000CDBFDEBF80E00F900F90DF91CF9108959F
:103DF000CF92DF92EF92FF920F931F93CF93DF93B7
:103E00001F92CDB7DEB78091F52481508F3008F036
:103E1000B6C000E010E085E4C82E89E2D82E9EE40A
:103E2000E92E99E2F92E802F837051F41F930F939E
:103E3000DF92CF920E946F7A0F900F900F900F90A9
:103E4000AE014F5F5F4FB8018AE992E30E94D75CF1
:103E500089811F928F93FF92EF920E946F7A0F5F7A
:103E60001F4F0F900F900F900F9001371105D9F64B
:103E70008AE090E00E94817A8091F5241F928F93CE
:103E800086E599E29F938F930E946F7A86E699E286
:103E90000E94877ABE016F5F7F4F8AE992E30E949A
:103EA000C6330F900F900F900F908981811103C03E
:103EB00084E799E202C082E999E20E94877ABE0112
:103EC0006F5F7F4F8AE992E30E9488348981811174
:103ED00003C08CEA99E202C085ED99E20E94877ADC
:103EE000BE016F5F7F4F8AE992E30E94AA34898105
:103EF000811103C08AEF99E202C089E19AE20E942F
:103F0000877ABE016F5F7F4F8AE992E30E94CD34CA
:103F10008981811103C084E39AE202C082E69AE2B9
:103F20000E94877ABE016F5F7F4F8AE992E30E9409
:103F300037348981811103C08CE79AE202C08FEA8D
:103F40009AE20E94877ABE016F5F7F4F8AE992E30F
:103F50000E94F0348981811103C08EED9AE202C083
:103F600083E09BE20E94877A80E00F90DF91CF91FF
:103F70001F910F91FF90EF90DF90CF9008958BE20B
:103F800096E29F938F930E946F7A0F900F9074CF59
:103F9000CF93DF93C8EDD1E2488159816A817B815B
:103FA00086E992E30E94F1268B818F938A818F9319
:103FB00089818F9388818F938091F5241F928F93AD
:103FC00084E29BE29F938F930E946F7A8DB79EB796
:103FD00008968DBF9EBF80E0DF91CF9108956091DC
:103FE000C7217091C8218091C9219091CA21603860
:103FF00071058105910528F086E39BE20E94877A8E
:104000001FC082E792E30E9448468091CA218F93A5
:104010008091C9218F938091C8218F938091C7216E
:104020008F938091F5241F928F938CE39BE29F9353
:104030008F930E946F7A8DB79EB708968DBF9EBFF3
:1040400080E008956091502186E992E30E94EC4C53
:1040500080E008952F923F924F925F926F927F92ED
:104060008F929F92AF92BF92CF92DF92EF92FF9288
:104070000F931F93CF93DF93CDB7DEB72997CDBFB3
:10408000DEBF8AE090E00E94817A1F921F928FE447
:104090009BE29F938F930E946F7A0F900F900F90E7
:1040A0000F9018861986912C712C19821A82612C16
:1040B0001B821C821D821E821F8228EC222E312C24
:1040C000412C512CE7E0F0E0CC24C394AC2DB0E0BF
:1040D000A20191010E94FB77DC01CB0188549D4035
:1040E000A109B10989349D40A105B10560F080E4C2
:1040F000C81206C082E59BE20E94877A81E08CC0EC
:10410000CC0C319719F786E992E30E94EF29A8EECB
:10411000B3E0A20191010E94FB770E940F57C201F8
:10412000B10125E030E040E050E00E94D177812CE1
:10413000A12C790101E410E020E43BE14FE553E1DB
:1041400060E086E992E30E94CE4A68857985892DF0
:10415000972D28EA36E140E050E00E94D1776901CE
:104160007A018C819D81AE81BF8182179307A4075C
:10417000B50741F188EAA82E96E1B92EC12CD12CC1
:10418000E12CF12C00E010E028853985492D572DD0
:1041900069817A81862D9B810E948C78C22ED32ED4
:1041A000E42EF52E5F934F933F932F93A8E8BBE245
:1041B000BF93AF930E946F7A0F900F900F900F9064
:1041C0000F900F90A895FFEF2F1A3F0A4F0A5F0A32
:1041D00028853985492D572D69817A81862D9B81C6
:1041E000A4E60E940B7928873987942E752E69835F
:1041F0007A83682E9B8321E7221627E13206410449
:10420000510429F0CC82DD82EE82FF825BCF8AE00E
:1042100090E00E94817A80E02996CDBFDEBFDF91D9
:10422000CF911F910F91FF90EF90DF90CF90BF90B3
:10423000AF909F908F907F906F905F904F903F9046
:104240002F9008952F923F924F925F926F927F929C
:104250008F929F92AF92BF92CF92DF92EF92FF9296
:104260000F931F93CF93DF9300D000D0CDB7DEB76D
:10427000C0900C21D0900D21E0900E21F0900F21E4
:1042800020912E2130912F214091302150913121C8
:104290008090502190905121A0905221B0905321B4
:1042A000809161218D83909162219E831091722172
:1042B0000091B6213090E921E091FA21E983209024
:1042C0000B22F0911C22FA8380912D228B839091F6
:1042D0003E229C83E1E0CE16E5E8DE06EFECEE063A
:1042E000F10428F086E39BE20E94877A54C0A8EE8E
:1042F000B3E00E94FB772B013C01C701B6010E948D
:104300000F5741E064E08CE992E30E94BB2E61E22A
:1043100070E080E090E00E941845F981F130E1F40E
:104320003F920F931F938E818F939D819F9392E075
:10433000A92EB12CC12CD12CE12CF12C8701A30189
:10434000920161E086E992E30E9469490F900F9023
:104350000F900F900F901FC0EC81EF93FB81FF93A4
:104360008A818F932F923F920F931F939E819F93E9
:10437000ED81EF9382E0A82EB12CC12CD12CE12C41
:10438000F12C8701A301920161E086E992E30E948A
:10439000FE4ACDBFDEBF80E02696CDBFDEBFDF91F7
:1043A000CF911F910F91FF90EF90DF90CF90BF9032
:1043B000AF909F908F907F906F905F904F903F90C5
:1043C0002F900895CF93DF93E0918932F0918A3254
:1043D000A0918B32B0918C3280918F32909190323B
:1043E00018962D913C9119978217930718F51696F8
:1043F0004D915C9117979C012F5F3F4F20938F3217
:10440000309390322781EA01C80FD91F2883209169
:104410008F323091903218968D919C911997281770
:10442000390718F482E083830AC087E083831092FF
:10443000933205C083E0838389EF80939332DF91C9
:10444000CF910895E0918932F0918A32A0918B3218
:10445000B0918C3280918D3290918E3214962D9144
:104460003C9115978217930764F49C012F5F3F4F8F
:1044700020938D3230938E32A80FB91F11968C91F4
:1044800022C080918F329091903218962D913C915C
:10449000199782179307C8F420919132222321F0B3
:1044A000868181608683089516962D913C91179799
:1044B000AC014F5F5F4F40938F3250939032D901E0
:1044C000A80FB91F8C918783089583E0838310928E
:1044D00093320895FC019481937081E0913009F04A
:1044E00080E00895809193328038E1F380918932A1
:1044F00090918A320E946A22811101C0F7CF809187
:1045000093321092923208958FBF08958FB7F89426
:10451000089590919232992319F081110DC0FFCF27
:104520000E94862291E09093923290E89093933289
:104530000E94842280E0089586EF089560E078E488
:1045400088EE91E008950C949E220C94A3220C9482
:10455000A5220C94A722DC01ED91FC9111974863F0
:104560004087ED91FC91660F63870895FC0160839D
:1045700071834283538324833583DC01AA5BBF4F5D
:104580001C9211961C9211961C9211961C92E25B41
:10459000FF4F10820895FF920F931F93CF93DF93E5
:1045A000009771F16115710559F1F42EEB018C0141
:1045B0008A850E948922811124C000938932109338
:1045C0008A32C0938B32D0938C3210928D321092FB
:1045D0008E3210928F3210929032F0929132888106
:1045E000880F2C813D81232B11F4F1108160F8019B
:1045F0008683DF91CF911F910F91FF900C947222CF
:1046000088EFDF91CF911F910F91FF9008950C9447
:10461000CB22DF92EF92FF920F931F93CF93DF9302
:104620001F92CDB7DEB78C01DC011296ED90FC90A5
:10463000139710927F3210928232109283326093DD
:10464000843270938532842F90E0809386329093E9
:10465000873210928832D12CF8018085D81630F537
:10466000D8011696ED91FC911797608170E08D2D21
:1046700090E00D2C02C0759567950A94E2F760FFF3
:1046800017C01496ED91FC911597E80FF91F8081E2
:1046900080937E32422F6EE772E3C70129830E9426
:1046A00007232981811106C0222311F080E003C075
:1046B000D394D2CF81E00F90DF91CF911F910F91D2
:1046C000FF90EF90DF900895CF92DF92EF92FF92EC
:1046D0000F931F93CF93DF936C017B018A01FB0142
:1046E000C1818FEF8C0F8F3020F081E0F801808343
:1046F0004EC0FB012481822F6C2F0E94C57791113F
:10470000F4CF211102C0C0E019C0D0E0F7018481CC
:104710006C2F0E94C577D817B0F7F70162817381BB
:10472000DC9F600D711D112420E04C2FC6010E94FA
:104730000923811102C0DF5FE9CFC1E0F801D18117
:10474000D03110F184818823F9F0DF506D2F0E9461
:10475000C5779111CACFF12CF80184816D2F0E9489
:10476000C577F81688F4F80162817381FD9E600DAB
:10477000711D112421E04D2FC6010E9409238111D2
:1047800002C0F394E9CFC1E0F801C0838C2FDF9120
:10479000CF911F910F91FF90EF90DF90CF900895F0
:1047A000FC01DB0114968C91858388EB818381E089
:1047B0008483E9E8F2E311861286E0EAF0E0828180
:1047C00082608283789480E00895E0918932F0914C
:1047D0008A32848183FF06C08860848383E0838378
:1047E00086EF0EC0982F947121F083E083838FEFC2
:1047F00007C086FD0C94222287FD0C94E2218BEFEA
:104800008093933208951F920F920FB60F92112446
:104810000BB60F922F933F934F935F936F937F93BA
:104820008F939F93AF93BF93EF93FF930E94E523E2
:10483000FF91EF91BF91AF919F918F917F916F9178
:104840005F914F913F912F910F900BBE0F900FBE34
:104850000F901F9018951F920F920FB60F92112470
:104860000BB60F922F933F934F935F936F937F936A
:104870008F939F93AF93BF93EF93FF930E94E52392
:10488000FF91EF91BF91AF919F918F917F916F9128
:104890005F914F913F912F910F900BBE0F900FBEE4
:1048A0000F901F901895CF93DF93009771F1EA0155
:1048B000A0917C32B0917D321C9221E011962C9314
:1048C00011971296ED91FC911397608314962C9397
:1048D000149740917A3250917B3230E1FA01318362
:1048E0002483FC0180819181FC0120813181BD0103
:1048F000F9011995E0917A32F0917B320280F381CF
:10490000E02D8081888380E001C081E0DF91CF913C
:104910000895AF92BF92CF92DF92EF92FF920F93E2
:104920001F93CF93DF931F92CDB7DEB77C0119821F
:10493000AE014F5F5F4F60E00E94532489818A3A45
:1049400049F080E99BE29F938F930E946F7A0F90CA
:104950000F909CC0AE014F5F5F4F61E0C7010E94A6
:1049600053248981813029F0823031F48AEC9BE232
:1049700005C081EC9BE202C080ED9BE29F938F9388
:104980000E946F7A0F900F90AE014F5F5F4F62E011
:10499000C7010E9453249981933099F038F49130E3
:1049A00069F09230B9F484EE9BE216C0953079F04C
:1049B00058F0963079F485EF9BE20EC08EED9BE2C5
:1049C0000BC088EE9BE208C08CEE9BE205C081EF35
:1049D0009BE202C080ED9BE29F938F930E946F7ACF
:1049E0000F900F90AE014F5F5F4F63E0C7010E94D1
:1049F000532489811F928F938AEF9BE29F938F9319
:104A00000E946F7A84E09CE29F938F930E946F7A5A
:104A10000F900F900F900F900F900F90C12CD12CF2
:104A200000E110E08EE0A82E8CE2B82EAE014F5FC0
:104A30005F4F602FC7010E94532489819FEF980F19
:104A40009E3F88F49FEFC91AD90A1F928F931F9334
:104A50000F93BF92AF920E946F7A0F900F900F90BA
:104A60000F900F900F900F5F1F4F00361105F1F65A
:104A7000CD2841F480E29CE29F938F930E946F7A4D
:104A80000F900F908AE090E00E94817A0F90DF9162
:104A9000CF911F910F91FF90EF90DF90CF90BF903B
:104AA000AF900895009769F040937A3250937B322B
:104AB00020937C3230937D32FC016083718380E0EF
:104AC000089581E00895FB01108283E1818384E0F1
:104AD0008483A281B3811C92A281B38111961C921E
:104AE000A281B38112961C920280F381E02D438350
:104AF0000895EF92FF920F931F93FC01108284E0C0
:104B000081838483A281B3811C93A281B381119696
:104B10000C93A281B3811296FC920280F381E02D66
:104B20008E2D807F4F70482B4383FB0114821F9191
:104B30000F91FF90EF9008958823A9F020E030E0D6
:104B400090E0482F50E0BA01022E02C0759567959B
:104B50000A94E2F760FD922F2F5F3F4F2730310517
:104B600091F7892F089583E0089590E080319105B1
:104B700088F5FC018827EC50FF4F8F4F0C94F3779A
:104B800086E792E0089582EE94E0089588E196E049
:104B9000089588E597E008958EE898E0089584ECFC
:104BA00099E008958AEF9AE008958AE39CE00895D9
:104BB00080E79DE0089586EA9EE008958CED9FE0F1
:104BC00008958CE191E1089582E592E1089588E8E5
:104BD00093E108958CEA93E0089586E391E00895C7
:104BE0000F931F93CF93DF93009709F4F0C06115E3
:104BF000710509F4EEC0EB018C0160E00E94CF4D1D
:104C000081110CC08091763290917732A0917832E8
:104C1000B091793288839983AA83BB8361E0C8010C
:104C20000E94CF4D81110CC08091763290917732E5
:104C3000A0917832B09179328C839D83AE83BF830B
:104C400062E0C8010E94CF4D81110CC08091763284
:104C500090917732A0917832B09179328887998794
:104C6000AA87BB8763E0C8010E94CF4D81110CC0A9
:104C70008091763290917732A0917832B0917932EA
:104C80008C879D87AE87BF8764E0C8010E94CF4DA7
:104C900081110CC08091763290917732A091783258
:104CA000B0917932888B998BAA8BBB8B65E0C80158
:104CB0000E94CF4D81110CC0809176329091773255
:104CC000A0917832B09179328C8B9D8BAE8BBF8B5B
:104CD00066E0C8010E94CF4D81110CC080917632F0
:104CE00090917732A0917832B0917932888F998FF4
:104CF000AA8FBB8F67E0C8010E94CF4D81110CC005
:104D00008091763290917732A0917832B091793259
:104D10008C8F9D8FAE8FBF8F68E0C8010E94CF4DF2
:104D200081110CC08091763290917732A0917832C7
:104D3000B091793288A399A3AAA3BBA369E0C80163
:104D40000E94CF4D81110CC08091763290917732C4
:104D5000A0917832B09179328CA39DA3AEA3BFA36A
:104D60006AE0C8010E94CF4D81110CC0809176325B
:104D700090917732A0917832B091793288A799A733
:104D8000AAA7BBA76BE0C8010E94CF4D81110CC040
:104D90008091763290917732A0917832B0917932C9
:104DA0008CA79DA7AEA7BFA76CE0C8010E94CF4DFE
:104DB000811111C0409176325091773260917832F2
:104DC0007091793248AB59AB6AAB7BAB05C081E0DF
:104DD00003C083E001C080E0DF91CF911F910F916C
:104DE00008958F929F92AF92BF92CF92DF92EF92EF
:104DF000FF920F934A015B0120EF8222642F6F70B4
:104E0000CC24CA94DC2C760100E0A50194010E9418
:104E1000F84D80E00F91FF90EF90DF90CF90BF9022
:104E2000AF909F908F900895CF92DF92EF92FF9274
:104E30000F93009729F14115510521E06207710593
:104E400050F4411551056105710549F441E050E008
:104E500060E070E004C04FEF5FEF60E070E0BA0127
:104E6000552744279A01AB0120613460CC24CA94B1
:104E7000DC2C760100E06CE00E94F84D80E001C07F
:104E800081E00F91FF90EF90DF90CF9008950F9306
:104E90001F93CF93DF93DC01ED91FC911197208557
:104EA000246020878C010A5B1F4FF8012081ED915F
:104EB000FC91203218F5EC018485D8019C91FE010B
:104EC000E90FF11D8683EA81FB811995F801808144
:104ED0008F5F8083085F1F4FD8018C91E881F98133
:104EE000882349F082E0818766E0CE010E94016A52
:104EF000F80110820CC083E0818709C026E0218779
:104F000062E0DF91CF911F910F910C94016ADF91C4
:104F1000CF911F910F910895CF93DF93EC01E8811A
:104F2000F98180858B7F8087E881F9818285806423
:104F30008287EC81FD81199561E0CE01DF91CF91EF
:104F40000C94016ACF93DF93EC01C25BDF4F2881A1
:104F5000DC01ED91FC91222339F022E0218766E00B
:104F60000E94016A188215C0DC01A85BBF4F21E0D6
:104F70002C9311961C9220852B7F2087FC01EA5BE5
:104F8000FF4F108231961082DC01ED91FC9183E09D
:104F90008187DF91CF910895EF92FF920F931F9336
:104FA000CF93DF931F92CDB7DEB78C017C0187E4EE
:104FB000E80EF11CD7018C91882351F0D801ED91B6
:104FC000FC91828584FF04C082E0818761E023C078
:104FD000F70180818032C8F4F801E65BFF4FBE0123
:104FE0006F5F7F4F808191810E94633DD801ED9179
:104FF000FC91119789818487F70180818F5F80837D
:10500000ED91FC9183E0818709C0D801ED91FC917D
:1050100082E0818762E0C8010E94016A0F90DF91FF
:10502000CF911F910F91FF90EF900895DC01ED91CA
:10503000FC91228521FD0C94CC270C944727DC01A0
:10504000ED91FC91228522FF09C0FC01EA5BFF4F34
:10505000108231961082329624E00AC023FF0CC0E1
:10506000FC01EA5BFF4F108231961082329623E0FA
:10507000208331971082089526FF05C020FD0C94EF
:10508000A2270C948C2727FD0C94162865E00C941D
:10509000016ACF93DF931F92CDB7DEB76983FC011E
:1050A000E65BFF4FBE016F5F7F4F808191810E9461
:1050B000213D91E089270F90DF91CF9108950097CE
:1050C00009F4C6C0803C910511F460E105C081156A
:1050D00024E0920719F464E080E0B8C0803821E051
:1050E000920711F462E0F8CF811521E0920711F4E4
:1050F00061E0F2CF803823E0920711F461E00BC049
:10510000803923E0920711F461E012C0811522E09A
:10511000920719F462E081E099C0803422E092079E
:1051200011F462E005C0803223E0920719F464E0D4
:1051300082E08CC0811528E0920711F461E07FC005
:10514000811529E0920711F461E06CC081152AE015
:10515000920711F461E079C081152BE0920711F4F8
:1051600061E053C0803428E0920711F462E067C028
:10517000803429E0920711F462E054C080342AE0C0
:10518000920711F462E061C0803928E0920711F4BF
:1051900064E055C0803929E0920711F464E042C010
:1051A00080392AE0920711F464E04FC080392BE087
:1051B000920711F464E029C0803C28E0920711F4C2
:1051C00068E03DC0803C29E0920711F468E02AC005
:1051D000803C2AE0920711F468E037C0803A28E06A
:1051E000920711F460E12BC0803A29E0920711F494
:1051F00060E118C0803A2AE0920711F460E125C00E
:10520000803A2BE0920719F460E186E01FC0803BF2
:1052100028E0920711F460E212C0803B29E0920777
:1052200019F460E284E012C0803B2AE0920711F496
:1052300060E20BC0803824E0920719F460E483E058
:1052400005C0803A944021F460E485E00C94A13CD0
:1052500008956F927F928F929F92AF92BF92CF925A
:10526000EF920F931F93CF93DF935C014B01EA0101
:1052700039010E94A922F4012081318142815381A8
:10528000220F331F441F551F0E94D177DA01C90135
:105290000597A109B109F40184839583A683B78397
:1052A000C5010E945F289801A301B501CE010E94AB
:1052B000B6224C2D6E2DCE01DF91CF911F910F9113
:1052C000EF90CF90BF90AF909F908F907F906F9016
:1052D0000C94AB22CF92DF92EF92FF920F931F9329
:1052E000CF93DF938C01EB010E94A922C880D98063
:1052F000EA80FB80A7019601220F331F441F551F30
:105300000E94D177DA01C9010597A109B1098C83FF
:105310009D83AE83BF83C8010E945F28BE01C80180
:105320000E94D023082E000C990BDF91CF911F9182
:105330000F91FF90EF90DF90CF900895BF92CF92A2
:10534000DF92EF92FF920F931F93CF93DF93662329
:10535000F9F0D62EEC01F12CF8E3BF2E888199816B
:10536000009791F149895A89BE016C5F7F4F4115C1
:10537000510581F4EA81FB81B08AEA81FB81B18A1F
:10538000888199810E946A29F3946896FD10E6CF7E
:1053900080E01BC00D891E892B893C89E0ECCE2E54
:1053A000EF880E942929E989FA898F859889E65B27
:1053B000FF4F80839183E989FA898D859E85E45B1F
:1053C000FF4F80839183E0CF8F2DDF91CF911F918D
:1053D0000F91FF90EF90DF90CF90BF9008958F9244
:1053E000AF92CF92EF920F931F93CF93DF930097DB
:1053F00031F1EC011F9281E08F938F938F9388247A
:105400008394AA24A39482E0C82EEE24E39401E0BE
:1054100010E020E040E060E0CE010E94A96F66E06D
:1054200070E0CE010E94977260E070E0CE010E94B1
:1054300097720F900F900F900F9080E001C081E065
:10544000DF91CF911F910F91EF90CF90AF908F9000
:105450000895009721F00E94EF2980E0089581E0EF
:1054600008950C94292A8F92AF92CF92EF92FF92D7
:105470000F931F93009799F0812C23E0A22ECC2448
:10548000C39430E6E32EF12C01E010E020E438E78D
:105490004DE751E060E00E94CE4A80E001C081E02B
:1054A0001F910F91FF90EF90CF90AF908F90089544
:1054B00010929E3210929F3280E008958091E923ED
:1054C0009091EA2320919E3230919F32821B930B60
:1054D000019680939E3290939F3280E00895809150
:1054E000712490917224A0917324B0917424AC0122
:1054F000BD014150510961097109443651056105E9
:10550000710558F4AC01BD0140515109610971099F
:105510004135510561057105F8F48BE296E29F93E0
:105520008F930E946F7A809174248F93809173245B
:105530008F93809172248F93809171248F9383E352
:1055400096E29F938F930E946F7A8DB79EB70896CD
:105550008DBF9EBF81E0089581369105A105B105FB
:1055600040F08156910991E001C0990F8A95EAF7C0
:10557000892F8093F5248091F5241F928F9383E4E3
:1055800096E29F938F930E946F7A0F900F900F90E7
:105590000F9080E00895809193001F928F9387EF82
:1055A00090E39F938F930E946F7A0F900F900F90CC
:1055B0000F9080E0089580919F328F9380919E326A
:1055C0008F9385E29CE29F938F930E946F7A8091E4
:1055D0009E3290919F32019680939E3290939F329B
:1055E0000F900F900F900F9080E008958091C72347
:1055F0009091C823A091C923B091CA23AC01BD01E9
:10560000415051096109710944365105610571051F
:1056100058F4AC01BD01405151096109710941358E
:1056200051056105710550F486E39BE29F938F93CA
:105630000E946F7A0F900F9081E008958136910556
:10564000A105B10540F08156910991E001C0990F83
:105650008A95EAF7892F8093F52480E00895809158
:10566000B9231F928F9389E29CE29F938F930E94AC
:105670006F7A8091B8231F928F9383E49CE29F936B
:105680008F930E946F7A8091A3239091A423A0917D
:10569000A523B091A6232DB73EB7285F3F4F2DBF5E
:1056A0003EBF81309105A105B10529F485E08093C5
:1056B000B92381E008C00297A105B10531F486E065
:1056C0008093B92382E08093B8238091B9231F92FD
:1056D0008F938DE59CE29F938F930E946F7A8091C8
:1056E000B8231F928F9383E79CE29F938F930E942E
:1056F0006F7A8DB79EB708968DBF9EBF80E00895E4
:105700000E94495B80E008950E94265B80E0089536
:105710000E94795680E008950F931F93CF93DF93F3
:10572000C0919223CB30D8F481E08093A606D0E0DC
:10573000CC0FDD1F10E001E0812F90E08C179D075A
:1057400054F465E176E185E090E00E94184500930D
:10575000A7061F5FF1CF81E08093A60608C08BE209
:1057600096E29F938F930E946F7A0F900F901F92F3
:1057700088E28F93809195238F93809194238F93C8
:10578000809193238F93809192238F9389E89CE259
:105790009F938F930E946F7A8DB79EB708968DBFA7
:1057A0009EBF80E0DF91CF911F910F9108958F925E
:1057B0009F92AF92BF92CF92DF92EF92FF920F93A0
:1057C0001F93CF93DF93009709F4BBC06115710558
:1057D00009F4B9C04115510509F4B5C021153105C9
:1057E00009F4B1C00115110509F4ADC069014A0100
:1057F0005B017C01A091A232B091A3321C92C1E066
:105800001196CC9311971296ED91FC91139783E02A
:1058100080831496CC9314974091A0325091A1327A
:10582000D0E1FA01D183C483F70180819181FC0129
:1058300020813181BD01F90119954091A03250912B
:10584000A132DA011296ED91FC9113978081F40157
:105850008083A091A232B091A3321C921196CC9376
:1058600011971296ED91FC91139782E08083149624
:10587000CC931497FA01D183C483F701808191817D
:10588000FC0120813181BD01F90119954091A032BF
:105890005091A132DA011296ED91FC91139780811B
:1058A000F5018083A091A232B091A3321C9211968F
:1058B000CC9311971296ED91FC9113971082149648
:1058C000CC931497FA01D183C483F701808191812D
:1058D000FC0120813181BD01F90119954091A0326F
:1058E0005091A132DA011296ED91FC9113978081CB
:1058F000F6018083A091A232B091A3321C9211963E
:10590000CC9311971296ED91FC911397C083149646
:10591000CC931497FA01D183C483E70188819981DC
:10592000EC01E881F981BD011995E091A032F09177
:10593000A1320280F381E02D8081F801808380E034
:1059400003C081E001C082E0DF91CF911F910F91F0
:10595000FF90EF90DF90CF90BF90AF909F908F908F
:105960000895CF93DF93009759F1EC01A091A232F3
:10597000B091A3321C9221E011962C9311971296AC
:10598000ED91FC91139723E020831296ED91FC9109
:1059900013972FEF218322E014962C9314974091B4
:1059A000A0325091A13220E1FA0121831482888132
:1059B0009981EC01E881F981BD01199580E001C070
:1059C00081E0DF91CF9108950F931F93CF93DF93E1
:1059D0000097A1F1EA01062FA091A232B091A33263
:1059E0001C9211E011961C9311971296ED91FC9167
:1059F000139723E0208314961C9314974091A032B0
:105A00005091A13220E1FA0121831483FC018081AD
:105A10009181FC0120813181BD01F9011995E0914D
:105A2000A032F091A132A281B3818C91602F6823C2
:105A300011F0188301C01882808101C081E0DF91DC
:105A4000CF911F910F9108950F931F93CF93DF93E1
:105A50000097B9F1EA01062FBC01A091A232B091E2
:105A6000A3321C9211E011961C93119712968D91FE
:105A70009C91139722E0FC01208314961C931497A9
:105A80004091A0325091A13280E1FA0181831483C8
:105A9000FB0180819181FC0120813181BD01F901EF
:105AA0001995E091A032F091A1320280F381E02DAE
:105AB0009081802F892319F0188380E003C0188219
:105AC00001C081E0DF91CF911F910F9108950F9355
:105AD0001F93CF93DF930097B9F18A01D62F9C01D2
