:100000000C940D160C942E160C942E160C942E1681
:100010000C942E160C942E160C942E160C942E1650
:100020000C942E160C942E160C942E160C942E1640
:100030000C942E160C94211C0C942E160C942E1637
:100040000C942E160C942E160C942E160C942E1620
:100050000C942E160C942E160C942E160C942E1610
:100060000C942E160C94348B0C942E160C940A8B34
:100070000C942E160C942E160C942E160C942E16F0
:100080000C942E160C942E160C942E160C942E16E0
:100090000C942E160C942E160C942E160C942E16D0
:1000A0000C942E160C942E160C942E160C942E16C0
:1000B0000C942E160C942E160C94501C0C942E1688
:1000C0000C942E160C942E160C942E160C942E16A0
:1000D0000C942E160C942E160C942E160C942E1690
:1000E0000C942E160C942E160C942E160C942E1680
:1000F0000C942E160C942E160C942E160C942E1670
:100100000C942E160C942E160C942E160C942E165F
:100110000C942E160C942E160C942E160C942E164F
:100120000C942E160C942E160C942E160C942E163F
:100130000C942E160C942E160C942E160C942E162F
:100140000C942E160C942E160C942E160C942E161F
:100150000C942E160C942E160C942E160C942E160F
:100160000C942E160C942E160C942E160C942E16FF
:100170000C942E160C942E160C942E160C942E16EF
:100180000C942E160C942E160C942E160C942E16DF
:100190000C942E160C942E160C942E160C942E16CF
:1001A0000C942E160C942E160C942E160C942E16BF
:1001B0000C942E160C942E160C942E160C942E16AF
:1001C0000C942E160C942E160C942E160C942E169F
:1001D0000C942E160C942E160C942E160C942E168F
:1001E0000C942E160C942E160C94CA6F0C94D26B91
:1001F0000C9441720C9445840C9465780C94F86BC3
:100200000C94D06B0C94AB6F0C94C46F0C94EA6B91
:100210000C94BF6C0C94201B0C9494690C948E6904
:100220000C94E86B0C94927E0C94D46B0C94EC6B55
:100230000C94B1800C94A78A0C94EC680C94C88A36
:100240000C94FA6B0C9474840C94187D0C94768442
:100250000C9480840C94CA6B0C94F66B0C948C698F
:100260000C94B17A0C94046C0C94D08A0C940A6CA3
:100270000C94D06F0C94026C0C94056D0C94567910
:100280000C94C48A0C94CE6B0C94977A0C94066CE4
:100290000C9498690C94EE680C9466770C94FB6847
:1002A0000C94C77F0C94B86F0C94FC6B0C94806F0B
:1002B0000C946B7B0C948F800C940C690C943C8692
:1002C0000C94DA760C945A7E0C94F5890C947A840A
:1002D0000C9416850C94E66B0C940C700C94A6830D
:1002E0000C9448700C94976C0C9490810C94E16879
:1002F0000C9446750C94DE6B0C9490690C944488B5
:100300000C94D66B0C947C840C949C890C94E370B4
:100310000C94BF6E0C94D56D0C949C690C94DA6BA4
:100320000C94407D0C94337B0C948C700C94E06B9B
:100330000C94E46B0C948E7C0C942E690C94DC6B06
:100340000C941F730C9495860C949A690C94987372
:100350000C94DF680C94E3780C94D4850C94BE7DE7
:100360000C9448280C94086C0C94F0680C94F06B76
:100370000C9491880C9492690C947F790C94FE6B88
:100380000C941D690C94DD680C94E97D0C94F46B5D
:100390000C945A850C94A58A0C9496690C94927BC3
:1003A0000C9478840C948A690C94786F0C94E26BAA
:1003B0000C946A7D0C94F2680C94EF7C0C94F26BB4
:1003C0000C94D86B0C940C6C0C9452880C94867022
:1003D0000C94AD690C94F96D0C94028B0C94587CC0
:1003E0000C94006C0C942C7F0C9403780C94D97DA5
:1003F0000C9434790C94A56F0C94EE6B0C94C0891A
:100400000C94BE6F0C941A7A0C9436880C94EA689B
:10041000BCE5ACC59C85960392C1912190961D03C5
:10042000ED01DCFDCCF5BCE5ACC5A86EBCE5ACC50A
:100430009C85960392C1912190961D03ED01DCFDF0
:10044000CCF5BCE5ACC5A86E436F6D6D616E647391
:1004500020666F72207468652041445246363531FB
:1004600038207661726961626C65206761696E200F
:10047000616D706C69666965722E00436F6E74728F
:100480006F6C73207468652066726F6E74656E643D
:100490002052462073776974636865732E00526535
:1004A0006769737465722064756D707320666F720E
:1004B0002072657370656374697665207065726912
:1004C00070686572616C732E00457865637574653C
:1004D00073207465737420766563746F72732E0075
:1004E000436F6E74726F6C732074686520626F6105
:1004F0007264206C6576656C2066756E6374696FD6
:100500006E732E2053657175656E7469616C20651C
:10051000786563206F6620617267756D656E7473B0
:100520002E0053746174757320616E642066756E5D
:100530006374696F6E73207573656420666F7220D3
:10054000636865636B696E672074686520626F61BC
:1005500072642E20004F4E2F4F46462073776974E9
:10056000636865732C202830206973204F46462C21
:100570002031206973204F4E2900426F6F746C6FD9
:1005800061646572206F7074696F6E732E004578B8
:100590006974732066726F6D207468697320626F6E
:1005A000617264206261636B20746F2074686520DF
:1005B0004449474954414C20626F6172642E005097
:1005C00072696E7473206F75742074686520686535
:1005D0006C70206D656E7520666F72207468652082
:1005E000626F6172642E0048047B049E04C904E0BB
:1005F00004220555057A058E05BF055370656369AC
:100600006679207768696368206368616E6E656CDF
:1006100020612C622C632C64204F5220626974206C
:100620006D61736B2E204D55535420737065636953
:1006300066792066697273742E004E756C6C207436
:100640006865205647412773206F75747075742054
:100650004443206F6666736574732E203120746F77
:1006600020656E61626C652E004279706173732043
:10067000746865205647412773204C502066696C8A
:100680007465722E203120746F20656E61626C6516
:100690002E00536574205647412773204C50206329
:1006A0006F726E6572206672657120696E204D48AA
:1006B0007A2E00536574205647412773206761697D
:1006C0006E2E202843616C6C7320646761696E2014
:1006D000616E6420616761696E292E20496E7075B4
:1006E000743A2030202D20393520282D36306442B0
:1006F000202D203335644229004765742056474138
:100700002773206761696E2E0053656C65637420E2
:10071000564741204368616E6E656C2028303A2050
:10072000426F74682C20493A20312C20513A2032F3
:100730002900436865636B2069662056474120673E
:1007400061696E20697320746F6F20486967682043
:10075000666F7220746865204144432E2028303A29
:10076000204E6F2C20313A2059657329005365744F
:10077000205647412773206469676974616C20675C
:1007800061696E2E2033644220696E6372656D6507
:100790006E74732C20496E7075743A2030202D20B1
:1007A00038202834326442202D2036366442290015
:1007B00053657420564741277320616E616C6F67E3
:1007C000206761696E2E20302E31644220636F6E87
:1007D00074726F6C6C65642C20496E7075743A206D
:1007E00030202D2037323020282D31303264422005
:1007F0002D202D3330644229005365742056474123
:10080000277320706F737420616D70206761696E4B
:100810002E20302D313A20332F3964422E0053657B
:100820007420564741277320696E70757420616E7D
:10083000616C6F6720617474656E756174696F6E49
:1008400020696E2064422E20476F657320746872A1
:100850006F75676820414435363234522E00536537
:1008600074205647412773207077722D6D6F646531
:10087000206261736564206F6E204C5020636F723C
:100880006E657220667265712E2031206966206661
:10089000696C746572206D6F646520616E642033CD
:1008A000314D487A203C2042572C20656C736520DE
:1008B0003630204D487A203C20425700FB053A064E
:1008C00069069206B306F906090732076D07B007F5
:1008D000F9071E085E0843686F6F736520746865CA
:1008E00020686967682028302E352D362047487AE1
:1008F00029206F72206C6F7720284443202D2030F0
:100900002E352047487A292062616E642E2048697E
:100910006768283129206F72206C6F772830292E64
:100920000042797061737320746865204C4E4120D9
:100930006F6E2074686520686967682062616E6404
:100940002E204279706173732831292074686520E4
:100950004C4E41206F72206E6F742830292E005348
:100960006574732066726571206F6620484D433848
:100970003333206F75747075742C20696E204B486A
:100980007A2E0053776565707320484D43383333B2
:10099000206672657175656E63792066726F6D2071
:1009A000302E3247487A20746F203647487A2077B5
:1009B00069746820612073746570206F662031301F
:1009C0004D487A00504C4C20496E70757420526529
:1009D000666572656E6365204672657175656E63E6
:1009E00079005365747320426173652042616E64BF
:1009F000205661726163746F7220766F6C746167E8
:100A0000652028302D3430393629203056202D20CD
:100A1000322E35560053656C65637420746865200A
:100A200074617267657420504C4C2028302920482E
:100A30004D433833302028312920484D4338333353
:100A40000053657420504C4C20496E7075742044DE
:100A50006976696465722076616C75652E20312037
:100A6000746F2031363338330053657420504C4C4A
:100A700020466565646261636B20446976696465DC
:100A8000722076616C75652E20313620746F2035AA
:100A900032343235350053657420504C4C20564367
:100AA0004F204F757470757420446976696465725F
:100AB0002076616C75652E20312C20322C20342C50
:100AC0002036202E2E20363200456E61626C652F56
:100AD00044697361626C652056434F204F75747092
:100AE0007574204672657175656E637920446F7503
:100AF000626C65720053656C65637473207468651D
:100B000020636F72726563742046696C746572202D
:100B100042616E6B20666F72206120676976656E38
:100B2000206672657175656E637920696E206B4809
:100B30007A004D7574657320746865204C4F2046AB
:100B400072657175656E63792053796E746865732B
:100B5000697A6572207768656E20757365640053E5
:100B6000656C65637420504C4C204F7574707574BF
:100B700020506F7765722028303A202D3464426D02
:100B80002C20313A202D3164426D2C20323A203213
:100B900064426D2C20333A203564426D2900536540
:100BA0006C656374732044534120417474656E75A1
:100BB0006174696F6E2C2028303A203064426D20B9
:100BC0002D3E203132373A2033312E373564426D95
:100BD0002900414446343335352F414446353335B9
:100BE0003520446972656374205265676973746562
:100BF0007220416363657373203C3C3238626974D0
:100C000020646174613E3C34626974206164647282
:100C10006573733E3E00414446343335352F4144BD
:100C20004635333535206175746F63616C20656EB0
:100C300061626C6520283120666F7220656E61628A
:100C40006C65293E3E00FB05D60821095F09830932
:100C5000C409E209150A410A690A960AC90AF50A8D
:100C6000320B5F0B9E0BD20B160C44756D7073200C
:100C7000616C6C2074686520726567697374657255
:100C80007320666F72207468652041444331364496
:100C9000583337302E0044756D70732074686520AA
:100CA00072656769737465727320666F7220746809
:100CB0006520726567756C617220616E64205246B2
:100CC000204750494F580044756D707320616C6C1B
:100CD0002074686520726567697374657273206635
:100CE0006F722074686520414452463635313800B1
:100CF000FB056A0C960CC70C53657420746865205C
:100D0000737065636966696564204750494F582070
:100D100070696E20686967682E00436C6561722097
:100D200074686520737065636966696564204750FF
:100D3000494F582070696E206C6F772E0052756E87
:100D40007320737065636966696564207465737484
:100D500020766563746F72206F662074686520501A
:100D60004341393533382E0052756E7320737065E8
:100D7000636966696564207465737420766563745D
:100D80006F72206F66207468652041444331364499
:100D9000583337300052756E73207370656369661F
:100DA000696564207465737420766563746F72205E
:100DB0006F662074686520414452463635313800EC
:100DC000FB05F80C1A0D3D0D680D950D52657772F7
:100DD00069746520616C6C207265677320666F7240
:100DE00020656E7469726520626F6172642E0054B2
:100DF00075726E206F6E206F757470757473202815
:100E0000706572206368616E6E656C292E00527584
:100E10006E7320646961676E6F73746963206F6EAF
:100E2000207065726970686572616C2028706572E7
:100E3000206368616E6E656C292E2053686F756C37
:100E400064207072696E7420616C6C2072656769D1
:100E500073746572732E005475726E206F6666200F
:100E60006F75747075747320287065722063686183
:100E70006E6E656C292E00506F7765722063796302
:100E80006C65207065726970686572616C73206151
:100E90006E642072756E7320626F61726420696E79
:100EA00069742028706572206368616E6E656C29B4
:100EB0002E005475726E206F6666207065726970C0
:100EC000686572616C732E005475726E732065765E
:100ED0006572797468696E67206F66662E0050725D
:100EE000696E7473206F75742074686520736F6603
:100EF000747761726520616E6420686172647761E5
:100F000072652076657273696F6E2E0050726F760F
:100F1000696465732074686520616D6F756E7420F7
:100F20006F662052414D206C65667420286279748A
:100F30006573292E00546865204144432077696C0D
:100F40006C20656E61626C6520746865205359532E
:100F500052454620646574656374696F6E206761ED
:100F6000746520666F72204A45534420696E697427
:100F700069616C697A6174696F6E2E0054686520CE
:100F80004144432077696C6C206F757470757420D0
:100F90004A455344205465737420506174746572DB
:100FA0006E732E20303A206F66662C20313A204432
:100FB00032312E352C20323A204B32382E352C202F
:100FC000333A2072707420494C412C20343A2072FC
:100FD000616D702C20353A20484947482E00456EF7
:100FE00061626C696E67207468652053595352457D
:100FF0004620646574656374696F6E20676174650B
:101000002E203120746F20656E61626C652C20305B
:1010100020746F2064697361626C65004F75747031
:1010200075747320612031362D6269742072657089
:10103000656174696E672073657175656E6365209F
:101040005B302C2032363238302C20302C202D32A0
:10105000363332385D2066726F6D207468652041CA
:10106000444320636F72652E0050726F7669646529
:1010700073207468652074656D7065726174757233
:10108000652028302D31292E00426C696E6B73204B
:10109000746865204C4544206120737065636966FF
:1010A000696564206E756D626572206F6620746973
:1010B0006D65732E0053656C6563747320474C45F2
:1010C000206D6F64653A204D43555F474C4528318C
:1010D00029206F7220465047415F474C45202832F7
:1010E0002900FB05CC0DEF0D0E0E570E770EB20E3C
:1010F000C80EDE0E0C0F350F7C0FDE0F1C106910B2
:101100008910B510436F6D6D616E6420666F72203B
:101110007072696E74696E67207468652063757299
:1011200072656E74206865617274626561742076A0
:10113000616C7565206F6620746865205258206266
:101140006F61726400436F6D6D616E6420666F72D3
:1011500020726573657474696E67207468652068B1
:1011600065617274626561742076616C7565206674
:101170006F722074686520525820626F617264003B
:1011800048656172746265617420696E7469616C2E
:10119000697A6174696F6E2066756E6374696F6ECB
:1011A00020746F2073657420636F756E7465722090
:1011B000746F203000504C4C204C6F636B204465A2
:1011C00074656374696F6E204D656368616E6973E1
:1011D0006D2E0052657475726E73204D43552064F8
:1011E000657669636520696E666F726D6174696F9B
:1011F0006E2E00FB05041145118011B511D3114865
:101200004D433833784C50364700414452463635CA
:101210003138004144433136445833373000FB0500
:10122000FF110A1213124E6F20617267756D656EA1
:1012300074206E65636573736172792E00261245A2
:101240006E7465722074686520626F6F746C6F6174
:101250006465722E003F125072696E7473206F7550
:101260007420696E20766572626F7365206D6F649D
:10127000652E203120746F20656E61626C652E00D2
:101280005712436F6D6D616E647320666F722074C8
:1012900068652044414333384A38342E00436F6E2A
:1012A00074726F6C73207468652066726F6E7465FB
:1012B0006E642052462073776974636865732E00EC
:1012C00052656769737465722064756D707320660A
:1012D0006F722072657370656374697665207065DE
:1012E000726970686572616C732E0050726F7669F6
:1012F0006465732074686520737461747573206FFE
:10130000662074686520626F6172642E00436F6EA0
:1013100074726F6C732074686520626F61726420F0
:101320006C6576656C2066756E6374696F6E732E7E
:101330002053657175656E7469616C2065786563AD
:10134000206F6620617267756D656E74732E004F35
:101350004E2F4F46462073776974636865732C205F
:101360002830206973204F46462C20312069732095
:101370004F4E2900426F6F746C6F61646572206F0D
:101380007074696F6E732E0045786974732066728D
:101390006F6D207468697320626F6172642062618E
:1013A000636B20746F207468652044494749544139
:1013B0004C20626F6172642E005072696E747320EB
:1013C0006F7574207468652068656C70206D656E3B
:1013D0007520666F722074686520626F6172642E7A
:1013E0000082129D12C012EB120D134F137413885A
:1013F00013B9135370656369667920776869636808
:10140000206368616E6E656C20612C622C632C64B5
:101410002C204F5220626974206D61736B2E204D19
:1014200055535420737065636966792066697273D9
:10143000742E005370656369667920776869636804
:1014400020696E7465726E616C204441432063684C
:10145000616E6E656C3A2028302D332920412D4471
:101460002E00536574207468652066726571206F64
:101470007574707574206F662065787465726E611E
:101480006C2044414320636C6B206166746572205C
:10149000696E7465726E616C20434C4B2063697297
:1014A0006375697420284D487A292E00536574208D
:1014B000746865204E434F2075707065722033321A
:1014C0002D626974732072656769737465722E008A
:1014D00053657420746865204E434F206C6F7765A8
:1014E000722033322D626974732072656769737478
:1014F00065722C20777269746520746F2075707026
:1015000065722033322D6269747320666972737458
:1015100021212A2A005365742074686520284C29EB
:10152000206C616E657320706572206C696E6B2E25
:10153000005365742074686520284D2920636F6E00
:101540007665727465727320706572206C696E6B5B
:101550002E00536574207468652028462920667221
:10156000616D657320706572206D756C74692D6690
:1015700072616D652E005365742074686520636D1B
:101580006420696E7075742066726F6D204A4553D1
:1015900044283029206F72205350492831292E00C9
:1015A000456E61626C6520746865206D697865724E
:1015B0002E203120746F20656E61626C652E0045AF
:1015C0006E61626C65207468652050412028706FE0
:1015D00077657220616D706C69666965722920702B
:1015E000726F74656374696F6E2063697263756985
:1015F000742E203120746F20656E61626C652E0040
:101600005365742074686520696E746572706F6CC0
:101610006174696F6E2031782830292C2032782847
:1016200031292C2034782832292C20387828342964
:10163000206F72203136782838292E00457865636E
:1016400075746520746865207365726465732074B1
:101650006573742E2028302D35292074657374200D
:101660007061747465726E2E0047657473207468BF
:10167000652074656D7065726174757265206F6642
:1016800020746865204441432E0044756D70206FBE
:10169000757420616C6C206F6620746865207265BB
:1016A000676973746572732E00496E697469616C41
:1016B000697A657320616E6420636F6E6669677511
:1016C00072657320746865204A455344206C696EC6
:1016D0006B2E004269742062616E672061646472DF
:1016E000657373206F66204441432E004269742065
:1016F00062616E672064617461206F6620444143BB
:101700002E004269742062616E67206F706572619D
:1017100074696F6E2E20313A2077726974652030BB
:101720003A207265616400514D43204443206F6646
:10173000667365742C203133626974732C206D6577
:1017400061737572656420696E20444143204C5377
:1017500042277300514D43206761696E206F6666B2
:101760007365742C203131626974732C2064656355
:10177000696D616C20706E742040206C6566742009
:101780006F6620626974392C2072616E6765203043
:10179000202D20312E393939302C204C53423D3008
:1017A0002E3030303937363600514D432070686165
:1017B0007365206F66667365742C203132626974BC
:1017C000732C202D302E35202D20302E34393937F2
:1017D000352C20726566657220746F2064617461B7
:1017E0007368656574004C61726765204672616359
:1017F00074696F6E616C2044656C61792053657407
:1018000074696E677300536D616C6C20467261631E
:1018100074696F6E616C2044656C617920536574E6
:1018200074696E677300536D616C6C2046726163FE
:1018300074696F6E616C2044656C617920506174CD
:10184000682053657474696E677300456E61626CDD
:10185000652F44697361626C6520496E76657273A9
:10186000652053696E632046696C74657200456E2D
:1018700061626C652F44697361626C6520446974B0
:10188000686572696E6700456E61626C652F4469B8
:101890007361626C6520446974686572204D697873
:1018A00065720053657420746865204469746865C6
:1018B0007220416D706C69747564652C20302069EC
:1018C00073204D6178696D756D20283420626974CC
:1018D0007329004C61726765204672616374696F99
:1018E0006E616C2044656C61792C20436F6566667F
:1018F000696369656E74205365742073656C6563F4
:1019000074696F6E2E2028496E204461746173687B
:101910006565742900536D616C6C20467261637457
:10192000696F6E616C2044656C6179205461702030
:1019300073656C6563746F720053657420746865B9
:101940002073656C656374656420546170207661F2
:101950006C756520666F722074686520536D616CCC
:101960006C204672616374696F6E616C2044656CB3
:1019700061790052657475726E7320746865206FAA
:10198000722764206C616E65206572726F727320BD
:101990006F66207468652066697273742034206CE9
:1019A000616E657300F3133314AC14D014A0156981
:1019B000168A16A91627175417A917E61706182608
:1019C000184B186E188718A318D3181519391973DE
:1019D0001943686F6F73652074686520686967686C
:1019E0002028302E352D362047487A29206F722046
:1019F0006C6F7720284443202D20302E3520474817
:101A00007A292062616E642E20486967682831292E
:101A1000206F72206C6F772830292E004279706118
:101A2000737320746865204C4E41206F6E2074687B
:101A30006520686967682062616E642E2042797053
:101A400061737328312920746865204C4E41206FE2
:101A500072206E6F742830292E00536574732066CF
:101A6000726571206F6620484D43383333206F759F
:101A7000747075742C20696E204B487A2E00536563
:101A80007420746865205246534120617474656EF9
:101A900074756174696F6E2E203020746F20323837
:101AA000202830644220746F202D32386442292E61
:101AB00000504C4C205265666572656E6365204926
:101AC0006E7075742028696E206B487A2900536502
:101AD0007420746865204951204D6F64756C617481
:101AE0006F722049206269617320766F6C74616740
:101AF000652028696E2064562C2066726F6D203038
:101B00002D3234206456292E005365742074686584
:101B1000204951204D6F64756C61746F72205120A3
:101B20006269617320766F6C746167652028696EE5
:101B30002064562C2066726F6D20302D3234206464
:101B400056292E004E6565647320746F20626520EF
:101B500063616C6C6564206C6173742E20536574D2
:101B60007320746865204951204D6F64756C6174F1
:101B70006F722E202869652E202D69203137202D87
:101B800071203133202D6D290053656C65637420FD
:101B90007468652074617267657420504C4C20280D
:101BA000302920484D433833302028312920484DF2
:101BB000433833330053657420504C4C20496E70C9
:101BC000757420446976696465722076616C756508
:101BD0002E203120746F2031363338330053657432
:101BE00020504C4C20466565646261636B204469FB
:101BF00076696465722076616C75652E20313620B9
:101C0000746F203532343235350053657420504CB2
:101C10004C2056434F204F7574707574204469767C
:101C2000696465722076616C75652E20312C2032D6
:101C30002C20342C2036202E2E20363200456E618A
:101C4000626C652F44697361626C652056434F2056
:101C50004F7574707574204672657175656E637921
:101C600020446F75626C6572004D757465732074E5
:101C70006865204C4F204672657175656E637920EA
:101C800053796E74686573697A6572207768656EDA
:101C900020757365640053656C65637473207468A4
:101CA0006520636F72726563742046696C74657237
:101CB0002042616E6B20666F7220612067697665D5
:101CC0006E206672657175656E637920696E206B32
:101CD000487A00504C4C204F757470757420506FCA
:101CE0007765722028303A202D3464426D2C2031E3
:101CF0003A202D3164426D2C20323A202B3264423E
:101D00006D2C20333A202B3564426D290052462039
:101D1000417474656E7561746F7220536574746973
:101D20006E672028303A20306442202D3E20313228
:101D3000373A202D33312E3735644229004144464D
:101D4000343335352F4144463533353520446972B7
:101D500065637420526567697374657220416363BB
:101D6000657373203C3C323862697420646174612D
:101D70003E3C3462697420616464726573733E3EF4
:101D800000414446343335352F41444635333535EB
:101D9000206175746F63616C20656E61626C652093
:101DA000283120666F7220656E61626C65293E3E47
:101DB00000F313D1191C1A5A1AB11ACE1A091B446E
:101DC0001B891BB51BDD1B0A1C3D1C691C961CD303
:101DD0001C0D1D3D1D811D44756D7073207468655B
:101DE0002072656769737465727320666F72207400
:101DF000686520726567756C617220616E6420523F
:101E000046204750494F580044756D7073207468E0
:101E1000652072656769737465727320666F7220DE
:101E20007468652044414333384A383400F313D78B
:101E30001D081E436F6D6D616E6420666F722074A5
:101E400068652063757272656E742068656172746E
:101E5000626561742076616C7565206F66207468B8
:101E60006520545820626F61726400436F6D6D612C
:101E70006E6420666F7220726573657474696E6734
:101E8000207468652063757272656E742068656180
:101E90007274626561742076616C7565206F66206E
:101EA000545820626F6172640048656172746265A3
:101EB000617420696E697469616C697A6174696FB3
:101EC0006E2066756E6374696F6E20746F20736523
:101ED0007420636F756E74657220746F2030004CCF
:101EE0006F636B20446574656374696F6E204D6524
:101EF0006368616E69736D0052657475726E7320EC
:101F00004D43552064657669636520696E666F721E
:101F10006D6174696F6E2E00F313331E6B1EA91E64
:101F2000DF1EF81E5265777269746520616C6C2043
:101F30007265677320666F7220656E7469726520C2
:101F4000626F6172642E005475726E206F6E206F26
:101F50007574707574732028706572206368616E83
:101F60006E656C292E0052756E7320646961676E10
:101F70006F73746963206F6E207065726970686535
:101F800072616C2028706572206368616E6E656C8A
:101F9000292E2053686F756C64207072696E7420EE
:101FA000616C6C207265676973746572732E00547E
:101FB00075726E206F6666206F757470757473200D
:101FC00028706572206368616E6E656C292E005002
:101FD0006F776572206379636C65207065726970D4
:101FE000686572616C7320616E642072756E732017
:101FF000626F61726420696E697420287065722056
:102000006368616E6E656C292E005475726E206F68
:102010006666207065726970686572616C732E0007
:102020005475726E732065766572797468696E672F
:10203000206F66662E005072696E7473206F75741F
:102040002074686520736F66747761726520616EB5
:102050006420686172647761726520766572736965
:102060006F6E2E00426C696E6B7320746865204C35
:102070004544206120737065636966696564206EFC
:10208000756D626572206F662074696D65732E00D0
:1020900050726F76696465732074686520616D6F36
:1020A000756E74206F662052414D206C65667420F9
:1020B000286279746573292E0050726F76696465A1
:1020C00073207468652074656D70657261747572D3
:1020D000652028302D31292E004F757470757420BD
:1020E000656E61626C65283129206F7220646973A6
:1020F00061626C652830292E00456E61626C6573E3
:10210000204A455344205359535245462047617451
:10211000650053656C65637420474C45206D6F64A2
:10212000653A204D43555F474C452831292046509C
:1021300047415F474C4528322900F313241F471FAE
:10214000661FAF1FCF1F0A20202036206420B92031
:102150009020D920F920122144414333384A3834A1
:1021600000484D433833784C50364700414452467E
:102170003635313820486967682062616E640041F5
:1021800044524636353138204C6F772042616E64B8
:1021900000F31358216121456E74657220746865DF
:1021A00020626F6F746C6F616465722E0097214EB0
:1021B0006F20617267756D656E74206E65636573FF
:1021C000736172792E00AF215072696E7473206F43
:1021D000757420696E20766572626F7365206D6F0D
:1021E00064652E203120746F20656E61626C652EEF
:1021F00000C821436F6D6D616E647320666F72203D
:102200006D616E6167696E672074686520434C4B31
:102210002067656E65726174696F6E207468726F95
:10222000756768204C4D4B30343832382C2041448F
:1022300035363234522C20484D433938372E00433E
:102240006F6D6D616E647320666F72206D616E617B
:1022500067696E672074686520434C4B2067656E24
:1022600065726174696F6E207468726F756768203B
:102270004C4D4B30343832382C20414435363234D2
:10228000522C20484D433938372E00436F6D6D6115
:102290006E647320666F722073657474696E672054
:1022A000746865204C4D4B30343832382064656C8E
:1022B000617920636C6F636B732E00436F6D6D618A
:1022C0006E647320666F722073657474696E672024
:1022D000746865204C4D4B30343832382064656C5E
:1022E000617920636C6F636B732E00436F6D6D615A
:1022F0006E647320666F722073657474696E6720F4
:102300004A4553442F504C4C204E2F52206469763E
:10231000696465727300436F6D6D616E64732066EE
:102320006F722073657474696E6720484D43393845
:10233000382067726F75702064656C6179732E0048
:102340005265616420616E642077726974652063F0
:102350006F6D6D616E647320666F72206465627567
:102360006767696E672E00436F6E74726F6C7320BF
:1023700074686520626F617264206C6576656C209C
:1023800066756E6374696F6E732E20536571756523
:102390006E7469616C2065786563206F6620617278
:1023A00067756D656E74732E00436F6D6D616E643D
:1023B0007320666F7220616363657373696E672053
:1023C00074686520686561727462656174207374F5
:1023D00061747573004F4E2F4F46462073776974B2
:1023E000636865732C202830206973204F46462C83
:1023F0002031206973204F4E2900426F6F746C6F3B
:1024000061646572206F7074696F6E732E00457819
:102410006974732066726F6D207468697320626FCF
:10242000617264206261636B20746F207468652040
:102430004449474954414C20626F6172642E0050F8
:1024400072696E7473206F75742074686520686596
:102450006C70206D656E7520666F722074686520E3
:10246000626F6172642E00F3213F228B22BB22EB4C
:1024700022162340236723A923D523FA230E243FC2
:1024800024456E61626C65206578742D31304D484D
:102490007A207265666572656E6365202831292E23
:1024A0000049737375652053595352454620707522
:1024B0006C7365732066726F6D204A4553442E001D
:1024C000536574207468652044414320636F6E74C3
:1024D000726F6C6C696E6720584F20567265662C5F
:1024E00020302D34303936206672616374696F6E26
:1024F0002056657874004368616E676520696E7464
:1025000065726E616C207265666572656E636520CA
:10251000444143206F757470757420766F6C7461DC
:1025200067650052652D73796368726F6E697A65AD
:10253000206F757470757420646976696465727350
:102540002066726F6D20626F7468204C4D4B730073
:102550008124A124C024A124232553656C656374C0
:10256000204A455344206F7220504C4C2E00536536
:102570006C6563742064657669636520636C6F6362
:102580006B2E00536574206469676974616C206404
:10259000656C617920636C6F636B2E005A256E2524
:1025A00083255A256E25832553656C6563742064E5
:1025B00069766964657220746F207365742E0053A8
:1025C00065742052206469766964657220666F7252
:1025D00020504C4C2E00536574204E20646976695F
:1025E00064657220666F7220504C4C2E00536574E7
:1025F0002063616C6C6962726174696F6E204E2039
:10260000646976696465722E005365742070726522
:102610007363616C617220666F722063616C6C69B8
:1026200062726174696F6E2E0053657420636C6F03
:10263000636B20646976696465722E005A25A8254B
:10264000BF25D625292653656C65637473206265A2
:10265000747765656E207468652074776F20484DC7
:10266000433938382064657669636573202872655C
:10267000666572656E636520616E64206C6D6B29A2
:102680002E004765742F7365742074686520535954
:102690004E432064656C6179206469766964657273
:1026A0002E00536574206569746865722053594E15
:1026B00043206F7220534C4950207573696E672018
:1026C00053504920636F6D6D756E69636174696FF6
:1026D0006E2E004765742F73657420746865206FD3
:1026E0007574707574206C61756E636820706861B4
:1026F00073652E004765742F7365742064656C6183
:1027000079206C696E6520736574706F696E742EC4
:10271000004765742F73657420484D4320726566C9
:102720006572656E636520696E7075742064697684
:102730006964657273202876616C696420646976C7
:10274000696465727320617265203D20325E6E2C73
:10275000206E3D312E2E3529004765742F73657428
:1027600020484D432052782042756666657220628B
:102770006961732028302069732064656661756C17
:10278000742C203120666F722073696E75736F64CC
:1027900069616C202F206E6F6E2D4C565045434C56
:1027A00020414320636F75706C696E672E29004667
:1027B000268226A226D326F42611275927526561A0
:1027C0006420616E6420777269746520636F6D6D3B
:1027D000616E647320666F722064656275676769F5
:1027E0006E672E005A25BD27526577726974652081
:1027F000616C6C207265677320666F7220656E7401
:1028000069726520626F6172642E005475726E2069
:102810006F6E206F757470757473202870657220E8
:102820006368616E6E656C292E0052756E7320644C
:102830006961676E6F73746963206F6E2070657273
:102840006970686572616C202870657220636861C8
:102850006E6E656C292E2053686F756C64207072E3
:10286000696E7420616C6C2072656769737465723F
:10287000732E005475726E206F6666206F757470CB
:102880007574732028706572206368616E6E656C64
:10289000292E00506F776572206379636C65207014
:1028A00065726970686572616C7320616E64207214
:1028B000756E7320626F61726420696E697420287E
:1028C000706572206368616E6E656C292E005475A8
:1028D000726E206F666620706572697068657261DD
:1028E0006C732E005475726E732065766572797400
:1028F00068696E67206F66662E005072696E747329
:10290000206F75742074686520736F6674776172C8
:102910006520616E642068617264776172652076FB
:10292000657273696F6E2E00426C696E6B732074F2
:102930006865204C45442061207370656369666951
:102940006564206E756D626572206F662074696DB6
:1029500065732E0050726F766964657320746865C4
:102960002074656D70657261747572652028302DF4
:1029700031292E0050726F76696465732074686522
:1029800020616D6F756E74206F662052414D206C12
:1029900065667420286279746573292E0053656C0E
:1029A0006563747320474C45206D6F64653A204D14
:1029B00043555F474C45283129206F722053594EAB
:1029C00054485F465047415F474C45202832290014
:1029D000E8270B282A289328CE28E428FA28282933
:1029E000542974299D294865617274626561742057
:1029F00066756E6374696F6E20746F20616E6420FB
:102A000066726F6D207468652073657276657200FA
:102A10004865617274626561742066756E6374697D
:102A20006F6E20746F207265736574207468652002
:102A300068656172746265617420636F756E746538
:102A4000720048656172746265617420696E6974B0
:102A500069616C697A6174696F6E2066756E637402
:102A6000696F6E20746F2073657420636F756E7468
:102A7000657220746F2030004765747320504C4C91
:102A8000204C6F636B2044657465637420537461DC
:102A900074757300476574732C20616E64207468CC
:102AA000656E207265736574732C20504C4C204CFD
:102AB0006F7373206F66204C6F636B205374617467
:102AC00075732E0052657475726E73204D435520D8
:102AD00064657669636520696E666F726D6174699D
:102AE0006F6E2E00E629102A422A782A942AC42AD8
:102AF0004C4D4B303430323800484D433938370074
:102B0000F02AF92A4E6F20617267756D656E742028
:102B10006E65636573736172792E00042B456E7464
:102B200065722074686520626F6F746C6F61646594
:102B3000722E001D2B5072696E7473206F75742095
:102B4000696E20766572626F7365206D6F64652EA5
:102B5000203120746F20656E61626C652E00352B0C
:102B600055736167653A205B636D645D205B2D7C06
:102B70002D2D5D5B617267315D205B2D7C2D2D5DA0
:102B80005B617267325D2E2E2E0A00436F6D6D61A0
:102B90006E64733A0A0054686973206973206E6F1B
:102BA0007420616E206F7065726174696E67207346
:102BB000797374656D210A00596F752068617665B7
:102BC000206265656E206772616E74656420726F45
:102BD0006F74207065726D697373696F6E73210A0B
:102BE000006572726F723A20756E7265636F676E00
:102BF000697A656420636F6D6D616E64206F7074B7
:102C0000696F6E0A004552524F523A204661696C14
:102C1000656420746F207365740011241FBECFEFAC
:102C2000CDBFDFE5DEBF00E00CBF1DE3A0E0B0E2FA
:102C3000EAE4F2E301E00BBF02C007900D92AC386A
:102C4000B107D9F725E4ACE8BDE301C01D92A93F67
:102C5000B207E1F70E94628B0C9482980C940000FA
:102C6000CF93DF93CDB7DEB780E098E4A8EEB1E074
:102C7000BC01CD01DF91CF910895CF93DF930F92E7
:102C8000CDB7DEB719820E943016DC01CB01298155
:102C9000222F30E0022E04C0B695A7959795879510
:102CA0000A94D2F7BC01CD010F90DF91CF91089526
:102CB000CF93DF93CDB7DEB70E943D16DC01CB0189
:102CC000BC01CD01DF91CF910895CF93DF93CDB7B4
:102CD000DEB70E945816DC01CB01BC01CD01DF91AB
:102CE000CF910895CF93DF93CDB7DEB70E946516DD
:102CF000DC01CB01BC01CD01DF91CF910895CF93D1
:102D0000DF930F920F92CDB7DEB789839A838981C3
:102D10009A81009709F45EC189819A81803C91056E
:102D200029F460E180E00E94845554C189819A8130
:102D3000811524E0920729F464E080E00E94845524
:102D400049C189819A81803821E0920729F462E0A3
:102D500080E00E9484553EC189819A81811521E0DD
:102D6000920729F461E080E00E94845533C1898193
:102D70009A81803823E0920729F461E081E00E9483
:102D8000845528C189819A81803923E0920729F4EA
:102D900061E082E00E9484551DC189819A8181157C
:102DA00022E0920729F462E081E00E94845512C17A
:102DB00089819A81803422E0920729F462E082E0DE
:102DC0000E94845507C189819A81803223E092074D
:102DD00029F464E082E00E948455FCC089819A81D4
:102DE000811528E0920729F461E083E00E94845570
:102DF000F1C089819A81811529E0920729F461E067
:102E000084E00E948455E6C089819A8181152AE078
:102E1000920729F461E085E00E948455DBC0898136
:102E20009A8181152BE0920729F461E086E00E94E7
:102E30008455D0C089819A81803428E0920729F492
:102E400062E083E00E948455C5C089819A81803404
:102E500029E0920729F462E084E00E948455BAC018
:102E600089819A8180342AE0920729F462E085E022
:102E70000E948455AFC089819A81803928E09207E9
:102E800029F464E083E00E948455A4C089819A817A
:102E9000803929E0920729F464E084E00E94845597
:102EA00099C089819A8180392AE0920729F464E0E7
:102EB00085E00E9484558EC089819A8180392BE0FB
:102EC000920729F464E086E00E94845583C08981DA
:102ED0009A81803C28E0920729F468E083E00E9410
:102EE000845578C089819A81803C29E0920729F431
:102EF00068E084E00E9484556DC089819A81803C9D
:102F00002AE0920729F468E085E00E94845562C0B7
:102F100089819A81803A28E0920729F460E183E070
:102F20000E94845557C089819A81803A29E092078E
:102F300029F460E184E00E9484554CC089819A8123
:102F4000803A2AE0920729F460E185E00E948455E6
:102F500041C089819A81803A2BE0920729F460E18F
:102F600086E00E94845536C089819A81803B28E0A2
:102F7000920729F460E283E00E9484552BC0898186
:102F80009A81803B29E0920729F460E284E00E9464
:102F9000845520C089819A81803B2AE0920729F4D8
:102FA00060E285E00E94845515C089819A8180384D
:102FB00024E0920729F460E483E00E9484550AC06B
:102FC00089819A81803A24E0920721F460E485E0C7
:102FD0000E94845500000F900F90DF91CF910895CB
:102FE0000F931F93CF93DF9300D00F92CDB7DEB72F
:102FF00089839A836B837C830E947216AB01BC0128
:103000008B819C81FC0180819181A281B3818C01A3
:103010009D01000F111F221F331FCB01BA01A9010F
:1030200098010E948A8FDA01C9010597A109B109A7
:103030002B813C81F90184839583A683B7838981A1
:103040009A810E947F162B813C8189819A81B901E6
:103050000E94181E082E000C990B2496CDBFDEBFCF
:10306000DF91CF911F910F910895CF92EF920F931F
:103070001F93CF93DF93CDB7DEB72C97CDBFDEBFC5
:1030800089839A836B837C834D835E832F83388708
:1030900009871A87EB86CC860E947216AB01BC01A9
:1030A0008B819C81FC0180819181A281B3818C0103
:1030B0009D01000F111F221F331FCB01BA01A9016F
:1030C00098010E948A8FDA01C9010597A109B10907
:1030D0002B813C81F90184839583A683B783898101
:1030E0009A810E947F1629853A854F81588569818A
:1030F0007A818D819E810E94B71E8D819E814C8533
:103100006B850E94001F00002C96CDBFDEBFDF91B3
:10311000CF911F910F91EF90CF900895CF92EF92A2
:103120000F931F93CF93DF9300D000D0CDB7DEB7BE
:103130008A839B836C838C81811511F480E0C8C1E4
:103140001982C0C18981282F30E0C901880F991FD9
:10315000820F931F880F991F880F991F880F991F3F
:103160009C018A819B81820F931FFC018081918148
:10317000009709F47BC08981282F30E0C901880FAE
:10318000991F820F931F880F991F880F991F880F0F
:10319000991F9C018A819B81820F931FFC01818969
:1031A0009289009709F062C08981282F30E0C90117
:1031B000880F991F820F931F880F991F880F991FDF
:1031C000880F991F9C018A819B81820F931FFC01AC
:1031D0008281938128E3FC01208B8981282F30E0B4
:1031E000C901880F991F820F931F880F991F880F9D
:1031F000991F880F991F9C018A819B81820F931FC1
:10320000FC018281938128E3FC01218B8981282F95
:1032100030E0C901880F991F820F931F880F991FF3
:10322000880F991F880F991F9C018A819B81820FAB
:10323000931FAC014C5F5F4F8981282F30E0C9019B
:10324000880F991F820F931F880F991F880F991F4E
:10325000880F991F9C018A819B81820F931FFC011B
:1032600080819181BA010E94F01729C18981282F9C
:1032700030E0C901880F991F820F931F880F991F93
:10328000880F991F880F991F9C018A819B81820F4B
:10329000931FFC0180819181009709F40EC18981FF
:1032A000282F30E0C901880F991F820F931F880FC4
:1032B000991F880F991F880F991F9C018A819B81F4
:1032C000820F931FFC0181899289009709F4F5C050
:1032D0008981282F30E0C901880F991F820F931F21
:1032E000880F991F880F991F880F991F9C018A8149
:1032F0009B81820F931FFC0117898981282F30E061
:10330000C901880F991F820F931F880F991F880F7B
:10331000991F880F991F9C018A819B81820F931F9F
:10332000FC01A589B6898981282F30E0C901880F61
:10333000991F820F931F880F991F880F991F880F5D
:10334000991F9C018A819B81820F931FFC01038836
:10335000F489E02DED83FE838981282F30E0C901B7
:10336000880F991F820F931F880F991F880F991F2D
:10337000880F991F9C018A819B81820F931FFC01FA
:10338000418952898981282F30E0C901880F991F0E
:10339000820F931F880F991F880F991F880F991FFD
:1033A0009C018A819B81820F931FBC016C5F7F4FC0
:1033B0008981282F30E0C901880F991F820F931F40
:1033C000880F991F880F991F880F991F9C018A8168
:1033D0009B81820F931FFC01808191810F2EF0EC65
:1033E000CF2EF02DE12E8D012D813E810E943518CA
:1033F0008981282F30E0C901880F991F820F931F00
:10340000880F991F880F991F880F991F9C018A8127
:103410009B81AC01420F531F8981282F30E0C901E5
:10342000880F991F820F931F880F991F880F991F6C
:10343000880F991F9C018A819B81820F931FFC0139
:1034400081899289FA0127853089865B9F4FFC012B
:10345000208331838981282F30E0C901880F991F8B
:10346000820F931F880F991F880F991F880F991F2C
:103470009C018A819B81AC01420F531F8981282FB7
:1034800030E0C901880F991F820F931F880F991F81
:10349000880F991F880F991F9C018A819B81820F39
:1034A000931FFC0181899289FA0125853685845B09
:1034B0009F4FFC012083318302C0898109C089812B
:1034C0008F5F898399818C81981708F43BCE80E0C7
:1034D0002696CDBFDEBFDF91CF911F910F91EF9068
:1034E000CF900895CF93DF9300D00F920F92CDB776
:1034F000DEB789839A836B837C834D832B813C81E8
:1035000089819A814D81B9010E94501E2596CDBFB7
:10351000DEBFDF91CF910895CF93DF9300D0CDB779
:10352000DEB789839A836B8389819A81865B9F4FFB
:10353000FC01808191819E012D5F3F4FB9010E9466
:10354000C04E982F81E08927811511F081E001C0DC
:1035500080E00F900F900F90DF91CF910895CF935F
:10356000DF9300D000D000D0CDB7DEB78C839D8331
:103570006E837F834887298719828C819D81FC0116
:10358000828193818A839B8310928D3D1092903D1E
:103590001092913D8E819F818093923D9093933DB7
:1035A0008885882F90E08093943D9093953D10926C
:1035B000963D198235C08C819D81FC018681978161
:1035C000FC018081882F90E02981222F30E0022E9B
:1035D00002C0959587950A94E2F781709927009724
:1035E000E1F08C819D81FC01248135818981882FC6
:1035F00090E0820F931FFC01808180938C3D8A8133
:103600009B8149856CE87DE30E94721A811511F057
:1036100081E010C08985811559F489818F5F898384
:103620008C819D81FC0180859981981720F201C0D1
:10363000000080E02996CDBFDEBFDF91CF910895D5
:10364000CF93DF93CDB7DEB72A97CDBFDEBF8D8393
:103650009E836F83788749875A8719828F819885DF
:10366000FC018181803130F48F819885FC0181815A
:10367000811539F489859A8521E0FC01208381E058
:10368000BAC08F819885FC0181818B838B818115E4
:1036900009F44CC08F819885FC0184819B81692F3E
:1036A0000E947E8F892F811539F089859A8521E0C6
:1036B000FC01208381E09FC08F819885FC0184817B
:1036C0008115A1F11A8226C08F819885FC01828123
:1036D00093812A81422F50E02B81222F30E0429F9C
:1036E000B001439F700D529F700D11249B01BC01CE
:1036F000620F731F8D819E8120E04B810E94AF1A63
:103700008C838C81811519F081E089830FC08A81B7
:103710008F5F8A838F819885FC0184819B81692FCB
:103720000E947E8F982F8A81891770F289859A85E9
:10373000FC018181803108F458C089859A85FC019B
:103740008481811509F451C089859A85FC018181A4
:103750008F508B838B81811511F481E04CC089855A
:103760009A85FC0184819B81692F0E947E8F892F1D
:10377000811539F089859A8521E0FC01208381E05B
:103780003AC01A8226C089859A85FC01828193817C
:103790002A81422F50E02B81222F30E0429FB0013E
:1037A000439F700D529F700D11249B01BC01620F4D
:1037B000731F8D819E8121E04B810E94AF1A8C8303
:1037C0008C81811519F081E089830FC08A818F5F18
:1037D0008A8389859A85FC0184819B81692F0E9457
:1037E0007E8F982F8A81891770F289859A85298121
:1037F000FC01208389812A96CDBFDEBFDF91CF9166
:103800000895CF93DF930F92CDB7DEB78FE390E0AB
:10381000FC0180818983F89489810F90DF91CF9199
:103820000895CF93DF930F92CDB7DEB789838FE3EF
:1038300090E02981FC01208300000F90DF91CF915F
:1038400008951F920F920FB60F9211240BB60F928C
:103850002F933F934F935F936F937F938F939F9398
:10386000AF93BF93EF93FF93CF93DF93CDB7DEB7C3
:103870000E94C11D0000DF91CF91FF91EF91BF9198
:10388000AF919F918F917F916F915F914F913F91F8
:103890002F910F900BBE0F900FBE0F901F90189599
:1038A0001F920F920FB60F9211240BB60F922F9307
:1038B0003F934F935F936F937F938F939F93AF93B8
:1038C000BF93EF93FF93CF93DF93CDB7DEB70E9403
:1038D000C11D0000DF91CF91FF91EF91BF91AF919A
:1038E0009F918F917F916F915F914F913F912F9118
:1038F0000F900BBE0F900FBE0F901F901895CF9397
:10390000DF930F920F92CDB7DEB789839A838981B7
:103910009A81FC018481882F90E08370992721E0AF
:103920008130910509F020E0822F0F900F90DF91F8
:10393000CF910895CF93DF930F920F92CDB7DEB75B
:103940008A8305C08A81811511F086EF11C08091AC
:10395000A03D8115B9F70E94011C898381E0809305
:10396000A03D80E88093A13D89810E94111C80E0E8
:103970000F900F90DF91CF910895CF93DF930F9227
:10398000CDB7DEB700008091A13D8038E1F300C0E3
:103990008091973D9091983D0E947F1C982F81E0E7
:1039A00089278115A9F78091A13D89831092A03DB7
:1039B00089810F90DF91CF910895CF93DF93CDB799
:1039C000DEB72897CDBFDEBF8091973D9091983D9F
:1039D00089839A838091993D90919A3D8B839C83B2
:1039E00020919B3D30919C3D8B819C81FC01848189
:1039F000958128173907E4F48B819C8101968F8388
:103A0000988780919B3D90919C3D9C012F5F3F4FFB
:103A100020939B3D30939C3D9C018F819885820F24
:103A2000931FFC01208189819A81FC0127833FC07B
:103A300020919D3D30919E3D8B819C81FC01808534
:103A400091852817390760F580919F3D811559F0C0
:103A500089819A81FC018681282F216089819A8140
:103A6000FC01268324C08B819C81FC018681978187
:103A70008D839E8380919D3D90919E3D9C012F5F03
:103A80003F4F20939D3D30939E3D2D813E81820F7F
:103A9000931FFC01208189819A81FC01278307C043
:103AA00089819A8123E0FC0123831092A13D0000CB
:103AB0002896CDBFDEBFDF91CF910895CF93DF93DE
:103AC00000D000D0CDB7DEB78091973D9091983D62
:103AD00089839A838091993D90919A3D8B839C83B1
:103AE00020919D3D30919E3D8B819C81FC01808584
:103AF000918528173907B0F58B819C81FC0186815F
:103B000097818D839E8380919D3D90919E3D9C01E8
:103B10002F5F3F4F20939D3D30939E3D2D813E81F1
:103B2000820F931F29813A81F9012781FC012083AB
:103B300020919D3D30919E3D8B819C81FC01808533
:103B400091852817390730F489819A8122E0FC0198
:103B5000238310C089819A8127E0FC01238310927E
:103B6000A13D08C089819A8123E0FC01238389EF6C
:103B70008093A13D00002696CDBFDEBFDF91CF919F
:103B80000895CF93DF930F92CDB7DEB78091973D25
:103B90009091983DFC01848189838981882F90E0F0
:103BA00088709927009799F08091973D9091983D62
:103BB00029812860FC0124838091973D9091983D54
:103BC00023E0FC01238386EF8093A13D2CC08981F3
:103BD000882F90E084709927009739F48981882F85
:103BE00090E080719927009759F08091973D9091CE
:103BF000983D23E0FC0123838FEF8093A13D13C008
:103C00008981882F90E080749927009719F00E948D
:103C1000DD1C09C0898181151CF40E945E1D03C052
:103C20008BEF8093A13D00000F90DF91CF9108951D
:103C3000CF93DF9300D00F920F92CDB7DEB78A8378
:103C40009B836C837D8388EB89838C819D81FC01C0
:103C500084819581A681B781282F8A819B81FC016F
:103C600025838A819B812981FC0121838A819B8113
:103C700021E0FC0124831092A03D1092A13D80EA36
:103C800090E0FC01228180EA90E02260FC01228326
:103C9000789480E02596CDBFDEBFDF91CF91089567
:103CA000CF93DF9300D000D00F92CDB7DEB78B83D8
:103CB0009C836D837E834F838B819C81009721F051
:103CC0008D819E81009711F488EF4BC08D819E817C
:103CD000FC0182850E949A1C89838981811509F0E3
:103CE0003FC08B819C818093973D9093983D8D81BF
:103CF0009E818093993D90939A3D10929B3D1092A6
:103D00009C3D10929D3D10929E3D8F8180939F3DE2
:103D10008D819E81FC018081880F8A838D819E81A7
:103D2000FC0184819581009729F49F8181E0892796
:103D3000811541F08091973D9091983D2A81FC0139
:103D400026830BC08F81811541F08091973D909122
:103D5000983D2A812160FC0126830E94BD1C898335
:103D600089812796CDBFDEBFDF91CF910895CF9394
:103D7000DF93CDB7DEB72897CDBFDEBF89839A83A7
:103D80006B837C834D835E832F83388789819A81FF
:103D90002B813C81FC012083318389819A812D8193
:103DA0003E81FC012283338389819A812F8138856A
:103DB000FC012483358389819A818A5B9F4FFC01B2
:103DC000108289819A81895B9F4FFC0110828981D1
:103DD0009A81885B9F4FFC01108289819A81875B61
:103DE0009F4FFC01108289819A81825B9F4FFC0169
:103DF000108200002896CDBFDEBFDF91CF910895DD
:103E0000CF93DF9300D00F92CDB7DEB789839A832B
:103E10006B834C8389819A81FC01808191812C8103
:103E20002863FC01208789819A81FC01808191812E
:103E30002B81220FFC01238700002496CDBFDEBF1B
:103E4000DF91CF910895CF93DF9300D0CDB7DEB748
:103E50008A839B838A819B81FC0180819181FC0103
:103E6000828589838981882F90E0847099270097C3
:103E7000D1F08A819B818A5B9F4FFC0110828A81ED
:103E80009B81895B9F4FFC0110828A819B81875BAC
:103E90009F4F24E0FC0120838A819B81885B9F4F98
:103EA000FC0110824DC08981882F90E0887099278D
:103EB0000097D1F08A819B818A5B9F4FFC01108221
:103EC0008A819B81895B9F4FFC0110828A819B8143
:103ED000875B9F4F23E0FC0120838A819B81885B65
:103EE0009F4FFC0110822CC08981882F90E0807444
:103EF0009927009761F08981882F90E08170992738
:103F0000009729F08A819B810E94A71F19C089818F
:103F1000882F90E080749927009729F08A819B81EF
:103F20000E9403200DC0898181152CF48A819B8118
:103F30000E94402005C08A819B8165E00E945E212D
:103F400000000F900F900F90DF91CF910895CF93C5
:103F5000DF9300D0CDB7DEB78A839B838A819B81B4
:103F6000825B9F4FFC0180818115A1F08A819B813A
:103F7000FC018081918122E0FC0121878A819B8163
:103F800066E00E945E218A819B81825B9F4FFC01DB
:103F9000108232C08A819B81885B9F4F21E0FC01A7
:103FA00020838A819B81875B9F4FFC0110828A81DD
:103FB0009B81FC0180819181FC01808589838A81BC
:103FC0009B81FC018081918129812B7FFC012087CD
:103FD0008A819B818A5B9F4FFC0110828A819B8131
:103FE000895B9F4FFC0110828A819B81FC0180814B
:103FF000918123E0FC01218700000F900F900F902A
:10400000DF91CF910895CF93DF9300D00F92CDB77A
:10401000DEB78B839C838B819C81FC0180819181A5
:10402000FC01808589838B819C81FC018081918149
:1040300029812B7FFC0120878B819C81FC01808161
:104040009181FC0182858A838B819C81FC01808126
:1040500091812A812064FC0122878B819C81FC0153
:1040600084819581FC0119958B819C8161E00E947E
:104070005E2100002496CDBFDEBFDF91CF91089571
:10408000CF93DF930F920F92CDB7DEB789839A83D8
:1040900089819A81FC0180819181FC018285882F30
:1040A00090E082709927009729F089819A810E9477
:1040B000EC2004C089819A810E94642000000F9046
:1040C0000F90DF91CF910895CF93DF9300D00F929F
:1040D000CDB7DEB78B839C838B819C81FC01808173
:1040E0009181FC01808589838B819C81FC01808189
:1040F000918129812460FC0120878B819C818A5BCE
:104100009F4FFC018081803208F052C08B819C81DE
:10411000FC0180819181FC0184858A838B819C8153
:104120008A5B9F4FFC018081882F90E02B813C812E
:10413000820F931F06962A81FC0120838B819C812C
:10414000FC0182819381FC0119958B819C818A5BA2
:104150009F4FFC01808121E0280F8B819C818A5B2D
:104160009F4FFC0120838B819C81825B9F4FFC01D0
:1041700080818115A1F08B819C81FC0180819181DE
:1041800022E0FC0121878B819C8166E00E945E21F8
:104190008B819C81825B9F4FFC01108216C08B81BA
:1041A0009C81FC018081918123E0FC0121870DC06D
:1041B0008B819C81FC018081918126E0FC0121871B
:1041C0008B819C8162E00E945E2100002496CDBF1D
:1041D000DEBFDF91CF910895CF93DF9300D0CDB7AD
:1041E000DEB78A839B838A819B81895B9F4FFC0119
:1041F00080818115D9F08A819B81FC018081918128
:10420000FC018285882F90E080719927009771F0DA
:104210008A819B81FC018081918122E0FC012187C0
:104220008A819B8161E00E945E2141C08A819B81DD
:10423000895B9F4FFC018081803260F58A819B8180
:10424000865B9F4FFC01808191819E012F5F3F4FD4
:10425000B9010E944B4F8A819B81FC018081918131
:104260002981FC0124878A819B81895B9F4FFC0106
:10427000808121E0280F8A819B81895B9F4FFC010F
:1042800020838A819B81FC018081918123E0FC0154
:1042900021870DC08A819B81FC018081918122E070
:1042A000FC0121878A819B8162E00E945E210000DF
:1042B0000F900F900F90DF91CF910895CF93DF93E0
:1042C00000D0CDB7DEB789839A836B8389819A81C9
:1042D000875B9F4F2B81FC01208389819A81885BBA
:1042E0009F4FFC01108200000F900F900F90DF9104
:1042F000CF910895CF93DF93CDB7DEB72B97CDBF86
:10430000DEBF8A876B878A8589838B858A838981CB
:104310008B838B818C838C818695869586958D8306
:104320008D81882F90E0880F991F82959295907FBC
:104330009827807F98279A5F00008E839F838A81C9
:104340008115A9F0898188878885882F90E09C0154
:104350002770332781E090E002C0880F991F2A95CB
:10436000E2F7282F8E819F81FC01258314C089816B
:1043700089878985882F90E09C012770332781E009
:1043800090E002C0880F991F2A95E2F7282F8E81AE
:104390009F81FC012683000000002B96CDBFDEBF6D
:1043A000DF91CF910895CF93DF9300D000D00F928B
:1043B000CDB7DEB78D836E837F838D818C838C81B7
:1043C000882F90E09C012770332781E090E002C0A5
:1043D000880F991F2A95E2F7682F8D81898389813B
:1043E0008A838A818695869586958B838B81882F93
:1043F00090E0880F991F82959295907F9827807FF3
:1044000098279A5F9C0100008E819F81AC01C901B1
:104410000E94364D00002796CDBFDEBFDF91CF91C1
:104420000895CF93DF930F920F92CDB7DEB78983B4
:104430009A8389819A81FC018081282F2064898157
:104440009A81FC01208300000F900F90DF91CF91A3
:104450000895CF93DF9300D0CDB7DEB789839A83D9
:104460006B8389819A812B81FC01238300000F904B
:104470000F900F90DF91CF910895CF93DF930F921C
:104480000F92CDB7DEB789839A8389819A81FC0127
:1044900083810F900F90DF91CF910895CF93DF9399
:1044A0000F920F92CDB7DEB789839A8389819A8163
:1044B000FC01828187FB882780F90F900F90DF91A4
:1044C000CF910895CF93DF93CDB7DEB780E098E426
:1044D000A8EEB1E0BC01CD01DF91CF910895CF935B
:1044E000DF930F92CDB7DEB719820E946222DC0102
:1044F000CB012981222F30E0022E04C0B695A7956A
:10450000979587950A94D2F7BC01CD010F90DF9162
:10451000CF910895CF93DF93CDB7DEB70E946F227E
:10452000DC01CB01BC01CD01DF91CF910895CF9388
:10453000DF93CDB7DEB70E948A22DC01CB01BC013C
:10454000CD01DF91CF910895CF93DF93CDB7DEB743
:104550000E949722DC01CB01BC01CD01DF91CF91FC
:104560000895CF93DF9300D00F92CDB7DEB7898344
:104570009A836B837C8389819A810E943D22282FB4
:104580008B819C81FC01208300002496CDBFDEBF7F
:10459000DF91CF910895CF93DF930F920F92CDB714
:1045A000DEB789839A8389819A810E944E220F9077
:1045B0000F90DF91CF910895AB01BC014150504065
:1045C00060407040D9F70895BF92CF92DF92EF928A
:1045D000FF920F931F93CF93DF9300D000D00F92E1
:1045E000CDB7DEB78B839C836D838D81811511F4EC
:1045F00081E0E0C01A821982D7C08981282F30E07B
:10460000C901880F991F880F991F880F991F820F62
:10461000931F2B813C81820F931FFC018281938128
:1046200043E050E060E10E94364D8981282F30E060
:10463000C901880F991F880F991F880F991F820F32
:10464000931F2B813C81820F931FFC0182819381F8
:1046500043E050E060E20E94364D8981282F30E02F
:10466000C901880F991F880F991F880F991F820F02
:10467000931F2B813C81820F931FFC0182819381C8
:1046800040E050E060E40E94364D8981282F30E000
:10469000C901880F991F880F991F880F991F820FD2
:1046A000931F2B813C81820F931FFC018281938198
:1046B00041E050E060E80E94364D8981282F30E0CB
:1046C000C901880F991F880F991F880F991F820FA2
:1046D000931F2B813C81820F931FFC01808191816C
:1046E0000E94602B8981282F30E0C901880F991F13
:1046F000880F991F880F991F820F931F2B813C8170
:10470000820F931FFC0184819581A681B781298145
:10471000422F50E09A01220F331F220F331F220F26
:10472000331F240F351F4B815C81240F351FF90186
:10473000B0842981422F50E09A01220F331F220FAB
:10474000331F220F331F240F351F4B815C81240F31
:10475000351FF9010190F081E02DEE83FF83BE014A
:104760006E5F7F4FC12CD12C76018C019D014B2DAA
:104770008E819F810E94902B8981282F30E0C90172
:10478000880F991F880F991F880F991F820F931FF9
:104790002B813C81820F931FFC01808191810E94BB
:1047A000112289818F5F898399818D81981708F4FF
:1047B00024CF80E02796CDBFDEBFDF91CF911F9140
:1047C0000F91FF90EF90DF90CF90BF900895CF931F
:1047D000DF9300D000D0CDB7DEB78C839D836E838E
:1047E0008E81811511F480E04BC0198243C01A827A
:1047F00026C08981282F30E0C901880F991F880FB2
:10480000991F880F991F821B930B880F991F9C017A
:104810008C819D81820F931FFC01248135818A81C7
:10482000882F90E0820F931FFC0180818B8363E0CF
:1048300070E08B810E94D3218A818F5F8A83898176
:10484000282F30E0C901880F991F880F991F880F02
:10485000991F821B930B880F991F9C018C819D814E
:10486000820F931FFC0180859A81981710F289812D
:104870008F5F898399818E81981708F4B8CF80E083
:104880002696CDBFDEBFDF91CF9108952F923F9244
:104890004F925F926F927F928F929F92AF92BF9250
:1048A000CF92DF92EF92FF920F931F93CF93DF93FC
:1048B000CDB7DEB76497CDBFDEBF888B998B6A8B8F
:1048C0007B8B4C8B88899989FC0182819381FC01C7
:1048D000808191818A839B8388899989FC01828563
:1048E0009385FC018081811509F089C0198228C057
:1048F00088899989FC0186819781FC018081882FB4
:1049000090E02981222F30E0022E02C095958795F4
:104910000A94E2F781709927009779F0888999893C
:10492000FC01248135818981882F90E0820F931FBB
:10493000FC01808160E00E947A2189818F5F8983F8
:1049400088899989FC0180859981981788F21EC011
:104950008A899B899C012F5F3F4F2A8B3B8BFC01EF
:1049600020818A819B818C839D832E838C819D8174
:104970006E810E942922000000008A819B810E9492
:10498000CB22982F81E089278115B9F78C899FEF79
:10499000980F9C8B8115E1F6198228C08889998926
:1049A000FC0186819781FC018081882F90E029811C
:1049B000222F30E0022E02C0959587950A94E2F7E7
:1049C00081709927009779F088899989FC01248161
:1049D00035818981882F90E0820F931FFC018081AF
:1049E00061E00E947A2189818F5F89838889998912
:1049F000FC0180859981981788F280E07CC28889C3
:104A00009989FC0182859385FC018081843009F0BD
:104A100094C088899989FC01848595850196FC015B
:104A2000808161E00E947A21198228C08889998951
:104A3000FC0186819781FC018081882F90E029818B
:104A4000222F30E0022E02C0959587950A94E2F756
:104A500081709927009779F088899989FC012481D0
:104A600035818981882F90E0820F931FFC0180811E
:104A700060E00E947A2189818F5F89838889998982
:104A8000FC0180859981981788F21EC08A899B89CC
:104A90009C012F5F3F4F2A8B3B8BFC0120818A8139
:104AA0009B818F83988729878F81988569850E944C
:104AB0002922000000008A819B810E94CB22982F2E
:104AC00081E089278115B9F78C899FEF980F9C8B1E
:104AD0008115E1F6198228C088899989FC018681AF
:104AE0009781FC018081882F90E02981222F30E07E
:104AF000022E02C0959587950A94E2F78170992756
:104B0000009779F088899989FC0124813581898110
:104B1000882F90E0820F931FFC01808161E00E944A
:104B20007A2189818F5F898388899989FC018085B1
:104B30009981981788F280E0DEC188899989FC0103
:104B400082859385FC018081813009F0B5C0888918
:104B50009989FC01848595850196FC01808160E03E
:104B60000E947A21198228C088899989FC0186814E
:104B70009781FC018081882F90E02981222F30E0ED
:104B8000022E02C0959587950A94E2F781709927C5
:104B9000009779F088899989FC0124813581898180
:104BA000882F90E0820F931FFC01808160E00E94BB
:104BB0007A2189818F5F898388899989FC01808521
:104BC0009981981788F288899989FC01848595854F
:104BD0000196FC01808161E00E947A211EC08A89D1
:104BE0009B899C012F5F3F4F2A8B3B8BFC012081CF
:104BF0008A819B818A879B872C878A859B856C8588
:104C00000E942922000000008A819B810E94CB2201
:104C1000982F81E089278115B9F78C899FEF980F2C
:104C20009C8B8115E1F688899989FC01848595859D
:104C30000196FC01808160E00E947A21198228C0DF
:104C400088899989FC0186819781FC018081882F60
:104C500090E02981222F30E0022E02C095958795A1
:104C60000A94E2F781709927009779F088899989E9
:104C7000FC01248135818981882F90E0820F931F68
:104C8000FC01808161E00E947A2189818F5F8983A4
:104C900088899989FC0180859981981788F288898B
:104CA0009989FC01848595850196FC01808161E0EC
:104CB0000E947A2180E01FC188899989FC01828540
:104CC0009385FC018081853009F014C11EC08A895A
:104CD0009B899C012F5F3F4F2A8B3B8BFC012081DE
:104CE0008A819B818D879E872F878D859E856F8585
:104CF0000E942922000000008A819B810E94CB2211
:104D0000982F81E089278115B9F78C899FEF980F3B
:104D10009C8B8115E1F688899989FC0184859585AC
:104D20000196FC01808160E00E947A21198238C0DE
:104D300088899989FC0186819781FC018081882F6F
:104D400090E02981222F30E0022E02C095958795B0
:104D50000A94E2F781709927009781F088899989F0
:104D6000FC01248135818981882F90E0820F931F77
:104D7000FC01808161E00E947A210FC088899989B5
:104D8000FC01248135818981882F90E0820F931F57
:104D9000FC01808160E00E947A2189818F5F898394
:104DA00088899989FC0180859981981708F28889FA
:104DB0009989FC01848595850196FC01808161E0DB
:104DC0000E947A210E94A422DC01CB014C015D01EA
:104DD000C12CD12C7601282D392D4A2D5B2D6C2D1F
:104DE0007D2D8E2D9F2D215C3D4B404F5F4F6F4F92
:104DF0007F4F8F4F9F4F222E332E442E552E662EDF
:104E0000772E882E992EA12C0F2EFCE7BF2EF02D89
:104E10000F2EF2E9CF2EF02DD12CE12CF12C00E059
:104E200010E0222D332D442D552D662D772D882D04
:104E3000992D0E941990822E932EA42EB52EC62E47
:104E4000D72EE82EF92E082D192D2A2D3B2D4C2D6D
:104E50005D2D6E2D7F2DD901C801BC01CD010E94B1
:104E6000DC2288899989FC01848595850196FC015D
:104E7000808160E00E947A21198228C088899989FE
:104E8000FC0186819781FC018081882F90E0298137
:104E9000222F30E0022E02C0959587950A94E2F702
:104EA00081709927009779F088899989FC0124817C
:104EB00035818981882F90E0820F931FFC018081CA
:104EC00060E00E947A2189818F5F8983888999892E
:104ED000FC0180859981981788F288899989FC015D
:104EE000848595850196FC01808161E00E947A218C
:104EF00080E001C088EF6496CDBFDEBFDF91CF9127
:104F00001F910F91FF90EF90DF90CF90BF90AF90E7
:104F10009F908F907F906F905F904F903F902F90D9
:104F20000895CF93DF93CDB7DEB72B97CDBFDEBF0C
:104F30008F83988769877A874B8719828F819885B5
:104F4000FC0182819381FC01808191818A839B8312
:104F5000198229C08F819885FC0186819781FC0187
:104F60008081882F90E02981222F30E0022E02C01C
:104F7000959587950A94E2F781709927009781F0BB
:104F80008F819885FC01248135818981882F90E06B
:104F9000820F931FFC01808160E00E947A210AC089
:104FA00089818F5F89838F819885FC0180859981B4
:104FB000981780F225C089859A85FC0120818A8115
:104FC0009B818C839D832E838C819D816E810E9429
:104FD0002922000000008A819B810E94CB22982F09
:104FE00081E089278115B9F729853A858A819B81D6
:104FF000B9010E94B12289859A85019689879A878D
:105000008B859FEF980F9B878115A9F68F819885D7
:10501000FC0182859385FC018081853091F11982A4
:1050200029C08F819885FC0186819781FC01808150
:10503000882F90E02981222F30E0022E02C0959522
:1050400087950A94E2F781709927009781F08F8104
:105050009885FC01248135818981882F90E0820F19
:10506000931FFC01808161E00E947A210AC089813E
:105070008F5F89838F819885FC018085998198173E
:1050800080F280E02B96CDBFDEBFDF91CF910895F7
:10509000CF92DF92EF92FF920F931F93CF93DF9304
:1050A000CDB7DEB72E97CDBFDEBF8F8398876987D8
:1050B0007A874B875C871E828F819885FC0182816D
:1050C0009381FC0180858B8319828F819885FC01F7
:1050D0008185882F90E080749927009709F44CC04F
:1050E0008F819885FC0182819381FC0120858F81CD
:1050F0009885FC0182819381237DFC0120878F812B
:105100009885FC0182819381FC018085282F8F8105
:105110009885FC0181858C72282B8F819885FC01F4
:1051200082819381FC0120878F819885FC01828197
:105130009381FC0184819581A681B7812F81388577
:10514000F90122813381F90140852F813885F901E8
:1051500022813381F9010190F081E02DED87FE87F6
:10516000BE016A5F7F4FC12CD12C76018C019D015D
:105170008D859E850E94902B89859A85FC01818171
:10518000803130F489859A85FC018181811511F483
:1051900081E0E1C089859A85FC0181818C838C81C5
:1051A000811509F444C089859A85FC0184819C811C
:1051B000692F0E947E8F892F811511F081E0CBC06D
:1051C00089859A85FC018481811589F11A8223C021
:1051D00089859A85FC01828193812A81422F50E042
:1051E0002C81222F30E0429FB001439F700D529FCF
:1051F000700D11249B01280F391F8F8198854C81D8
:10520000B9010E944624811519F081E089830FC0FD
:105210008A818F5F8A8389859A85FC0184819C813C
:10522000692F0E947E8F982F8A81891788F28B853B
:105230009C85FC018181803108F452C08B859C855E
:10524000FC018481811509F44BC08B859C85FC0190
:1052500081818F508C838C81811511F481E07BC01A
:105260008B859C85FC0184819C81692F0E947E8FA7
:10527000892F811511F081E06EC01A8225C08B85BF
:105280009C85FC01828193812A81422F50E02C81F0
:10529000222F30E0429FB001439F700D529F700D4E
:1052A00011249B01280F391F8F8198854C81B901EA
:1052B0000E9491278D838D81811519F081E089836A
:1052C0000FC08A818F5F8A838B859C85FC018481D6
:1052D0009C81692F0E947E8F982F8A81891778F28E
:1052E0008F819885FC01828193812B81FC0120872D
:1052F0008F819885FC018185882F90E080749927A3
:10530000009741F18F819885FC0182819381FC0196
:1053100084819581A681B7812F813885F901228109
:105320003381F90140852F813885F901228133814C
:10533000F9010190F081E02DED87FE87BE016A5FE3
:105340007F4FC12CD12C76018C019D018D859E85CE
:105350000E94902B89812E96CDBFDEBFDF91CF9129
:105360001F910F91FF90EF90DF90CF900895CF9312
:10537000DF9300D0CDB7DEB789839A836B838981B1
:105380009A81009719F08B81843010F081E018C069
:1053900089819A81FC018185282F2C7F89819A81BE
:1053A000FC01218789819A81FC0191858B81837021
:1053B000892B282F206489819A81FC01218780E034
:1053C0000F900F900F90DF91CF910895CF93DF93BF
:1053D000CDB7DEB72A97CDBFDEBF8A878A8589839E
:1053E0001A8289818B838B818C838C8186958695AB
:1053F00086958D838D81882F90E0880F991F8295E7
:105400009295907F9827807F98279A5F00008E83DF
:105410009F838A818115A9F0898188878885882F53
:1054200090E09C012770332781E090E002C0880F54
:10543000991F2A95E2F7282F8E819F81FC012583F1
:1054400014C0898189878985882F90E09C01277005
:10545000332781E090E002C0880F991F2A95E2F778
:10546000282F8E819F81FC012683000000002A9650
:10547000CDBFDEBFDF91CF910895CF93DF93CDB73E
:10548000DEB72A97CDBFDEBF8A878A85898381E010
:105490008A8389818B838B818C838C818695869589
:1054A00086958D838D81882F90E0880F991F829536
:1054B0009295907F9827807F98279A5F00008E832F
:1054C0009F838A818115A9F0898188878885882FA3
:1054D00090E09C012770332781E090E002C0880FA4
:1054E000991F2A95E2F7282F8E819F81FC01258341
:1054F00014C0898189878985882F90E09C01277055
:10550000332781E090E002C0880F991F2A95E2F7C7
:10551000282F8E819F81FC012683000000002A969F
:10552000CDBFDEBFDF91CF910895CF93DF9300D041
:10553000CDB7DEB789839A836B8389819A812B816A
:10554000FC01238300000F900F900F90DF91CF910B
:105550000895CF93DF930F920F92CDB7DEB7898373
:105560009A8389819A81FC0183810F900F90DF914A
:10557000CF910895CF93DF930F920F92CDB7DEB7FF
:1055800089839A8389819A81FC01828187FB88279C
:1055900080F90F900F90DF91CF910895CF93DF9313
:1055A0000F920F92CDB7DEB789839A8389819A8152
:1055B000FC018081282F206189819A81FC01208350
:1055C00000000F900F90DF91CF910895CF93DF935C
:1055D000CDB7DEB780E098E4A8EEB1E0BC01CD0124
:1055E000DF91CF910895CF93DF930F92CDB7DEB7C0
:1055F00019820E94E62ADC01CB012981222F30E0AA
:10560000022E04C0B695A795979587950A94D2F770
:10561000BC01CD010F90DF91CF910895CF93DF931F
:10562000CDB7DEB70E94F32ADC01CB01BC01CD016E
:10563000DF91CF910895CF93DF93CDB7DEB70E946E
:105640000E2BDC01CB01BC01CD01DF91CF91089580
:10565000CF93DF93CDB7DEB70E941B2BDC01CB01CC
:10566000BC01CD01DF91CF910895CF93DF9300D09E
:105670000F92CDB7DEB789839A836B837C83898150
:105680009A810E94A92A282F8B819C81FC0120836A
:1056900000002496CDBFDEBFDF91CF910895CF9358
:1056A000DF930F920F92CDB7DEB789839A838981FA
:1056B0009A810E94BA2A0F900F90DF91CF9108959E
:1056C000CF93DF930F920F92CDB7DEB789839A8382
:1056D00089819A81803C28E0920721F468E083E088
:1056E0000E94845589819A81803C29E0920721F4A7
:1056F00068E084E00E94845589819A81803C2AE098
:10570000920721F468E085E00E94845589819A819E
:105710000E94CE2A00000F900F90DF91CF91089544
:10572000CF92DF92EF92FF920F931F93CF93DF936D
:10573000CDB7DEB72D97CDBFDEBF89839A836B834C
:105740007C834D830E831F8328873987CA86DB8637
:10575000EC86FD860E94282BAB01BC018E819F81C7
:10576000A885B985E981FA818A019B01AC01BD0157
:10577000CF010E94832C81157CF089819A81FC01E4
:105780008081982F937D8D818C72892B282F898120
:105790009A81FC01208301C000002D96CDBFDEBFA1
:1057A000DF91CF911F910F91FF90EF90DF90CF90FD
:1057B0000895CF93DF9300D000D000D0CDB7DEB7EF
:1057C0008C839D836E837F83488759871EC08E811B
:1057D0009F819C012F5F3F4F2E833F83FC012081DF
:1057E0008C819D8189839A832B8389819A816B81A6
:1057F0000E94952A000000008C819D810E944F2B01
:10580000982F81E089278115B9F7888599859C01B2
:1058100021503109288739870097C9F680E02996F9
:10582000CDBFDEBFDF91CF910895CF93DF9300D03E
:1058300000D000D0CDB7DEB78C839D836E837F838D
:105840004887598722C08C819D8189839A838FEFF5
:105850008B8389819A816B810E94952A00000000C8
:105860008C819D810E944F2B982F81E08927811583
:10587000B9F72E813F818C819D81B9010E94352B22
:105880008E819F8101968E839F83888599859C0157
:1058900021503109288739870097A9F680E0299699
:1058A000CDBFDEBFDF91CF910895CF93DF9300D0BE
:1058B0000F92CDB7DEB789839A836B837C838B810C
:1058C0009C81FC0180810E94E62900002496CDBFC6
:1058D000DEBFDF91CF910895CF93DF9300D00F9279
:1058E000CDB7DEB789839A836B837C838B819C8160
:1058F000FC0180810E943D2A00002496CDBFDEBFBE
:10590000DF91CF9108950F931F93CF93DF93CDB77E
:10591000DEB76097CDBFDEBF8F83988749875A87F0
:105920006B877C870D871E872F87388B4D855E851B
:105930006F85788989859A85AB85BC85840F951F8D
:10594000A61FB71F0197A109B10909851A852B85E3
:105950003C85BC01CD01A90198010E948A8FDA0122
:10596000C9018A839B83AC83BD838A819B81AC817F
:10597000BD8181389105A105B10510F08FEF35C0CB
:105980008A818E838E81813418F083E089831FC0E1
:105990008E81813218F082E0898319C08E81813135
:1059A00018F082E8898313C08E81893018F081E075
:1059B00089830DC08E81853018F081E8898307C006
:1059C0008E81833010F0198202C080E889838F8134
:1059D0009885FC018081982F9C778981892B282FBD
:1059E0008F819885FC01208381E06096CDBFDEBF6A
:1059F000DF91CF911F910F910895CF93DF930F9275
:105A0000CDB7DEB78FE390E0FC0180818983F89405
:105A100089810F90DF91CF910895CF93DF930F92FB
:105A2000CDB7DEB789838FE390E02981FC01208325
:105A300000000F90DF91CF910895CF93DF93CDB702
:105A4000DEB72D97CDBFDEBF8C876D878C858983B0
:105A50008D858A8389818B838B818C838C818695CC
:105A6000869586958D838D81882F90E0880F991F6C
:105A700082959295907F9827807F98279A5F000063
:105A80008E839F838E819F819C01205F3F4F898100
:105A9000888788858770882F90E0820F931F898779
:105AA0009A870E94FD2C8B8789859A85FC018081CD
:105AB000282F277089859A85FC01208389859A85FE
:105AC000FC0190818A81292F282B89859A85FC01E8
:105AD00020838B850E940D2D000000002D96CDBFE8
