:100000000C941B030C943C030C943C030C943C0395
:100010000C943C030C943C030C943C030C943C0364
:100020000C943C030C943C030C943C030C943C0354
:100030000C943C030C9435950C943C030C943C03B9
:100040000C943C030C943C030C943C030C943C0334
:100050000C943C030C943C030C943C030C943C0324
:100060000C943C030C94A3070C943C030C94D2070F
:100070000C943C030C943C030C943C030C943C0304
:100080000C943C030C943C030C943C030C943C03F4
:100090000C943C030C943C030C943C030C943C03E4
:1000A0000C943C030C943C030C943C030C943C03D4
:1000B0000C943C030C943C030C9467950C943C0307
:1000C0000C943C030C943C030C943C030C943C03B4
:1000D0000C943C030C943C030C943C030C943C03A4
:1000E0000C943C030C943C030C943C030C943C0394
:1000F0000C943C030C943C030C943C030C943C0384
:100100000C943C030C943C030C943C030C943C0373
:100110000C943C030C943C030C943C030C943C0363
:100120000C943C030C943C030C943C030C943C0353
:100130000C943C030C943C030C943C030C943C0343
:100140000C943C030C943C030C943C030C943C0333
:100150000C943C030C943C030C943C030C943C0323
:100160000C943C030C943C030C943C030C943C0313
:100170000C943C030C943C030C943C030C943C0303
:100180000C943C030C943C030C943C030C943C03F3
:100190000C943C030C943C030C943C030C943C03E3
:1001A0000C943C030C943C030C943C030C943C03D3
:1001B0000C943C030C943C030C943C030C943C03C3
:1001C0000C943C030C943C030C943C030C943C03B3
:1001D0000C943C030C943C030C943C030C943C03A3
:1001E0000C943C030C943C039F139A1395139013A7
:1001F0008B1386138113E26EED6EF86E036F0E6F34
:10020000296F346F3F6F4A6F556F776F826F8D6FB5
:10021000986FA36FBE6FC96FD46FDF6FEA6F067FF1
:10022000207F307F4F7F697F9C7FC07F5086F37F28
:10023000FE7F098014801F8030804180528063805F
:100240006E80798084808F809A80A580B080BB800A
:10025000C680D180DC8050865086E7801A8152812A
:10026000508667819081C881D881E8815086508608
:100270005086508650865086F381038212822282F5
:100280002D824282578272825086508650865086D6
:10029000508650867D829282AC82C182D682508600
:1002A00050865086508650865086E182F6821083B2
:1002B00030834A836E83838393839E83B383D28305
:1002C000DD83F283FD8308841D8428843384438482
:1002D0004E84598469847484508693849E84B8843F
:1002E000D78450865086F18401851185218531851A
:1002F00046855B85708585859085A085AB85B685AF
:10030000C185CC85D785E285ED85F88503860E8687
:10031000198624862F863A864586508650860C9408
:100320006E800C9492820C944E840C9424860C94CF
:1003300093830C9483830C949C7F0C946E030C9495
:1003400086050C9464030C9457820C946E830C9471
:100350004F060C9403820C944F7F0C94890B0C94E1
:10036000E8810C9466090C94A0050C94556F0C94CC
:1003700002060C94BB800C9468030C94067F0C94CA
:1003800067810C947D820C94CC850C9480050C9430
:10039000EA6F0C94A36F0C94F3810C9422040C94D8
:1003A00066030C94A70F0C9452800C9421850C9436
:1003B00081130C94986F0C94C8810C9479800C94E0
:1003C000E1820C94970C0C94697F0C949D060C941C
:1003D00008840C945E040C94D6040C9428840C9429
:1003E00031850C946D060C9446050C94FD830C9499
:1003F000D6820C9400070C9423070C94B6850C94B9
:10040000C6800C94BA090C9422820C94E26E0C946F
:10041000E2850C944A6F0C9470850C94B0800C9417
:10042000776F0C9459840C9430830C94D7850C947A
:10043000000F0C949E830C94050B0C94C96F0C94C4
:1004400074840C94B7060C94207F0C949F130C9426
:1004500035060C940E0F0C94F37F0C94AA030C94A5
:10046000BA050C94B3830C94307F0C94C1820C9425
:1004700014800C9493840C949A800C94AB850C9407
:1004800069840C945E030C94B8840C941D080C943D
:10049000F1840C94270A0C94DF6F0C94AC820C94BA
:1004A0006A030C9452810C941A810C94D2830C949C
:1004B00062030C94826F0C94DD830C94346F0C9463
:1004C000ED6E0C94F6820C9411850C940E6F0C94C6
:1004D0002D820C9436940C9490130C94296F0C94E8
:1004E00095130C94D46F0C9431060C94D8810C9411
:1004F000DC800C9442820C9406080C940E860C94BA
:1005000033840C9472820C94A0080C943B0A0C94D3
:10051000F8850C94DD060C9401850C9410830C94E2
:10052000BE6F0C9409800C94FE7F0C9490850C9403
:100530002F860C9484800C9486130C94D7840C948E
:1005400041800C944A830C942B080C9463800C9487
:10055000ED850C9460030C948F800C940A050C9428
:100560003D060C949E840C94D1800C94E6030C946C
:100570005B850C94649E0C9485850C946C030C94A0
:10058000C07F0C9413090C9443840C941D840C9428
:1005900003860C94F2830C941F800C943A860C947E
:1005A00012820C94F86E0C943F6F0C9490810C9412
:1005B000E7800C9445860C949A130C94C1850C9496
:1005C00046850C9450860C945C030C948D6F0C94AF
:1005D000A5800C949A040C948B130C9419860C949B
:1005E0005E080C9430800C9483060C94A0850C94C7
:1005F000036FBCE5ACC59C85960392C19121909692
:100600001D03ED01DCFDCCF5BCE5ACC5A86EBCE579
:10061000ACC59C85960392C1912190961D03ED0176
:10062000DCFDCCF5BCE5ACC5A86E6364696E6F708B
:10063000737578585B0011241FBECFEFDFE3DEBF78
:10064000CDBF00E00CBF17E3A0E0B0E2EAE7FDEAAF
:1006500001E00BBF02C007900D92AE32B107D9F78F
:1006600019E3AEE2B7E301C01D92A835B107E1F787
:100670000E9486CB0C94BBD60C940000E82FE69524
:10068000E695E69540E2E49FF0011124FA5F877059
:1006900021E030E0A90102C0440F551F8A95E2F71E
:1006A000662311F0458308954683089561507109CA
:1006B00081099109D9F7089580E0089580E00895AF
:1006C00080E0089580E0089580E0089580E0089536
:1006D00080E0089580E0089580E0089580912423CB
:1006E00090912523A0912623B0912723AC01BD0131
:1006F000415051096109710944365105610571057F
:1007000058F4AC01BD0140515109610971094135ED
:1007100051056105710550F483EC96E29F938F9328
:100720000E9449D00F900F9081E008958136910585
:10073000A105B10558F08156910991E001C0990FCA
:100740008A95EAF790931E2480E0089580931E24F2
:1007500080E008958091942290919522A091962214
:10076000B0919722AC01BD01415051096109710955
:10077000443651056105710558F4AC01BD01405185
:10078000510961097109413551056105710550F43F
:1007900083EC96E29F938F930E9449D00F900F9025
:1007A00081E0089581369105A105B10558F0815683
:1007B000910991E001C0990F8A95EAF790931E2460
:1007C00080E0089580931E2480E0089580915E2249
:1007D00090915F22A0916022B0916122AC01BD0195
:1007E000415051096109710944365105610571058E
:1007F00058F4AC01BD0140515109610971094135FD
:1008000051056105710550F483EC96E29F938F9337
:100810000E9449D00F900F9081E008958136910594
:10082000A105B10558F08156910991E001C0990FD9
:100830008A95EAF790931E2480E0089580931E2401
:1008400080E0089580914C2290914D22A0914E22FB
:10085000B0914F22AC01BD014150510961097109AC
:10086000443651056105710558F4AC01BD01405194
:10087000510961097109413551056105710550F44E
:1008800083EC96E29F938F930E9449D00F900F9034
:1008900081E0089581369105A105B10558F0815692
:1008A000910991E001C0990F8A95EAF790931E246F
:1008B00080E0089580931E2480E008958091BC21FB
:1008C0009091BD21A091BE21B091BF21AC01BD018D
:1008D000415051096109710944365105610571059D
:1008E00058F4AC01BD01405151096109710941350C
:1008F00051056105710550F483EC96E29F938F9347
:100900000E9449D00F900F9081E0089581369105A3
:10091000A105B10558F08156910991E001C0990FE8
:100920008A95EAF790931E2480E0089580931E2410
:1009300080E008958091E4209091E520A091E62048
:10094000B091E720AC01BD01415051096109710925
:10095000443651056105710558F4AC01BD014051A3
:10096000510961097109413551056105710550F45D
:1009700083EC96E29F938F930E9449D00F900F9043
:1009800081E0089581369105A105B10558F08156A1
:10099000910991E001C0990F8A95EAF790931E247E
:1009A00080E0089580931E2480E00895CF93DF9324
:1009B00000D01F92CDB7DEB7CE010196AA2797FDD2
:1009C000A095BA2F40914E3950914F39411551059C
:1009D00011F448E559E3662757FD6095762F841B8F
:1009E000950BA60BB70BBF93AF939F938F9389EC97
:1009F00096E29F938F930E9449D00F900F900F9093
:100A00000F900F900F9080E02496CDBFDEBFDF9156
:100A1000CF91089580918A2090918B20A0918C2075
:100A2000B0918D20AC01BD0141505109610971099E
:100A3000443651056105710558F4AC01BD014051C2
:100A4000510961097109413551056105710550F47C
:100A500083EC96E29F938F930E9449D00F900F9062
:100A600081E0089581369105A105B10558F08156C0
:100A7000910991E001C0990F8A95EAF790931E249D
:100A800080E0089580931E2480E00895682F80916F
:100A9000E0239091E1230E9499A680E090E00895E0
:100AA000CF93C0911E2481E080931E2440E060E239
:100AB00084E698E30E942B8884E080931E2440E023
:100AC00060E284E698E30E942B88C0931E24CF91B5
:100AD0000895CF930E945005C0911E248C2F8370DF
:100AE00011F081E001C084E080931E2441E060E2C7
:100AF00084E698E30E942B88C0931E24CF9108952A
:100B00000E9469050E94500580E0089561E070E050
:100B10000090CE2102C0660F771F0A94E2F741E0F1
:100B200084E698E30E942B88882341F083EC96E2C8
:100B30009F938F930E9449D00F900F9080E008956B
:100B400061E070E00090E02102C0660F771F0A9418
:100B5000E2F740E084E698E30E942B88882341F086
:100B600083EC96E29F938F930E9449D00F900F9051
:100B700080E008952F923F924F925F926F927F9202
:100B80008F929F92AF92BF92CF92DF92EF92FF929D
:100B90000F931F938091CA229091CB22A091CC22D7
:100BA000B091CD221C012D019C01A20160E070E0FA
:100BB00080E090E006E00E9417CD51016201E12C37
:100BC000F12C00E010E00E9457CD01E00E9417CD0B
:100BD00000E00E9457CD03E00E9417CD0E942A1822
:100BE00080E01F910F91FF90EF90DF90CF90BF902A
:100BF000AF909F908F907F906F905F904F903F90BD
:100C00002F900895CF938091AE209091AF20A09126
:100C1000B020B091B120892B8A2B8B2B59F082E721
:100C200098E30E94511FC82F87E399E30E94CD35B6
:100C30008C0F0AC082E798E30E943021C82F87E317
:100C400099E30E94AC378C0F882341F083EC96E245
:100C50009F938F930E9449D00F900F9080E0CF9187
:100C600008950E94E5BA80E008958EED96E20E9414
:100C700061D00E94E5BA80E008956EE174E284E6F6
:100C800098E30E940612882341F083EC96E29F933A
:100C90008F930E9449D00F900F9080E008950E949A
:100CA0006905209148233091492340914A2350916E
:100CB0004B236091362386E498E30E94E55988230C
:100CC00041F083EC96E29F938F930E9449D00F905E
:100CD0000F900E94500580E008950E946905609180
:100CE0005A2386E498E30E94B568882341F083EC98
:100CF00096E29F938F930E9449D00F900F900E948D
:100D0000500580E008950E9469054091A22350910A
:100D1000A3236091362386E498E30E94E55D88234F
:100D200041F083EC96E29F938F930E9449D00F90FD
:100D30000F900E94500580E008950E94690540913F
:100D4000B4235091B5236091362386E498E30E9442
:100D50005B5D882341F083EC96E29F938F930E9422
:100D600049D00F900F900E94500580E008950E9496
:100D700069054091C6235091C72361E080913623D5
:100D800090913723A0913823B09139230297A10580
:100D9000B10508F460E086E498E30E946F5E882362
:100DA00041F083EC96E29F938F930E9449D00F907D
:100DB0000F900E94500580E008958091C02090918E
:100DC000C120A091C220B091C32060911E24892B24
:100DD0008A2B8B2B29F08BEF98E30E94A44E04C042
:100DE0008BEF98E30E94224F882341F083EC96E238
:100DF0009F938F930E9449D00F900F9080E00895A9
:100E00008091D2209091D320A091D420B091D52070
:100E100060911E24892B8A2B8B2B29F08BEF98E372
:100E20000E94A44E04C08BEF98E30E94224F8823B7
:100E300041F083EC96E29F938F930E9449D00F90EC
:100E40000F9080E0089586E097E20E9461D0409183
:100E500054206AE080E090E20C9446CA0F931F93FE
:100E6000CF93DF93182F80931E2482E798E30E948C
:100E70003021082F87E399E30E94AC37080FC0E0C8
:100E8000D0E0C330D105C9F020911E2430E00C2EF3
:100E900002C0359527950A94E2F720FF0EC060E066
:100EA000FE01E253FC4D80810E943E0360E0FE01A2
:100EB000E653FC4D80810E943E032196C430D1054B
:100EC00001F710FF0DC081E080931E240E94690588
:100ED00040E060E086E498E30E94DF530E94500502
:100EE00011FF0DC081E080931E240E94690540E03F
:100EF00061E086E498E30E94DF530E94500512FFF0
:100F00000DC084E080931E240E94690540E060E0EB
:100F100086E498E30E94DF530E94500513FF0DC042
:100F200084E080931E240E94690540E061E086E42D
:100F300098E30E94DF530E945005802FDF91CF91EC
:100F40001F910F9108951F920F920FB60F921124C7
:100F50000BB60F922F933F934F935F936F937F93B3
:100F60008F939F93AF93BF93EF93FF9320E040E065
:100F700050E060E070E082EE93E20E9487A4FF916F
:100F8000EF91BF91AF919F918F917F916F915F9101
:100F90004F913F912F910F900BBE0F900FBE0F906E
:100FA0001F9018951F920F920FB60F9211240BB637
:100FB0000F922F933F934F935F936F937F938F93F2
:100FC0009F93AF93BF93EF93FF9382EE93E20E94C0
:100FD000F8A4FF91EF91BF91AF919F918F917F9175
:100FE0006F915F914F913F912F910F900BBE0F909A
:100FF0000FBE0F901F90189580E008959FEF980FF7
:101000009F3010F40C942E0781E0089580911E24E7
:101010000E94FE07882341F083EC96E29F938F9312
:101020000E9449D00F900F9080E008950E94E5BA89
:1010300080E008958FE00C942E070E941A08882300
:1010400041F083EC96E29F938F930E9449D00F90DA
:101050000F9080E008950E941A0880E0089580E0D3
:1010600008950E941A0880E0089580E197E20E94A6
:1010700061D082E297E29F938F9388E297E29F93F9
:101080008F930E9449D08DE397E29F938F9386E4DC
:1010900097E29F938F930E9449D08CE597E29F93AC
:1010A0008F9380E797E29F938F930E9449D08DB7EB
:1010B0009EB70C968DBF9EBF80E008950E943508B4
:1010C000882341F083EC96E29F938F930E9449D04E
:1010D0000F900F9080E00895623080F59FEF980F99
:1010E0009F3060F580931E24611114C040E064E0DD
:1010F00084E698E30E942B8840E061E084E698E370
:101100000E942B8841E060E884E698E30E942B88E7
:1011100080E0089541E064E084E698E30E942B8833
:1011200041E061E084E698E30E942B8840E060E8BB
:1011300084E698E30E942B8880E0089581E008957A
:101140006091A62280911E240E946C08882341F0A1
:1011500083EC96E29F938F930E9449D00F900F905B
:1011600080E0089580E0089580E00895CF92DF92B6
:10117000EF92FF920F931F93CF93DF931F921F92D3
:10118000CDB7DEB79FEF980F9F3008F040C0809337
:101190001E248AEFE82E83E2F82E00E010E099E8A2
:1011A000C92E97E2D92E80911E2490E0002E02C015
:1011B000959587950A94E2F780FF1FC0AE014F5FB7
:1011C0005F4FF801EA50FC4D6081F7018081918109
:1011D0000E94EEB58A818F9389818F93C8018F5BBE
:1011E0009F4F9F938F93DF92CF920E9449D00F9091
:1011F0000F900F900F900F900F900F5F1F4FF2E026
:10120000EF0EF11C0430110571F680E001C081E0A1
:101210000F900F90DF91CF911F910F91FF90EF9062
:10122000DF90CF90089580911E240E94B6088823F5
:1012300041F083EC96E29F938F930E9449D00F90E8
:101240000F9080E00895DF92EF92FF920F931F932B
:10125000CF93DF938B3088F5162FC82F60E0812F56
:101260000E943E03D0E0CC0FDD1FE12EE694E69411
:10127000E69480E2E89E70011124EAEFFE1A912FB5
:10128000977081E0D82E01C0DD0C9A95EAF700E056
:10129000802F90E08C179D0754F465E176E185E09E
:1012A00090E00E945603F701D7820F5FF1CF60E014
:1012B000812F0E943E0380E001C081E0DF91CF9149
:1012C0001F910F91FF90EF90DF90089566E080915D
:1012D00086210E942309882341F083EC96E29F93A4
:1012E0008F930E9449D00F900F9080E00895CF9384
:1012F000DF931F92CDB7DEB79FEF980F9F30A8F511
:1013000080931E240E94690561E080914638909187
:1013100047380E94D29FBE016F5F7F4F86E498E3FB
:101320000E94675460E080914638909147380E944F
:10133000D29F6AE186E498E30E9474539F938F934F
:101340008CE997E29F938F930E9449D089811F92E5
:101350008F9382EC97E29F938F930E9449D00E94D3
:101360005005CDBFDEBF80E001C081E00F90DF916E
:10137000CF9108950E94690580911E240E947709EB
:10138000882341F083EC96E29F938F930E9449D08B
:101390000F900F900E94500580E00895CF92DF9249
:1013A000EF92FF920F931F93CF93DF931F92CDB7CE
:1013B000DEB79FEF980F9F3008F03EC080931E2449
:1013C0000E946905C12CD12C0BED17E283E5E82EB4
:1013D00088E2F82E6C2D80E8C816D10409F18C2D16
:1013E000837061F4DF92CF921F930F9369830E9401
:1013F00049D00F900F900F900F90698186E498E389
:101400000E9474539F938F93FF92EF920E9449D052
:101410008FEFC81AD80A0F900F900F900F90DACF65
:101420008AE090E00E945BD086E498E30E944353F8
:101430000E94500580E001C081E00F90DF91CF91C4
:101440001F910F91FF90EF90DF90CF9008950E9431
:10145000690580911E240E94CE09882341F083EC07
:1014600096E29F938F930E9449D00F900F900E9415
:10147000500580E008950E94690580911E240E9415
:10148000CE09882341F083EC96E29F938F930E94CC
:1014900049D00F900F900E94500580E00895BF92B0
:1014A000CF92DF92EF92FF920F931F93CF93DF9330
:1014B0001F92CDB7DEB7663008F048C09FEF980F97
:1014C0009F3008F043C07A01D62E182F80931E2437
:1014D0000E94690560E086E498E30E94C87400E019
:1014E00084E0C82EBB24B394402F6D2D86E498E38E
:1014F0000E94F16B6AE67EE689E190E00E94560365
:10150000143018F4B0921E2402C0C0921E24AE0102
:101510004F5F5F4F60E484E698E30E94538BF701CE
:1015200090818981892B808310931E2486E498E31F
:101530000E944F6C0F5F0830B9F661E086E498E3D3
:101540000E94C8740E94500580E001C081E00F90A5
:10155000DF91CF911F910F91FF90EF90DF90CF908F
:10156000BF900895CF939FEF980F9F3008F04AC027
:1015700080931E240E94690561E086E498E30E943E
:10158000C8746FE086E498E30E944675C0E041E0CD
:101590006C2F86E498E30E946D7340E06C2F86E424
:1015A00098E30E94DC71CF5FC43089F761E086E484
:1015B00098E30E94F77360E086E498E30E94467522
:1015C00060E086E498E30E94C87441E060E086E44D
:1015D00098E30E94DF5341E061E086E498E30E94D3
:1015E000DF53C0E06C2F86E498E30E94A763CF5FCF
:1015F000C430C1F786E498E30E947C640E945005E1
:1016000080E001C081E0CF9108950E94690580913A
:101610001E240E94B20A882341F083EC96E29F9335
:101620008F930E9449D00F900F900E94500580E048
:1016300008959FEF980F9F3040F480931E246EE131
:1016400074E284E698E30C94061281E00895CF9347
:101650009FEF980F9F3068F480931E24C0E06C2F9A
:1016600086E498E30E943513CF5FC830C1F780E06D
:1016700001C081E0CF9108959FEF980F9F3040F413
:1016800080931E2486E498E30E941F1480E008954E
:1016900081E00895AF92BF92CF92DF92EF92FF92D6
:1016A0000F931F93CF936D3148F59FEF980F9F30A5
:1016B00028F5082F8EE4A82E88E3B82EC12CD12C53
:1016C000C0E010E0E62EF12CC8010C2C02C095956C
:1016D00087950A94E2F780FF05C0B701C5010E9413
:1016E000128EC80F8FEFC81AD80A83E0A80EB11C5B
:1016F00084E0C816D10441F78C2F01C081E0CF915E
:101700001F910F91FF90EF90DF90CF90BF90AF901F
:1017100008956091DC2280911E240E944A0B882348
:1017200041F083EC96E29F938F930E9449D00F90F3
:101730000F9080E008958F929F92AF92BF92CF92C8
:10174000DF92EF92FF920F931F93CF939FEF980F2B
:101750009F3030F55A016B01082F8BE1882E89E309
:10176000982EE12CF12CC0E010E0C8010E2C02C034
:10177000959587950A94E2F780FF06C0A501B6010A
:10178000C4010E94808EC80F8FEFE81AF80A83E028
:10179000880E911C84E0E816F10439F78C2F01C003
:1017A00081E0CF911F910F91FF90EF90DF90CF904C
:1017B000BF90AF909F908F900895CF92DF92EF925D
:1017C000FF920F931F93CF93DF939FEF980F9F305C
:1017D00008F0A3C0D82F80931E2400E010E0809171
:1017E0001E2490E0002E02C0959587950A94E2F79A
:1017F00080FF0EC061E0F801E253FC4D80810E9441
:101800003E0361E0F801E653FC4D80810E943E03F7
:101810000F5F1F4F0430110511F700E010E0C0E02A
:10182000EE24E394F12C80911E2490E0002E02C05F
:10183000959587950A94E2F780FF14C06EE06701E2
:10184000002E01C0CC0C0A94EAF78C2D0E944A0BA2
:10185000D82E41E150E061E170E08C2D0E949B0B9D
:101860008D0DC80F0F5F1F4F04301105E1F6D093A7
:101870001E2482E798E30E94511FC80F87E399E373
:101880000E94CD35C80FD0FF0DC081E080931E248B
:101890000E94690541E060E086E498E30E94DF531E
:1018A0000E945005D1FF0DC081E080931E240E944C
:1018B000690541E061E086E498E30E94DF530E94FD
:1018C0005005D2FF0DC084E080931E240E9469055C
:1018D00041E060E086E498E30E94DF530E945005F7
:1018E000D3FF0DC084E080931E240E94690541E06F
:1018F00061E086E498E30E94DF530E945005D09394
:101900001E2420E436E547EB5BE160E070E080E018
:1019100090E00E942A188C2F01C081E0DF91CF91C6
:101920001F910F91FF90EF90DF90CF9008958091DD
:101930001E240E94DD0B882341F083EC96E29F93E6
:101940008F930E9449D00F900F9080E008958F925E
:101950009F92AF92BF92CF92DF92EF92FF920F933E
:101960001F93CF93DF932AE538E34FE558E364EE06
:1019700074E286E498E30E94937BC82F22E035E26C
:101980004AE558E36FE578E38AE498E30E943E4B2A
:10199000C80F2AE538E34FE558E36EEE74E288E4B9
:1019A00098E30E94937BC80F2CE035E24AE558E3A8
:1019B0006FE578E38CE498E30E943E4BC80F28EF74
:1019C00034E24AE558E36FE578E38BEF98E30E9451
:1019D0003E4BC80F29E2822E25E2922E34E9A32E37
:1019E00034E2B32EC12CD12CE12CF12CD0E02AE52D
:1019F00038E34FE558E3B401C7018C59974C0E9476
:101A00007187182F2AE538E34FE558E3B401685D84
:101A10007F4FC7018D5F964C0E947187180F95010B
:101A20004AE558E36FE578E3C7018E58974C0E946A
:101A3000521C180F9501285D3F4F4AE558E36FE5AA
:101A400078E3C701895C964C0E947C34810FC80FF3
:101A50004D2F6BEF78E3C601825B974C0E94558E49
:101A600061E070E0D23010F460E070E0660F771F44
:101A7000665B774C4D2FC601855E964C0E94F68EB4
:101A8000DF5F82E0E80EF11C8AE0880E911C8AE09C
:101A9000A80EB11C83E0C80ED11CD43009F0A7CF2A
:101AA0001FE010931E2484E698E30E94A087C80FCD
:101AB00083E099E30E94A087C80F40E064E083E0E0
:101AC00099E30E94AD89C80F40E068E083E099E3A4
:101AD0000E94AD89C80F40E060E183E099E30E9475
:101AE000AD89C80F40E060E283E099E30E94AD89D0
:101AF000C80F40E060E483E099E30E94AD89C80F1D
:101B000040E060E883E099E30E94AD89C80F40E0BF
:101B100061E084E698E30E94AD89C80F40E060E888
:101B200084E698E30E94AD89C80F41E064E083E059
:101B300099E30E942B88C80F41E068E083E099E3B5
:101B40000E942B88C80F40E060E183E099E30E9487
:101B50002B88C80F40E060E283E099E30E942B8865
:101B6000C80F40E060E483E099E30E942B88C80F2F
:101B700041E060E883E099E30E942B88C80F41E0D0
:101B800061E084E698E30E942B88C80F41E060E89A
:101B900084E698E30E942B88C80F85E080931E247A
:101BA00040E064E084E698E30E94AD89C80F40E01D
:101BB00060E284E698E30E94AD89C80F41E060E4EA
:101BC00084E698E30E94AD89C80F41E064E084E6B2
:101BD00098E30E942B88C80F40E060E284E698E317
:101BE0000E942B88C80F8AE080931E2440E068E0A2
:101BF00084E698E30E94AD89C80F40E064E084E683
:101C000098E30E94AD89C80F40E060E484E698E361
:101C10000E94AD89C80F40E060E284E698E30E942C
:101C2000AD89C80F40E060E184E698E30E94AD8989
:101C3000C80F41E060E484E698E30E942B88C80F57
:101C400060E472E48FE090E00E94560341E068E0B7
:101C500084E698E30E942B88C80F40E060E284E6A7
:101C600098E30E942B88C80F41E060E184E698E386
:101C70000E942B88C80F41E064E084E698E30E944C
:101C80002B88C80F40E060E484E698E30E942B882C
:101C9000C80F41E060E484E698E30E942B88C80FF7
:101CA00010931E248EE1E82E84E2F82E0AE718E352
:101CB00023E043E059E367E379E382E798E30E9496
:101CC000A01782E798E30E948F1CC80F87E399E36F
:101CD0000E94B934C80F8AE498E30E946D4BC80F84
:101CE0008BEF98E30E946D4BC80F81E080931E2418
:101CF0000E94690586E498E30E94D07BC80F0E9489
:101D00005005D0931E240E94690586E498E30E9442
:101D1000D07BC80F4AE46EE178E086E498E30E9445
:101D20000A794AE461E078E086E498E30E940A795F
:101D300049E460E070E086E498E30E940A794BE4AD
:101D400067E07FE086E498E30E940A794CE460E073
:101D50007FE086E498E30E940A794DE460E073E056
:101D600086E498E30E940A794FE560E271E386E435
:101D700098E30E940A7941E661E171E086E498E324
:101D80000E940A794AE461E078E086E498E30E94E0
:101D90000A790E945005E12CF12C01E010E0C80105
:101DA0000E2C01C0880F0A94EAF780931E246EE07F
:101DB0000E944A0BD82F41E150E061E170E0809130
:101DC0001E240E949B0B8D0FC80F8FEFE81AF80A94
:101DD00084E0E816F10419F78FE00E94DD0B8FE034
:101DE0000E94FE078C2FDF91CF911F910F91FF90E2
:101DF000EF90DF90CF90BF90AF909F908F9008951D
:101E00000E94A70C882341F083EC96E29F938F9366
:101E10000E9449D00F900F9080E0089540910023D8
:101E2000509101236091EE227091EF2280911E2447
:101E30000E949B0B882341F083EC96E29F938F9343
:101E40000E9449D00F900F9080E008950F931F9348
:101E5000CF93DF9300D01F92CDB7DEB79FEF980FDF
:101E60009F3008F06BC080931E248E010F5F1F4FC0
:101E70009E012E5F3F4FAE014D5F5F4FBE016C5F15
:101E80007F4F84E698E30E949F8C8C811F928F93F2
:101E900087EE97E29F938F930E9449D08B811F9288
:101EA0008F938EEF97E29F938F930E9449D08A8100
:101EB0001F928F9386E198E29F938F930E9449D05F
:101EC00089811F928F9380E398E29F938F930E9462
:101ED00049D09E012E5F3F4FAE014D5F5F4FBE0167
:101EE0006C5F7F4F83E099E30E949F8C8C811F92EF
:101EF0008F9384EE97E29F938F930E9449D08B81BA
:101F00001F928F938BEF97E29F938F930E9449D0FC
:101F10008A811F928F9383E198E29F938F930E940F
:101F200049D089811F928F938DE298E29F938F937E
:101F30000E9449D0CDBFDEBF80E001C081E0249681
:101F4000CDBFDEBFDF91CF911F910F91089580919A
:101F50001E240E94260F882341F083EC96E29F9373
:101F60008F930E9449D00F900F9080E00895AF9218
:101F7000BF92CF92DF92EF92FF920F931F93CF9376
:101F8000DF93C0E6D6E0AA24A394A98284E0B82E09
:101F9000B98290E1E92EE98220E4F22EF98232E062
:101FA000C32EC98248E0D42ED98200E2098310E80A
:101FB0001983AE82BE82EE82FE82CE82DE820E83E4
:101FC0001E8341E050E060E880E496E00E94FEBAA3
:101FD000E0EAF6E0E1820183F1821183E18201838C
:101FE000F1821183E5820583F5821583E5820583FD
:101FF000F58215836AE67EE689E190E00E94560349
:1020000043E050E060E880E496E00E94FEBA6AE1B6
:1020100071E480E090E00E945603AD82BD82ED82C3
:10202000FD82CD82DD820D831D8341E050E060E8BA
:1020300080E496E00E94FEBA80E0DF91CF911F918C
:102040000F91FF90EF90DF90CF90BF90AF900895E9
:10205000CF93DF93809150008260809350008091F5
:10206000510081FFFCCFD8EDD4BFC1E0C093400048
:1020700065ED7CED82E390E00E945603F894D4BFB6
:10208000C093960088E08093A1068093A5060E94E5
:10209000B70F62E087E195E20E94909BC82F6DE048
:1020A00084E994E20E94A79CC80F23E641E06EE217
:1020B00077E38CE698E30E945BBB23E641E062E9AC
:1020C00077E38DEF98E30E945BBB61E082EE93E2E1
:1020D0000E942BA5D82F62E08AE795E20E94B79173
:1020E0008C0FC82FCD0F97E09093A2008091A20093
:1020F00080688093A2009093A20078940E948EBA88
:102100008AE00E9427BA20E148E06091F62380919E
:10211000FA239091FB230E9446B520E149E06091AB
:10212000F7238091FC239091FD230E9446B520E186
:102130004AE06091F8238091FE239091FF230E9452
:1021400046B520E14BE06091F92380910024909105
:1021500001240E9446B58C2FDF91CF91089580E035
:1021600008950E9469054FEF5FEF60917E2386E43A
:1021700098E30E943A79882341F083EC96E29F939A
:102180008F930E9449D00F900F900E94500580E0DD
:1021900008958091902390919123A0919223B091E2
:1021A000932383309105A105B10598F08430910502
:1021B000A105B10571F00897A105B10551F083ECB7
:1021C00096E29F938F930E9449D00F900F9081E0E9
:1021D00008950E9469056091902386E498E30E9427
:1021E000655B0E94500580E00895CF93DF931F92B6
:1021F000CDB7DEB78091A2239091A323A091A42311
:10220000B091A5230697A105B10550F083EC96E2A5
:102210009F938F930E9449D00F900F9081E018C038
:102220000E946905AE014F5F5F4F6091A2238091CC
:102230001E240E944F0A882341F083EC96E29F936C
:102240008F930E9449D00F900F900E94500580E01C
:102250000F90DF91CF91089580E0089580E0089578
:10226000CF93DF93C091B423D091B5230E94690529
:102270008091C6239091C723A091C823B091C92310
:102280000197A105B10539F5AE016091A22386E45D
:1022900098E30E94A3538091A5238F938091A42358
:1022A0008F938091A3238F938091A2238F9388E4AF
:1022B00098E29F938F930E9449D0DF93CF938BE551
:1022C00098E29F938F930E9449D08DB79EB70A964C
:1022D0008DBF9EBF26C06091A22386E498E30E9432
:1022E0007453EC018091A5238F938091A4238F9345
:1022F0008091A3238F938091A2238F9329E638E2C4
:102300003F932F930E9449D0DF93CF938BE598E2C0
:102310009F938F930E9449D08DB79EB70A968DBF29
:102320009EBF0E94500580E0DF91CF91089580E02C
:10233000089580E0089580E0089580E008950F9367
:102340001F938A012AE040E050E20E9468C3815056
:102350008B3070F440E06AE080E090E20E9446CA70
:102360008CE798E29F938F930E9449D00F900F9033
:1023700080E01F910F910895EF92FF920F931F93AA
:10238000CF93DF930097D1F161157105B9F18B01FE
:102390007C0187E892E30E9461D083E196E30E948A
:1023A00061D0C0E0D0E040E0BE01C8010E94E24D33
:1023B00041E0BE01C8010E94E24DBE01C7010E947A
:1023C000474E2F96CF3F8FE0D80769F742E0BE0116
:1023D000C8010E94E24D43E0BE01C8010E94E24DE7
:1023E000BE01C7010E94474E2F97CE31D10571F72C
:1023F0008AE090E00E945BD080E001C081E0DF9144
:10240000CF911F910F91FF90EF900895BF92CF92BF
:10241000DF92EF92FF920F931F93CF93DF9300D041
:102420001F92CDB7DEB7009709F411C16B017C0193
:102430008FE0B82EFB01B08240E061E0C7010E944E
:10244000AD8940E062E0C7010E94AD8940E064E0F0
:10245000C7010E94AD8940E068E0C7010E94AD89D4
:1024600040E060E1C7010E94AD8940E060E2C70141
:102470000E94AD8940E060E4C7010E94AD8940E060
:1024800060E8C7010E94AD8940E061E0C7010E9499
:102490002B8840E062E0C7010E942B8840E064E0A6
:1024A000C7010E942B8840E068E0C7010E942B888A
:1024B00040E060E1C7010E942B8840E060E2C70174
:1024C0000E942B8840E060E4C7010E942B8840E016
:1024D00060E8C7010E942B8885E0F601808341E017
:1024E00061E0C7010E942B8841E064E0C7010E94BF
:1024F0002B8841E060E1C7010E942B8841E060E445
:10250000C7010E942B888AE0F601808341E062E0E7
:10251000C7010E942B8841E068E0C7010E942B8818
:1025200041E060E2C7010E942B8841E060E8C701FA
:102530000E942B8881E0F60180838E010F5F1F4F80
:102540009E012E5F3F4FAE014D5F5F4FBE016C5F3E
:102550007F4FC7010E949F8C89811F928F938A8130
:102560001F928F938B811F928F938C811F928F93D9
:102570008BE992E39F938F930E9449D082E0F6010A
:1025800080839E012E5F3F4FAE014D5F5F4FBE01C6
:102590006C5F7F4FC7010E949F8C89811F928F9330
:1025A0008A811F928F938B811F928F938C811F92B0
:1025B0008F9389EC92E39F938F930E9449D084E09C
:1025C000F60180839E012E5F3F4FAE014D5F5F4F4E
:1025D000BE016C5F7F4FC7010E949F8C89811F9253
:1025E0008F938A811F928F938B811F928F938C81FF
:1025F0001F928F9387EF92E39F938F930E9449D00E
:1026000088E0F60180839E012E5F3F4FAE014D5F53
:102610005F4FBE016C5F7F4FC7010E949F8C898115
:102620001F928F938A811F928F938B811F928F931A
:102630008C811F928F9385E293E39F938F930E94E7
:1026400049D0F601B082CDBFDEBF80E001C081E09D
:102650002496CDBFDEBFDF91CF911F910F91FF90E8
:10266000EF90DF90CF90BF9008952F923F925F92AE
:102670006F927F928F929F92AF92BF92CF92DF9292
:10268000EF92FF920F931F93CF93DF931F92CDB7DB
:10269000DEB7009709F4BFC0683008F0BCC0562E02
:1026A0003C01AE014F5F5F4F0E946E6300E010E09F
:1026B00043E4242E44E3342E52EEE52E53E3F52E6C
:1026C00062EBC62E63E3D62E75E8A72E73E3B72E12
:1026D000E3E58E2EE3E39E2E898190E0002E02C07A
:1026E000959587950A94E2F780FF3AC0802F90E095
:1026F000FC013197E730F10538F5EC50FF4F0C94B1
:1027000011CD1F925F929F928F9224C01F925F9271
:10271000BF92AF921FC01F925F92DF92CF921AC0FA
:102720001F925F92FF92EF9215C01F925F92A1E1FC
:10273000B4E30EC01F925F923F922F920BC01F9284
:102740005F92A5E7B4E304C01F925F92A6EAB4E3E8
:10275000BF93AF930E9449D00F900F900F900F90AE
:102760000F5F1F4F0830110509F0B6CF652DC3016B
:102770000E94A763AE014F5F5F4F652DC3010E94AA
:10278000DE6300E010E08AE0882E85E3982E94ED69
:10279000E92E94E3F92E25E6C22E25E3D22E3EE261
:1027A000A32E35E3B32E898190E0002E02C09595CB
:1027B00087950A94E2F780FF1FC0023071F0033062
:1027C00039F0013079F41F925F92BF92AF920EC040
:1027D0001F925F92FF92EF9209C01F925F929F92A9
:1027E0008F9204C01F925F92DF92CF920E9449D0D5
:1027F0000F900F900F900F900F5F1F4F0430110537
:1028000091F6652DC3010E9416648AE090E00E9453
:102810005BD080E001C081E00F90DF91CF911F91EC
:102820000F91FF90EF90DF90CF90BF90AF909F906F
:102830008F907F906F905F903F902F9008950F93AF
:102840001F93CF93DF931F92CDB7DEB7009701F1AF
:102850008C01BE016F5F7F4F0E944D64898183FFB1
:1028600004C08AE895E30E9461D0898182FF04C098
:1028700080EB95E30E9461D0898180FF04C086EDE2
:1028800095E30E9461D0C8010E947C6480E001C091
:1028900081E00F90DF91CF911F910F9108950F93D9
:1028A0001F93CF93DF9300D01F92CDB7DEB7009771
:1028B00009F445C18C0187EF95E30E9461D08FE058
:1028C00096E30E9461D02DEA3EED40E050E063E0E7
:1028D000C8010E9495212FEE3DEC4BEA50E064E0E8
:1028E000C8010E94952121E830E040E050E06FE00F
:1028F000C8010E949521AE014F5F5F4F6FE0C80194
:102900000E94CD218C818F938B818F938A818F93AD
:1029100089818F9387E296E39F938F930E9449D09A
:10292000AE014F5F5F4F60E0C8010E94CD218C81F6
:102930008F938B818F938A818F9389818F9384E387
:1029400096E39F938F930E9449D0AE014F5F5F4FF4
:1029500061E0C8010E94CD218C818F938B818F9380
:102960008A818F9389818F9381E496E39F938F93DC
:102970000E9449D0AE014F5F5F4F62E0C8010E94E4
:10298000CD218C818F938B818F938A818F938981C5
:102990008F938EE496E39F938F930E9449D0AE016C
:1029A0004F5F5F4F63E0C8010E94CD218C818F9300
:1029B0008B818F938A818F9389818F938BE596E3A7
:1029C0009F938F930E9449D0AE014F5F5F4F64E0A9
:1029D000C8010E94CD218C818F938B818F938A8136
:1029E0008F9389818F9388E696E39F938F930E94BC
:1029F00049D0CDBFDEBFAE014F5F5F4F65E0C8017C
:102A00000E94CD218C818F938B818F938A818F93AC
:102A100089818F9385E796E39F938F930E9449D096
:102A2000AE014F5F5F4F66E0C8010E94CD218C81EF
:102A30008F938B818F938A818F9389818F9382E883
:102A400096E39F938F930E9449D0AE014F5F5F4FF3
:102A500067E0C8010E94CD218C818F938B818F9379
:102A60008A818F9389818F938FE896E39F938F93C9
:102A70000E9449D0AE014F5F5F4F68E0C8010E94DD
:102A8000CD218C818F938B818F938A818F938981C4
:102A90008F938CE996E39F938F930E9449D0AE0168
:102AA0004F5F5F4F69E0C8010E94CD218C818F93F9
:102AB0008B818F938A818F9389818F9389EA96E3A3
:102AC0009F938F930E9449D0AE014F5F5F4F6AE0A2
:102AD000C8010E94CD218C818F938B818F938A8135
:102AE0008F9389818F9386EB96E39F938F930E94B8
:102AF00049D0CDBFDEBFAE014F5F5F4F6BE0C80175
:102B00000E94CD218C818F938B818F938A818F93AB
:102B100089818F9383EC96E39F938F930E9449D092
:102B2000C8010E94511F8AE090E00E945BD00F9084
:102B30000F900F900F900F900F9080E001C081E0F8
:102B40002496CDBFDEBFDF91CF911F910F910895E5
:102B50008F929F92AF92BF92CF92DF92EF92FF92AD
:102B60000F931F93CF93DF9300D01F92CDB7DEB7A3
:102B7000009709F4CBC14A015B018C0180ED96E31B
:102B80000E9461D08FE096E30E9461D02FEE3EEB71
:102B900040E050E063E0C8010E9409382AEB3CEDB8
:102BA0004EEF50E064E0C8010E94093821E830E0AF
:102BB00040E050E06FE0C8010E940938AE014F5F6D
:102BC0005F4F6FE0C8010E9441388C818F938B81E9
:102BD0008F938A818F9389818F9387E296E39F9366
:102BE0008F930E9449D0D4011296ED91FC911397D6
:102BF00083811F928F9382811F928F9381811F9275
:102C00008F9380811F928F9388EEC82E86E3D82EF3
:102C1000DF92CF920E9449D0D5011296ED91FC919E
:102C2000139783811F928F9382811F928F9381814B
:102C30001F928F9380811F928F9390E0E92E97E3EC
:102C4000F92EFF92EF920E9449D0AE014F5F5F4F85
:102C500060E0C8010E9441388C818F938B818F93F3
:102C60008A818F9389818F9384E396E39F938F93D7
:102C70000E9449D0D4011296ED91FC911397CDBFDB
:102C8000DEBF83811F928F9382811F928F938181F8
:102C90001F928F9380811F928F93DF92CF920E9419
:102CA00049D0D5011296ED91FC91139783811F9223
:102CB0008F9382811F928F9381811F928F93808146
:102CC0001F928F93FF92EF920E9449D0AE014F5F07
:102CD0005F4F61E0C8010E9441388C818F938B81E6
:102CE0008F938A818F9389818F9381E496E39F9359
:102CF0008F930E9449D0D4011296ED91FC911397C5
:102D000083811F928F9382811F928F9381811F9263
:102D10008F9380811F928F93DF92CF920E9449D030
:102D2000D5011296ED91FC911397CDBFDEBF838143
:102D30001F928F9382811F928F9381811F928F9315
:102D400080811F928F93FF92EF920E9449D0AE0133
:102D50004F5F5F4F62E0C8010E9441388C818F93C2
:102D60008B818F938A818F9389818F938EE496E3F1
:102D70009F938F930E9449D0AE014F5F5F4F63E0F6
:102D8000C8010E9441388C818F938B818F938A81F7
:102D90008F9389818F938BE596E39F938F930E9406
:102DA00049D0AE014F5F5F4F64E0C8010E944138D7
:102DB0008C818F938B818F938A818F9389818F935D
:102DC00088E696E39F938F930E9449D0AE014F5FB0
:102DD0005F4F65E0C8010E9441388C818F938B81E1
:102DE0008F938A818F9389818F9385E796E39F9351
:102DF0008F930E9449D0CDBFDEBFAE014F5F5F4FC2
:102E000066E0C8010E9441388C818F938B818F933B
:102E10008A818F9389818F9382E896E39F938F9322
:102E20000E9449D0AE014F5F5F4F67E0C8010E942A
:102E300041388C818F938B818F938A818F93898185
:102E40008F938FE896E39F938F930E9449D0AE01B2
:102E50004F5F5F4F68E0C8010E9441388C818F93BB
:102E60008B818F938A818F9389818F938CE996E3ED
:102E70009F938F930E9449D0AE014F5F5F4F69E0EF
:102E8000C8010E9441388C818F938B818F938A81F6
:102E90008F9389818F9389EA96E39F938F930E9402
:102EA00049D0AE014F5F5F4F6AE0C8010E944138D0
:102EB0008C818F938B818F938A818F9389818F935C
:102EC00086EB96E39F938F930E9449D0AE014F5FAC
:102ED0005F4F6BE0C8010E9441388C818F938B81DA
:102EE0008F938A818F9389818F9383EC96E39F934D
:102EF0008F930E9449D0CDBFDEBFC8010E94CD355F
:102F00008AE090E00E945BD080E001C081E02496DE
:102F1000CDBFDEBFDF91CF911F910F91FF90EF905A
:102F2000DF90CF90BF90AF909F908F9008958AE6EA
:102F300094E0A1E0B0E00197A109B109E1F708959B
:102F4000AF92BF92CF92DF92EF92FF920F931F93B7
:102F5000CF93DF931F92CDB7DEB75701E092493987
:102F6000F0924A3940933F39509340398093413928
:102F7000909342396093433970934439F701D0807C
:102F8000E12CF12CCC24C3948C2D0E2C01C0880F85
:102F90000A94EAF7F501808340E060E180913F39CF
:102FA0009091403929830E94AD8940E060E2809190
:102FB0003F39909140390E94AD8940E060E48091B2
:102FC0003F39909140390E94AD8940E060E880919E
:102FD0003F39909140390E94AD8941E060E1809194
:102FE0003F39909140390E942B8840E060E2809107
:102FF0003F39909140390E942B8840E060E48091F5
:103000003F39909140390E942B8840E060E88091E0
:103010003F39909140390E942B88FFEFEF1AFF0A49
:10302000298184E0E816F10409F0AECFF501D082E1
:1030300020934D3900934B3910934C390F90DF9109
:10304000CF911F910F91FF90EF90DF90CF90BF90A5
:10305000AF9008952F923F924F925F926F927F921E
:103060008F929F92AF92BF92CF92DF92EF92FF9298
:103070000F931F93CF93DF93CDB7DEB7E997CDBF03
:10308000DEBF822E398749AF58AF6A87672E782E08
:10309000992E2F3308E730070DE7400701E050076E
:1030A0006105710581059105C1F0B8F021153C4B12
:1030B000404A55466140710581059105D1F0C8F03F
:1030C000812C5CEB598760EA69AF75E678AF81E0E7
:1030D0008A87612C712C912C0CC080E4882E28E703
:1030E00029873DE739AF41E048AF1A86612C712C42
:1030F000912C90EC988FA9E2A98FBDECBA8FE2E0F9
:10310000EB8F1DA21EA21FA218A619A61AA61BA607
:103110001CA61DA61EA61FA618AAF2E3FC8F0FE28E
:103120000B8B188D1B87298D2C873A8D3D874B8DF6
:103130004E87A12EB22EC32ED42EEDA0FEA00FA13D
:1031400018A5282D398549AD58AD6A85762D872D6E
:10315000992D0E945BCCB22FA32FD42EC52E2B8588
:103160003C854D855E856B2F7A2F8D2D9C2D0E9481
:103170001BCC69AB7AAB8BAB9CAB61E070E080E0C1
:1031800090E06F87788B898B9A8B1C8A7AEC7D8B89
:103190008AE98E8B9BE39F8B212C312C412C512C67
:1031A0009F859DAB1E8E1F8E18A219A21D8E6E8D3F
:1031B0007F8D88A199A12F85388949895A890E94D4
:1031C00037CC89A99AA9ABA9BCA9820F931FA41FC8
:1031D000B51F8C019D0140E050E0BA0189831A833C
:1031E0002B833C834D835E836F837887282D3985BD
:1031F00049AD58AD6A85762D872D992D5801CB8024
:10320000DC80E12CF12C00E010E00E9460CD09F0A0
:1032100080F429813A814B815C8160E070E080E03C
:1032200090E0A82CB984C9ACD8ACEA84F62C072D60
:10323000192D0E9457CDD9014BA35CA36EAB7FAB78
:10324000F82FE92F2C893D894E895F89B101C20190
:103250005D01CBA0DCA0EEA8FFA80F2F1E2F0E94BF
:1032600060CD41F038F0AC8BBD8BCE8ADF8A170180
:103270004F2E5E2E1D8D1F5F1D8F2E8D3F8D48A101
:1032800059A16B857C858D859E85260F371F481F2C
:10329000591F2E8F3F8F48A359A37DA9711708F09E
:1032A00086CF8F859889A989BA890196A11DB11DFC
:1032B0008F87988BA98BBA8B0497A105B10509F06C
:1032C0006FCF2C893D894E895F89B101C201A9A4C4
:1032D000BAA4CBA4DCA4EDA4FEA40FA518A90E9457
:1032E00060CD09F028F4A0E00E9469CD71F10EC014
:1032F000AC89A9A7BD89BAA7EE89EBA7FF89FCA76E
:103300002DA63EA64FA658AA0B890C8F1B891F5FBE
:103310001B8B288D398D4A8D5B8D6DA17EA18FA170
:1033200098A5205C3D4B404F5F4F6F4F7F4F8F4FB5
:103330009F4F288F398F4A8F5B8F6DA37EA38FA3FA
:1033400098A7133309F0EDCE02C02B892C8F40E0F3
:1033500060E180913F39909140390E942B8840E094
:1033600060E280913F39909140390E942B8840E083
:1033700060E480913F39909140390E942B8840E071
:1033800060E880913F39909140390E942B8841E05C
:1033900060E180913F39909140390E942B8840E054
:1033A00060E080914339909144390E944D493C8DB1
:1033B000232E312C412C512CE0914B39F0914C397A
:1033C000A8EEB3E0A20191010E9410CCAB01BC01B8
:1033D0009F0180914139909142390E9451230E946E
:1033E0009717282D398549AD58AD6A85762D872DDB
:1033F000992DE0914339F0914439C0904B39D090E8
:103400004C392115AEE53A07A0ED4A07A2EB5A0761
:10341000610571058105910509F080F48201710152
:1034200020E0482D532F69AD78ADCF010E94E739D8
:103430001B012C01612C712C43011AC0282D3985E8
:1034400049AD58AD6A85762D872D992D01E00E94F2
:1034500032CDA22F8201710121E0BA014A2F532FF0
:10346000CF010E94E7391B012C01612C712C430113
:103470000E9497175F924F923F922F9288E197E3B5
:103480009F938F930E9449D080914B3990914C39F2
:103490000E9461D00F900F900F900F900F900F909F
:1034A0009101A201B301C401E996CDBFDEBFDF9156
:1034B000CF911F910F91FF90EF90DF90CF90BF9031
:1034C000AF909F908F907F906F905F904F903F90C4
:1034D0002F900895089540E060E180913F399091E8
:1034E00040390C942B8841E060E180913F39909104
:1034F00040390C942B8808950895CF93DF93CDB76E
:10350000DEB780E098E4A8EEB1E0BC01CD01DF9128
:10351000CF910895CF93DF931F92CDB7DEB7198275
:103520000E947D1ADC01CB012981222F30E0022E7E
:1035300004C0B695A795979587950A94D2F7BC01D4
:10354000CD010F90DF91CF910895CF93DF93CDB749
:10355000DEB70E948A1ADC01CB01BC01CD01DF91EC
:10356000CF910895CF93DF93CDB7DEB70E94A51A10
:10357000DC01CB01BC01CD01DF91CF910895CF9348
:10358000DF93CDB7DEB70E94B21ADC01CB01BC01DC
:10359000CD01DF91CF9108956150710981099109A1
:1035A000D9F708958F929F92AF92BF92CF92DF92F8
:1035B000EF92FF920F931F93CF93DF93CDB7DEB7B8
:1035C0002C97CDBFDEBF89839A836B832C833D8389
:1035D0004E835F830887C986DA86EB86FC868885FA
:1035E000282F30E08C819D81AE81BF8104C0880F7F
:1035F000991FAA1FBB1F2A95D2F72091F637309149
:10360000F737F901828093806091F6377091F73730
:10361000E091F837F091F93729853A854B855C853B
:1036200059016A017C018D0194014B81CF010E94F7
:10363000323189819A81FC0180819181FC01208154
:1036400031814091F6375091F7376091F83770919A
:10365000F93789819A81FC0180819181F90119955D
:1036600000002C96CDBFDEBFDF91CF911F910F914F
:10367000FF90EF90DF90CF90BF90AF909F908F9092
:103680000895CF93DF9300D0CDB7DEB789839A83B7
:103690006B832091F6373091F7378091F83790910E
:1036A000F9374B81B9010E941D3289819A81FC0151
:1036B00080819181FC01208131814091F6375091C8
:1036C000F7376091F8377091F93789819A81FC0159
:1036D00080819181F90119958091F6379091F737A2
:1036E000FC01828193812091F6373091F737F901FF
:1036F00022813381F9012081222F30E0220F331FF4
:10370000422F2091F6373091F737F901228133812A
:103710002F5F3F4FF9012081221F2227221F242BD8
:10372000FC0120838091F6379091F737FC0182816C
:10373000938101962091F6373091F737F901228174
:1037400033812F5F3F4FF9012081222F30E0220F7C
:10375000331F422F2091F6373091F737F90122813C
:1037600033812E5F3F4FF9012081221F2227221F24
:10377000242BFC0120838091F6379091F737FC01D0
:103780008281938102962091F6373091F737F901C3
:10379000228133812E5F3F4FF9012081222F30E0BB
:1037A000220F331F422F2091F6373091F737F9015E
:1037B000228133812D5F3F4FF9012081221F222773
:1037C000221F242BFC0120838091F6379091F7373C
:1037D000FC0182819381FC018081882F90E0A0E030
:1037E000B0E0AC01332722278091F6379091F7376C
:1037F000FC01828193810196FC018081882F90E0F9
:10380000A0E0B0E0BA2FA92F982F8827282B392BBA
:103810004A2B5B2B8091F6379091F737FC01828120
:1038200093810296FC018081882F90E0A0E0B0E0B7
:10383000822B932BA42BB52B8093FA379093FB37D5
:10384000A093FC37B093FD372091F6373091F737CE
:103850008091F8379091F937B9010E94DA31898166
:103860009A81FC0180819181FC012081318140910C
:10387000F6375091F7376091F8377091F9378981B1
:103880009A81FC0180819181F90119958091F63727
:103890009091F737FC0180812396CDBFDEBFDF9189
:1038A000CF910895CF93DF93CDB7DEB72897CDBFE3
:1038B000DEBF89839A836B837C834D835E832F83F2
:1038C000388789819A81009711F481E022C08B8129
:1038D0009C81009741F08D819E81009721F08F811E
:1038E0009885009711F483E014C089819A812F8113
:1038F0003885FC01208331838B819C818093F6374E
:103900009093F7378D819E818093F8379093F937A4
:1039100080E02896CDBFDEBFDF91CF9108952F9232
:103920003F924F925F926F927F928F929F92AF924F
:10393000BF92CF92DF92EF92FF920F931F93CF939C
:10394000DF93CDB7DEB76597CDBFDEBF8C839D8398
:1039500081E089838FE08A838EE18B838C819D81D6
:10396000009711F481E087C28C819D81CC24CA9498
:10397000DC2CEC2CF12C00E020E230E040E050E0C8
:1039800060E00E94D21A8C819D81CC24CA94DC2CE8
:10399000EC2CF12C00E020E030E0A90160E00E9476
:1039A000D21A8C819D81CC24CA94DC2CEC2CF12C75
:1039B00000E022E030E040E050E061E00E94D21AF6
:1039C0008C819D81CC24CA94DC2CEC2CF12C00E061
:1039D0002DE43EE040E050E067E00E94D21A8C8186
:1039E0009D81CC24CA94DC2CEC2CF12C00E02FEF30
:1039F0003EEB41EC50E068E00E94D21A8C819D8140
:103A0000CC24CA94DC2CEC2CF12C00E027EC30E226
:103A100040E050E06AE00E94D21A8C819D81CC2463
:103A2000CA94DC2CEC2CF12C00E021E630EC4FE0C9
:103A300050E06BE00E94D21A8C819D81CC24CA9404
:103A4000DC2CEC2CF12C00E029EC30E040E050E0E4
:103A50006FE00E94D21A8981882F90E0A0E0B0E048
:103A6000EC81FD81CC24CA94DC2CEC2CF12C00E000
:103A70009C01AD0162E0CF010E94D21A8C819D8130
:103A8000CC24CA94DC2CEC2CF12C00E02AEC37E09E
:103A900040E050E066E00E94D21A8C819D81CC24E7
:103AA000CA94DC2CEC2CF12C00E024E632E340E05C
:103AB00050E069E00E94D21A8C819D81CC24CA9486
:103AC000DC2CEC2CF12C00E020E030E0A9016CE0D3
:103AD0000E94D21A8C819D81CC24CA94DC2CEC2CBF
:103AE000F12C00E020EA30E640E050E065E00E9482
:103AF000D21A8C819D81CC24CA94DC2CEC2CF12C24
:103B000000E028E236E140E050E065E00E94D21A91
:103B10008C819D81CC24CA94DC2CEC2CF12C00E00F
:103B200020EB3FE740E050E065E00E94D21A8C8134
:103B30009D81CC24CA94DC2CEC2CF12C00E020E0FC
:103B400030E0A90165E00E94D21A8A81882F90E0B6
:103B5000A0E0B0E0EC81FD81CC24CA94DC2CEC2CFC
:103B6000F12C00E09C01AD0163E0CF010E94D21A6C
:103B70008C819D81CC24CA94DC2CEC2CF12C00E0AF
:103B800020E030E0A90164E00E94D21A0E94BF1A2E
:103B9000DC01CB015C016D01E12CF12C87012A2DA8
:103BA0003B2D4C2D5D2D6E2D7F2D802F912F01E013
:103BB0000E9417CDA22EB32EC42ED52EE62EF72EA0
:103BC000082F192F2A2D3B2D4C2D5D2D6E2D7F2D6D
:103BD000802F912F29513C4F4F4F5F4F6F4F7F4F99
:103BE0008F4F9F4F222E332E442E552E662E772E2A
:103BF000882E992E6894AA24A7F80F2EF5E2BF2EDE
:103C0000F02DC12CD12CE12CF12C00E010E0222D64
:103C1000332D442D552D662D772D882D992D0E94FD
:103C20005BCCA22EB32EC42ED52EE62EF72E082F57
:103C3000192F2A2D3B2D4C2D5D2D6E2D7F2D802F84
:103C4000912FDA01C901BC01CD010E94CC1A8C81EF
:103C50009D81CC24CA94DC2CEC2CF12C00E028E1D2
:103C600038E040E050E065E00E94D21A0E94BF1A9E
:103C7000DC01CB018C019D0140E050E0BA010E83D4
:103C80001F83288739874A875B876C877D878E806B
:103C90009F80A884B984CA84DB84EC84FD84282DA9
:103CA000392D4A2D5B2D6C2D7D2D8E2D9F2D02E003
:103CB0000E9417CDA22EB32EC42ED52EE62EF72E9F
:103CC000082F192F2A2D3B2D4C2D5D2D6E2D7F2D6C
:103CD000802F912FAE80BF80C884D984EA84FB8472
:103CE0000C851D850E9457CD822E932EA42EB52EB5
:103CF000C62ED72EE82EF92E282D392D4A2D5B2DD4
:103D00006C2D7D2D8E2D9F2D05E00E9417CD2E87C9
:103D10003F87488B598B6A8B7B8B8C8B9D8B282D97
:103D2000392D4A2D5B2D6C2D7D2D8E2D9F2DAE8432
:103D3000BF84C888D988EA88FB880C891D890E94BD
:103D40004ECDA22EB32EC42ED52EE62EF72E082F42
:103D5000192F2A2D3B2D4C2D5D2D6E2D7F2D802F63
:103D6000912FAE80BF80C884D984EA84FB840C85FF
:103D70001D850E944ECDA22EB32EC42ED52EE62E2A
:103D8000F72E082F192F2A2D3B2D4C2D5D2D6E2D32
:103D90007F2D802F912F215C3D4B404F5F4F6F4F08
:103DA0007F4F8F4F9F4F222E332E442E552E662E3F
:103DB000772E882E992EA12C0F2EFCE7BF2EF02DEA
:103DC0000F2EF2E9CF2EF02DD12CE12CF12C00E0BA
:103DD00010E0222D332D442D552D662D772D882D65
:103DE000992D0E945BCCA22EB32EC42ED52EE62E8A
:103DF000F72E082F192F2A2D3B2D4C2D5D2D6E2DC2
:103E00007F2D802F912FDA01C901BC01CD010E94C5
:103E1000CC1A8B81882F90E0A0E0B0E0880F991F2A
:103E2000AA1FBB1F880F991FAA1FBB1F880F991FAE
:103E3000AA1FBB1F880F991FAA1FBB1F880F991F9E
:103E4000AA1FBB1F880F991FAA1FBB1F880F991F8E
:103E5000AA1FBB1F80619066EC81FD81CC24CA94AF
:103E6000DC2CEC2CF12C00E09C01AD0165E0CF01D5
:103E70000E94D21A80E06596CDBFDEBFDF91CF9160
:103E80001F910F91FF90EF90DF90CF90BF90AF9078
:103E90009F908F907F906F905F904F903F902F906A
:103EA0000895CF93DF931F921F92CDB7DEB789831A
:103EB0009A8389819A81009711F481E009C08981F0
:103EC0009A810E948F1C882311F081E001C080E05C
:103ED0000F900F90DF91CF910895CF93DF9300D093
:103EE0001F92CDB7DEB789839A836B837C838981E8
:103EF0009A81009711F481E0ADC18B819C8100977C
:103F000011F483E0A7C189819A8160E00E94411B7E
:103F1000882379F48091FA379091FB37A091FC3790
:103F2000B091FD372B813C81F90180839183A2837D
:103F3000B38389819A8161E00E94411B882391F4B7
:103F40008B819C819C012C5F3F4F8091FA3790912F
:103F5000FB37A091FC37B091FD37F9018083918345
:103F6000A283B38389819A8162E00E94411B8823E6
:103F700091F48B819C819C01285F3F4F8091FA379F
:103F80009091FB37A091FC37B091FD37F901808308
:103F90009183A283B38389819A8163E00E94411B4C
:103FA000882391F48B819C819C01245F3F4F8091F9
:103FB000FA379091FB37A091FC37B091FD37F901AA
:103FC00080839183A283B38389819A8164E00E9474
:103FD000411B882391F48B819C819C01205F3F4F82
:103FE0008091FA379091FB37A091FC37B091FD3763
:103FF000F90180839183A283B38389819A8166E0EA
:104000000E94411B882391F48B819C819C012C5E32
:104010003F4F8091FA379091FB37A091FC37B091D8
:10402000FD37F90180839183A283B38389819A81CB
:1040300067E00E94411B882391F48B819C819C0145
:10404000285E3F4F8091FA379091FB37A091FC3763
:10405000B091FD37F90180839183A283B383898175
:104060009A8168E00E94411B882391F48B819C8196
:104070009C01245E3F4F8091FA379091FB37A091CD
:10408000FC37B091FD37F90180839183A283B3831C
:1040900089819A8169E00E94411B882391F48B8178
:1040A0009C819C01205E3F4F8091FA379091FB37B5
:1040B000A091FC37B091FD37F90180839183A283F1
:1040C000B38389819A816AE00E94411B882391F41D
:1040D0008B819C819C012C5D3F4F8091FA379091A0
:1040E000FB37A091FC37B091FD37F90180839183B4
:1040F000A283B38389819A816BE00E94411B88234C
:1041000091F48B819C819C01285D3F4F8091FA370F
:104110009091FB37A091FC37B091FD37F901808376
:104120009183A283B38389819A816CE00E94411BB1
:10413000882391F48B819C819C01245D3F4F809169
:10414000FA379091FB37A091FC37B091FD37F90118
:1041500080839183A283B38389819A816FE00E94D7
:10416000411B882391F48B819C819C01205D3F4FF2
:104170008091FA379091FB37A091FC37B091FD37D1
:10418000F90180839183A283B38389819A8160E15D
:104190000E94411B882391F48B819C819C012C5CA3
:1041A0003F4F8091FA379091FB37A091FC37B09147
:1041B000FD37F90180839183A283B38389819A813A
:1041C00061E10E94411B882391F48B819C819C01B9
:1041D000285C3F4F8091FA379091FB37A091FC37D4
:1041E000B091FD37F90180839183A283B3838981E4
:1041F0009A8162E10E94411B882391F48B819C810A
:104200009C01245C3F4F8091FA379091FB37A0913D
:10421000FC37B091FD37F90180839183A283B3838A
:1042200089819A8163E10E94411B882391F48B81EB
:104230009C819C01205C3F4F8091FA379091FB3725
:10424000A091FC37B091FD37F90180839183A2835F
:10425000B38380E02496CDBFDEBFDF91CF91089578
:10426000CF93DF931F921F92CDB7DEB789839A83D6
:1042700089819A81009711F481E005C080E090E087
:104280000E942A1880E00F900F90DF91CF9108953F
:10429000CF92DF92EF92FF920F93CF93DF931F9213
:1042A0001F92CDB7DEB789839A8389819A8100975F
:1042B00011F481E018C089819A8161E00E94411B5C
:1042C000882311F082E00FC089819A81C12CD12C02
:1042D00076016894C1F801E020E030E0A90161E0D6
:1042E0000E94D21A80E00F900F90DF91CF910F9132
:1042F000FF90EF90DF90CF900895CF93DF931F92C0
:104300001F92CDB7DEB789839A8389819A810097FE
:1043100011F481E005C080E090E00E942A1880E05E
:104320000F900F90DF91CF910895CF92DF92EF928F
:10433000FF920F93CF93DF93CDB7DEB72797CDBF13
:10434000DEBF89839A836B832C833D834E835F8397
:1043500089819A81009711F481E014C08C819D813C
:10436000AE81BF81BB27E981FA81CC24CA94DC2CC1
:10437000EC2CF12C00E09C01AD016B81CF010E947F
:10438000D21A80E02796CDBFDEBFDF91CF910F918B
:10439000FF90EF90DF90CF900895CF93DF93CDB74C
:1043A000DEB72597CDBFDEBF89839A836B834C83AD
:1043B0005D8389819A81009711F481E01DC08C8111
:1043C0009D81009711F483E017C089819A816B81E8
:1043D0000E94411B882379F48091FA379091FB3732
:1043E000A091FC37B091FD372C813D81F90180838C
:1043F0009183A283B38380E02596CDBFDEBFDF919A
:10440000CF910895CF93DF931F921F92CDB7DEB760
:1044100089839A8389819A81009711F481E005C08C
:1044200080E090E00E942A1880E00F900F90DF91CA
:10443000CF910895CF93DF9300D01F92CDB7DEB711
:1044400089839A836B837C8389819A81009711F495
:1044500081E01FC08B819C81009711F483E019C01B
:1044600089819A8160E00E94411B882311F082E0DB
:1044700010C08091FA379091FB37A091FC37B09132
:10448000FD372B813C81F90180839183A283B38323
:1044900080E02496CDBFDEBFDF91CF910895CF920B
:1044A000DF92EF92FF920F93CF93DF9300D0CDB7BF
:1044B000DEB789839A836B8389819A81009711F48F
:1044C00081E021C08B81823010F083E01CC08981A3
:1044D0009A8161E00E94411B882311F082E013C0A1
:1044E0008B81882F90E0A0E0B0E0E981FA81C12CB7
:1044F000D12C7601C39400E09C01AD0161E0CF01B5
:104500000E94D21A80E02396CDBFDEBFDF91CF910B
:104510000F91FF90EF90DF90CF900895CF93DF93AE
:1045200000D01F92CDB7DEB789839A836B837C83DB
:1045300089819A81009711F481E01EC08B819C8152
:10454000009711F483E018C089819A8161E00E948C
:10455000411B882311F082E00FC08091FA379091BF
:10456000FB37A091FC37B091FD37282F21708B814C
:104570009C81FC01208380E02496CDBFDEBFDF91CB
:10458000CF910895CF92DF92EF92FF920F93CF9346
:10459000DF9300D0CDB7DEB789839A836B8389819F
:1045A0009A81009711F481E029C08B81823010F04C
:1045B00083E024C08B81813011F48FE38B83898168
:1045C0009A8161E00E94411B882311F082E016C0AD
:1045D0008B81882F90E0A0E0B0E0E981FA810F2E76
:1045E000FCEFCF2ED12CE12CF12CF02D02E09C0120
:1045F000AD0161E0CF010E94D21A80E02396CDBFC9
:10460000DEBFDF91CF910F91FF90EF90DF90CF90C1
:104610000895CF93DF9300D01F92CDB7DEB7898383
:104620009A836B837C8389819A81009711F481E05E
:1046300032C08B819C81009711F483E02CC089816A
:104640009A8161E00E94411B882311F082E023C01F
:104650008091FA379091FB37A091FC37B091FD37EC
:104660008C7F9927AA27BB27B695A79597958795FD
:10467000B695A795979587950097A105B10531F057
:104680008B819C8121E0FC01208304C08B819C8173
:10469000FC01108280E02496CDBFDEBFDF91CF9178
:1046A00008952F923F924F925F926F927F928F92D6
:1046B0009F92AF92BF92CF92DF92EF92FF920F93B1
:1046C0001F93CF93DF93CDB7DEB7C656D109CDBFC9
:1046D000DEBF8BA79CA74DA75EA76FA778AB29ABC2
:1046E0003AAB82E089A380E190E0A0E0B0E08AA349
:1046F0009BA3ACA3BDA384E18EA38FEF9FEFDC014E
:104700008D8B9E8BAF8BB88F8DA59EA5AFA5B8A9BD
:10471000815A9C41A94EBF4F2DA53EA54FA558A932
:10472000BC01CD010E9437CCDA01C90189839A838B
:10473000AB83BC8389819A81AB81BC818230910536
:10474000A105B10540F482E090E0A0E0B0E08983EB
:104750009A83AB83BC8389819A81AB81BC81817050
:104760009927AA27BB270097A105B10559F0898190
:104770009A81AB81BC810196A11DB11D89839A8369
:10478000AB83BC8380EC96ECADE2B0E02DA53EA5FA
:104790004FA558A9BC01CD010E9437CCDA01C9014F
:1047A0008D839E83AF83B8878D819E81AF81B885CD
:1047B00081709927AA27BB270097A105B10559F059
:1047C0008D819E81AF81B8850197A109B1098D8343
:1047D0009E83AF83B8878D819E81AF81B8858F33EB
:1047E0009105A105B10540F08EE390E0A0E0B0E0B6
:1047F0008D839E83AF83B88789819A81AB81BC8189
:10480000898F9A8FAB8FBC8F47C12DA53EA54FA531
:1048100058A9898D9A8DAB8DBC8DBC01CD010E94AC
:104820001BCC9B01AC0189A1882F90E0A0E0B0E0F7
:10483000BC01CD010E941BCCDC01CB0120EA36E893
:1048400041E050E0BC01CD010E9437CCDA01C90142
:104850008D8F9E8FAF8FB8A3D1C08D8D9E8DAF8D64
:10486000B8A180319105A105B10508F4BCC08D8DBA
:104870009E8DAF8DB8A19C01AD0160EA76E881E024
:1048800090E00E941BCCDC01CB01298D3A8D4B8D31
:104890005C8DBC01CD010E9437CCDA01C90129A190
:1048A000222F30E040E050E0BC01CD010E9437CC27
:1048B000DA01C9019C01AD018DA59EA5AFA5B8A9DE
:1048C00082179307A407B507B0F58D8D9E8DAF8D28
:1048D000B8A19C01AD0160EA76E881E090E00E9419
:1048E0001BCCDC01CB01298D3A8D4B8D5C8DBC013D
:1048F000CD010E9437CCDA01C90129A1222F30E075
:1049000040E050E0BC01CD010E9437CCDA01C90182
:104910009C01AD018DA59EA5AFA5B8A979018A011D
:10492000E81AF90A0A0B1B0BD801C701898B9A8B6D
:10493000AB8BBC8B33C08D8D9E8DAF8DB8A19C0190
:10494000AD0160EA76E881E090E00E941BCCDC01DA
:10495000CB01298D3A8D4B8D5C8DBC01CD010E9420
:1049600037CCDA01C90129A1222F30E040E050E024
:10497000BC01CD010E9437CCDA01C9012DA53EA5AD
:104980004FA558A979018A01E81AF90A0A0B1B0BED
:10499000D801C701898B9A8BAB8BBC8B29893A894B
:1049A0004B895C898D899E89AF89B88D2817390715
:1049B0004A075B07C0F4898D9A8DAB8DBC8D8987C2
:1049C0009A87AB87BC878D8D9E8DAF8DB8A18D8763
:1049D0009E87AF87B88B89899A89AB89BC898D8B73
:1049E0009E8BAF8BB88F8D8D9E8DAF8DB8A10196AC
:1049F000A11DB11D8D8F9E8FAF8FB8A38DA59EA5D4
:104A0000AFA5B8A989519C4FAF4FBF4F28EE33E0F7
:104A100040E050E0BC01CD010E9437CCDA01C90171
:104A20009C01AD01898D9A8DAB8DBC8DBC01CD01F2
:104A30000E941BCC9B01AC0189A1882F90E0A0E0D3
:104A4000B0E0BC01CD010E941BCCDC01CB018D5933
:104A50009F4FAF4FBF4F24E630E040E050E0BC0135
:104A6000CD010E9437CCDA01C9019C01AD018D8DC9
:104A70009E8DAF8DB8A1281739074A075B0708F04C
:104A8000ECCE898D9A8DAB8DBC8D0296A11DB11D8A
:104A9000898F9A8FAB8FBC8F298D3A8D4B8D5C8D12
:104AA0008D819E81AF81B88582179307A407B507D2
:104AB00008F0ABCE8D859E85AF85B8898AA39BA370
:104AC000ACA3BDA389858EA38AA19BA1ACA1BDA1E6
:104AD0009C01AD0160EA76E881E090E00E941BCC89
:104AE000DC01CB012EA1222F30E040E050E0BC01E0
:104AF000CD010E9437CCDA01C90129A1222F30E073
:104B000040E050E0BC01CD010E9437CCDA01C90180
:104B10008FA398A7A9A7BAA789A99AA9009739F13D
:104B200089A1282F30E08EA1882F90E0432F4F934A
:104B30002F93292F2F938F938DA18F938CA18F93D8
:104B40008BA18F938AA18F938BEA95E2892F8F9304
:104B50008BEA95E28F938AA98F9389A98F930E94FC
:104B600090D00DB71EB7045F1F4FCDBFDEBF8BA522
:104B70009CA5CC24CA94DC2CEC2CF12C00E024E67F
:104B800032E340E050E069E00E94D21A8BA59CA578
:104B9000CC24CA94DC2CEC2CF12C00E020E030E09A
:104BA000A9016CE00E94D21A8BA59CA5CC24CA94C2
:104BB000DC2CEC2CF12C00E020E030E0A90165E0D9
:104BC0000E94D21A89A1882F90E0A0E0B0E0EBA566
:104BD000FCA5CC24CA94DC2CEC2CF12C00E09C012C
:104BE000AD0162E0CF010E94D21A8AA19BA1ACA1C3
:104BF000BDA1EBA5FCA5CC24CA94DC2CEC2CF12C9B
:104C000000E09C01AD0163E0CF010E94D21A8BA5A8
:104C10009CA5CC24CA94DC2CEC2CF12C00E020E0E8
:104C200030E0A90164E00E94D21A0E94BF1ADC01A0
:104C3000CB015C016D01E12CF12C87012A2D3B2D6C
:104C40004C2D5D2D6E2D7F2D802F912F01E00E9428
:104C500017CDA22EB32EC42ED52EE62EF72E082F5A
:104C6000192F2A2D3B2D4C2D5D2D6E2D7F2D802F44
:104C7000912F29513C4F4F4F5F4F6F4F7F4F8F4FB9
:104C80009F4F222E332E442E552E662E772E882EA1
:104C9000992E6894AA24A7F80F2EF5E2BF2EF02DC6
:104CA000C12CD12CE12CF12C00E010E0222D332D71
:104CB000442D552D662D772D882D992D0E945BCC86
:104CC000A22EB32EC42ED52EE62EF72E082F192F86
:104CD0002A2D3B2D4C2D5D2D6E2D7F2D802F912F5C
:104CE000DA01C901BC01CD010E94CC1A8EA1882F26
:104CF00090E0A0E0B0E0880F991FAA1FBB1F880FAB
:104D0000991FAA1FBB1F880F991FAA1FBB1F880FBF
:104D1000991FAA1FBB1F880F991FAA1FBB1F880FAF
:104D2000991FAA1FBB1F880F991FAA1FBB1F806155
:104D30009066EBA5FCA5CC24CA94DC2CEC2CF12CC1
:104D400000E09C01AD0165E0CF010E94D21A8FA165
:104D500098A5A9A5BAA5BC01CD01CA59DF4FCDBF01
:104D6000DEBFDF91CF911F910F91FF90EF90DF9009
:104D7000CF90BF90AF909F908F907F906F905F90FB
:104D80004F903F902F900895CF92EF92FF920F9304
:104D90001F93CF93DF93CDB7DEB72D97CDBFDEBF87
:104DA00089839A836B837C832D833E834F835887CB
:104DB000E986FA860B871C87CD8689819A810097C0
:104DC00011F481E03BC08B819C81811520E4920726
:104DD00090F589859A85AB85BC850097A10521E072
:104DE000B20748F58D858F3330F58D819E81AF8177
:104DF000B88584319105A105B105E8F08D819E81CA
:104E0000AF81B8858C3F2FEF920727E0A207B1054D
:104E100090F48D819E81AF81B88580319105A10587
:104E2000B10548F08D819E81AF81B885009728E05B
:104E3000A207B10510F083E001C080E02D96CDBF40
:104E4000DEBFDF91CF911F910F91FF90EF90CF9038
:104E50000895CF93DF9300D01F92CDB7DEB789833B
:104E60009A836B837C8389819A81009711F481E016
:104E700007C08B819C81009711F483E001C080E022
:104E80002496CDBFDEBFDF91CF910895CF93DF93FE
:104E900000D000D0CDB7DEB789839A836B837C8343
:104EA0004D835E8389819A81009711F481E036C039
:104EB0008B819C81009721F08D819E81009711F458
:104EC00083E02CC089819A8163E10E94411B882381
:104ED00011F082E023C08091FA379091FB37A091C6
:104EE000FC37B091FD379C018B819C81FC012083B4
:104EF00031838091FA379091FB37A091FC37B091C4
:104F0000FD3788279927A170BB27CD01AA27BB278A
:104F1000282F8D819E81FC01208380E02696CDBFC5
:104F2000DEBFDF91CF910895CF92DF92EF92FF9293
:104F30000F93CF93DF9300D0CDB7DEB789839A83E9
:104F40006B8389819A81009711F481E024C08B8161
:104F5000843010F083E01FC089819A8166E00E944E
:104F6000411B882311F082E016C08B81882F90E0CE
:104F7000A0E0B0E0E981FA810F2EF3E0CF2ED12C32
:104F8000E12CF12CF02D00E09C01AD0166E0CF0199
:104F90000E94D21A80E02396CDBFDEBFDF91CF9171
:104FA0000F91FF90EF90DF90CF900895CF93DF9314
:104FB00000D01F92CDB7DEB789839A836B837C8341
:104FC00089819A81009711F481E01EC08B819C81B8
:104FD000009711F483E018C089819A8166E00E94ED
:104FE000411B882311F082E00FC08091FA37909125
:104FF000FB37A091FC37B091FD37282F23708B81B0
:105000009C81FC01208380E02496CDBFDEBFDF9130
:10501000CF910895CF92DF92EF92FF920F93CF93AB
:10502000DF9300D0CDB7DEB789839A836B83898104
:105030009A81009711F481E021C08B81823010F0B9
:1050400083E01CC089819A8166E00E94411B88230D
:1050500011F082E013C08B81882F90E0A0E0B0E0D7
:10506000E981FA81C12CD12C7601D39408E09C010E
:10507000AD0166E0CF010E94D21A80E02396CDBF39
:10508000DEBFDF91CF910F91FF90EF90DF90CF9037
:105090000895CF93DF9300D01F92CDB7DEB78983F9
:1050A0009A836B837C8389819A81009711F481E0D4
:1050B00025C08B819C81009711F483E01FC08981FA
:1050C0009A8166E00E94411B882311F082E016C09D
:1050D0008091FA379091FB37A091FC37B091FD3762
:1050E00088279170AA27BB27892F9A2FAB2FBB2720
:1050F000282F8B819C81FC01208380E02496CDBFEA
:10510000DEBFDF91CF910895CF92DF92EF92FF92B1
:105110000F93CF93DF9300D0CDB7DEB789839A8307
:105120006B8389819A81009711F481E05EC08B8145
:10513000823010F083E059C089819A8166E00E9434
:10514000411B882311F082E050C081E09B819923AC
:1051500009F080E0882F90E0A0E0B0E0E981FA81DA
:10516000C12CD12C76016894C7F807E09C01AD01F1
:1051700066E0CF010E94D21A89819A8166E00E947E
:10518000411B882311F082E030C08B81882F90E092
:10519000A0E0B0E0E981FA81C12CD12C76016894BD
:1051A000D3F80BE09C01AD0166E0CF010E94D21A5A
:1051B00089819A8169E00E94411B882311F082E075
:1051C00014C08B81882F90E0A0E0B0E0E981FA81E3
:1051D000C12CD12C76016894E6F806E19C01AD0162
:1051E00069E0CF010E94D21A80E02396CDBFDEBFD6
:1051F000DF91CF910F91FF90EF90DF90CF900895C6
:10520000CF92DF92EF92FF920F93CF93DF9300D074
:10521000CDB7DEB789839A836B8389819A810097A2
:1052200011F481E022C08B81823010F083E01DC038
:1052300089819A8167E00E94411B882311F082E0F6
:1052400014C08B81882F90E0A0E0B0E0E981FA8162
:10525000C12CD12C76016894C3F803E09C01AD0108
:1052600067E0CF010E94D21A80E02396CDBFDEBF57
:10527000DF91CF910F91FF90EF90DF90CF90089545
:10528000CF93DF9300D01F92CDB7DEB789839A8387
:105290006B837C8389819A81009711F481E029C016
:1052A0008B819C81009711F483E023C089819A81CE
:1052B00067E00E94411B882311F082E01AC08091B0
:1052C000FA379091FB37A091FC37B091FD37887089
:1052D0009927AA27BB27689412F8B695A7959795A2
:1052E00087951694D1F7282F8B819C81FC01208310
:1052F00080E02496CDBFDEBFDF91CF910895CF929D
:10530000DF92EF92FF920F93CF93DF93CDB7DEB78B
:105310002597CDBFDEBF89839A836B834C832D8312
:1053200089819A81009711F481E065C08B81823078
:1053300030F48C81883018F48D81883010F083E04F
:105340005AC089819A8167E00E94411B882311F02D
:1053500082E051C08B81882F90E0A0E0B0E0E9812D
:10536000FA81C12CD12C76016894C6F806E09C0124
:10537000AD0167E0CF010E94D21A89819A8167E06E
:105380000E94411B882311F082E035C08C81882F58
:1053900090E0A0E0B0E0E981FA810F2EF7E0CF2E97
:1053A000D12CE12CF12CF02D00E09C01AD0167E047
:1053B000CF010E94D21A89819A8167E00E94411B25
:1053C000882311F082E017C08D81882F90E0A0E043
:1053D000B0E0E981FA810F2EF0E8CF2EF3E0DF2E66
:1053E000E12CF12CF02D07E09C01AD0167E0CF012D
:1053F0000E94D21A80E02596CDBFDEBFDF91CF910B
:105400000F91FF90EF90DF90CF900895CF93DF93AF
:10541000CDB7DEB72897CDBFDEBF89839A836B8374
:105420007C834D835E832F83388789819A8100979F
:1054300011F481E058C08B819C81009741F08D81EF
:105440009E81009721F08F819885009711F483E069
:105450004AC089819A8167E00E94411B882311F02C
:1054600082E041C08091FA379091FB37A091FC37E0
:10547000B091FD3780749927AA27BB27689415F847
:10548000B695A795979587951694D1F7282F8B8178
:105490009C81FC0120838091FA379091FB37A09189
:1054A000FC37B091FD37282F27708D819E81FC013C
:1054B00020838091FA379091FB37A091FC37B0910F
:1054C000FD3780789370AA27BB27689416F8B695A5
:1054D000A795979587951694D1F7282F8F81988552
:1054E000FC01208380E02896CDBFDEBFDF91CF9105
:1054F0000895CF92DF92EF92FF920F93CF93DF93B5
:1055000000D0CDB7DEB789839A836B8389819A8176
:10551000009711F481E022C08B81823010F083E08B
:105520001DC089819A8167E00E94411B882311F088
:1055300082E014C08B81882F90E0A0E0B0E0E98188
:10554000FA81C12CD12C76016894D5F80DE09C012C
:10555000AD0167E0CF010E94D21A80E02396CDBF53
:10556000DEBFDF91CF910F91FF90EF90DF90CF9052
:105570000895CF93DF9300D01F92CDB7DEB7898314
:105580009A836B837C8389819A81009711F481E0EF
:105590002AC08B819C81009711F483E024C089810B
:1055A0009A8167E00E94411B882311F082E01BC0B2
:1055B0008091FA379091FB37A091FC37B091FD377D
:1055C00088279072AA27BB27072E7DE0B695A7955E
:1055D000979587957A95D1F7702D282F8B819C818F
:1055E000FC01208380E02496CDBFDEBFDF91CF9108
:1055F0000895CF92DF92EF92FF920F93CF93DF93B4
:1056000000D01F92CDB7DEB789839A836B834C831A
:1056100089819A81009711F481E041C08B818823B0
:105620001CF08C81882314F483E039C089819A812D
:1056300069E00E94411B882311F082E030C08B8119
:10564000882F90E0A0E0B0E0E981FA81C12CD12C54
:1056500076016894E5F805E19C01AD0169E0CF01B0
:105660000E94D21A89819A8169E00E94411B882395
:1056700011F082E014C08C81882F90E0A0E0B0E0AF
:10568000E981FA81C12CD12C76016894E6F806E113
:105690009C01AD0169E0CF010E94D21A80E02496FE
:1056A000CDBFDEBFDF91CF910F91FF90EF90DF90E4
:1056B000CF900895CF93DF9300D000D0CDB7DEB761
:1056C00089839A836B837C834D835E8389819A81EE
:1056D000009711F481E048C08B819C81009721F0F4
:1056E0008D819E81009711F483E03EC089819A816B
:1056F00069E00E94411B882311F082E035C080914F
:10570000FA379091FB37A091FC37B091FD3788278D
:105710009927A072BB27072E75E1B695A795979597
:1057200087957A95D1F7702D282F8B819C81FC016C
:1057300020838091FA379091FB37A091FC37B0918C
:10574000FD3788279927A074BB27072E76E1B695E9
:10575000A795979587957A95D1F7702D282F8D81EC
:105760009E81FC01208380E02696CDBFDEBFDF91C5
:10577000CF910895CF92DF92EF92FF920F93CF9344
:10578000DF9300D0CDB7DEB789839A836B8389819D
:105790009A81009711F481E025C08B81882314F44D
:1057A00083E020C089819A8169E00E94411B88239F
:1057B00011F082E017C08B81882F90E0A0E0B0E06C
:1057C000E981FA810F2EC12CF0ECDF2EFFE1EF2EE4
:1057D000F12CF02D0EE09C01AD0169E0CF010E949B
:1057E000D21A80E02396CDBFDEBFDF91CF910F911B
:1057F000FF90EF90DF90CF900895CF93DF9300D08C
:105800001F92CDB7DEB789839A836B837C838981AE
:105810009A81009711F481E02AC08B819C810097C6
:1058200011F483E024C089819A8169E00E94411BC0
:10583000882311F082E01BC08091FA379091FB37EA
:10584000A091FC37B091FD378827907CAF71BB27C2
:10585000072E7EE0B695A795979587957A95D1F70F
:10586000702D282F8B819C81FC01208380E0249661
:10587000CDBFDEBFDF91CF910895CF92DF92EF923F
:10588000FF920F93CF93DF9300D0CDB7DEB789831C
:105890009A836B8389819A81009711F481E026C0F5
:1058A0008B81823010F083E021C089819A816AE087
:1058B0000E94411B882311F082E018C081E09B8187
:1058C000992309F080E0882F90E0A0E0B0E0E98122
:1058D000FA81C12CD12C76016894D3F80BE09C019D
:1058E000AD016AE0CF010E94D21A80E02396CDBFBD
:1058F000DEBFDF91CF910F91FF90EF90DF90CF90BF
:105900000895CF93DF9300D01F92CDB7DEB7898380
:105910009A836B837C8389819A81009711F481E05B
:105920002FC08B819C81009711F483E029C089816D
:105930009A816AE00E94411B882311F082E020C016
:105940008091FA379091FB37A091FC37B091FD37E9
:1059500088279870AA27BB27072E7BE0B695A795C6
:10596000979587957A95D1F7702D21E00097A1053D
:10597000B10509F020E08B819C81FC01208380E04F
:105980002496CDBFDEBFDF91CF910895CF92DF92F5
:10599000EF92FF920F93CF93DF9300D01F92CDB77A
:1059A000DEB789839A836B834C8389819A810097C0
:1059B00011F481E045C08B81883018F48C818830E7
:1059C00010F083E03DC089819A816AE00E94411B0A
:1059D000882311F082E034C08B81882F90E0A0E012
:1059E000B0E0E981FA810F2EF7E0CF2ED12CE12C27
:1059F000F12CF02D00E09C01AD016AE0CF010E9486
:105A0000D21A89819A816AE00E94411B882311F091
:105A100082E016C08C81882F90E0A0E0B0E0E981A0
:105A2000FA810F2EF8E3CF2ED12CE12CF12CF02DA2
:105A300003E09C01AD016AE0CF010E94D21A80E030
:105A40002496CDBFDEBFDF91CF910F91FF90EF90F5
:105A5000DF90CF900895CF93DF9300D000D0CDB7E3
:105A6000DEB789839A836B837C834D835E838981D0
:105A70009A81009711F481E03BC08B819C81009753
:105A800021F08D819E81009711F483E031C08981DE
:105A90009A816AE00E94411B882311F082E028C0AD
:105AA0008091FA379091FB37A091FC37B091FD3788
:105AB000282F27708B819C81FC0120838091FA37ED
:105AC0009091FB37A091FC37B091FD3788739927EF
:105AD000AA27BB27689412F8B695A795979587953E
