:100000000C945F1B0C94801B0C94801B0C94801B25
:100010000C94801B0C94801B0C94801B0C94801BF4
:100020000C94801B0C94801B0C94801B0C94801BE4
:100030000C94801B0C94E4670C94801B0C94801B24
:100040000C94801B0C94801B0C94801B0C94801BC4
:100050000C94801B0C94801B0C94801B0C94801BB4
:100060000C94801B0C94A9270C94801B0C94D8270B
:100070000C94801B0C94801B0C94801B0C94801B94
:100080000C94801B0C94801B0C94801B0C94801B84
:100090000C94801B0C94801B0C94801B0C94801B74
:1000A0000C94801B0C94801B0C94801B0C94801B64
:1000B0000C94801B0C94801B0C9416680C94801B71
:1000C0000C94801B0C94801B0C94801B0C94801B44
:1000D0000C94801B0C94801B0C94801B0C94801B34
:1000E0000C94801B0C94801B0C94801B0C94801B24
:1000F0000C94801B0C94801B0C94801B0C94801B14
:100100000C94801B0C94801B0C94801B0C94801B03
:100110000C94801B0C94801B0C94801B0C94801BF3
:100120000C94801B0C94801B0C94801B0C94801BE3
:100130000C94801B0C94801B0C94801B0C94801BD3
:100140000C94801B0C94801B0C94801B0C94801BC3
:100150000C94801B0C94801B0C94801B0C94801BB3
:100160000C94801B0C94801B0C94801B0C94801BA3
:100170000C94801B0C94801B0C94801B0C94801B93
:100180000C94801B0C94801B0C94801B0C94801B83
:100190000C94801B0C94801B0C94801B0C94801B73
:1001A0000C94801B0C94801B0C94801B0C94801B63
:1001B0000C94801B0C94801B0C94801B0C94801B53
:1001C0000C94801B0C94801B0C94801B0C94801B43
:1001D0000C94801B0C94801B0C94801B0C94801B33
:1001E0000C94801B0C94801B183C253C443C543CD4
:1001F0006E3C883C983CA83C213E3E4041403E40FD
:100200003E403E403E403E403E403E403E403E40FE
:100210003E403E403E403E403E403E403E403E40EE
:100220003E403E403E403E403E403E403E403E40DE
:100230003E403E403E403E403E403E403E403E40CE
:100240003E403E403E403E403E403E403E403E40BE
:100250003E403E403E403E403E403E403E403E40AE
:100260003E403E403E403E403E403E403E403E409E
:100270003E403E403E403E403E403E403E403E408E
:100280003E403E403E403E403E403E403E403E407E
:100290003E403E403E403E403E403E403E403E406E
:1002A0003E403E403E403E403E403E403E403E405E
:1002B0003E403E403E403E403E403E403E403E404E
:1002C0003E403E403E403E403E403E403E403E403E
:1002D0003E403E403E403E403E403E403E403E402E
:1002E0003E403E403E403E403E403E403E403E401E
:1002F0003E403E403E403E403E403E403E403E400E
:100300003E403E403E403E403E403E403E403E40FD
:100310003E403E403E403E403E403E403E403E40ED
:100320003E403E403E403E403E403E403E403E40DD
:100330003E403E403E403E403E403E403E403E40CD
:100340003E403E403E403E403E403E403E403E40BD
:100350003E403E403E403E403E403E403E403E40AD
:100360003E403E403E403E403E403E403E403E409D
:100370003E403E403E403E403E403E403E403E408D
:100380003E403E403E403E403E403E403E403E407D
:100390003E403E403E403E403E403E403E403E406D
:1003A0003E403E403E403E403E403E403E403E405D
:1003B0003E403E403E403E403E403E403E403E404D
:1003C0003E403E403E403E403E403E403E403E403D
:1003D0003E403E403E403E403E403E403E403E402D
:1003E0003E403E403E403E403E403E403E403E401D
:1003F0003E403E403E403E40253E293E3E4041403C
:10040000303E373E3E3E4B3E523E563E3E404140E1
:100410005D3E643E6B3E783E7F3E833E3E404140C3
:100420008A3E913E983EA53EAC3E41403E40414012
:10043000B03EB73EBE3ECB3ED23ED63E3E404140B1
:10044000DD3EE43EEB3EF83EFF3E033F3E40414092
:100450000A3F113F183F253F2C3F303F3E4041406F
:10046000373F3E3F453F523F593F603F643F414029
:100470004140683F6C3F703F773F41407B3F7F3F4B
:1004800041408F3F933F973F9E3FA23F4140A93F4E
:1004900041404140B33FB73FBB3FC23F4140414075
:1004A000C63F4140CA3F4140CE3F4140D23FD63F88
:1004B000DD3FE13F4140E53F4140EC3FF03F4140FF
:1004C0004140F43F41404140F83FFC3F06400A4074
:1004D000414041400E403E403E40154019404140A1
:1004E0003E403E403E403E403E403E403E403E401C
:1004F0001D4021403E403E403E403E4025402C4075
:1005000033403A403E403E40414077405B425E428D
:100510005B425B425B425B425B425B425B425B42F3
:100520005B425B425B425B425B425B425B425B42E3
:100530005B425B425B425B425B425B425B425B42D3
:100540005B425B425B425B425B425B425B425B42C3
:100550005B425B425B425B425B425B425B425B42B3
:100560005B425B425B425B425B425B425B425B42A3
:100570005B425B425B425B425B425B425B425B4293
:100580005B425B425B425B425B425B425B425B4283
:100590005B425B425B425B425B425B425B425B4273
:1005A0005B425B425B425B425B425B425B425B4263
:1005B0005B425B425B425B425B425B425B425B4253
:1005C0005B425B425B425B425B425B425B425B4243
:1005D0005B425B425B425B425B425B425B425B4233
:1005E0005B425B425B425B425B425B425B425B4223
:1005F0005B425B425B425B425B425B425B425B4213
:100600005B425B425B425B425B425B425B425B4202
:100610005B425B425B425B425B425B425B425B42F2
:100620005B425B425B425B425B425B425B425B42E2
:100630005B425B425B425B425B425B425B425B42D2
:100640005B425B425B425B425B425B425B425B42C2
:100650005B425B425B425B425B425B425B425B42B2
:100660005B425B425B425B425B425B425B425B42A2
:100670005B425B425B425B425B425B425B425B4292
:100680005B425B425B425B425B425B425B425B4282
:100690005B425B425B425B425B425B425B425B4272
:1006A0005B425B425B425B425B425B425B425B4262
:1006B0005B425B425B425B425B425B425B425B4252
:1006C0005B425B425B425B425B425B425B425B4242
:1006D0005B425B425B425B425B425B425B425B4232
:1006E0005B425B425B425B425B425B425B425B4222
:1006F0005B425B425B425B425B425B425B425B4212
:100700005B425B425B425B425B427B407F405B42C1
:100710005E4286405E428A4097409E40A2405B42D5
:100720005E42A9405E42AD40BA40C140C5405B4216
:100730005E42CC405E42D040DD40E4405E425B42DF
:100740005E42E8405E42EC40F940004104415B42B9
:100750005E420B415E420F411C41234127415B42F7
:100760005E422E415E4232413F4146414A415B4238
:100770005E4251415E4255416241694173415E4270
:1007800077415E427B417F4183418A415E42914194
:1007900095415E42A541A941AD41B441B8415E4297
:1007A000BF415E425E42C941CD41D141D8415E4226
:1007B0005E42DC415E42E0415E42E4415E42E8412D
:1007C000EC41F341F7415E42FB415E420242064288
:1007D0005E425E420D425E425E42114215421F423F
:1007E00023425E425E4227425B425B422E423242DD
:1007F0005E4236425B425B425B425B425B425B4233
:100800005B423A423E425B425B425B425B42424257
:100810004942504257425B425B425E42044BB34BFB
:100820001D4BB34B364BB34B4F4BB34B684BB34B9A
:10083000814BB34B9A4BDC4C1B4DE54C1B4DEE4CA6
:100840001B4DF74C1B4D004D1B4D094D1B4D124DC3
:10085000604ED74E714ED74E824ED74E934ED74EE6
:10086000A44ED74EB54ED74EC64EC64F0550CF4FAD
:100870000550D84F0550E14F0550EA4F0550F34F52
:100880000550FC4FCC505051DE505051F15050515A
:1008900004515051175150512A5150513D512A5332
:1008A0006953335369533C536953455369534E530A
:1008B00069535753695360534254E2545854E254B5
:1008C0006F54E2548654E2549D54E254B454E254BA
:1008D000CB548C56CB569556CB569E56CB56A756D8
:1008E000CB56B056CB56B956CB56C2567C583D580F
:1008F000855846588E584F5897585858A0586158A0
:10090000A9586A58B25873586F59E6598059E65930
:100910009159E659A259E659B359E659C459E659CD
:10092000D559C85A075BD15A075BDA5A075BE35AB5
:10093000075BEC5A075BF55A075BFE5AC65B4A5CDD
:10094000D85B4A5CEB5B4A5CFE5B4A5C115C4A5CD0
:10095000245C4A5C375C5F5D9E5D685D9E5D715D99
:100960009E5D7A5D9E5D835D9E5D8C5D9E5D955D09
:10097000B360B560B860BB60BE60C160C460186140
:100980002D612D612D612D611B612D612D612D6109
:100990002D612A612D612D612D612D612D612D61EA
:1009A0002D612D612D611E612D612D6121612D61F2
:1009B0002D612D6127612D612D6124610C94E84129
:1009C0000C94253E0C94FE5B0C94402A0C943D51F3
:1009D0000C9469410C94EB3E0C942A510C94E43E27
:1009E0000C94D63E0C946B3E0C94C85A0C94464121
:1009F0000C94BB600C94AD400C943E3F0C94375C5F
:100A00000C947F400C94B5210C94A6240C94075BA5
:100A10000C94B51B0C94783E0C94EB5B0C943A420E
:100A20000C94F43F0C940E400C94643F0C94824E52
:100A30000C94881C0C942C400C94B0560C945229A5
:100A40000C9441400C94DA5A0C94364B0C94194097
:100A50000C9449420C9421400C94A7560C94F03FFE
:100A60000C94F3410C9477410C94BE600C949E5608
:100A70000C943E3E0C948A1B0C94901B0C943D5895
:100A80000C94111D0C94DD3F0C94D63F0C94D4298A
:100A90000C942B290C94E54C0C94FB250C945D3E96
:100AA0000C94CB3E0C94BE250C942A610C94B03E61
:100AB0000C947B400C9495560C94F7410C94183C84
:100AC0000C94DC410C94C42D0C9444200C94734180
:100AD0000C94B8410C94BB3F0C9450510C94A41B43
:100AE0000C94F74C0C94961B0C94F2210C94683FD8
:100AF0000C94B2260C94D74E0C94BA400C94A21BC2
:100B00000C946E3C0C94EC5A0C94BF410C94BE3E79
:100B10000C9424270C943A740C94A44E0C941F4209
:100B20000C94543C0C9432420C942C3F0C94C629E7
:100B30000C94685D0C9436420C941A210C94981B0A
:100B40000C94D22D0C94802A0C944F580C9417516D
:100B50000C9446580C94B73E0C9497400C94373F35
:100B60000C9469530C94293E0C944F4B0C940A3FFF
:100B70000C94563E0C94983E0C943A400C94004DC4
:100B80000C9418610C948C560C94684B0C947B3F1D
:100B90000C947F3E0C9450420C94EC3F0C949D239B
:100BA0000C94C64E0C9432410C94124D0C940D4290
:100BB0000C94E53F0C942F220C9458580C949541BA
:100BC0000C94715D0C94DC4C0C94A9410C949141F3
:100BD0000C94A93F0C9442420C94604E0C94D23F6A
:100BE0000C943E420C94AF220C947C1D0C947F41DB
:100BF0000C94603F0C9451410C942D610C94605303
:100C00000C9417290C94B3600C94C63F0C94805933
:100C10000C94643E0C948A410C9427420C947358B3
:100C20000C94C5400C94E8400C9486400C94B95642
:100C30000C94D0400C9458540C94C64F0C942E42F3
:100C40000C94E71D0C940F410C94303E0C94CE3F55
:100C50000C94883C0C947F3F0C94983C0C945B4221
:100C60000C942E410C94D15A0C948E580C94521E14
:100C70000C94C1600C94FC3F0C94303F0C94971C76
:100C80000C94F0220C949E1B0C949C1B0C94C94158
:100C90000C9427410C94101F0C946C3F0C94A0589A
:100CA0000C94D8410C94115C0C94FF3E0C945F5D45
:100CB0000C94D85B0C9405500C940B410C9423417C
:100CC0000C94EA4F0C94A9400C9447260C941D40B8
:100CD0000C949E400C94593F0C94033F0C949159F2
:100CE0000C94D1410C94113F0C947C220C941C4127
:100CF0000C9423420C94AC3E0C9404510C94094D7A
:100D00000C9464270C94DE500C9425400C94E35A08
:100D10000C947A5D0C94373E0C94B33F0C94245C95
:100D20000C94CB540C94631C0C94CC500C94A83CA5
:100D30000C94D31B0C94F9400C94DD3E0C94E13FD1
:100D40000C94A9580C94881B0C94F1500C94B45436
:100D50000C94A23F0C941B4D0C946A580C94BB1B32
:100D60000C949E3F0C949A1B0C9497580C9415402D
:100D70000C941E610C94DE230C94C1400C94865498
:100D80000C94B3590C946F540C94941B0C94B54E62
:100D90000C94814B0C946D250C9406400C94FB41F3
:100DA0000C9452230C94E2540C94902C0C94921BAF
:100DB0000C94EC400C94CF2A0C9413230C94D4255F
:100DC0000C94B2580C943C530C9483410C94E65907
:100DD0000C9457420C94E0410C94B4410C94F83EAE
:100DE0000C94A01B0C946F590C948C5D0C944A418C
:100DF0000C94D84F0C94CD410C948A3E0C948F3FA8
:100E00000C94443C0C94CC400C94933F0C94B860EC
:100E10000C9465240C94071C0C94CB560C946241E2
:100E20000C94B34B0C94EE4C0C94A2400C94A2592D
:100E30000C9461580C94934E0C94973F0C948E1B19
:100E40000C94523F0C947E1C0C9427610C94C4604B
:100E50000C94D5590C949D540C94C23F0C94CC1F07
:100E60000C94C2560C941D4B0C94FE5A0C94044BDB
:100E70000C94C65B0C9406420C9433530C9442546D
:100E80000C94A61C0C94523E0C94C4590C940D1D49
:100E90000C940A400C94183F0C945E420C94835DB1
:100EA0000C94B73F0C94C01C0C94721F0C9401243A
:100EB0000C941B610C9474210C94E14F0C944E53D0
:100EC0000C94EC410C94DD400C9426250C94D7280E
:100ED0000C9433400C948A400C94213E0C94B560E1
:100EE0000C94A53E0C942A530C9445530C94DF2487
:100EF0000C94A5410C949E5D0C9442240C94B82053
:100F00000C94CA3F0C944A5C0C94E4400C94913EBF
:100F10000C94D23E0C94253C0C9402420C947C58C8
:100F20000C9493260C94AD410C943E400C94774065
:100F30000C94D1260C9400270C94CF4F0C94216173
:100F40000C94F55A0C9496290C9457530C9485588C
:100F50000C94955D0C94E4410C94091D0C94833E13
:100F60000C94F83F0C944B3E0C9411420C940041AD
:100F70000C949A4B0C9415420C94773F0C94FC4FB4
:100F80000C94F34F0C947B410C9455410C94703F9E
:100F90000C94714E0C94453F0C943F410C94253FAA
:100FA0000C9404410C948C1B0C9424610C94FF1C35
:100FB0006364696E6F70737578585B004552524F69
:100FC000523A204661696C656420746F20736574C1
:100FD00000BCE5ACC59C85960392C1912190961DFD
:100FE00003ED01DCFDCCF5BCE5ACC5A86EBCE5AC01
:100FF000C59C85960392C1912190961D03ED01DC5D
:10100000FDCCF5BCE5ACC5A86E436F6D6D616E643B
:101010007320666F722074686520414452463635ED
:101020003138207661726961626C65206761696E32
:1010300020616D706C69666965722E00436F6E7415
:10104000726F6C73207468652066726F6E74656E63
:10105000642052462073776974636865732E00526A
:10106000656769737465722064756D707320666F4F
:10107000722072657370656374697665207065723D
:101080006970686572616C732E004578656375746C
:101090006573207465737420766563746F72732E44
:1010A00000436F6E74726F6C732074686520626F9A
:1010B000617264206C6576656C2066756E63746918
:1010C0006F6E732E2053657175656E7469616C2047
:1010D00065786563206F6620617267756D656E74F3
:1010E000732E0053746174757320616E642066758D
:1010F0006E6374696F6E73207573656420666F72BA
:1011000020636865636B696E672074686520626F31
:101110006172642E20004F4E2F4F46462073776930
:1011200074636865732C202830206973204F46460D
:101130002C2031206973204F4E2900426F6F746C50
:101140006F61646572206F7074696F6E732E0045F5
:10115000786974732066726F6D2074686973206299
:101160006F617264206261636B20746F20746865C4
:10117000204449474954414C20626F6172642E00FB
:101180005072696E7473206F75742074686520687E
:10119000656C70206D656E7520666F722074686571
:1011A00020626F6172642E0009103C105F108A107B
:1011B000A110E31016113B114F118011537065639C
:1011C000696679207768696368206368616E6E6517
:1011D0006C20612C622C632C64204F522062697455
:1011E000206D61736B2E204D5553542073706563D1
:1011F0006966792066697273742E004E756C6C2076
:10120000746865205647412773206F757470757434
:10121000204443206F6666736574732E20312074FA
:101220006F20656E61626C652E0042797061737328
:1012300020746865205647412773204C502066690A
:101240006C7465722E203120746F20656E61626C43
:10125000652E00536574205647412773204C50205B
:10126000636F726E6572206672657120696E204DC3
:10127000487A2E00536574205647412773206761D2
:10128000696E2E202843616C6C7320646761696EFF
:1012900020616E6420616761696E292E20496E703D
:1012A00075743A2030202D20393520282D363064B1
:1012B00042202D203335644229004765742056476B
:1012C000412773206761696E2E0053656C656374F6
:1012D00020564741204368616E6E656C2028303A85
:1012E00020426F74682C20493A20312C20513A203A
:1012F000322900436865636B2069662056474120A8
:101300006761696E20697320746F6F204869676830
:1013100020666F7220746865204144432E20283077
:101320003A204E6F2C20313A2059657329005365BD
:1013300074205647412773206469676974616C2083
:101340006761696E2E2033644220696E6372656D39
:10135000656E74732C20496E7075743A2030202DA0
:101360002038202834326442202D20363664422929
:101370000053657420564741277320616E616C6F7E
:1013800067206761696E2E20302E31644220636FC2
:101390006E74726F6C6C65642C20496E7075743A53
:1013A0002030202D2037323020282D313032644239
:1013B000202D202D33306442290053657420564778
:1013C00041277320706F737420616D7020676169AD
:1013D0006E2E20302D313A20332F3964422E0053A7
:1013E000657420564741277320696E7075742061BB
:1013F0006E616C6F6720617474656E756174696F7E
:101400006E20696E2064422E20476F6573207468D9
:10141000726F75676820414435363234522E00535E
:101420006574205647412773207077722D6D6F6465
:1014300065206261736564206F6E204C5020636F7D
:10144000726E657220667265712E20312069662089
:1014500066696C746572206D6F646520616E6420CE
:1014600033314D487A203C2042572C20656C7365FF
:10147000203630204D487A203C20425700BC11FBDA
:10148000112A1253127412BA12CA12F3122E1371C5
:1014900013BA13DF131F1443686F6F7365207468EA
:1014A0006520686967682028302E352D362047482A
:1014B0007A29206F72206C6F7720284443202D20DA
:1014C000302E352047487A292062616E642E2048EC
:1014D000696768283129206F72206C6F772830295E
:1014E0002E0042797061737320746865204C4E4100
:1014F000206F6E2074686520686967682062616E7D
:10150000642E2042797061737328312920746865D4
:10151000204C4E41206F72206E6F742830292E00AF
:10152000536574732066726571206F6620484D4361
:10153000383333206F75747075742C20696E204BAE
:10154000487A2E0053776565707320484D433833D1
:1015500033206672657175656E63792066726F6D92
:1015600020302E3247487A20746F203647487A2040
:101570007769746820612073746570206F6620310C
:10158000304D487A00504C4C20496E707574205292
:1015900065666572656E6365204672657175656E18
:1015A0006379005365747320426173652042616EF4
:1015B00064205661726163746F7220766F6C74611F
:1015C00067652028302D3430393629203056202DBB
:1015D00020322E35560053656C656374207468653F
:1015E0002074617267657420504C4C20283029208B
:1015F000484D433833302028312920484D43383373
:10160000330053657420504C4C20496E7075742023
:10161000446976696465722076616C75652E203147
:1016200020746F2031363338330053657420504CAA
:101630004C20466565646261636B20446976696429
:1016400065722076616C75652E20313620746F20AE
:101650003532343235350053657420504C4C2056A9
:10166000434F204F757470757420446976696465C2
:10167000722076616C75652E20312C20322C20343E
:101680002C2036202E2E20363200456E61626C658D
:101690002F44697361626C652056434F204F757407
:1016A000707574204672657175656E637920446F3C
:1016B00075626C65720053656C6563747320746841
:1016C0006520636F72726563742046696C7465721D
:1016D0002042616E6B20666F7220612067697665BB
:1016E0006E206672657175656E637920696E206B18
:1016F000487A004D7574657320746865204C4F20DE
:101700004672657175656E63792053796E7468658C
:1017100073697A6572207768656E207573656400F9
:1017200053656C65637420504C4C204F7574707514
:101730007420506F7765722028303A202D3464422F
:101740006D2C20313A202D3164426D2C20323A200C
:101750003264426D2C20333A203564426D290053A7
:10176000656C656374732044534120417474656EE5
:10177000756174696F6E2C2028303A203064426D98
:10178000202D3E203132373A2033312E3735644216
:101790006D2900414446343335352F4144463533B5
:1017A00035352044697265637420526567697374C6
:1017B000657220416363657373203C3C3238626913
:1017C0007420646174613E3C3462697420616464B5
:1017D000726573733E3E00BC119714E214201544E9
:1017E000158515A315D61502162A1657168A16B68C
:1017F00016F31620175F17931744756D70732061E9
:101800006C6C2074686520726567697374657273A7
:1018100020666F7220746865204144433136445815
:101820003337302E0044756D7073207468652072F4
:10183000656769737465727320666F72207468657A
:1018400020726567756C617220616E64205246205B
:101850004750494F580044756D707320616C6C207F
:101860007468652072656769737465727320666F4A
:10187000722074686520414452463635313800BCC8
:1018800011F917251856185365742074686520736C
:101890007065636966696564204750494F582070D8
:1018A000696E20686967682E00436C6561722074F8
:1018B000686520737065636966696564204750498F
:1018C0004F582070696E206C6F772E0052756E73C2
:1018D000207370656369666965642074657374203C
:1018E000766563746F72206F66207468652050435C
:1018F00041393533382E0052756E7320737065632D
:101900006966696564207465737420766563746FB5
:1019100072206F6620746865204144433136445814
:101920003337300052756E73207370656369666972
:101930006564207465737420766563746F72206FBC
:10194000662074686520414452463635313800BC03
:10195000118718A918CC18F71824195265777269DD
:10196000746520616C6C207265677320666F7220ED
:10197000656E7469726520626F6172642E005475C1
:10198000726E206F6E206F7574707574732028707E
:101990006572206368616E6E656C292E0052756EEB
:1019A0007320646961676E6F73746963206F6E2062
:1019B0007065726970686572616C2028706572204C
:1019C0006368616E6E656C292E2053686F756C6458
:1019D000207072696E7420616C6C20726567697327
:1019E000746572732E005475726E206F6666206F78
:1019F0007574707574732028706572206368616EE9
:101A00006E656C292E00506F776572206379636C68
:101A100065207065726970686572616C7320616EB3
:101A2000642072756E7320626F61726420696E69E2
:101A3000742028706572206368616E6E656C292E53
:101A4000005475726E206F666620706572697068EA
:101A50006572616C732E005475726E7320657665C5
:101A600072797468696E67206F66662E00507269BD
:101A70006E7473206F75742074686520736F66745C
:101A80007761726520616E6420686172647761724B
:101A9000652076657273696F6E2E0050726F76697D
:101AA0006465732074686520616D6F756E74206F56
:101AB000662052414D206C656674202862797465F9
:101AC00073292E00546865204144432077696C6C6B
:101AD00020656E61626C65207468652053595352AD
:101AE000454620646574656374696F6E2067617430
:101AF0006520666F72204A45534420696E69746997
:101B0000616C697A6174696F6E2E0054686520415A
:101B100044432077696C6C206F7574707574204A2B
:101B20004553442054657374205061747465726E1B
:101B3000732E20303A206F66662C20313A204432D2
:101B4000312E352C20323A204B32382E352C203392
:101B50003A2072707420494C412C20343A20726132
:101B60006D702C20353A20484947482E00456E615B
:101B7000626C696E672074686520535953524546FC
:101B800020646574656374696F6E20676174652E87
:101B9000203120746F20656E61626C652C203020CE
:101BA000746F2064697361626C65004F7574707541
:101BB000747320612031362D6269742072657065FE
:101BC0006174696E672073657175656E6365205B0E
:101BD000302C2032363238302C20302C202D32362A
:101BE0003332385D2066726F6D2074686520414421
:101BF0004320636F72652E0050726F76696465735F
:101C0000207468652074656D7065726174757265A5
:101C10002028302D31292E00426C696E6B732074A0
:101C20006865204C4544206120737065636966696E
:101C30006564206E756D626572206F662074696DD3
:101C400065732E0053656C6563747320474C4520A3
:101C50006D6F64653A204D43555F474C45283129E7
:101C6000206F7220465047415F474C45202832295B
:101C700000BC115B197E199D19E619061A411A5705
:101C80001A6D1A9B1AC41A0B1B6D1BAB1BF81B1881
:101C90001C441C436F6D6D616E6420666F72207012
:101CA00072696E74696E67207468652063757272FC
:101CB000656E742068656172746265617420766116
:101CC0006C7565206F662074686520525820626FBD
:101CD00061726400436F6D6D616E6420666F722087
:101CE000726573657474696E6720746865206865D1
:101CF000617274626561742076616C756520666FCF
:101D0000722074686520525820626F6172640048C6
:101D1000656172746265617420696E7469616C6971
:101D20007A6174696F6E2066756E6374696F6E2078
:101D3000746F2073657420636F756E7465722074A0
:101D40006F203000504C4C204C6F636B2044657406
:101D5000656374696F6E204D656368616E69736D4C
:101D60002E0052657475726E73204D435520646564
:101D70007669636520696E666F726D6174696F6EF6
:101D80002E00BC11931CD41C0F1D441D621D484D18
:101D9000433833784C50364700414452463635314B
:101DA00038004144433136445833373000BC118E3B
:101DB0001D991DA21D4E6F20617267756D656E7451
:101DC000206E65636573736172792E00B51D456E73
:101DD0007465722074686520626F6F746C6F6164E3
:101DE00065722E00CE1D5072696E7473206F75740B
:101DF00020696E20766572626F7365206D6F646511
:101E00002E203120746F20656E61626C652E00E6B5
:101E10001D436F6D6D616E647320666F7220746810
:101E2000652044414333384A38342E00436F6E7482
:101E3000726F6C73207468652066726F6E74656E65
:101E4000642052462073776974636865732E00526C
:101E5000656769737465722064756D707320666F51
:101E6000722072657370656374697665207065723F
:101E70006970686572616C732E0050726F76696468
:101E800065732074686520737461747573206F6660
:101E90002074686520626F6172642E00436F6E74F7
:101EA000726F6C732074686520626F617264206C5D
:101EB0006576656C2066756E6374696F6E732E202F
:101EC00053657175656E7469616C20657865632012
:101ED0006F6620617267756D656E74732E004F4E6C
:101EE0002F4F46462073776974636865732C2028EA
:101EF00030206973204F46462C2031206973204FD3
:101F00004E2900426F6F746C6F61646572206F7050
:101F100074696F6E732E0045786974732066726FF2
:101F20006D207468697320626F61726420626163FE
:101F30006B20746F20746865204449474954414CB4
:101F400020626F6172642E005072696E7473206F2C
:101F50007574207468652068656C70206D656E7599
:101F600020666F722074686520626F6172642E0053
:101F7000111E2C1E4F1E7A1E9C1EDE1E031F171FD5
:101F8000481F5370656369667920776869636820C4
:101F90006368616E6E656C20612C622C632C642C0E
:101FA000204F5220626974206D61736B2E204D5555
:101FB000535420737065636966792066697273741F
:101FC0002E005370656369667920776869636820BD
:101FD000696E7465726E616C204441432063686170
:101FE0006E6E656C3A2028302D332920412D442E09
:101FF00000536574207468652066726571206F7582
:1020000074707574206F662065787465726E616C8B
:102010002044414320636C6B2061667465722069C3
:102020006E7465726E616C20434C4B206369726301
:1020300075697420284D487A292E005365742074E0
:102040006865204E434F2075707065722033322DC5
:10205000626974732072656769737465722E0053C8
:10206000657420746865204E434F206C6F776572ED
:102070002033322D626974732072656769737465E9
:10208000722C20777269746520746F20757070658A
:10209000722033322D626974732066697273742101
:1020A000212A2A005365742074686520284C292051
:1020B0006C616E657320706572206C696E6B2E00AA
:1020C0005365742074686520284D2920636F6E76EF
:1020D00065727465727320706572206C696E6B2E08
:1020E0000053657420746865202846292066726153
:1020F0006D657320706572206D756C74692D6672E4
:10210000616D652E005365742074686520636D648D
:1021100020696E7075742066726F6D204A45534455
:10212000283029206F72205350492831292E00452C
:102130006E61626C6520746865206D697865722EC9
:10214000203120746F20656E61626C652E00456ED3
:1021500061626C65207468652050412028706F773B
:10216000657220616D706C69666965722920707294
:102170006F74656374696F6E2063697263756974E7
:102180002E203120746F20656E61626C652E0053C5
:1021900065742074686520696E746572706F6C6117
:1021A00074696F6E2031782830292C2032782831DC
:1021B000292C2034782832292C20387828342920DA
:1021C0006F72203136782838292E0045786563757E
:1021D0007465207468652073657264657320746526
:1021E00073742E2028302D35292074657374207067
:1021F00061747465726E2E0047657473207468652F
:102200002074656D7065726174757265206F6620EB
:10221000746865204441432E0044756D70206F75CD
:102220007420616C6C206F6620746865207265672D
:102230006973746572732E00496E697469616C69A3
:102240007A657320616E6420636F6E66696775726C
:10225000657320746865204A455344206C696E6B31
:102260002E004269742062616E6720616464726549
:102270007373206F66204441432E004269742062CC
:10228000616E672064617461206F66204441432E53
:10229000004269742062616E67206F7065726174BC
:1022A000696F6E2E20313A20777269746520303A5A
:1022B000207265616400514D43204443206F66667F
:1022C0007365742C203133626974732C206D6561E1
:1022D000737572656420696E20444143204C5342FB
:1022E000277300514D43206761696E206F666673E6
:1022F00065742C203131626974732C2064656369C4
:102300006D616C20706E742040206C656674206F67
:102310006620626974392C2072616E6765203020F6
:102320002D20312E393939302C204C53423D302E5E
:102330003030303937363600514D43207068617384
:1023400065206F66667365742C2031326269747320
:102350002C202D302E35202D20302E343939373594
:102360002C20726566657220746F206461746173DD
:1023700068656574004C61726765204672616374BC
:10238000696F6E616C2044656C617920536574746B
:10239000696E677300536D616C6C20467261637483
:1023A000696F6E616C2044656C617920536574744B
:1023B000696E677300536D616C6C20467261637463
:1023C000696F6E616C2044656C617920506174683E
:1023D0002053657474696E677300456E61626C6545
:1023E0002F44697361626C6520496E76657273650E
:1023F0002053696E632046696C74657200456E6196
:10240000626C652F44697361626C6520446974680D
:102410006572696E6700456E61626C652F44697311
:1024200061626C6520446974686572204D697865E5
:10243000720053657420746865204469746865721D
:1024400020416D706C69747564652C20302069734F
:10245000204D6178696D756D202834206269747330
:1024600029004C61726765204672616374696F6E02
:10247000616C2044656C61792C20436F65666669E8
:102480006369656E74205365742073656C6563744D
:10249000696F6E2E2028496E2044617461736865EF
:1024A00065742900536D616C6C20467261637469B8
:1024B0006F6E616C2044656C61792054617020738B
:1024C000656C6563746F7200536574207468652071
:1024D00073656C6563746564205461702076616C0B
:1024E000756520666F722074686520536D616C6C31
:1024F000204672616374696F6E616C2044656C6123
:10250000790052657475726E7320746865206F72FD
:102510002764206C616E65206572726F7273206F24
:1025200066207468652066697273742034206C615B
:102530006E657300821FC21F3B205F202F21F82190
:1025400019223822B622E322382375239523B52396
:10255000DA23FD23162432246224A424C82402256D
:1025600043686F6F736520746865206869676820C9
:1025700028302E352D362047487A29206F72206C5E
:102580006F7720284443202D20302E352047487A6D
:10259000292062616E642E204869676828312920ED
:1025A0006F72206C6F772830292E0042797061732A
:1025B0007320746865204C4E41206F6E20746865EE
:1025C00020686967682062616E642E2042797061BC
:1025D000737328312920746865204C4E41206F7236
:1025E000206E6F742830292E005365747320667234
:1025F0006571206F6620484D43383333206F757402
:102600007075742C20696E204B487A2E00536574C7
:1026100020746865205246534120617474656E745D
:10262000756174696F6E2E203020746F20323820EF
:102630002830644220746F202D32386442292E00E5
:10264000504C4C205265666572656E636520496E1C
:102650007075742028696E206B487A290053657460
:1026600020746865204951204D6F64756C61746FEA
:10267000722049206269617320766F6C74616765AE
:102680002028696E2064562C2066726F6D20302DD4
:102690003234206456292E005365742074686520F6
:1026A0004951204D6F64756C61746F7220512062C6
:1026B00069617320766F6C746167652028696E208C
:1026C00064562C2066726F6D20302D323420645693
:1026D000292E004E6565647320746F206265206347
:1026E000616C6C6564206C6173742E205365747327
:1026F00020746865204951204D6F64756C61746F5A
:10270000722E202869652E202D69203137202D71E9
:10271000203133202D6D290053656C65637420745E
:1027200068652074617267657420504C4C202830B5
:102730002920484D433833302028312920484D4343
:102740003833330053657420504C4C20496E7075FB
:102750007420446976696465722076616C75652EB3
:10276000203120746F2031363338330053657420A4
:10277000504C4C20466565646261636B2044697609
:10278000696465722076616C75652E20313620741F
:102790006F203532343235350053657420504C4C3F
:1027A0002056434F204F75747075742044697669C4
:1027B0006465722076616C75652E20312C20322C78
:1027C00020342C2036202E2E20363200456E6162B9
:1027D0006C652F44697361626C652056434F204FCE
:1027E0007574707574204672657175656E637920B5
:1027F000446F75626C6572004D7574657320746802
:1028000065204C4F204672657175656E6379205363
:10281000796E74686573697A6572207768656E2071
:10282000757365640053656C6563747320746865C3
:1028300020636F72726563742046696C74657220E0
:1028400042616E6B20666F72206120676976656EEB
:10285000206672657175656E637920696E206B48BC
:102860007A00504C4C204F757470757420506F77FF
:1028700065722028303A202D3464426D2C20313A84
:10288000202D3164426D2C20323A202B3264426D6F
:102890002C20333A202B3564426D290052462041CA
:1028A0007474656E7561746F722053657474696EAB
:1028B000672028303A20306442202D3E20313237C4
:1028C0003A202D33312E37356442290041444634B5
:1028D0003335352F414446353335352044697265EB
:1028E0006374205265676973746572204163636520
:1028F0007373203C3C323862697420646174613EB9
:102900003C3462697420616464726573733E3E0096
:10291000821F6025AB25E92540265D269826D32613
:10292000182744276C279927CC27F82725286228C1
:102930009C28CC2844756D7073207468652072657E
:102940006769737465727320666F7220746865209E
:10295000726567756C617220616E64205246204713
:1029600050494F580044756D70732074686520722B
:10297000656769737465727320666F722074686529
:102980002044414333384A383400821F34296529B2
:10299000436F6D6D616E6420666F72207468652090
:1029A00063757272656E74206865617274626561C8
:1029B000742076616C7565206F662074686520549C
:1029C0005820626F61726400436F6D6D616E6420A8
:1029D000666F7220726573657474696E67207468BF
:1029E000652063757272656E7420686561727462C9
:1029F0006561742076616C7565206F66205458207F
:102A0000626F61726400486561727462656174200E
:102A1000696E697469616C697A6174696F6E206648
:102A2000756E6374696F6E20746F207365742063B4
:102A30006F756E74657220746F2030004C6F636B1D
:102A400020446574656374696F6E204D65636861C9
:102A50006E69736D0052657475726E73204D4355C7
:102A60002064657669636520696E666F726D617456
:102A7000696F6E2E00821F9029C829062A3C2A55AC
:102A80002A5265777269746520616C6C2072656783
:102A90007320666F7220656E7469726520626F6163
:102AA00072642E005475726E206F6E206F75747094
:102AB0007574732028706572206368616E6E656C32
:102AC000292E0052756E7320646961676E6F73748E
:102AD0006963206F6E207065726970686572616CE1
:102AE0002028706572206368616E6E656C292E20E7
:102AF00053686F756C64207072696E7420616C6CC1
:102B0000207265676973746572732E005475726EF6
:102B1000206F6666206F75747075747320287065F9
:102B200072206368616E6E656C292E00506F776548
:102B300072206379636C6520706572697068657274
:102B4000616C7320616E642072756E7320626F61B8
:102B5000726420696E6974202870657220636861F0
:102B60006E6E656C292E005475726E206F6666203D
:102B70007065726970686572616C732E005475724D
:102B80006E732065766572797468696E67206F660A
:102B9000662E005072696E7473206F7574207468AD
:102BA0006520736F66747761726520616E6420685A
:102BB000617264776172652076657273696F6E2EDB
:102BC00000426C696E6B7320746865204C4544202C
:102BD0006120737065636966696564206E756D62F6
:102BE0006572206F662074696D65732E0050726F78
:102BF00076696465732074686520616D6F756E74A5
:102C0000206F662052414D206C65667420286279E1
:102C1000746573292E0050726F7669646573207431
:102C200068652074656D70657261747572652028C1
:102C3000302D31292E004F757470757420656E61CA
:102C4000626C65283129206F722064697361626C3F
:102C5000652830292E00456E61626C6573204A45F7
:102C600053442053595352454620476174650053DD
:102C7000656C65637420474C45206D6F64653A2030
:102C80004D43555F474C4528312920465047415F09
:102C9000474C4528322900821F812AA42AC32A0CC6
:102CA0002B2C2B672B7D2B932BC12B162CED2B362E
:102CB0002C562C6F2C44414333384A383400484D4D
:102CC000433833784C50364700414452463635310C
:102CD0003820486967682062616E6400414452464A
:102CE00036353138204C6F772042616E6400821F88
:102CF000B52CBE2C456E7465722074686520626FB9
:102D00006F746C6F616465722E00F42C4E6F2061DD
:102D10007267756D656E74206E656365737361723D
:102D2000792E000C2D5072696E7473206F757420AB
:102D3000696E20766572626F7365206D6F64652EB3
:102D4000203120746F20656E61626C652E00252D28
:102D5000436F6D6D616E647320666F72206D616E7E
:102D60006167696E672074686520434C4B20676516
:102D70006E65726174696F6E207468726F756768D2
:102D8000204C4D4B30343832382C204144353632CB
:102D900034522C20484D433938372E00436F6D6D27
:102DA000616E647320666F72206D616E6167696E1B
:102DB000672074686520434C4B2067656E657261BF
:102DC00074696F6E207468726F756768204C4D4B24
:102DD00030343832382C20414435363234522C20AD
:102DE000484D433938372E00436F6D6D616E647303
:102DF00020666F722073657474696E6720746865ED
:102E0000204C4D4B30343832382064656C61792069
:102E1000636C6F636B732E00436F6D6D616E6473D3
:102E200020666F722073657474696E6720746865BC
:102E3000204C4D4B30343832382064656C61792039
:102E4000636C6F636B732E00436F6D6D616E6473A3
:102E500020666F722073657474696E67204A4553EB
:102E6000442F504C4C204E2F522064697669646583
:102E7000727300436F6D6D616E647320666F7220B4
:102E800073657474696E6720484D4339383820671C
:102E9000726F75702064656C6179732E0052656184
:102EA0006420616E6420777269746520636F6D6D54
:102EB000616E647320666F7220646562756767690E
:102EC0006E672E00436F6E74726F6C73207468654A
:102ED00020626F617264206C6576656C2066756E29
:102EE0006374696F6E732E2053657175656E7469B6
:102EF000616C2065786563206F6620617267756D0F
:102F0000656E74732E00436F6D6D616E6473206621
:102F10006F7220616363657373696E67207468659F
:102F20002068656172746265617420737461747580
:102F300073004F4E2F4F4646207377697463686560
:102F4000732C202830206973204F46462C203120D6
:102F50006973204F4E2900426F6F746C6F61646516
:102F600072206F7074696F6E732E00457869747388
:102F70002066726F6D207468697320626F6172647D
:102F8000206261636B20746F207468652044494738
:102F90004954414C20626F6172642E005072696E18
:102FA0007473206F7574207468652068656C702078
:102FB0006D656E7520666F722074686520626F6142
:102FC00072642E00502D9C2DE82D182E482E732E45
:102FD0009D2EC42E062F322F572F6B2F9C2F456E00
:102FE00061626C65206578742D31304D487A2072AD
:102FF00065666572656E6365202831292E00497308
:10300000737565205359535245462070756C73652E
:10301000732066726F6D204A4553442E00536574C9
:10302000207468652044414320636F6E74726F6C36
:103030006C696E6720584F20567265662C20302DC3
:1030400034303936206672616374696F6E2056655C
:103050007874004368616E676520696E7465726E8E
:10306000616C207265666572656E636520444143DC
:10307000206F757470757420766F6C74616765006D
:1030800052652D73796368726F6E697A65206F750A
:1030900074707574206469766964657273206672F1
:1030A0006F6D20626F7468204C4D4B7300DE2FFEF5
:1030B0002F1D30FE2F803053656C656374204A45A8
:1030C0005344206F7220504C4C2E0053656C656346
:1030D000742064657669636520636C6F636B2E0092
:1030E000536574206469676974616C2064656C6100
:1030F0007920636C6F636B2E00B730CB30E030B754
:1031000030CB30E03053656C656374206469766958
:1031100064657220746F207365742E00536574208B
:1031200052206469766964657220666F7220504C23
:103130004C2E00536574204E206469766964657274
:1031400020666F7220504C4C2E00536574206361D2
:103150006C6C6962726174696F6E204E206469766E
:10316000696465722E0053657420707265736361C3
:103170006C617220666F722063616C6C696272614F
:1031800074696F6E2E0053657420636C6F636B20DF
:10319000646976696465722E00B73005311C31337D
:1031A00031863153656C656374732062657477652D
:1031B000656E207468652074776F20484D433938F8
:1031C0003820646576696365732028726566657268
:1031D000656E636520616E64206C6D6B292E0047FF
:1031E00065742F736574207468652053594E4320AD
:1031F00064656C617920646976696465722E005338
:103200006574206569746865722053594E43206F58
:103210007220534C4950207573696E672053504992
:1032200020636F6D6D756E69636174696F6E2E00DA
:103230004765742F73657420746865206F757470AA
:103240007574206C61756E63682070686173652E9B
:10325000004765742F7365742064656C6179206C18
:10326000696E6520736574706F696E742E004765B2
:10327000742F73657420484D4320726566657265CE
:103280006E636520696E7075742064697669646523
:103290007273202876616C6964206469766964655C
:1032A000727320617265203D20325E6E2C206E3D6F
:1032B000312E2E3529004765742F73657420484DD3
:1032C0004320527820427566666572206269617398
:1032D0002028302069732064656661756C742C2029
:1032E0003120666F722073696E75736F6469616CEB
:1032F000202F206E6F6E2D4C565045434C2041437D
:1033000020636F75706C696E672E2900A331DF3101
:10331000FF31303251326E32B63252656164206113
:103320006E6420777269746520636F6D6D616E6481
:103330007320666F7220646562756767696E672EB9
:1033400000B7301A335265777269746520616C6C0E
:10335000207265677320666F7220656E746972658E
:1033600020626F6172642E005475726E206F6E2041
:103370006F7574707574732028706572206368614E
:103380006E6E656C292E0052756E732064696167DC
:103390006E6F73746963206F6E20706572697068F8
:1033A0006572616C2028706572206368616E6E655D
:1033B0006C292E2053686F756C64207072696E746E
:1033C00020616C6C207265676973746572732E007E
:1033D0005475726E206F6666206F757470757473A5
:1033E0002028706572206368616E6E656C292E00FE
:1033F000506F776572206379636C652070657269C0
:1034000070686572616C7320616E642072756E7392
:1034100020626F61726420696E6974202870657221
:10342000206368616E6E656C292E005475726E2083
:103430006F6666207065726970686572616C732E64
:10344000005475726E732065766572797468696E62
:1034500067206F66662E005072696E7473206F75F8
:10346000742074686520736F66747761726520617B
:103470006E6420686172647761726520766572732C
:10348000696F6E2E00426C696E6B732074686520E4
:103490004C454420612073706563696669656420EA
:1034A0006E756D626572206F662074696D65732E2E
:1034B0000050726F76696465732074686520746566
:1034C0006D70657261747572652028302D31292EFA
:1034D0000050726F76696465732074686520616D51
:1034E0006F756E74206F662052414D206C65667456
:1034F00020286279746573292E0053656C656374A6
:103500007320474C45206D6F64653A204D43555FED
:10351000474C45283129206F722053594E54485F3B
:10352000465047415F474C452028322900453368C3
:10353000338733F0332B34413457348534B134D1AD
:1035400034FA344865617274626561742066756E20
:103550006374696F6E20746F20616E642066726F91
:103560006D207468652073657276657200486561C8
:103570007274626561742066756E6374696F6E2023
:10358000746F207265736574207468652068656166
:1035900072746265617420636F756E746572004841
:1035A000656172746265617420696E697469616CC9
:1035B000697A6174696F6E2066756E6374696F6E87
:1035C00020746F2073657420636F756E746572204C
:1035D000746F2030004765747320504C4C204C6F42
:1035E000636B2044657465637420537461747573F0
:1035F00000476574732C20616E64207468656E20CA
:103600007265736574732C20504C4C204C6F73732F
:10361000206F66204C6F636B205374617475732E3A
:103620000052657475726E73204D43552064657643
:1036300069636520696E666F726D6174696F6E2E65
:103640000043356D359F35D535F13521364C4D4B21
:10365000303430323800484D43393837004D365613
:10366000364E6F20617267756D656E74206E65638E
:103670006573736172792E006136456E74657220D0
:1036800074686520626F6F746C6F616465722E0080
:103690007A365072696E7473206F757420696E206B
:1036A000766572626F7365206D6F64652E203120C0
:1036B000746F20656E61626C652E00923600112475
:1036C0001FBECFEFCDBFDFE3DEBF00E00CBF14E3D2
:1036D000A0E0B0E2E6E3F3E701E00BBF02C0079031
:1036E0000D92A23CB107D9F71DE3A2ECB4E301C0EF
:1036F0001D92AE33B107E1F70E94D6AF0C9499B991
:103700000C9400006150710981099109D9F708955D
:1037100080E0089580E0089580E0089580E00895B5
:1037200080E0089580E0089580E0089580E00895A5
:1037300080E0089580E0089580E0089580E0089595
:1037400080E0089580E0089580919F209091A020CE
:103750002091D5343091D634821B930B01968093FF
:10376000D5349093D63480E008951092D5341092D9
:10377000D63480E00895E5EDF1E281A18F9380A138
:103780008F93878D8F93868D8F9387E89BE29F938E
:103790008F930E9449B30F900F900F900F900F904E
:1037A0000F9080E00895CF93DF9300D01F92CDB7A4
:1037B000DEB7CE010196AA2797FDA095BA2F4091BA
:1037C000343D5091353D4115510511F44EE35DE313
:1037D000662757FD6095762F841B950BA60BB70BBC
:1037E000BF93AF939F938F9385E99BE29F938F93B2
:1037F0000E9449B30F900F900F900F900F900F9071
:1038000080E02496CDBFDEBFDF91CF9108958091F7
:10381000B7251F928F938AEA9BE29F938F930E9412
:1038200049B38091B6251F928F9384EC9BE29F93BE
:103830008F930E9449B38091D1219091D221A09180
:10384000D321B091D4212DB73EB7285F3F4F2DBF74
:103850003EBF81309105A105B10531F481E080932F
:10386000B7258093B62514C082309105A105B10516
:1038700031F483E08093B7258093B62509C0039780
:10388000A105B10529F484E08093B7258093B6257E
:103890008091B7251F928F938EED9BE29F938F931C
:1038A0000E9449B38091B6251F928F9384EF9BE2CB
:1038B0009F938F930E9449B38DB79EB708968DBF93
:1038C0009EBF80E008958091D6348F938091D53447
:1038D0008F938CE89CE29F938F930E9449B38091D1
:1038E000D5349091D63401968093D5349093D634C4
:1038F0000F900F900F900F9080E00895682F8091A7
:103900009D2590919E250E94717C80E090E0089515
:10391000CF9386E09DE30E949743C82F65E176E14F
:1039200085E090E00E94821B8C2FCF910895CF9369
:1039300082E39DE30E94CD44C82F65E176E185E0F6
:1039400090E00E94821B8C2FCF910895CF9386E048
:103950009DE30E949743C82F65E176E185E090E002
:103960000E94821B82E39DE30E94CD44C80F65E163
:1039700076E185E090E00E94821B8C2FCF91089524
:1039800061E08091252390912623A0912723B09177
:103990002823892B8A2B8B2B09F460E08091042249
:1039A00090910522A0910622B091072281309105C5
:1039B000A105B10519F487EE9CE306C00297A105A5
:1039C000B105B9F481E09DE30E943F38880F892F4B
:1039D000881F990B91959F938F938AE09CE29F9308
:1039E0008F930E9449B30F900F900F900F9080E03B
:1039F000089583E19CE20E9463B381E0089586E02C
:103A00009DE30E942C4485E39CE20E9463B380E026
:103A1000089586E09DE30C942C4482E39DE30C948E
:103A20002C44CF934091AC245091AD246091AE24AE
:103A30007091AF2480918A2490918B24A0918C2442
:103A4000B0918D244115510561057105D9F481307E
:103A50009105A105B10531F486E09DE30E9422465F
:103A6000C82F35C00297A105B10531F482E39DE36B
:103A70000E942246C82F2BC087E49CE20E9463B3B9
:103A800081E038C081309105A105B10531F486E0AF
:103A90009DE30E94C945C82F1AC082309105A10537
:103AA000B10531F482E39DE30E94C945C82F0FC0E0
:103AB0000397A105B10501F783E08093BD2586E05A
:103AC0009DE30E94C945C82F81E08093BD25CC238A
:103AD00081F08CEB9FE09F938F938AE69CE29F930B
:103AE0008F930E9449B30F900F900F900F908C2FDF
:103AF00001C080E0CF910895CF934091BD245091B3
:103B0000BE246091BF247091C02480918A2490913A
:103B10008B24A0918C24B0918D2441155105610511
:103B20007105D9F481309105A105B10531F486E024
:103B30009DE30E94C646C82F35C00297A105B10576
:103B400031F482E39DE30E94C646C82F2BC087E470
:103B50009CE20E9463B381E038C081309105A105E9
:103B6000B10531F486E09DE30E946D46C82F1AC06E
:103B700082309105A105B10531F482E39DE30E94F5
:103B80006D46C82F0FC00397A105B10501F783E06B
:103B90008093BD2586E09DE30E946D46C82F81E09D
:103BA0008093BD25CC2381F08CEB9FE09F938F9376
:103BB0008AE69CE29F938F930E9449B30F900F90E7
:103BC0000F900F908C2F01C080E0CF910895CF937C
:103BD0004091CE245091CF246091D0247091D12473
:103BE00080918A2490918B24A0918C24B0918D2473
:103BF0004115510561057105D9F481309105A10583
:103C0000B10531F486E09DE30E948047C82F35C09E
:103C10000297A105B10531F482E39DE30E9480473C
:103C2000C82F2BC087E49CE20E9463B381E038C0B8
:103C300081309105A105B10531F486E09DE30E9434
:103C40002747C82F1AC082309105A105B10531F46C
:103C500082E39DE30E942747C82F0FC00397A10569
:103C6000B10501F783E08093BD2586E09DE30E94C6
:103C70002747C82F81E08093BD25CC2381F08CEBB2
:103C80009FE09F938F9387E79CE29F938F930E947F
:103C900049B30F900F900F900F908C2F01C080E0D0
:103CA000CF9108951F93CF93DF931F92CDB7DEB7C7
:103CB0004091DF245091E0246091E1247091E2244E
:103CC00080918A2490918B24A0918C24B0918D2492
:103CD000452B462B472BF9F481309105A105B10501
:103CE00031F486E09DE30E949549182F81C0029728
:103CF000A105B10551F482E39DE30E949549182F77
:103D000077C00397A105B105B1F187E49CE20E9459
:103D100063B381E080C081309105A105B10599F4BC
:103D200086E09DE30E94CE474091DF245091E0243D
:103D30006091E1247091E224282F86E09DE30E94A7
:103D4000F147182F55C082309105A105B105C9F67C
:103D500086E09DE30E94CE474091DF245091E0240D
:103D60006091E1247091E224282F82E39DE30E9478
:103D7000F147182F3DC083E08093BD2586E09DE389
:103D80000E94CE47282F1F928F9384E89CE29F9336
:103D90008F9329830E9449B382E39DE30E94CE471B
:103DA000182F1F928F9380E99CE29F938F930E941C
:103DB00049B3CDBFDEBF2981211751F08CE99CE2C8
:103DC0009F938F930E9449B30F900F9083E023C07D
:103DD0004091DF245091E0246091E1247091E2242D
:103DE00086E09DE30E94F147182F81E08093BD2576
:103DF000112381F08CEB9FE09F938F9387E79CE2E8
:103E00009F938F930E9449B30F900F900F900F9044
:103E1000812F01C080E00F90DF91CF911F91089515
:103E2000CF934091F0245091F1246091F22470914D
:103E3000F32480918A2490918B24A0918C24B091BA
:103E40008D244115510561057105F9F48130910505
:103E5000A105B10541F460919B2486E09DE30E9499
:103E6000874CC82F2AC00297A105B10541F4609183
:103E70009B2482E39DE30E94874CC82F1EC087E4E9
:103E80009CE20E9463B381E02BC081309105A105C3
:103E9000B10541F420919B2486E09DE30E94A34A52
:103EA000C82F0BC00297A105B10549F720919B24AB
:103EB00082E39DE30E94A34AC82FCC2381F08CEBC0
:103EC0009FE09F938F9389EB9CE29F938F930E9437
:103ED00049B30F900F900F900F908C2F01C080E08E
:103EE000CF910895CF934091012550910225609183
:103EF00003257091042580918A2490918B24A091B0
:103F00008C24B0918D244115510561057105D9F4BA
:103F100081309105A105B10531F486E09DE30E9451
:103F20009E4DC82F24C00297A105B10531F482E34C
:103F30009DE30E949E4DC82F1AC087E49CE20E9418
:103F400063B381E027C081309105A105B10531F44B
:103F500086E09DE30E94444DC82F09C00297A10549
:103F6000B10559F782E39DE30E94444DC82FCC234D
:103F700081F08CEB9FE09F938F938AEC9CE29F9360
:103F80008F930E9449B30F900F900F900F908C2F3A
:103F900001C080E0CF9108950F93CF930091F1235A
:103FA000609113244091242420916824809102245C
:103FB00090910324A0910424B09105240097A105B9
:103FC000B10529F58091E0239091E123A091E223AE
:103FD000B091E32381309105A105B10539F4602F3B
:103FE00086E09DE30E94D552C82F38C00297A105F4
:103FF000B10539F4602F82E39DE30E94D552C82FAA
:104000002DC087E49CE20E9463B381E03AC001972F
:10401000A105B105E9F48091E0239091E123A091FD
:10402000E223B091E32381309105A105B10531F47C
:1040300086E09DE30E943550C82F10C00297A1056D
:10404000B105F9F682E39DE30E943550C82F06C002
:1040500082EE9CE20E9463B3C1E002C0CC2381F0F7
:104060008CEB9FE09F938F9389E19DE29F938F93C9
:104070000E9449B30F900F900F900F908C2F01C0AA
:1040800080E0CF910F910895CF932091F12360911B
:104090001324409124248091792490917A24A09132
:1040A0007B24B0917C240097A105B10529F580916E
:1040B000E0239091E123A091E223B091E3238130AA
:1040C0009105A105B10539F4622F86E09DE30E94B8
:1040D0003756C82F38C00297A105B10539F4622FB1
:1040E00082E39DE30E943756C82F2DC087E49CE2EF
:1040F0000E9463B381E03AC00197A105B105E9F4DC
:104100008091E0239091E123A091E223B091E323F9
:1041100081309105A105B10531F486E09DE30E944F
:10412000AB53C82F10C00297A105B105F9F682E381
:104130009DE30E94AB53C82F06C082EE9CE20E9412
:1041400063B3C1E002C0CC2381F08CEB9FE09F936E
:104150008F9389E19DE29F938F930E9449B30F90C3
:104160000F900F900F908C2F01C080E0CF91089599
:10417000CF9340913524509136246091372470912B
:1041800038248091E0239091E123A091E223B09123
:10419000E3234115510561057105F9F4813091055D
:1041A000A105B10541F46091F12386E09DE30E94F1
:1041B000714FC82F2AC00297A105B10541F4609143
:1041C000F12382E39DE30E94714FC82F1EC087E454
:1041D0009CE20E9463B381E02BC081309105A10570
:1041E000B10541F42091F12386E09DE30E94EC4D5E
:1041F000C82F0BC00297A105B10549F72091F12303
:1042000082E39DE30E94EC4DC82FCC2381F08CEB20
:104210009FE09F938F9389E19DE29F938F930E94EC
:1042200049B30F900F900F900F908C2F01C080E03A
:10423000CF910895CF9340914624509147246091A7
:104240004824709149248091E0239091E123A0912A
:10425000E223B091E3234115510561057105D9F4BD
:1042600081309105A105B10531F486E09DE30E94FE
:104270008357C82F24C00297A105B10531F482E30A
:104280009DE30E948357C82F1AC087E49CE20E94D6
:1042900063B381E027C081309105A105B10531F4F8
:1042A00086E09DE30E940D57C82F09C00297A10523
:1042B000B10559F782E39DE30E940D57C82FCC2327
:1042C00081F08CEB9FE09F938F938CE29DE29F9314
:1042D0008F930E9449B30F900F900F900F908C2FE7
:1042E00001C080E0CF910895CF938091E023909119
:1042F000E123A091E223B091E32381309105A10550
:10430000B10551F44091F1236091572486E09DE37B
:104310000E94EB57C82F14C00297A105B10551F4B4
:104320004091F1236091572482E39DE30E94EB5773
:10433000C82F06C087E49CE20E9463B381E013C0EB
:10434000CC2381F08CEB9FE09F938F938CE29DE2D6
:104350009F938F930E9449B30F900F900F900F90EF
:104360008C2F01C080E0CF910895CF9340918B2393
:1043700060919C2380917A2390917B23A0917C2350
:10438000B0917D2381309105A105B10531F486E01E
:104390009DE30E94305BC82F10C00297A105B105B4
:1043A00031F482E39DE30E94305BC82F06C087E4AE
:1043B0009CE20E9463B381E013C0CC2381F08CEBBC
:1043C0009FE09F938F9386E49DE29F938F930E943B
:1043D00049B30F900F900F900F908C2F01C080E089
:1043E000CF910895CF9380917A2390917B23A091D0
:1043F0007C23B0917D2381309105A105B10541F465
:1044000060918B2386E09DE30E940A5DC82F12C055
:104410000297A105B10541F460918B2382E39DE3EE
:104420000E940A5DC82F06C087E49CE20E9463B325
:1044300081E013C0CC2381F08CEB9FE09F938F939E
:1044400089E19DE29F938F930E9449B30F900F9053
:104450000F900F908C2F01C080E0CF910895CF93E3
:1044600080917A2390917B23A0917C23B0917D232E
:1044700081309105A105B10581F44091BE23509191
:10448000BF236091C0237091C12320918B2386E0CC
:104490009DE30E941259C82F1AC00297A105B105C9
:1044A00081F44091BE235091BF236091C02370914D
:1044B000C12320918B2382E39DE30E941259C82FD0
:1044C00006C087E49CE20E9463B381E013C0CC2362
:1044D00081F08CEB9FE09F938F9386E49DE29F9306
:1044E0008F930E9449B30F900F900F900F908C2FD5
:1044F00001C080E0CF910895CF9380917A2390916D
:104500007B23A0917C23B0917D2381309105A1056F
:10451000B10541F460918B2386E09DE30E94735ABC
:10452000C82F12C00297A105B10541F460918B23F9
:1045300082E39DE30E94735AC82F06C087E49CE281
:104540000E9463B381E009C0CC2331F088E59DE28D
:104550000E9463B38C2F01C080E0CF910895CF9368
:104560008091042290910522A0910622B091072209
:1045700081309105A105B10551F46091152270912A
:10458000162287EE9CE30E949439C82F14C002972C
:10459000A105B10551F4609115227091162281E0B8
:1045A0009DE30E949439C82F06C083E19CE20E94DB
:1045B00063B381E013C0CC2381F08CEB9FE09F9329
:1045C0008F938CE79DE29F938F930E9449B30F9046
:1045D0000F900F900F908C2F01C080E0CF91089525
:1045E0008091042290910522A0910622B091072289
:1045F00081309105A105B10531F487EE9CE30E945D
:10460000C53980E008950297A105B10531F481E034
:104610009DE30E94C53980E0089583E19CE20E94F9
:1046200063B381E00895CF93809104229091052295
:10463000A0910622B091072281309105A105B10514
:1046400031F487EE9CE30E94EC3AC82F10C0029729
:10465000A105B10531F481E09DE30E94EC3AC82F39
:1046600006C083E19CE20E9463B381E019C0CC23C1
:10467000B1F08BE89DE29F938F938CEB9FE09F932B
:104680008F9385E99DE29F938F930E9449B30F908A
:104690000F900F900F900F900F908C2F01C080E023
:1046A000CF910895CF938091482290914922A09173
:1046B0004A22B0914B22892B8A2B8B2B31F08BE92C
:1046C0009DE20E9463B381E036C080910422909104
:1046D0000522A0910622B091072281309105A10503
:1046E000B10531F487EE9CE30E942B3BC82F10C02C
:1046F0000297A105B10531F481E09DE30E942B3BB7
:10470000C82F06C083E19CE20E9463B381E013C01E
:10471000CC2381F08CEB9FE09F938F9389EB9DE2FC
:104720009F938F930E9449B30F900F900F900F901B
:104730008C2F01C080E0CF910895CF938091042207
:1047400090910522A0910622B09107228130910517
:10475000A105B10551F46091592270915A2287EE5A
:104760009CE30E94F339C82F14C00297A105B1053C
:1047700051F46091592270915A2281E09DE30E9488
:10478000F339C82F06C083E19CE20E9463B381E045
:1047900013C0CC2381F08CEB9FE09F938F9386EC2A
:1047A0009DE29F938F930E9449B30F900F900F90BB
:1047B0000F908C2F01C080E0CF910895809104224A
:1047C00090910522A0910622B09107228130910597
:1047D000A105B10531F487EE9CE30E94373A80E0F1
:1047E00008950297A105B10531F481E09DE30E948F
:1047F000373A80E0089583E19CE20E9463B381E050
:104800000895CF938091042290910522A0910622D1
:10481000B091072281309105A105B10551F4609155
:104820007B2270917C2287EE9CE30E94653AC82F20
:1048300014C00297A105B10551F460917B227091DB
:104840007C2281E09DE30E94653AC82F06C083E187
:104850009CE20E9463B381E013C0CC2381F08CEB17
:104860009FE09F938F9387ED9DE29F938F930E948C
:1048700049B30F900F900F900F908C2F01C080E0E4
:10488000CF9108958091042290910522A091062253
:10489000B091072281309105A105B10531F487EE71
:1048A0009CE30E94BE3A80E008950297A105B105FD
:1048B00031F481E09DE30E94BE3A80E0089583E1F7
:1048C0009CE20E9463B381E00895CF93809104221B
:1048D00090910522A0910622B09107228130910586
:1048E000A105B10551F460919D2270919E2287EE41
:1048F0009CE30E94733BC82F14C00297A105B10529
:1049000051F460919D2270919E2281E09DE30E946E
:10491000733BC82F06C083E19CE20E9463B381E031
:1049200013C0CC2381F08CEB9FE09F938F9389EB96
:104930009DE29F938F930E9449B30F900F900F9029
:104940000F908C2F01C080E0CF910895CF9380917C
:10495000042290910522A0910622B0910722813075
:104960009105A105B10531F487EE9CE30E94B63BA9
:10497000C82F10C00297A105B10531F481E09DE375
:104980000E94B63BC82F06C083E19CE20E9463B33D
:1049900081E013C0CC2381F08CEB9FE09F938F9339
:1049A00089EB9DE29F938F930E9449B30F900F90E4
:1049B0000F900F908C2F01C080E0CF910895CF937E
:1049C0008091042290910522A0910622B0910722A5
:1049D00081309105A105B10551F46091BF2270911C
:1049E000C02287EE9CE30E945D38C82F14C0029756
:1049F000A105B10551F46091BF227091C02281E000
:104A00009DE30E945D38C82F06C083E19CE20E94AE
:104A100063B381E019C0CC23B1F086EE9DE29F9391
:104A20008F938CEB9FE09F938F9385E99DE29F93FB
:104A30008F930E9449B30F900F900F900F900F909B
:104A40000F908C2F01C080E0CF910895CF9380917B
:104A5000042290910522A0910622B0910722813074
:104A60009105A105B10551F46091E1227091E22216
:104A700087EE9CE30E943339C82F14C00297A1052A
:104A8000B10551F46091E1227091E22281E09DE351
:104A90000E943339C82F06C083E19CE20E9463B3B1
:104AA00081E019C0CC23B1F087EF9DE29F938F93F3
:104AB0008CEB9FE09F938F9385E99DE29F938F936B
:104AC0000E9449B30F900F900F900F900F900F908E
:104AD0008C2F01C080E0CF910895CF938091E22187
:104AE0009091E321A091E421B091E521892B8A2BBB
:104AF0008B2BA9F086E09DE30E946C44C82F86E0D2
:104B00009DE30E949743C80F82E39DE30E946245A4
:104B1000C80F82E39DE30E94CD44C80F0AC086E01F
:104B20009DE30E94215FC82F82E39DE30E94215FE5
:104B3000C80FCC2341F088E09EE29F938F930E94A0
:104B400049B30F900F908091E5218F938091E421DC
:104B50008F938091E3218F938091E2218F9380E165
:104B60009EE29F938F930E9449B30F900F900F90F6
:104B70000F900F900F908C2FCF9108958EE19EE2B1
:104B80009F938F9383E29EE29F938F930E9449B3FA
:104B90000F900F900F900F9022E040915B206DE0FE
:104BA00080E090E20C944AAECF9360918925709199
:104BB0008A2580EF9CE30E94AC31C82F8823C1F086
:104BC00080918C258F9380918B258F9380918A255E
:104BD0008F93809189258F9386E39EE29F938F9395
:104BE0000E9449B30F900F900F900F900F900F906D
:104BF0008C2FCF9108958091C1209091C220A091D7
:104C0000C320B091C4208B309105A105B10531F1CD
:104C100085319105A105B10569F18C309105A1059A
:104C2000B10511F14697A105B10551F18FE59EE25D
:104C30000E9463B361E086E09DE30E94E05D62E074
:104C400086E09DE30E94E05D8CE79EE20E9463B3F4
:104C500061E082E39DE30E94E05D12C061E086E0D6
:104C60009DE30E94E05D11C062E086E09DE30E944A
:104C7000E05D0BC061E082E39DE30E94E05D05C062
:104C800062E082E39DE30E94E05D80E00895809110
:104C9000D2209091D320A091D420B091D5208B30F8
:104CA0009105A105B10531F185319105A105B10548
:104CB00069F18C309105A105B10511F14697A10567
:104CC000B10551F188E99EE20E9463B361E086E09C
:104CD0009DE30E947F5E62E086E09DE30E947F5E2E
:104CE00086EB9EE20E9463B361E082E39DE30E9453
:104CF0007F5E12C061E086E09DE30E947F5E11C08E
:104D000062E086E09DE30E947F5E0BC061E082E38B
:104D10009DE30E947F5E05C062E082E39DE30E9406
:104D20007F5E80E008958091042290910522A091F9
:104D30000622B091072281309105A105B10521F429
:104D400087EE9CE30C94B6380297A105B10521F4D7
:104D500081E09DE30C94B63883E19CE20E9463B34A
:104D600081E008958091042290910522A09106226D
:104D7000B091072281309105A105B10521F487EE9C
:104D80009CE30C94F5380297A105B10521F481E06C
:104D90009DE30C94F53883E19CE20E9463B381E0CB
:104DA00008958091042290910522A0910622B0914D
:104DB000072281309105A105B10561F440911423CA
:104DC000509115236091032387EE9CE30E941638CF
:104DD00080E008950297A105B10561F44091142384
:104DE000509115236091032381E09DE30E941638C2
:104DF00080E0089583E19CE20E9463B381E008951E
:104E00008091672590916825A0916925B0916A25C8
:104E100021E00097A105B10519F02093A50602C075
:104E20002093A606BF93AF939F938F9383ED9EE24B
:104E30009F938F930E9449B30F900F900F900F9004
:104E40000F900F9080E00895809136239091372342
:104E5000A0913823B091392381309105A105B10586
:104E600039F4609147237091482386E09DE30AC09E
:104E70000297A105B10511F5609147237091482370
:104E800082E39DE30E94A0421F928F9383EE9EE2F5
:104E90009F938F930E9449B30F900F900F900F90A4
:104EA00083E090E0A0E0B0E0809336239093372336
:104EB000A0933823B093392380E0089587E49CE2DF
:104EC0000E9463B381E00895CF938091362390913F
:104ED0003723A0913823B091392381309105A10562
:104EE000B10561F460915823709159234091692371
:104EF00086E09DE30E945243C82F16C00297A10589
:104F0000B10561F460915823709159234091692350
:104F100082E39DE30E945243C82F06C087E49CE2CF
:104F20000E9463B381E013C0CC2321F084EF9EE2A2
:104F30000E9463B383E090E0A0E0B0E0809336236A
:104F400090933723A0933823B09339238C2FCF919C
:104F500008951F920F920FB60F9211240BB60F9265
:104F60002F933F934F935F936F937F938F939F9371
:104F7000AF93BF93EF93FF9320E040E050E060E0F9
:104F800070E08FE995E20E945F7AFF91EF91BF9107
:104F9000AF919F918F917F916F915F914F913F91D1
:104FA0002F910F900BBE0F900FBE0F901F90189572
:104FB0001F920F920FB60F9211240BB60F922F93E0
:104FC0003F934F935F936F937F938F939F93AF9391
:104FD000BF93EF93FF938FE995E20E94D07AFF9100
:104FE000EF91BF91AF919F918F917F916F915F9161
:104FF0004F913F912F910F900BBE0F900FBE0F90CE
:105000001F901895A0EAB6E040E111964C931197D5
:1050100030E211963C931197E0E2F6E021E0228322
:1050200082E0828394E09183E0E6F6E0218381834D
:1050300091834183318350E8518360E4618378E058
:105040007283E0E8F6E02283818391837183428357
:1050500031836183518311962C93119711968C9310
:10506000119711969C938093010608951F93CF93F7
:10507000DF938091500082608093500080915100B6
:1050800081FFFCCF98ED94BF81E08093400017E052
:105090001093A200F89494BF8093960061E085E39A
:1050A00096E20E94D86EC82F65E08EEE95E20E94CF
:1050B000EF6FC80F23EF31E041E050E067ED74E39C
:1050C00087EF9CE30E9441972BED35E041E050E0F3
:1050D0006BEC76E388E09DE30E94419761E08FE905
:1050E00095E20E94037BD82F60E080E496E20E9464
:1050F00052648C0FC82FCD0F1093A2008091A20094
:1051000080688093A20078940E9464908AE00E9454
:10511000FD8F20E148E061E080E092E00E941C8B7E
:1051200020E149E062E080E092E00E941C8B0E9456
:1051300002288C2FDF91CF911F910895DF92EF927B
:10514000FF920F931F93CF93DF93CDB7DEB72B97CB
:10515000CDBFDEBFCE0101960E94EC918E010F5FA4
:105160001F4F88E1E82E8FE2F82E9BE0D92ED00E5B
:10517000F80181918F011F928F93FF92EF920E940D
:1051800049B30F900F900F900F90D012F1CF8AE09B
:1051900090E00E945DB380E02B96CDBFDEBFDF9133
:1051A000CF911F910F91FF90EF90DF9008950E9493
:1051B0009E2880E00895DF92EF92FF920F931F9355
:1051C000CF93DF9300D0CDB7DEB780919000898375
:1051D000809191008A83809192008B838E010F5F72
:1051E0001F4F88E1E82E8FE2F82E93E0D92ED00EE3
:1051F000F80181918F011F928F93FF92EF920E948D
:1052000049B30F900F900F900F90D012F1CF8AE01A
:1052100090E00E945DB380E02396CDBFDEBFDF91BA
:10522000CF911F910F91FF90EF90DF9008950E9412
:10523000DB2880E00895809193001F928F9389E28C
:105240009FE29F938F930E9449B30F900F900F900E
:105250000F9080E008950E941B2980E008950F932D
:105260001F93CF93DF93C0E0D0E00DE11FE28C2FBE
:105270000E94CC961F928F93DF93CF931F930F932F
:105280000E9449B321960F900F900F900F900F90AE
:105290000F90C630D10559F780E0DF91CF911F9173
:1052A0000F9108950E942F2980E00895CF938130B7
:1052B000D1F586E09DE30E946C44C82F65E372E857
:1052C00080E090E00E94821B86E09DE30E9497436D
:1052D000C80F65E176E185E090E00E94821B63E003
:1052E00070E086E09DE30E94A04282E39DE30E947D
:1052F0006245C80F65E372E880E090E00E94821B7F
:1053000082E39DE30E94CD44C80F65E176E185E02C
:1053100090E00E94821B63E070E082E39DE30E94C4
:10532000A0428C2F01C081E0CF9108958091BD25CE
:105330000E945629882341F08FE29FE29F938F932A
:105340000E9449B30F900F9080E0089587EE9CE390
:105350000E94CD3781E09DE30E94CD3763E070E08D
:1053600086E09DE30E94A04263E070E082E39DE35B
:105370000E94A042E0EAF6E084E0868382E0868331
:10538000809306060E94BB9080E008950E94A629A3
:10539000882341F088E09EE29F938F930E9449B357
:1053A0000F900F9080E00895CF9388E49FE20E94D1
:1053B00063B30E94A629C82F882341F08FE69FE29D
:1053C0009F938F930E9449B30F900F908C2FCF9192
:1053D000089580E0089580E00895CF938EE19EE2E5
:1053E0009F938F9383E29EE29F938F930E9449B392
:1053F0008AE89FE29F938F9381E99FE29F938F9327
:105400000E9449B38DE99FE29F938F9384EB9FE2C3
:105410009F938F930E9449B382EC9FE29F938F9357
:1054200086ED9FE29F938F930E9449B384EE9FE2A3
:105430009F938F930E9449B30E949E28C82F88EFA4
:105440009FE29F938F930E9449B30E94DB28C80F6D
:1054500085E090E39F938F930E9449B30E941B299C
:10546000C80F84E190E30E9463B30E942F292DB7F7
:105470003EB72A5E3F4F2DBF3EBF8C0FCF910895A0
:105480000E94ED29882341F088E09EE29F938F934C
:105490000E9449B30F900F9080E00895CF93DF935F
:1054A0001F921F92CDB7DEB7AE014F5F5F4F61E035
:1054B00080E092E00E94C48B8A818F9389818F93D0
:1054C0008FE190E39F938F930E9449B3AE014F5FAA
:1054D0005F4F62E080E092E00E94C48B8A818F93EC
:1054E00089818F938DE290E39F938F930E9449B3BC
:1054F000CDBFDEBF80E00F900F90DF91CF91089578
:105500000E944E2A882341F08BE390E39F938F9370
:105510000E9449B30F900F9080E00895CF92DF92E0
:10552000EF92FF920F931F93CF93DF938B3068F529
:10553000062F06950695069590E2099F8001112495
:105540001A5F677021E030E07901062E01C0EE0C91
:105550000A94EAF7CE2CF801E682C82FD0E0CC0FEF
:10556000DD1FD12C8D2D90E08C179D0754F465E143
:1055700076E185E090E00E94821BF801C782D39417
:10558000F1CFF801E68280E001C081E0DF91CF91A8
:105590001F910F91FF90EF90DF90CF9008956CE2F4
:1055A00080919E210E948E2A882341F081E690E31B
:1055B0009F938F930E9449B30F900F9080E00895BE
:1055C000EF92FF920F931F93CF93DF93C0E0D0E051
:1055D00039E6E32E30E3F32E0AE01CE2CE018370BD
:1055E0009927892B51F4DF93CF93FF92EF920E947A
:1055F00049B30F900F900F900F906C2F81E09DE3B7
:105600000E943F38880F892F881F990B91959F938F
:105610008F931F930F930E9449B321960F900F9081
:105620000F900F90C830D105C9F68AE090E0DF9165
:10563000CF911F910F91FF90EF900C945DB3EF927B
:10564000FF920F931F93CF93DF93C0E0D0E039E632
:10565000E32E30E3F32E0AE01CE2CE01837099279B
:10566000892B51F4DF93CF93FF92EF920E9449B3BD
:105670000F900F900F900F906C2F87EE9CE30E947D
:105680003F38880F892F881F990B91959F938F938F
:105690001F930F930E9449B321960F900F900F9084
:1056A0000F90C830D105C9F68AE090E0DF91CF9124
:1056B0001F910F91FF90EF900C945DB3EF92FF92CA
:1056C0000F931F93CF93DF9382E790E30E9463B31E
:1056D000C0E0D0E00FE710E399E6E92E90E3F92E61
:1056E000CE0103978D3F9105F0F0CE01837099278D
:1056F000892B51F4DF93CF93FF92EF920E9449B32D
:105700000F900F900F900F90BE0186E09DE30E94D6
:10571000A0421F928F931F930F930E9449B30F9043
:105720000F900F900F902196C83881E0D807C1F6EE
:1057300087E890E30E9463B3C0E0D0E00FE710E396
:1057400089E6E82E80E3F82ECE0103978D3F910580
:10575000F0F0CE0183709927892B51F4DF93CF931A
:10576000FF92EF920E9449B30F900F900F900F900D
:10577000BE0182E39DE30E94A0421F928F931F937C
:105780000F930E9449B30F900F900F900F902196A6
:10579000C83881E0D807C1F68AE090E0DF91CF9168
:1057A0001F910F91FF90EF900C945DB3CF93DF9317
:1057B00083E990E30E9463B38FE59EE20E9463B3A6
:1057C00061E086E09DE30E94E05D62E086E09DE3AB
:1057D0000E94E05D88E99EE20E9463B361E086E09A
:1057E0009DE30E947F5E62E086E09DE30E947F5E13
:1057F0008CE79EE20E9463B361E082E39DE30E9436
:10580000E05D62E082E39DE30E94E05D86EB9EE264
:105810000E9463B361E082E39DE30E947F5E62E0E9
:1058200082E39DE30E947F5EC0E8D6E088858170B8
:105830001F928F9380EB90E39F938F930E9449B3C5
:105840008885829581701F928F938EEC90E39F9351
:105850008F930E9449B361E087EE9CE30E943F383A
:10586000EC0161E087EE9CE30E943F38DF93CF9329
:105870009F938F938DEE90E39F938F930E9449B3F4
:1058800061E081E09DE30E943F38EC0161E081E04E
:105890009DE30E943F38DF93CF939F938F9382E1E4
:1058A00091E39F938F930E9449B363E070E086E099
:1058B0009DE30E94A0421F928F9387E391E39F9301
:1058C0008F930E9449B363E070E082E39DE30E94FE
:1058D000A0421F928F9386E591E39F938F930E943E
:1058E00049B38AE090E00E945DB30E945E2B8AE09B
:1058F00090E00E945DB384E791E30E9463B30E944D
:10590000E02A87E891E30E9463B30E941F2B8DB7C2
:105910009EB74C968DBF9EBF80E0DF91CF910895DA
:105920000E94D62B882341F088E09EE29F938F93BC
:105930000E9449B30F900F9080E00895EEEEF5E2DB
:1059400090E0A481B5812C91281307C02EE0929F8E
:10595000C001112482519A4D08959F5F3E96953063
:1059600081F780E090E008958F929F92AF92BF926E
:10597000CF92DF92EF92FF920F931F93CF93DF931B
:1059800000EA16E081E0F8018683C12C86E0D82E7B
:1059900092E0A92EF601A68220E8E22E26E0F22E61
:1059A000F701A582D0E2D58334E0B32EB68288E039
:1059B000858380E4868380E885836AE07BE882E0F3
:1059C00090E00E94821BF801B5826AE27CE28AE0E4
:1059D00090E00E94821BF801A5826AE27CE28AE0E4
:1059E00090E00E94821B2AE036E24BEE5CE362EF1D
:1059F0007CE380EF9CE30E94A32EC82F80EF9CE302
:105A00000E94D22EC80F60E080EF9CE30E94053315
:105A1000C80F80EF9CE30E94952FC80F64E476E0E6
:105A200080EF9CE30E94AC31C80F65E372E880E030
:105A300090E00E94821BF601A58265E372E880E097
:105A400090E00E94821B8DE10E949E2C8C012BEE27
:105A50003CE342EF5CE36DE875E281E09DE30E9488
:105A6000F736C80F81E09DE30E949737C80F81E0A9
:105A70009DE30E947637C80F40E6842E46E0942EC0
:105A8000F401D683D5838CE10E949E2C8C012BEEF1
:105A90003CE342EF5CE36EE875E287EE9CE30E9434
:105AA000F736C80F87EE9CE30E949737C80F87EE42
:105AB0009CE30E947637C80F80E1F40186838583DA
:105AC000F601A682A58265E07DE080E090E00E947C
:105AD000821B88E10E949E2C9C014BEE5CE362EFEE
