:100000000C9475170C9496170C9496170C949617DD
:100010000C9496170C9496170C9496170C949617AC
:100020000C9496170C9496170C9496170C9496179C
:100030000C9496170C9427230C9496170C949617EF
:100040000C9496170C9496170C9496170C9496177C
:100050000C9496170C9496170C9496170C9496176C
:100060000C9496170C949F540C9496170C947554FA
:100070000C9496170C9496170C9496170C9496174C
:100080000C9496170C9496170C9496170C9496173C
:100090000C9496170C9496170C9496170C9496172C
:1000A0000C9496170C9496170C9496170C9496171C
:1000B0000C9496170C9496170C94FF220C94961798
:1000C0000C9496170C9496170C9496170C949617FC
:1000D0000C9496170C9496170C9496170C949617EC
:1000E0000C9496170C9496170C9496170C949617DC
:1000F0000C9496170C9496170C9496170C949617CC
:100100000C9496170C9496170C9496170C949617BB
:100110000C9496170C9496170C9496170C949617AB
:100120000C9496170C9496170C9496170C9496179B
:100130000C9496170C9496170C9496170C9496178B
:100140000C9496170C9496170C9496170C9496177B
:100150000C9496170C9496170C9496170C9496176B
:100160000C9496170C9496170C9496170C9496175B
:100170000C9496170C9496170C9496170C9496174B
:100180000C9496170C9496170C9496170C9496173B
:100190000C9496170C9496170C9496170C9496172B
:1001A0000C9496170C9496170C9496170C9496171B
:1001B0000C9496170C9496170C9496170C9496170B
:1001C0000C9496170C9496170C9496170C949617FB
:1001D0000C9496170C9496170C9496170C949617EB
:1001E0000C9496170C949617EF23C223EC23C52387
:1001F000C823CB23CE23D123D423D723DA23DD2353
:10020000E023E323E623E92316611261DF60126134
:10021000E460E960ED60F260F760FB600061056139
:1002200009610C9468180C94D2190C94E4600C9435
:10023000731F0C94492B0C9481190C94A22B0C94D1
:10024000EF230C94E0190C94AB200C9468540C949C
:1002500084200C94CC170C9415190C946D1C0C94E0
:10026000C5320C94E6230C940C1F0C94131A0C94B6
:10027000892A0C940D480C94161C0C9454320C943E
:10028000FB600C9400610C94C2230C94F31A0C9440
:1002900058440C94D1230C9494310C949E2B0C94C0
:1002A000D3310C947E310C94DF180C944D1A0C94BD
:1002B000691C0C9409610C94C8230C94102B0C94A9
:1002C000DA230C949A1C0C94B31C0C94E9230C9420
:1002D000B5490C94DE440C94ED600C949C310C9464
:1002E000E9600C9430190C944D470C943F1A0C940F
:1002F000D7230C9466190C94EF320C949C190C942F
:10030000D4230C94711A0C94E3490C94B41F0C94EC
:1003100016610C94CB230C94AC1B0C9449300C94B8
:10032000962B0C941A180C94782A0C9498170C9409
:10033000F52A0C94EC230C94F2600C94722A0C9421
:100340005A440C94C5230C94FA180C9475440C94DC
:10035000DF600C9412610C9470450C94E52A0C94A7
:1003600005610C9419490C94F7600C9468450C9441
:1003700060220C9455460C94B7190C94C01E0C9432
:10038000781D0C94EE190C94E0230C9490440C947A
:10039000BB710C94CE230C94DD230C949A2B0C94FB
:1003A000E11B0C944B190C94C4180C94E3230C948B
:1003B0000F326364696E6F70737578585B0001DF8C
:1003C0000001D50001CC0001C20001B90001B0005C
:1003D00001A800019F00019900019100018900011D
:1003E0008000017900017100016C01016401015F6D
:1003F00001015901015201014B01014401013D017B
:10040000013702012F02012A02012402011F020109
:100410001A02011402010E02010802010102028700
:1004200001028001027A01027401026C010266017C
:10043000025F02025E02025802025202024C0202F3
:100440004602023F02023A02023603022F03022A48
:1004500003022403021F04021E04021804021204F1
:10046000020E0402080402020404BE0104B80104DE
:10047000B10104AB0104A60204A002049C0204968C
:1004800002049002048B02048502048002047A02B2
:10049000047402046F03046B030466030460030422
:1004A0005E03045803045403044F03044A03044541
:1004B00003044003043C04043704043304042E04FE
:1004C000042A04042404042004041E04041A04045A
:1004D0001604041204040D040409040404040400B2
:1004E0000408BC0008B70008B20008AE0008A90064
:1004F00008A40008A000089C0008970008930008C2
:100500008F01088C01088801088401087F01087B9D
:1005100001087601087201086F01086B0108670184
:10052000086301085F01085C0108580108540108CC
:100530005101084F02084C020848020844020841D1
:1005400002083D02083902083602083202082F026A
:10055000082C020828020825021D03ED01DCFDCC51
:10056000F5BCE5ACC5A86EBCE5ACC59C8596039210
:10057000C1912190966572726F723A20756E7265A4
:10058000636F676E697A656420636F6D6D616E6419
:10059000206F7074696F6E0A00596F7520686176FC
:1005A00065206265656E206772616E746564207295
:1005B0006F6F74207065726D697373696F6E7321EC
:1005C0000A0054686973206973206E6F7420616E2D
:1005D000206F7065726174696E67207379737465DA
:1005E0006D210A00436F6D6D616E64733A0A0055A8
:1005F000736167653A205B636D645D205B2D7C2DC4
:100600002D5D5B617267315D205B2D7C2D2D5D5B07
:10061000617267325D2E2E2E0A005475726E206F45
:100620006666206F7574707574732028706572200B
:100630006368616E6E656C292E005365742070725C
:10064000657363616C617220666F722063616C6CAC
:100650006962726174696F6E2E0053657420636104
:100660006C6C6962726174696F6E204E2064697689
:10067000696465722E004368616E676520696E74F7
:1006800065726E616C207265666572656E63652069
:10069000444143206F757470757420766F6C74617B
:1006A0006765004144524636353138204C6F77201B
:1006B00042616E6400414452463635313820486903
:1006C00067682062616E64005365742074686520F9
:1006D0005246534120617474656E74756174696F1C
:1006E0006E2E203020746F20323820283064422053
:1006F000746F202D32386442292E004269742062C2
:10070000616E67206F7065726174696F6E2E203143
:100710003A20777269746520303A2072656164000E
:100720004269742062616E672064617461206F6643
:10073000204441432E004269742062616E6720614B
:10074000646472657373206F66204441432E0045D4
:100750007865637574652074686520736572646577
:100760007320746573742E2028302D35292074650C
:100770007374207061747465726E2E0053657420FA
:1007800074686520696E746572706F6C6174696FEE
:100790006E2031782830292C2032782831292C20DD
:1007A00034782832292C203878283429206F722078
:1007B0003136782838292E00456E61626C652074C8
:1007C00068652050412028706F77657220616D70D8
:1007D0006C6966696572292070726F7465637469EB
:1007E0006F6E20636972637569742E203120746F97
:1007F00020656E61626C652E0053657420746865B7
:1008000020636D6420696E7075742066726F6D2050
:100810004A455344283029206F72205350492831CB
:10082000292E0053657420746865202846292066A7
:1008300072616D657320706572206D756C74692DC1
:100840006672616D652E005365742074686520289A
:100850004D2920636F6E76657274657273207065C2
:1008600072206C696E6B2E0053657420746865206D
:10087000284C29206C616E657320706572206C694C
:100880006E6B2E0053657420746865206672657106
:10089000206F7574707574206F662065787465724A
:1008A0006E616C2044414320636C6B20616674650B
:1008B0007220696E7465726E616C20434C4B2063CC
:1008C00069726375697420284D487A292E001D03CA
:1008D000ED01DCFDCCF5BCE5ACC5A86EBCE5ACC556
:1008E0009C85960392C19121909601DF0001D5006D
:1008F00001CC0001C20001B90001B00001A8000153
:100900009F00019900019100018900018000017997
:1009100000017100016C01016401015F01015901D5
:10092000015201014B01014401013D010137020166
:100930002F02012A02012402011F02011A020114DE
:1009400002010E0201080201010202870102800178
:10095000027A01027401026C01026601025F020266
:100960005E02025802025202024C02024602023F9A
:1009700002023A02023603022F03022A0302240370
:10098000021F04021E04021804021204020E0402D2
:10099000080402020404BE0104B80104B10104AB5E
:1009A0000104A60204A002049C0204960204900220
:1009B000048B02048502048002047A020474020497
:1009C0006F03046B03046603046003045E030458AE
:1009D00003045403044F03044A030445030440037F
:1009E000043C04043704043304042E04042A0404DD
:1009F0002404042004041E04041A0404160404122B
:100A000004040D0404090404040404000408BC00E4
:100A100008B70008B20008AE0008A90008A4000842
:100A2000A000089C00089700089300088F01088C1C
:100A300001088801088401087F01087B010876010C
:100A4000087201086F01086B01086701086301085B
:100A50005F01085C01085801085401085101084F62
:100A600002084C02084802084402084102083D02FC
:100A7000083902083602083202082F02082C020840
:100A800028020825025072696E7473206F757420F5
:100A90007468652068656C70206D656E7520666F82
:100AA000722074686520626F6172642E00457869F7
:100AB00074732066726F6D207468697320626F6151
:100AC0007264206261636B20746F207468652044D7
:100AD00049474954414C20626F6172642E00426F55
:100AE0006F746C6F61646572206F7074696F6E7380
:100AF0002E004F4E2F4F464620737769746368650A
:100B0000732C202830206973204F46462C2031203A
:100B10006973204F4E2900436F6D6D616E647320C1
:100B2000666F7220616363657373696E67207468B2
:100B300065206865617274626561742073746174A4
:100B4000757300436F6E74726F6C732074686520E8
:100B5000626F617264206C6576656C2066756E6389
:100B600074696F6E732E2053657175656E7469615B
:100B70006C2065786563206F6620617267756D65AE
:100B80006E74732E005265616420616E642077720A
:100B900069746520636F6D6D616E647320666F723A
:100BA00020646562756767696E672E00436F6D6DBF
:100BB000616E647320666F722073657474696E670A
:100BC00020484D433938382067726F75702064654E
:100BD0006C6179732E00436F6D6D616E6473206676
:100BE0006F722073657474696E67204A4553442F91
:100BF000504C4C204E2F52206469766964657273A4
:100C000000436F6D6D616E647320666F7220736553
:100C10007474696E6720746865204C4D4B303438AD
:100C200032382064656C617920636C6F636B732E5E
:100C300000436F6D6D616E647320666F7220736523
:100C40007474696E6720746865204C4D4B3034387D
:100C500032382064656C617920636C6F636B732E2E
:100C600000436F6D6D616E647320666F72206D61FD
:100C70006E6167696E672074686520434C4B20671E
:100C8000656E65726174696F6E207468726F7567E6
:100C900068204C4D4B30343832382C2041443536A6
:100CA0003234522C20484D433938372E00436F6D73
:100CB0006D616E647320666F72206D616E6167692D
:100CC0006E672074686520434C4B2067656E6572C3
:100CD0006174696F6E207468726F756768204C4D1F
:100CE0004B30343832382C20414435363234522C93
:100CF00020484D433938372E005072696E74732086
:100D00006F7574207468652068656C70206D656E01
:100D10007520666F722074686520626F6172642E40
:100D20000045786974732066726F6D20746869730A
:100D300020626F617264206261636B20746F207443
:100D40006865204449474954414C20626F61726490
:100D50002E00426F6F746C6F61646572206F7074E7
:100D6000696F6E732E004F4E2F4F46462073776982
:100D700074636865732C202830206973204F4646C1
:100D80002C2031206973204F4E29005374617475F3
:100D90007320616E642066756E6374696F6E732074
:100DA0007573656420666F7220636865636B696E36
:100DB000672074686520626F6172642E2000436F43
:100DC0006E74726F6C732074686520626F617264F8
:100DD000206C6576656C2066756E6374696F6E73E2
:100DE0002E2053657175656E7469616C2065786538
:100DF00063206F6620617267756D656E74732E0077
:100E000045786563757465732074657374207665C1
:100E100063746F72732E0052656769737465722014
:100E200064756D707320666F722072657370656390
:100E300074697665207065726970686572616C733B
:100E40002E00436F6E74726F6C7320746865206639
:100E5000726F6E74656E6420524620737769746396
:100E60006865732E00436F6D6D616E647320666FED
:100E700072207468652041445246363531382076F8
:100E800061726961626C65206761696E20616D7075
:100E90006C69666965722E005072696E7473206F9A
:100EA0007574207468652068656C70206D656E755A
:100EB00020666F722074686520626F6172642E0014
:100EC00045786974732066726F6D20746869732049
:100ED000626F617264206261636B20746F2074685A
:100EE00065204449474954414C20626F6172642E29
:100EF00000426F6F746C6F61646572206F7074690B
:100F00006F6E732E004F4E2F4F46462073776974D5
:100F1000636865732C202830206973204F46462C67
:100F20002031206973204F4E2900436F6E74726F19
:100F30006C732074686520626F617264206C6576E2
:100F4000656C2066756E6374696F6E732E205365D1
:100F50007175656E7469616C2065786563206F6674
:100F600020617267756D656E74732E0050726F76B6
:100F70006964657320746865207374617475732087
:100F80006F662074686520626F6172642E0052651E
:100F90006769737465722064756D707320666F7213
:100FA0002072657370656374697665207065726917
:100FB00070686572616C732E00436F6E74726F6C33
:100FC00073207468652066726F6E74656E6420525B
:100FD000462073776974636865732E00436F6D6D87
:100FE000616E647320666F722074686520444143AB
:100FF00033384A38342E0052756E7320737065632F
:101000006966696564207465737420766563746FBE
:1010100072206F662074686520414452463635312F
:10102000380052756E732073706563696669656414
:10103000207465737420766563746F72206F662008
:101040007468652041444331364458333730005288
:10105000756E732073706563696669656420746575
:10106000737420766563746F72206F662074686590
:1010700020504341393533382E00436C656172206E
:10108000746865207370656369666965642047509C
:10109000494F582070696E206C6F772E005365742D
:1010A00020746865207370656369666965642047AC
:1010B00050494F582070696E20686967682E00B5E6
:1010C000219D107A104F102210F70F5072696E7424
:1010D00073206F757420696E20766572626F736518
:1010E000206D6F64652E203120746F20656E616203
:1010F0006C652E004E6F20617267756D656E742091
:101100006E65636573736172792E00456E746572E6
:101110002074686520626F6F746C6F616465722EF5
:1011200000484D43393837004C4D4B30343032385D
:101130000052657475726E73204D43552064657658
:1011400069636520696E666F726D6174696F6E2E7A
:1011500000476574732C20616E64207468656E208E
:101160007265736574732C20504C4C204C6F7373F4
:10117000206F66204C6F636B205374617475732EFF
:10118000004765747320504C4C204C6F636B2044B7
:101190006574656374205374617475730048656188
:1011A00072746265617420696E697469616C697AD0
:1011B0006174696F6E2066756E6374696F6E2074FA
:1011C0006F2073657420636F756E74657220746F21
:1011D0002030004865617274626561742066756EC6
:1011E0006374696F6E20746F207265736574207408
:1011F00068652068656172746265617420636F75EB
:101200006E7465720048656172746265617420660F
:10121000756E6374696F6E20746F20616E642066F2
:10122000726F6D2074686520736572766572005305
:10123000656C6563747320474C45206D6F64653A37
:10124000204D43555F474C45283129206F7220536C
:10125000594E54485F465047415F474C452028321D
:10126000290050726F766964657320746865206127
:101270006D6F756E74206F662052414D206C6566EF
:101280007420286279746573292E0050726F766914
:10129000646573207468652074656D70657261742F
:1012A0007572652028302D31292E00426C696E6BD5
:1012B0007320746865204C45442061207370656319
:1012C0006966696564206E756D626572206F66205F
:1012D00074696D65732E005072696E7473206F753A
:1012E000742074686520736F66747761726520611D
:1012F0006E642068617264776172652076657273CE
:10130000696F6E2E005475726E7320657665727902
:101310007468696E67206F66662E005475726E2061
:101320006F6666207065726970686572616C732E95
:1013300000506F776572206379636C652070657209
:101340006970686572616C7320616E642072756E7D
:101350007320626F61726420696E69742028706501
:1013600072206368616E6E656C292E0052756E7313
:1013700020646961676E6F73746963206F6E20709B
:1013800065726970686572616C202870657220638F
:1013900068616E6E656C292E2053686F756C6420D1
:1013A0007072696E7420616C6C2072656769737409
:1013B0006572732E005475726E206F6E206F757497
:1013C000707574732028706572206368616E6E6535
:1013D0006C292E005265777269746520616C6C20EF
:1013E0007265677320666F7220656E74697265201E
:1013F000626F6172642E005265616420616E6420C8
:10140000777269746520636F6D6D616E64732066B9
:101410006F7220646562756767696E672E00476545
:10142000742F73657420484D4320527820427566AE
:1014300066657220626961732028302069732064B8
:10144000656661756C742C203120666F722073693B
:101450006E75736F6469616C202F206E6F6E2D4CFA
:10146000565045434C20414320636F75706C696E44
:10147000672E29004765742F73657420484D4320FB
:101480007265666572656E636520696E707574203D
:101490006469766964657273202876616C6964207A
:1014A000646976696465727320617265203D2032DB
:1014B0005E6E2C206E3D312E2E3529004765742F2F
:1014C0007365742064656C6179206C696E65207346
:1014D0006574706F696E742E004765742F73657440
:1014E00020746865206F7574707574206C61756EFA
:1014F00063682070686173652E00536574206569A8
:10150000746865722053594E43206F7220534C49C2
:1015100050207573696E672053504920636F6D6D5D
:10152000756E69636174696F6E2E004765742F7301
:101530006574207468652053594E432064656C615E
:101540007920646976696465722E0053656C656301
:101550007473206265747765656E207468652074A5
:10156000776F20484D433938382064657669636564
:101570007320287265666572656E636520616E64AE
:10158000206C6D6B292E0053657420636C6F636B48
:1015900020646976696465722E00536574204E205C
:1015A0006469766964657220666F7220504C4C2EB7
:1015B0000053657420522064697669646572206600
:1015C0006F7220504C4C2E0053656C656374206420
:1015D00069766964657220746F207365742E005398
:1015E0006574206469676974616C2064656C6179F5
:1015F00020636C6F636B2E0053656C6563742064AD
:10160000657669636520636C6F636B2E0053656C50
:10161000656374204A455344206F7220504C4C2E11
:101620000052652D73796368726F6E697A65206FF9
:101630007574707574206469766964657273206668
:10164000726F6D20626F7468204C4D4B7300536550
:1016500074207468652044414320636F6E74726F18
:101660006C6C696E6720584F20567265662C20306E
:101670002D34303936206672616374696F6E20567E
:101680006578740049737375652053595352454604
:101690002070756C7365732066726F6D204A4553B8
:1016A000442E00456E61626C65206578742D313082
:1016B0004D487A207265666572656E6365202831D3
:1016C000292E005072696E7473206F757420696ED4
:1016D00020766572626F7365206D6F64652E2031B0
:1016E00020746F20656E61626C652E00456E7465B6
:1016F000722074686520626F6F746C6F61646572CC
:101700002E004E6F20617267756D656E74206E6578
:10171000636573736172792E0041444331364458D6
:1017200033373000414452463635313800484D4356
:101730003833784C5036470052657475726E73209A
:101740004D43552064657669636520696E666F72E6
:101750006D6174696F6E2E00504C4C204C6F636B42
:1017600020446574656374696F6E204D65636861BC
:101770006E69736D2E0048656172746265617420D4
:10178000696E7469616C697A6174696F6E206675DF
:101790006E6374696F6E20746F2073657420636F5D
:1017A000756E74657220746F203000436F6D6D61CB
:1017B0006E6420666F7220726573657474696E67FB
:1017C0002074686520686561727462656174207652
:1017D000616C756520666F722074686520525820B0
:1017E000626F61726400436F6D6D616E6420666F3D
:1017F00072207072696E74696E6720746865206308
:10180000757272656E742068656172746265617468
:101810002076616C7565206F66207468652052586B
:1018200020626F6172640053656C65637473204756
:101830004C45206D6F64653A204D43555F474C45DC
:10184000283129206F7220465047415F474C452080
:1018500028322900426C696E6B7320746865204CD5
:101860004544206120737065636966696564206E14
:10187000756D626572206F662074696D65732E00E8
:1018800050726F7669646573207468652074656D45
:1018900070657261747572652028302D31292E00B3
:1018A0004F75747075747320612031362D626974C0
:1018B00020726570656174696E6720736571756506
:1018C0006E6365205B302C2032363238302C20306D
:1018D0002C202D32363332385D2066726F6D2074C5
:1018E00068652041444320636F72652E00456E6138
:1018F000626C696E6720746865205359535245467F
:1019000020646574656374696F6E20676174652E09
:10191000203120746F20656E61626C652C20302050
:10192000746F2064697361626C650054686520415E
:1019300044432077696C6C206F7574707574204A0D
:101940004553442054657374205061747465726EFD
:10195000732E20303A206F66662C20313A204432B4
:10196000312E352C20323A204B32382E352C203374
:101970003A2072707420494C412C20343A20726114
:101980006D702C20353A20484947482E0054686530
:10199000204144432077696C6C20656E61626C6500
:1019A0002074686520535953524546206465746518
:1019B0006374696F6E206761746520666F72204A78
:1019C00045534420696E697469616C697A61746910
:1019D0006F6E2E0050726F7669646573207468654F
:1019E00020616D6F756E74206F662052414D206CC2
:1019F00065667420286279746573292E00507269B7
:101A00006E7473206F75742074686520736F6674CC
:101A10007761726520616E642068617264776172BB
:101A2000652076657273696F6E2E005475726E73E1
:101A30002065766572797468696E67206F66662EB8
:101A4000005475726E206F666620706572697068EA
:101A50006572616C732E00506F77657220637963D5
:101A60006C65207065726970686572616C73206165
:101A70006E642072756E7320626F61726420696E8D
:101A800069742028706572206368616E6E656C29C8
:101A90002E005475726E206F6666206F75747075B7
:101AA00074732028706572206368616E6E656C299E
:101AB0002E0052756E7320646961676E6F7374696E
:101AC00063206F6E207065726970686572616C204A
:101AD00028706572206368616E6E656C292E2053D4
:101AE000686F756C64207072696E7420616C6C2014
:101AF0007265676973746572732E005475726E2017
:101B00006F6E206F75747075747320287065722005
:101B10006368616E6E656C292E0052657772697418
:101B20006520616C6C207265677320666F7220653A
:101B30006E7469726520626F6172642E0044756D07
:101B4000707320616C6C20746865207265676973BE
:101B50007465727320666F72207468652041445208
:101B600046363531380044756D70732074686520D1
:101B700072656769737465727320666F722074682A
:101B80006520726567756C617220616E64205246D3
:101B9000204750494F580044756D707320616C6C3C
:101BA0002074686520726567697374657273206656
:101BB0006F7220746865204144433136445833378E
:101BC000302E00414446343335352F4144463533B9
:101BD0003535206175746F63616C20656E61626C70
:101BE0006520283120666F7220656E61626C652900
:101BF0003E3E00414446343335352F41444635336B
:101C00003535204469726563742052656769737461
:101C1000657220416363657373203C3C32386269AE
:101C20007420646174613E3C346269742061646450
:101C3000726573733E3E0053656C65637473204434
:101C4000534120417474656E756174696F6E2C2008
:101C500028303A203064426D202D3E203132373A10
:101C60002033312E373564426D290053656C65632E
:101C70007420504C4C204F757470757420506F77E1
:101C800065722028303A202D3464426D2C20313A80
:101C9000202D3164426D2C20323A203264426D2C6A
:101CA00020333A203564426D29004D7574657320E8
:101CB000746865204C4F204672657175656E637956
:101CC0002053796E74686573697A657220776865E8
:101CD0006E20757365640053656C6563747320745E
:101CE000686520636F72726563742046696C746501
:101CF000722042616E6B20666F7220612067697688
:101D0000656E206672657175656E637920696E20F7
:101D10006B487A00456E61626C652F44697361623D
:101D20006C652056434F204F757470757420467251
:101D3000657175656E637920446F75626C657200BC
:101D400053657420504C4C2056434F204F7574708F
:101D5000757420446976696465722076616C756576
:101D60002E20312C20322C20342C2036202E2E20D8
:101D700036320053657420504C4C204665656462D1
:101D800061636B20446976696465722076616C7565
:101D9000652E20313620746F2035323432353500CF
:101DA00053657420504C4C20496E70757420446902
:101DB00076696465722076616C75652E20312074B9
:101DC0006F2031363338330053656C65637420748B
:101DD00068652074617267657420504C4C2028300F
:101DE0002920484D433833302028312920484D439D
:101DF0003833330053657473204261736520426148
:101E00006E64205661726163746F7220766F6C74B9
:101E10006167652028302D3430393629203056202E
:101E20002D20322E355600504C4C20496E70757462
:101E3000205265666572656E6365204672657175D0
:101E4000656E63790053776565707320484D43383C
:101E50003333206672657175656E63792066726FC3
:101E60006D20302E3247487A20746F203647487AEA
:101E7000207769746820612073746570206F662014
:101E800031304D487A005365747320667265712055
:101E90006F6620484D43383333206F757470757406
:101EA0002C20696E204B487A2E0042797061737342
:101EB00020746865204C4E41206F6E207468652048
:101EC000686967682062616E642E20427970617370
:101ED0007328312920746865204C4E41206F722090
:101EE0006E6F742830292E0043686F6F73652074FD
:101EF000686520686967682028302E352D362047B0
:101F0000487A29206F72206C6F7720284443202D57
:101F100020302E352047487A292062616E642E20B9
:101F200048696768283129206F72206C6F772830E4
:101F3000292E00536574205647412773207077720D
:101F40002D6D6F6465206261736564206F6E204C37
:101F50005020636F726E657220667265712E20313B
:101F60002069662066696C746572206D6F646520F7
:101F7000616E642033314D487A203C2042572C203A
:101F8000656C7365203630204D487A203C204257DE
:101F90000053657420564741277320696E7075742D
:101FA00020616E616C6F6720617474656E75617419
:101FB000696F6E20696E2064422E20476F65732022
:101FC0007468726F75676820414435363234522E1A
:101FD0000053657420564741277320706F73742037
:101FE000616D70206761696E2E20302D313A20338B
:101FF0002F3964422E0053657420564741277320C1
:10200000616E616C6F67206761696E2E20302E31C2
:10201000644220636F6E74726F6C6C65642C20492F
:102020006E7075743A2030202D2037323020282DE4
:102030003130326442202D202D3330644229005348
:102040006574205647412773206469676974616C21
:10205000206761696E2E2033644220696E63726569
:102060006D656E74732C20496E7075743A20302043
:102070002D2038202834326442202D203636644208
:102080002900436865636B206966205647412067D5
:1020900061696E20697320746F6F204869676820DA
:1020A000666F7220746865204144432E2028303AC0
:1020B000204E6F2C20313A20596573290053656CEE
:1020C00065637420564741204368616E6E656C20DD
:1020D00028303A20426F74682C20493A20312C2055
:1020E000513A203229004765742056474127732012
:1020F0006761696E2E00536574205647412773202F
:102100006761696E2E202843616C6C73206467617F
:10211000696E20616E6420616761696E292E2049B5
:102120006E7075743A2030202D20393520282D36D8
:10213000306442202D2033356442290053657420D9
:102140005647412773204C5020636F726E65722092
:102150006672657120696E204D487A2E0042797052
:1021600061737320746865205647412773204C5073
:102170002066696C7465722E203120746F20656E44
:1021800061626C652E004E756C6C2074686520561B
:1021900047412773206F7574707574204443206F16
:1021A0006666736574732E203120746F20656E61CE
:1021B000626C652E00537065636966792077686983
:1021C0006368206368616E6E656C20612C622C63AD
:1021D0002C64204F5220626974206D61736B2E2035
:1021E0004D55535420737065636966792066697232
:1021F00073742E005072696E7473206F7574206949
:102200006E20766572626F7365206D6F64652E2037
:102210003120746F20656E61626C652E004E6F20F8
:10222000617267756D656E74206E65636573736149
:1022300072792E00456E7465722074686520626F35
:102240006F746C6F616465722E00484D433833784B
:102250004C5036470044414333384A3834005365C4
:102260006C65637420474C45206D6F64653A204D62
:1022700043555F474C4528312920465047415F4729
:102280004C4528322900456E61626C6573204A45D1
:102290005344205359535245462047617465004FBB
:1022A000757470757420656E61626C6528312920C3
:1022B0006F722064697361626C652830292E00504A
:1022C000726F76696465732074686520616D6F75DF
:1022D0006E74206F662052414D206C656674202814
:1022E0006279746573292E0050726F766964657324
:1022F000207468652074656D7065726174757265AF
:102300002028302D31292E00426C696E6B732074A9
:102310006865204C45442061207370656369666977
:102320006564206E756D626572206F662074696DDC
:1023300065732E005072696E7473206F757420740B
:10234000686520736F66747761726520616E6420C2
:1023500068617264776172652076657273696F6E09
:102360002E005475726E7320657665727974686993
:102370006E67206F66662E005475726E206F6666FB
:10238000207065726970686572616C732E00506FA1
:10239000776572206379636C652070657269706817
:1023A0006572616C7320616E642072756E73206259
:1023B0006F61726420696E69742028706572206391
:1023C00068616E6E656C292E005475726E206F66A2
:1023D00066206F7574707574732028706572206341
:1023E00068616E6E656C292E0052756E732064698B
:1023F00061676E6F73746963206F6E2070657269B8
:1024000070686572616C2028706572206368616E07
:102410006E656C292E2053686F756C64207072692C
:102420006E7420616C6C2072656769737465727379
:102430002E005475726E206F6E206F7574707574F7
:10244000732028706572206368616E6E656C292E3A
:10245000005265777269746520616C6C20726567E3
:102460007320666F7220656E7469726520626F6199
:1024700072642E0052657475726E73204D43552040
:1024800064657669636520696E666F726D617469F3
:102490006F6E2E004C6F636B2044657465637469C6
:1024A0006F6E204D656368616E69736D004865618C
:1024B00072746265617420696E697469616C697AAD
:1024C0006174696F6E2066756E6374696F6E2074D7
:1024D0006F2073657420636F756E74657220746FFE
:1024E000203000436F6D6D616E6420666F722072E4
:1024F0006573657474696E672074686520637572AE
:1025000072656E74206865617274626561742076AC
:10251000616C7565206F6620545820626F6172642B
:1025200000436F6D6D616E6420666F722074686524
:102530002063757272656E7420686561727462657D
:1025400061742076616C7565206F66207468652003
:10255000545820626F6172640044756D707320740A
:1025600068652072656769737465727320666F723F
:10257000207468652044414333384A383400447538
:102580006D70732074686520726567697374657215
:102590007320666F722074686520726567756C6160
:1025A0007220616E64205246204750494F580041C6
:1025B0004446343335352F41444635333535206173
:1025C00075746F63616C20656E61626C6520283183
:1025D00020666F7220656E61626C65293E3E004127
:1025E0004446343335352F41444635333535204460
:1025F00069726563742052656769737465722041FE
:102600006363657373203C3C323862697420646193
:1026100074613E3C346269742061646472657373F2
:102620003E3E00524620417474656E7561746F724F
:102630002053657474696E672028303A20306442F4
:10264000202D3E203132373A202D33312E3735645C
:10265000422900504C4C204F757470757420506F97
:102660007765722028303A202D3464426D2C203159
:102670003A202D3164426D2C20323A202B326442B4
:102680006D2C20333A202B3564426D290053656C44
:10269000656374732074686520636F727265637418
:1026A0002046696C7465722042616E6B20666F72A1
:1026B000206120676976656E206672657175656E4A
:1026C000637920696E206B487A004D7574657320BC
:1026D000746865204C4F204672657175656E63792C
:1026E0002053796E74686573697A657220776865BE
:1026F0006E207573656400456E61626C652F446978
:102700007361626C652056434F204F757470757409
:10271000204672657175656E637920446F75626CD1
:1027200065720053657420504C4C2056434F204F27
:102730007574707574204469766964657220766179
:102740006C75652E20312C20322C20342C20362024
:102750002E2E2036320053657420504C4C20466596
:1027600065646261636B2044697669646572207692
:10277000616C75652E20313620746F20353234320D
:1027800035350053657420504C4C20496E7075747B
:1027900020446976696465722076616C75652E20C7
:1027A0003120746F2031363338330053656C6563E4
:1027B00074207468652074617267657420504C4C95
:1027C0002028302920484D43383330202831292013
:1027D000484D43383333004E6565647320746F2071
:1027E00062652063616C6C6564206C6173742E207B
:1027F0005365747320746865204951204D6F64756A
:102800006C61746F722E202869652E202D6920312D
:1028100037202D71203133202D6D29005365742010
:10282000746865204951204D6F64756C61746F72D6
:102830002051206269617320766F6C746167652036
:1028400028696E2064562C2066726F6D20302D3200
:1028500034206456292E005365742074686520491D
:1028600051204D6F64756C61746F722049206269EC
:10287000617320766F6C746167652028696E2064CF
:10288000562C2066726F6D20302D3234206456290C
:102890002E00504C4C205265666572656E63652053
:1028A000496E7075742028696E206B487A29005330
:1028B0006574732066726571206F6620484D4338D9
:1028C0003333206F75747075742C20696E204B48FB
:1028D0007A2E0042797061737320746865204C4EC3
:1028E00041206F6E207468652068696768206261A6
:1028F0006E642E20427970617373283129207468C8
:1029000065204C4E41206F72206E6F742830292E46
:102910000043686F6F736520746865206869676835
:102920002028302E352D362047487A29206F7220F6
:102930006C6F7720284443202D20302E35204748C7
:102940007A292062616E642E2048696768283129DF
:10295000206F72206C6F772830292E0052657475B5
:10296000726E7320746865206F722764206C616ECC
:1029700065206572726F7273206F662074686520BF
:1029800066697273742034206C616E6573005365E0
:1029900074207468652073656C6563746564205485
:1029A00061702076616C756520666F722074686551
:1029B00020536D616C6C204672616374696F6E6147
:1029C0006C2044656C617900536D616C6C204672BB
:1029D000616374696F6E616C2044656C6179205429
:1029E00061702073656C6563746F72004C6172670F
:1029F00065204672616374696F6E616C2044656C1A
:102A000061792C20436F656666696369656E742021
:102A10005365742073656C656374696F6E2E20282E
:102A2000496E20446174617368656574290053655B
:102A300074207468652044697468657220416D7003
:102A40006C69747564652C2030206973204D617841
:102A5000696D756D20283420626974732900456E94
:102A600061626C652F44697361626C6520446974AE
:102A7000686572204D6978657200456E61626C65AB
:102A80002F44697361626C6520446974686572697A
:102A90006E6700456E61626C652F44697361626C9C
:102AA0006520496E76657273652053696E632046B2
:102AB000696C74657200536D616C6C204672616361
:102AC00074696F6E616C2044656C6179205061742B
:102AD000682053657474696E677300536D616C6C24
:102AE000204672616374696F6E616C2044656C612D
:102AF000792053657474696E6773004C6172676501
:102B0000204672616374696F6E616C2044656C610C
:102B1000792053657474696E677300514D4320705A
:102B200068617365206F66667365742C203132624C
:102B30006974732C202D302E35202D20302E343901
:102B40003937352C20726566657220746F20646198
:102B50007461736865657400514D43206761696EE7
:102B6000206F66667365742C203131626974732C32
:102B700020646563696D616C20706E742040206C08
:102B8000656674206F6620626974392C2072616EEC
:102B900067652030202D20312E393939302C204CDA
:102BA00053423D302E3030303937363600514D43A8
:102BB000204443206F66667365742C20313362694C
:102BC00074732C206D6561737572656420696E2065
:102BD000444143204C5342277300496E6974696134
:102BE0006C697A657320616E6420636F6E666967D5
:102BF0007572657320746865204A455344206C697A
:102C00006E6B2E0044756D70206F757420616C6C56
:102C1000206F6620746865207265676973746572D9
:102C2000732E0047657473207468652074656D7039
:102C300065726174757265206F66207468652044E2
:102C400041432E00456E61626C6520746865206D9D
:102C5000697865722E203120746F20656E61626C18
:102C6000652E0053657420746865204E434F206CB8
:102C70006F7765722033322D6269747320726567D5
:102C800069737465722C20777269746520746F2083
:102C900075707065722033322D62697473206669B5
:102CA00072737421212A2A00536574207468652088
:102CB0004E434F2075707065722033322D626974F7
:102CC000732072656769737465722E005370656353
:102CD00069667920776869636820696E7465726EC9
:102CE000616C20444143206368616E6E656C3A20DC
:102CF00028302D332920412D442E005370656369FF
:102D00006679207768696368206368616E6E656CB8
:102D100020612C622C632C642C204F522062697439
:102D2000206D61736B2E204D555354207370656375
:102D30006966792066697273742E00AD0C610C317E
:102D40000C010CD60BAC0B850B430B170BF20ADEF8
:102D50000AAD0A850A650E420E170E000EBE0D8BD7
:102D60000D660D520D210DF90CDC0FB90F8E0F6C95
:102D70000F2A0F050FF10EC00E980ECB10F4100B9A
:102D800011281121110512D3119D118111511131F9
:102D900011D413B5136C1331131B130513D712ABD6
:102DA000128B1262122F120D16F7134B152B15FAF8
:102DB00014D914BC1474141E140D16C815B1159A28
:102DC0001587150D16F815DF150D16F815DF158486
:102DD000162116A31684164E16C316EC160217B546
:102DE000212D1724171917B521E617AB1776175899
:102DF000173817B5211A1BFB1AB21A921A571A4123
:102E00001A2B1AFD19D4198D192B19ED18A0188039
:102E10001854182718B521971B661B3D1BB521E8D0
:102E20001EAA1E861E451E271EF41DC81DA01D734A
:102E30001D401D141DD71CAA1C6B1C371CF31BC383
:102E40001BB52186215D213C21F620E620BD208294
:102E5000203F20F61FD11F911F331FF4211D223464
:102E600022FB2C55224A22FB2C51243224E923C96F
:102E7000238E237823622334230823E822BF229F52
:102E80002286225E22FB2C2125E324AD2494247487
:102E900024FB2C7E255925FB2C1129D328AF289201
:102EA0002857281C28D727AB27832756272327F7FF
:102EB00026CA268D2653262326DF25AF25FB2CCCBC
:102EC0002CA82C632C442C232C042CDA2BAD2B584F
:102ED0002B1B2BFB2ADB2AB62A932A7A2A5E2A2E60
:102EE0002AEC29C8298E295C290011241FBECFEFA6
:102EF000CDBFDFE5DEBF00E00CBF11E3A0E0B0E234
:102F0000EEECF1E001E00BBF02C007900D92A63796
:102F1000B107D9F729E3A6E7B1E301C01D92AD3EA1
:102F2000B207E1F70E941B760C94E5800C94000038
:102F3000CF93DF9300D01F92CDB7DEB7CE010196BD
:102F4000092E000CAA0BBB0B4091E5395091E639D4
:102F50004115510511F44DEE59E3052E000C660B99
:102F6000770B841B950BA60BB70BBF93AF939F9367
:102F70008F9383EF95E29F938F930E949D7A0F909A
:102F80000F900F900F900F900F9080E02496CDBF80
:102F9000DEBFDF91CF9108958091A4229091A52268
:102FA000A091A622B091A722AC01BD0141505109C8
:102FB00061097109443651056105710558F4AC0188
:102FC000BD01405151096109710941355105610542
:102FD0007105F8F488E096E29F938F930E949D7AA2
:102FE0008091A7228F938091A6228F938091A52212
:102FF0008F938091A4228F9380E196E29F938F9389
:103000000E949D7A8DB79EB708968DBF9EBF81E0C6
:10301000089581369105A105B10540F081569109C9
:1030200091E001C0990F8A95EAF7892F8093E424F3
:1030300080E0089580912F2090913020A091312040
:10304000B0913220AC01BD014150510961097109B3
:10305000443651056105710558F4AC01BD0140517C
:103060005109610971094135510561057105F8F48E
:1030700088E096E29F938F930E949D7A8091322000
:103080008F93809131208F93809130208F93809106
:103090002F208F9380E196E29F938F930E949D7AD9
:1030A0008DB79EB708968DBF9EBF81E0089581368B
:1030B0009105A105B10540F08156910991E001C04B
:1030C000990F8A95EAF7892F8093E42480E0089588
:1030D0008091952090919620A0919720B091982072
:1030E000AC01BD01415051096109710944365105D6
:1030F0006105710558F4AC01BD01405151096109E8
:1031000071094135510561057105F8F488E096E2D1
:103110009F938F930E949D7A809198208F938091A6
:1031200097208F93809196208F93809195208F93F5
:1031300080E196E29F938F930E949D7A8DB79EB710
:1031400008968DBF9EBF81E0089581369105A10547
:10315000B10540F08156910991E001C0990F8A951F
:10316000EAF7892F8093E4248091E4241F928F93BF
:1031700080E296E29F938F930E949D7A0F900F902A
:103180000F900F9080E00895EEE3F2E283818F9339
:1031900082818F9381818F9380818F938091E424AA
:1031A0001F928F938FE296E29F938F930E949D7A56
:1031B0008DB79EB708968DBF9EBF80E00895EDE263
:1031C000F2E283818F9382818F9381818F938081BB
:1031D0008F938091E4241F928F9384E496E29F93CF
:1031E0008F930E949D7A8DB79EB708968DBF9EBF24
:1031F00080E00895ECE1F2E283818F9382818F93E6
:1032000081818F9380818F938091E4241F928F938B
:103210008AE596E29F938F930E949D7A8DB79EB721
:1032200008968DBF9EBF80E00895EBE0F2E28381B7
:103230008F9382818F9381818F9380818F938091EF
:10324000E4241F928F9380E796E29F938F930E94CE
:103250009D7A8DB79EB708968DBF9EBF80E008957A
:10326000EAEFF1E283818F9382818F9381818F9343
:1032700080818F938091E4241F928F9386E896E259
:103280009F938F930E949D7A8DB79EB708968DBFAE
:103290009EBF80E00895E9EEF1E283818F93828101
:1032A0008F9381818F9380818F938091E4241F92EB
:1032B0008F938BE996E29F938F930E949D7A8DB7AF
:1032C0009EB708968DBF9EBF80E00895E6EBF1E2C1
:1032D00083818F9382818F9381818F9380818F935C
:1032E0008091E4241F928F9381EB96E29F938F93BA
:1032F0000E949D7A8DB79EB708968DBF9EBF80E0D5
:103300000895E3E8F1E283818F9382818F93818135
:103310008F9380818F938091E4241F928F9382EC0E
:1033200096E29F938F930E949D7A8DB79EB70896E1
:103330008DBF9EBF80E00895E2E7F1E283818F9325
:1033400082818F9381818F9380818F938091E424F8
:103350001F928F9382ED96E29F938F930E949D7AA6
:103360008DB79EB708968DBF9EBF80E00895E1E6B9
:10337000F1E283818F9382818F9381818F9380810A
:103380008F938091E4241F928F9381EE96E29F9316
:103390008F930E949D7A8DB79EB708968DBF9EBF72
:1033A00080E008950E94274C882341F088E096E24F
:1033B0009F938F930E949D7A0F900F9080E00895C5
:1033C0000E94464A882341F088E096E29F938F93BB
:1033D0000E949D7A0F900F9080E00895CF93DF9325
:1033E000C5EAD1E2688179818A819B810E94A945E1
:1033F0008B818F938A818F9389818F9388818F931B
:103400008091E4241F928F9380EF96E29F938F9395
:103410000E949D7A8DB79EB708968DBF9EBF80E0B3
:10342000DF91CF910895EF92FF920F931F93CF9367
:10343000DF93C0E0D0E00FE010E0EE24E394F12C45
:10344000C8010C2E02C0959587950A94E2F780FF7B
:103450000AC0C7010C2E01C0880F0A94EAF78093B6
:10346000E4240E94EC2F2196C430D10549F780E076
:10347000DF91CF911F910F91FF90EF9008950E94DF
:10348000614A882341F088E096E29F938F930E94DF
:103490009D7A0F900F9080E008958091E4249FEF33
:1034A000980F9F3028F08FE097E20E94B57A06C00F
:1034B00066E771E30E94A32F8111F5CF8091E42488
:1034C0009FEF980F9F3028F08FE097E20E94B57A27
:1034D00006C06CE971E30E94A32F8111F5CF80E053
:1034E0000895CF9380914E2390914F23A091502324
:1034F000B09151230697A105B10540F088E096E20E
:103500009F938F930E949D7A0F900F9080914E23EE
:1035100090914F23A0915023B09151238230910577
:10352000A105B10521F170F40097A105B105D1F015
:103530000197A105B10569F58AE297E20E94B57A83
:10354000C8E028C084309105A105B105E1F0A8F0DC
:103550000597A105B105E9F484E797E20E94B57AE1
:10356000CAE018C086E197E20E94B57A12C08BE3E8
:1035700097E20E94B57AC7E00DC08CE497E20E9402
:10358000B57AC5E007C084E697E20E94B57AC6E046
:1035900001C0C0E060E08AE991E30E94573960E031
:1035A0008AE991E30E945D4F6C2F8AE991E30E94C2
:1035B0000639C63031F462E070E08AE991E30E9496
:1035C000AE3860E08AE991E30E94F63661E08AE96C
:1035D00091E30E945D4F61E08AE991E30E945739CF
:1035E00080E0CF910895CF92DF92EF92FF920F93F8
:1035F0001F93CF93DF931F921F92CDB7DEB78091B9
:10360000E42481508F3008F093C020E148E061E06D
:1036100080E092E00E94426E20E149E062E080E0BA
:1036200092E00E94426E20E14AE064E080E092E095
:103630000E94426E20E14BE068E080E092E00E9450
:10364000426E19821A828CE3E82E85E2F82E00E0A1
:1036500010E09AE8C92E97E2D92E8091E42490E0F8
:10366000002E02C0959587950A94E2F780FF1FC04F
:10367000AE014F5F5F4FF801EC5BFA4D6081F701DF
:10368000808191810E94506B8A818F9389818F9371
:10369000C8018F5B9F4F9F938F93DF92CF920E94C1
:1036A0009D7A0F900F900F900F900F900F900F5FDB
:1036B0001F4FF2E0EF0EF11C0430110571F620E10E
:1036C00040E061E080E092E00E94426E20E141E053
:1036D00062E080E092E00E94426E20E142E061E020
:1036E00080E092E00E94426E20E143E062E080E0F0
:1036F00092E00E94426E20E144E061E080E092E0CE
:103700000E94426E20E145E062E080E092E00E948B
:10371000426E20E146E061E080E092E00E94426E6D
:1037200020E147E062E080E092E00E94426E08C043
:1037300088E096E29F938F930E949D7A0F900F905E
:1037400080E00F900F90DF91CF911F910F91FF902C
:10375000EF90DF90CF90089561E070E000907320CB
:1037600002C0660F771F0A94E2F740E086E791E314
:103770000E94E22E882341F088E096E29F938F9387
:103780000E949D7A0F900F90809176208F93809168
:1037900075208F93809174208F93809173208F93E5
:1037A0008091E4241F928F938DE997E29F938F93EA
:1037B0000E949D7A8DB79EB708968DBF9EBF80E010
:1037C000089561E070E00090622002C0660F771FEC
:1037D0000A94E2F741E086E791E30E94E22E882313
:1037E00041F088E096E29F938F930E949D7A0F901C
:1037F0000F90809165208F93809164208F938091AA
:1038000063208F93809162208F938091E4241F9294
:103810008F938DE997E29F938F930E949D7A8DB746
:103820009EB708968DBF9EBF80E00895CF938FE02E
:103830008093E42488E791E30E94FA33C82F88E953
:1038400091E30E942736C80F8AE991E30E94E8506D
:10385000C80F86E991E30E944B2AC80F40E064E05C
:1038600086E791E30E94E22EC80F40E068E086E719
:1038700091E30E94E22EC80F40E060E486E791E306
:103880000E94E22EC80F6AE37FE880E090E00E9489
:103890006F5440E060E886E791E30E94E22EC80F93
:1038A0006AE37FE880E090E00E946F5440E060E2CD
:1038B00086E791E30E94E22E8C0F41F088E096E2C9
:1038C0009F938F930E949D7A0F900F9080E0CF91ED
:1038D00008950E94A36A80E00895CF938091E42424
:1038E00081508F3048F088E096E29F938F930E943A
:1038F0009D7A0F900F901BC088E791E30E94E833F8
:10390000C82F88E991E30E941736C80F8AE991E32E
:103910000E94CD51C80F86E991E30E94092AC80F81
:1039200060E070E0CB010E94A9458C0FE1F680E0D9
:10393000CF91089586E991E30E94092A60E070E042
:10394000CB010E94A9458091E4241F928F938AEBBA
:1039500097E29F938F930E949D7A0F900F900F9004
:103960000F9080E00895CF938091E42481508F30B0
:1039700048F088E096E29F938F930E949D7A0F9083
:103980000F90B3C041E060E88CE991E30E94E22E21
:10399000C82F40E060E48CE991E30E94E22EC80F5A
:1039A00041E060E28CE991E30E94E22EC80F41E021
:1039B00060E18CE991E30E94E22EC80F41E064E0EF
:1039C0008CE991E30E94E22EC80F40E061E086E7B7
:1039D00091E30E94E22EC80F41E062E086E791E3A6
:1039E0000E94E22EC80F41E064E086E791E30E9466
:1039F000E22EC80F41E068E086E791E30E94E22EE4
:103A0000C80F41E060E186E791E30E94E22EC80F13
:103A100041E060E286E791E30E94E22EC80F6AE38C
:103A20007FE880E090E00E946F5441E060E886E724
:103A300091E30E94E22EC80F6AE37FE880E090E005
:103A40000E946F5441E060E486E791E30E94E22E19
:103A5000C80F6AE37FE880E090E00E946F548AE933
:103A600091E30E94AC3061E08AE991E30E94B837AB
:103A700061E08AE991E30E94673788E791E30E9459
:103A8000FC33C80F88E991E30E942936C80F8AE900
:103A900091E30E94A253C80F86E991E30E94092A8C
:103AA000C80F60E070E0CB010E94A945C80F41E05B
:103AB00060E88CE991E30E94E22EC80F40E060E4E8
:103AC0008CE991E30E94E22EC80F41E060E28CE9AC
:103AD00091E30E94E22EC80F41E060E18CE991E39E
:103AE0000E94E22E8C0F09F044CF80E0CF91089520
:103AF000FF920F931F93CF93DF9300D01F92CDB708
:103B0000DEB78FE0F82EF092E42440E061E086E733
:103B100091E30E94132E40E062E086E791E30E9469
:103B2000132E40E064E086E791E30E94132E40E00C
:103B300068E086E791E30E94132E40E060E186E7AB
:103B400091E30E94132E40E060E286E791E30E9439
:103B5000132E40E060E486E791E30E94132E40E0DC
:103B600060E886E791E30E94132E40E061E086E77B
:103B700091E30E94E22E40E062E086E791E30E943A
:103B8000E22E40E064E086E791E30E94E22E40E00E
:103B900068E086E791E30E94E22E40E060E186E77C
:103BA00091E30E94E22E40E060E286E791E30E940A
:103BB000E22E40E060E486E791E30E94E22E40E0DE
:103BC00060E886E791E30E94E22E85E08093E4249A
:103BD00041E061E086E791E30E94E22E41E064E08B
:103BE00086E791E30E94E22E41E060E186E791E3FF
:103BF0000E94E22E41E060E486E791E30E94E22E1B
:103C00008AE08093E42441E062E086E791E30E9449
:103C1000E22E41E068E086E791E30E94E22E41E077
:103C200060E286E791E30E94E22E41E060E886E7E9
:103C300091E30E94E22E81E08093E4248E010F5FE5
:103C40001F4F9E012E5F3F4FAE014D5F5F4FBE0184
:103C50006C5F7F4F86E791E30E94FE2B89811F9264
:103C60008F938A811F928F938B811F928F938C8168
:103C70001F928F9387EC97E29F938F930E949D7A78
:103C800082E08093E4249E012E5F3F4FAE014D5FA2
:103C90005F4FBE016C5F7F4F86E791E30E94FE2B72
:103CA00089811F928F938A811F928F938B811F929C
:103CB0008F938C811F928F9385EF97E29F938F93C1
:103CC0000E949D7A84E08093E4249E012E5F3F4F02
:103CD000AE014D5F5F4FBE016C5F7F4F86E791E3A2
:103CE0000E94FE2B89811F928F938A811F928F934E
:103CF0008B811F928F938C811F928F9383E298E226
:103D00009F938F930E949D7A88E08093E4249E0184
:103D10002E5F3F4FAE014D5F5F4FBE016C5F7F4F27
:103D200086E791E30E94FE2B89811F928F938A81FF
:103D30001F928F938B811F928F938C811F928F93F1
:103D400081E598E29F938F930E949D7AF092E424FC
:103D5000CDBFDEBF1F92FF928FE798E29F938F93B4
:103D60000E949D7A0F900F900F900F9080E0249604
:103D7000CDBFDEBFDF91CF911F910F91FF900895CE
:103D80000F931F93CF93DF931F921F92CDB7DEB790
:103D900085E998E20E94B57A85ED98E20E94B57AAD
:103DA00040E560E088E991E30E941035AE014F5F85
:103DB0005F4F60E088E991E30E94C0348A818F936D
:103DC00089818F9309EA18E21F930F930E949D7ACD
:103DD00040E561E088E991E30E941035AE014F5F54
:103DE0005F4F61E088E991E30E94C0348A818F933C
:103DF00089818F931F930F930E949D7A8AE090E0B0
:103E00000E94AF7ACDBFDEBF80E00F900F90DF91B0
:103E1000CF911F910F9108950F931F93CF93DF932D
:103E200000D0CDB7DEB78CEB98E20E94B57A83ED77
:103E300098E20E94B57ABE016D5F7F4F8AE991E3F7
:103E40000E9476508B811F928F938AEE98E29F9307
:103E50008F930E949D7ABE016F5F7F4F8AE991E345
:103E60000E94DC4F8A818F9389818F938DEF98E236
:103E70009F938F930E949D7A62E08AE991E30E946A
:103E8000B850BE016D5F7F4F8AE991E30E94975061
:103E90008B811F928F9300E119E21F930F930E9471
:103EA0009D7A60E08AE991E30E94B850BE016D5F9F
:103EB0007F4F8AE991E30E9497508B811F928F93E5
:103EC0001F930F930E949D7A8AE090E00E94AF7A40
:103ED000CDBFDEBF80E02396CDBFDEBFDF91CF91A7
:103EE0001F910F910895CF93DF931F921F92CDB72B
:103EF000DEB719821A82BE016F5F7F4F88E991E3B6
:103F00000E94E435882341F082E299E29F938F93E7
:103F10000E949D7A0F900F908AE299E20E94B57AF2
:103F200089811F928F9382E499E29F938F930E94DD
:103F30009D7A8A811F928F9380E599E29F938F9358
:103F40000E949D7A8091E4241F928F938EE599E2DE
:103F50009F938F930E949D7ACDBFDEBF80E00F902C
:103F60000F90DF91CF910895CF92DF92EF92FF9261
:103F70000F931F93CF93DF931F92CDB7DEB780913E
:103F8000E42481508F3008F0B6C000E010E08FE6E6
:103F9000C82E89E2D82E98E7E92E99E2F92E802FD3
:103FA000837051F41F930F93DF92CF920E949D7AFA
:103FB0000F900F900F900F90AE014F5F5F4FB801C1
:103FC0008AE991E30E94265189811F928F93FF9283
:103FD000EF920E949D7A0F5F1F4F0F900F900F90EE
:103FE0000F9001371105D9F68AE090E00E94AF7A70
:103FF0008091E4241F928F9380E899E29F938F939E
:104000000E949D7A80E999E20E94B57ABE016F5FB5
:104010007F4F8AE991E30E9424370F900F900F9011
:104020000F908981811103C08EE999E202C08CEB67
:1040300099E20E94B57ABE016F5F7F4F8AE991E3F2
:104040000E94E6378981811103C086ED99E202C0A2
:104050008FEF99E20E94B57ABE016F5F7F4F8AE9C8
:1040600091E30E9408388981811103C084E29AE2B9
:1040700002C083E49AE20E94B57ABE016F5F7F4F6F
:104080008AE991E30E942B388981811103C08EE572
:104090009AE202C08CE89AE20E94B57ABE016F5F94
:1040A0007F4F8AE991E30E9495378981811103C08E
:1040B00086EA9AE202C089ED9AE20E94B57ABE01D0
:1040C0006F5F7F4F8AE991E30E944E3889818111A9
:1040D00003C088E09BE202C08DE29BE20E94B57AB9
:1040E00080E00F90DF91CF911F910F91FF90EF90A3
:1040F000DF90CF90089588E096E29F938F930E947F
:104100009D7A0F900F9074CFCF93DF93C8EDD1E2DB
:10411000488159816A817B8186E991E30E94F32479
:104120008B818F938A818F9389818F9388818F93DD
:104130008091E4241F928F938EE49BE29F938F9350
:104140000E949D7A8DB79EB708968DBF9EBF80E076
:10415000DF91CF9108956091C7217091C82180911E
:10416000C9219091CA21603871058105910528F017
:1041700080E69BE20E94B57A1FC088E791E30E9427
:10418000C1338091CA218F938091C9218F938091EF
:10419000C8218F938091C7218F938091E4241F922F
:1041A0008F9386E69BE29F938F930E949D7A8DB7B3
:1041B0009EB708968DBF9EBF80E00895CF93DF9392
:1041C000E0918B31F0918C31A0918D31B0918E3195
:1041D000809191319091923118962D913C9119973F
:1041E0008217930718F516964D915C9117979C01CD
:1041F0002F5F3F4F20939131309392312781EA0115
:10420000C80FD91F2883209191313091923118968F
:104210008D919C9119972817390718F482E08383B0
:104220000AC087E083831092953105C083E08383C1
:1042300089EF80939531DF91CF910895E0918B3193
:10424000F0918C31A0918D31B0918E3180918F3170
:104250009091903114962D913C9115978217930768
:1042600064F49C012F5F3F4F20938F313093903146
:10427000A80FB91F11968C9122C080919131909115
:10428000923118962D913C91199782179307C8F493
:1042900020919331222321F08681816086830895C5
:1042A00016962D913C911797AC014F5F5F4F40934D
:1042B000913150939231D901A80FB91F8C91878306
:1042C000089583E08383109295310895FC019481D1
:1042D000937081E0913009F080E0089580919531EC
:1042E0008038E1F380918B3190918C310E9466216E
:1042F000811101C0F7CF80919531109294310895CA
:104300008FBF08958FB7F8940895909194319923B1
:1043100019F081110DC0FFCF0E94822191E090938E
:10432000943190E8909395310E94802180E0089527
:1043300086EF089560E078E488EE91E008950C94AB
:104340009A210C949F210C94A1210C94A321DC01AF
:10435000ED91FC91119748634087ED91FC91660FB8
:1043600063870895FC0160837183428353832483B0
:104370003583DC01AA5BBF4F1C9211961C921196EB
:104380001C9211961C92E25BFF4F10820895FF92DF
:104390000F931F93CF93DF93009771F16115710510
:1043A00059F1F42EEB018C018A850E94852181113F
:1043B00024C000938B3110938C31C0938D31D093F6
:1043C0008E3110928F311092903110929131109263
:1043D0009231F09293318881880F2C813D81232B7B
:1043E00011F4F1108160F8018683DF91CF911F9164
:1043F0000F91FF900C946E2188EFDF91CF911F9168
:104400000F91FF9008950C94C721DF92EF92FF92D5
:104410000F931F93CF93DF931F92CDB7DEB78C011D
:10442000DC011296ED90FC9013971092813110925E
:104430008431109285316093863170938731842F57
:1044400090E0809388319093893110928A31D12CF9
:10445000F8018085D81630F5D8011696ED91FC91BB
:104460001797608170E08D2D90E00D2C02C075953E
:1044700067950A94E2F760FF17C01496ED91FC91DE
:104480001597E80FF91F808180938031422F60E8F3
:1044900071E3C70129830E9403222981811106C08B
:1044A000222311F080E003C0D394D2CF81E00F909B
:1044B000DF91CF911F910F91FF90EF90DF900895C2
:1044C000CF92DF92EF92FF920F931F93CF93DF93E0
:1044D0006C017B018A01FB01C1818FEF8C0F8F3052
:1044E00020F081E0F80180834EC0FB012481822FFF
:1044F0006C2F0E94F3779111F4CF211102C0C0E01C
:1045000019C0D0E0F70184816C2F0E94F377D8178F
:10451000B0F7F70162817381DC9F600D711D11247A
:1045200020E04C2FC6010E940522811102C0DF5FEE
:10453000E9CFC1E0F801D181D03110F18481882325
:10454000F9F0DF506D2F0E94F3779111CACFF12C53
:10455000F80184816D2F0E94F377F81688F4F80132
:1045600062817381FD9E600D711D112421E04D2F2C
:10457000C6010E940522811102C0F394E9CFC1E077
:10458000F801C0838C2FDF91CF911F910F91FF9085
:10459000EF90DF90CF900895FC01DB0114968C9191
:1045A000858388EB818381E08483EBE8F1E31186E6
:1045B0001286E0EAF0E0828182608283789480E073
:1045C0000895E0918B31F0918C31848183FF06C096
:1045D0008860848383E0838386EF0EC0982F947174
:1045E00021F083E083838FEF07C086FD0C941E21AA
:1045F00087FD0C94DE208BEF8093953108951F92F8
:104600000F920FB60F9211240BB60F922F933F9378
:104610004F935F936F937F938F939F93AF93BF93CA
:10462000EF93FF930E94E122FF91EF91BF91AF9131
:104630009F918F917F916F915F914F913F912F91BA
:104640000F900BBE0F900FBE0F901F9018951F92EA
:104650000F920FB60F9211240BB60F922F933F9328
:104660004F935F936F937F938F939F93AF93BF937A
:10467000EF93FF930E94E122FF91EF91BF91AF91E1
:104680009F918F917F916F915F914F913F912F916A
:104690000F900BBE0F900FBE0F901F901895CF93E9
:1046A000DF931F92CDB7DEB76983FC01E65BFF4F56
:1046B000BE016F5F7F4F808191810E946D3C91E0D0
:1046C00089270F90DF91CF910895FB01108283E13C
:1046D000818384E08483A281B3811C92A281B3810F
:1046E00011961C92A281B38112961C920280F381D2
:1046F000E02D43830895EF92FF920F931F93FC01E7
:10470000108284E081838483A281B3811C93A2817F
:10471000B38111960C93A281B3811296FC92028010
:10472000F381E02D8E2D807F4F70482B4383FB015A
:1047300014821F910F91FF90EF9008958823A9F0A4
:1047400020E030E090E0482F50E0BA01022E02C095
:10475000759567950A94E2F760FD922F2F5F3F4FA2
:104760002730310591F7892F089583E0089590E06F
:104770008031910588F5FC018827EC50FF4F8F4F61
:104780000C94217886E792E0089582EE94E00895F3
:1047900088E196E0089588E597E008958EE898E02E
:1047A000089584EC99E008958AEF9AE008958AE3E9
:1047B0009CE0089580E79DE0089586EA9EE00895D4
:1047C0008CED9FE008958CE191E1089582E592E1FE
:1047D000089588E893E108958CEA93E0089586E3CC
:1047E00091E008950F931F93CF93DF93009709F4FF
:1047F000F0C06115710509F4EEC0EB018C0160E0B9
:104800000E942E6881110CC080917C3190917D3185
:10481000A0917E31B0917F3188839983AA83BB8335
:1048200061E0C8010E942E6881110CC080917C312A
:1048300090917D31A0917E31B0917F318C839D83A9
:10484000AE83BF8362E0C8010E942E6881110CC054
:1048500080917C3190917D31A0917E31B0917F31FA
:1048600088879987AA87BB8763E0C8010E942E6862
:1048700081110CC080917C3190917D31A0917E316D
:10488000B0917F318C879D87AE87BF8764E0C80178
:104890000E942E6881110CC080917C3190917D31F5
:1048A000A0917E31B0917F31888B998BAA8BBB8B85
:1048B00065E0C8010E942E6881110CC080917C3196
:1048C00090917D31A0917E31B0917F318C8B9D8B09
:1048D000AE8BBF8B66E0C8010E942E6881110CC0B0
:1048E00080917C3190917D31A0917E31B0917F316A
:1048F000888F998FAA8FBB8F67E0C8010E942E68AE
:1049000081110CC080917C3190917D31A0917E31DC
:10491000B0917F318C8F9D8FAE8FBF8F68E0C801C3
:104920000E942E6881110CC080917C3190917D3164
:10493000A0917E31B0917F3188A399A3AAA3BBA394
:1049400069E0C8010E942E6881110CC080917C3101
:1049500090917D31A0917E31B0917F318CA39DA348
:10496000AEA3BFA36AE0C8010E942E6881110CC0EB
:1049700080917C3190917D31A0917E31B0917F31D9
:1049800088A799A7AAA7BBA76BE0C8010E942E68B9
:1049900081110CC080917C3190917D31A0917E314C
:1049A000B0917F318CA79DA7AEA7BFA76CE0C801CF
:1049B0000E942E68811111C040917C3150917D314F
:1049C00060917E3170917F3148AB59AB6AAB7BAB64
:1049D00005C081E003C083E001C080E0DF91CF919A
:1049E0001F910F9108958F929F92AF92BF92CF9295
:1049F000DF92EF92FF920F934A015B0120EF822238
:104A0000642F6F70CC24CA94DC2C760100E0A501E1
:104A100094010E94693B80E00F91FF90EF90DF903E
:104A2000CF90BF90AF909F908F900895CF92DF92DC
:104A3000EF92FF920F93009729F14115510521E064
:104A40006207710550F4411551056105710549F47E
:104A500041E050E060E070E004C04FEF5FEF60E0E5
:104A600070E0BA01552744279A01AB0120613460F8
:104A7000CC24CA94DC2C760100E06CE00E94693BF7
:104A800080E001C081E00F91FF90EF90DF90CF9028
:104A90000895CF92DF92EF92FF920F931F930097AA
:104AA000C9F1C22E062F10E020E030E054E0000FE4
:104AB000111F221F331F5A95D1F72066D12CE12CEC
:104AC000F12C6CE0CC0CDD1CEE1CFF1C6A95D1F7C0
:104AD000EE24FF240C291D292E293F2950E060E0F7
:104AE00070E0BA0155274427442755276F70772770
:104AF00068017901C42AD52AE62AF72AA701960176
:104B0000CC24CA94DC2C760100E06BE00E94693B67
:104B100080E001C081E01F910F91FF90EF90DF9046
:104B2000CF900895CF92DF92EF92FF920F9300976C
:104B300071F0CC24CA94DC2C760100E02BE030E349
:104B400041E650E06BE00E94693B80E001C081E0FB
:104B50000F91FF90EF90DF90CF900895CF92DF926A
:104B6000EF92FF920F931F93009709F463C0C02E3A
:104B7000522F0E2D10E020E030E074E0000F111FE6
:104B8000221F331F7A95D1F700711127222733276F
:104B9000206CD12CE12CF12CE5E0CC0CDD1CEE1CC2
:104BA000FF1CEA95D1F770E2C722DD24EE24FF2432
:104BB0000C291D292E293F29C52ED12CE12CF12CA1
:104BC000F6E0CC0CDD1CEE1CFF1CFA95D1F70C298D
:104BD0001D292E293F29C62ED12CE12CF12CADE127
:104BE000CC0CDD1CEE1CFF1CAA95D1F70C291D294D
:104BF0002E293F2950E060E070E0BAE1440F551FD4
:104C0000661F771FBA95D1F74427552766277C7111
:104C100068017901C42AD52AE62AF72AA701960154
:104C2000CC24CA94DC2C760100E06AE00E94693B47
:104C300080E001C081E01F910F91FF90EF90DF9025
:104C4000CF900895CF92DF92EF92FF920F931F9330
:104C5000009709F44AC0662309F449C0423008F0BD
:104C600046C0223008F043C0042FE62F422F50E008
:104C700060E070E024E0440F551F661F771F2A95FF
:104C8000D1F74071552766277727606C10E020E048
:104C900030E0F5E0000F111F221F331FFA95D1F706
:104CA0000072112722273327402B512B622B732BA5
:104CB0000E2F10E020E030E0A6E0000F111F221FB1
:104CC000331FAA95D1F76A017B01C02AD12AE22AB3
:104CD000F32AA7019601CC24CA94DC2C760100E0CB
:104CE0006AE00E94693B80E003C081E001C083E08C
:104CF0001F910F91FF90EF90DF90CF9008958F92CA
:104D00009F92AF92BF92CF92DF92EF92FF920F935A
:104D10001F9349015A014E2D009709F463C0611198
:104D200001C061E0003220F4011103C001E001C0C4
:104D30000FE1403220F4411103C041E001C04FE1D6
:104D4000811424E09206A104B10450F4811491046A
:104D5000A104B10459F4812C912C5401839406C010
:104D600088248A9413E0912EA12CB12C10E020E02D
:104D700030E059E0000F111F221F331F5A95D1F761
:104D800000271E7322273327362B50E060E070E0A7
:104D9000E4E0440F551F661F771FEA95D1F7407F67
:104DA000517066277727042B152B262B372BFEE017
:104DB000880C991CAA1CBB1CFA95D1F7882440ECDE
:104DC0009422BB24A9019801282939294A295B2961
:104DD000CC24CA94DC2C760100E069E00E94693B97
:104DE00080E001C081E01F910F91FF90EF90DF9074
:104DF000CF90BF90AF909F908F900895CF92DF9209
:104E0000EF92FF920F93009771F0CC24CA94DC2CA0
:104E1000760100E028E234E04DE250E168E00E94D3
:104E2000693B80E001C081E00F91FF90EF90DF903F
:104E3000CF9008958F929F92AF92BF92CF92DF92C0
:104E4000EF92FF920F931F93FC01942F309709F478
:104E50008AC0623008F089C0422F243008F043E055
:104E6000023008F082C03E2D343008F033E021E0FB
:104E70002C1508F47AC08C2CC92ECF01D12CE12C32
:104E8000F12C2CE0CC0CDD1CEE1CFF1C2A95D1F77C
:104E9000CC2420E7D222EE24FF246894F4F8912C4D
:104EA000A12CB12C54E0880C991CAA1CBB1C5A954F
:104EB000D1F720E182229924AA24BB24C828D9282A
:104EC000EA28FB28802E912CA12CB12C77E0880CAD
:104ED000991CAA1CBB1C7A95D1F7C828D928EA28A6
:104EE000FB28832E912CA12CB12CE5E0880C991C79
:104EF000AA1CBB1CEA95D1F720E682229924AA2499
:104F0000BB24C828D928EA28FB28062F10E020E077
:104F100030E0F9E1000F111F221F331FFA95D1F77E
:104F20000027112722273270C02AD12AE22AF32A29
:104F300050E060E070E0762F652F542F442744271F
:104F40005370662777279A01AB012C293D294E29FA
:104F50005F29CC24CA94DC2C760100E067E00E9433
:104F6000693B80E003C081E001C083E01F910F91A5
:104F7000FF90EF90DF90CF90BF90AF909F908F9079
:104F800008950F931F93CF93DF93DC01ED91FC9174
:104F900011972085246020878C010A5B1F4FF80140
:104FA0002081ED91FC91203218F5EC018485D80127
:104FB0009C91FE01E90FF11D8683EA81FB81199521
:104FC000F80180818F5F8083085F1F4FD8018C912B
:104FD000E881F981882349F082E0818766E0CE018B
:104FE0000E946A71F80110820CC083E0818709C0B9
:104FF00026E0218762E0DF91CF911F910F910C9401
:105000006A71DF91CF911F910F910895CF93DF9334
:10501000EC01E881F98180858B7F8087E881F981C7
:10502000828580648287EC81FD81199561E0CE01E3
:10503000DF91CF910C946A71CF93DF93EC01C25B47
:10504000DF4F2881DC01ED91FC91222339F022E031
:10505000218766E00E946A71188215C0DC01A85B96
:10506000BF4F21E02C9311961C9220852B7F208727
:10507000FC01EA5BFF4F108231961082DC01ED915A
:10508000FC9183E08187DF91CF910895DC01ED9160
:10509000FC91228521FD0C9471710C94C127DC01D7
:1050A000ED91FC91228522FF09C0FC01EA5BFF4FD4
:1050B000108231961082329624E00AC023FF0CC081
:1050C000FC01EA5BFF4F108231961082329623E09A
:1050D000208331971082089526FF05C020FD0C948F
:1050E0001C280C94062827FD0C94462865E00C9497
:1050F0006A71009709F4C6C0803C910511F460E123
:1051000005C0811524E0920719F464E080E0B8C07E
:10511000803821E0920711F462E0F8CF811521E098
:10512000920711F461E0F2CF803823E0920711F486
:1051300061E00BC0803923E0920711F461E012C0F6
:10514000811522E0920719F462E081E099C0803471
:1051500022E0920711F462E005C0803223E092075A
:1051600019F464E082E08CC0811528E0920711F404
:1051700061E07FC0811529E0920711F461E06CC005
:1051800081152AE0920711F461E079C081152BE0C6
:10519000920711F461E053C0803428E0920711F4C3
:1051A00062E067C0803429E0920711F462E054C0E5
:1051B00080342AE0920711F462E061C0803928E06F
:1051C000920711F464E055C0803929E0920711F488
:1051D00064E042C080392AE0920711F464E04FC0D5
:1051E00080392BE0920711F464E029C0803C28E06C
:1051F000920711F468E03DC0803C29E0920711F469
:1052000068E02AC0803C2AE0920711F468E037C0C9
:10521000803A28E0920711F460E12BC0803A29E03F
:10522000920711F460E118C0803A2AE0920711F465
:1052300060E125C0803A2BE0920719F460E186E036
:105240001FC0803B28E0920711F460E212C0803B4F
:1052500029E0920719F460E284E012C0803B2AE062
:10526000920711F460E20BC0803824E0920719F431
:1052700060E483E005C0803A944021F460E485E076
:105280000C94ED3B08956F927F928F929F92AF9214
:10529000BF92CF92EF920F931F93CF93DF935C0156
:1052A0004B01EA0139010E94A521F40120813181DD
:1052B00042815381220F331F441F551F0E94FF77E5
:1052C000DA01C9010597A109B109F4018483958325
:1052D000A683B783C5010E9479289801A301B5016F
:1052E000CE010E94B2214C2D6E2DCE01DF91CF91C7
:1052F0001F910F91EF90CF90BF90AF909F908F90A4
:105300007F906F900C94A721CF92DF92EF92FF9243
:105310000F931F93CF93DF938C01EB010E94A52184
:10532000C880D980EA80FB80A7019601220F331F35
:10533000441F551F0E94FF77DA01C9010597A10993
:10534000B1098C839D83AE83BF83C8010E947928F5
:10535000BE01C8010E94CC22082E000C990BDF91DF
:10536000CF911F910F91FF90EF90DF90CF90089514
:10537000BF92CF92DF92EF92FF920F931F93CF9342
:10538000DF936623F9F0D62EEC01F12CF8E3BF2E63
:1053900088819981009791F149895A89BE016C5F92
:1053A0007F4F4115510581F4EA81FB81B08AEA8182
:1053B000FB81B18A888199810E948429F39468963F
:1053C000FD10E6CF80E01BC00D891E892B893C892A
:1053D000E0ECCE2EEF880E944329E989FA898F8577
:1053E0009889E65BFF4F80839183E989FA898D85EF
:1053F0009E85E45BFF4F80839183E0CF8F2DDF910B
:10540000CF911F910F91FF90EF90DF90CF90BF90C1
:1054100008958F92AF92CF92EF920F931F93CF93F5
:10542000DF93009731F1EC011F9281E08F938F930E
:105430008F9388248394AA24A39482E0C82EEE2418
:10544000E39401E010E020E040E060E0CE010E9443
:10545000BE5D66E070E0CE010E94C86060E070E072
:10546000CE010E94C8600F900F900F900F9080E0C7
:1054700001C081E0DF91CF911F910F91EF90CF900C
:10548000AF908F900895009721F00E94092A80E044
:10549000089581E008950C94432A8F92AF92CF92A1
:1054A000EF92FF920F931F93009799F0812C23E0C6
:1054B000A22ECC24C39430E6E32EF12C01E010E0C0
:1054C00020E438E74DE751E060E00E94BD6380E0F2
:1054D00001C081E01F910F91FF90EF90CF90AF90AE
:1054E0008F90089510929E3110929F3180E0089520
:1054F0008091D8239091D92320919E3130919F3172
:10550000821B930B019680939E3190939F3180E094
:1055100008958091602490916124A0916224B091BB
:105520006324AC01BD014150510961097109443640
:1055300051056105710558F4AC01BD014051510997
:10554000610971094135510561057105F8F488E07B
:1055500096E29F938F930E949D7A809163248F930C
:10556000809162248F93809161248F938091602435
:105570008F9380E196E29F938F930E949D7A8DB7DF
:105580009EB708968DBF9EBF81E008958136910534
:10559000A105B10540F08156910991E001C0990F34
:1055A0008A95EAF7892F8093E4248091E4241F925E
:1055B0008F9380E296E29F938F930E949D7A0F9043
:1055C0000F900F900F9080E00895809193001F92AC
:1055D0008F938CED9EE29F938F930E949D7A0F9004
:1055E0000F900F900F9080E0089580919F318F93DE
:1055F00080919E318F9389E79BE29F938F930E94C6
:105600009D7A80919E3190919F31019680939E3139
:1056100090939F310F900F900F900F9080E008951E
:105620008091B6239091B723A091B823B091B9236C
:10563000AC01BD0141505109610971094436510560
:105640006105710558F4AC01BD0140515109610972
:105650007109413551056105710550F480E69BE201
:105660009F938F930E949D7A0F900F9081E00895F1
:1056700081369105A105B10540F08156910991E06F
:1056800001C0990F8A95EAF7892F8093E42480E07E
:1056900008958091A8231F928F938DE79BE29F939B
:1056A0008F930E949D7A8091A7231F928F9387E901
:1056B0009BE29F938F930E949D7A8091A323909168
:1056C000A423A091A523B091A6232DB73EB7285FB0
:1056D0003F4F2DBF3EBF81309105A105B10511F4AB
:1056E00081E005C00297A105B10529F482E080930D
:1056F000A8238093A7238091A8231F928F9381EBE7
:105700009BE29F938F930E949D7A8091A7231F9283
:105710008F9387EC9BE29F938F930E949D7A8DB726
:105720009EB708968DBF9EBF80E008950E94EE4B05
:1057300080E008950E94CB4B80E008950E942C45A4
:1057400080E008950F931F93CF93DF93C09192232E
:10575000CB30D8F481E08093A606D0E0CC0FDD1FDB
:1057600010E001E0812F90E08C179D0754F465E173
:1057700076E185E090E00E946F540093A7061F5FDA
:10578000F1CF81E08093A60608C088E096E29F935F
:105790008F930E949D7A0F900F901F9288E28F93B3
:1057A000809195238F93809194238F93809193235D
:1057B0008F93809192238F938DED9BE29F938F9394
:1057C0000E949D7A8DB79EB708968DBF9EBF80E0E0
:1057D000DF91CF911F910F910895009769F0FC011F
:1057E000208331836093A6317093A7314093A43115
:1057F0005093A53180E0089581E008958F929F92A3
:10580000AF92BF92CF92DF92EF92FF920F931F93CE
:10581000CF93DF93009709F4BBC06115710509F4BC
:10582000B9C04115510509F4B5C02115310509F478
:10583000B1C00115110509F4ADC069014A015B0150
:105840007C01A091A231B091A3311C92C1E01196CC
:10585000CC9311971296ED91FC91139783E080837E
:105860001496CC9314974091A0315091A131D0E17E
:10587000FA01D183C483F70180819181FC012081E9
:105880003181BD01F90119954091A0315091A131AB
:10589000DA011296ED91FC9113978081F4018083D7
:1058A000A091A231B091A3311C921196CC93119783
:1058B0001296ED91FC91139782E080831496CC931D
:1058C0001497FA01D183C483F70180819181FC018F
:1058D00020813181BD01F90119954091A03150918C
:1058E000A131DA011296ED91FC9113978081F501B7
:1058F0008083A091A231B091A3311C921196CC93D8
:1059000011971296ED91FC91139710821496CC93F7
:105910001497FA01D183C483F70180819181FC013E
:1059200020813181BD01F90119954091A03150913B
:10593000A131DA011296ED91FC9113978081F60165
:105940008083A091A231B091A3311C921196CC9387
:1059500011971296ED91FC911397C0831496CC93F6
:105960001497FA01D183C483E70188819981EC01FE
:10597000E881F981BD011995E091A031F091A13143
:105980000280F381E02D8081F801808380E003C0F4
:1059900081E001C082E0DF91CF911F910F91FF90D4
:1059A000EF90DF90CF90BF90AF909F908F90089531
:1059B000CF93DF93009759F1EC01A091A231B09100
:1059C000A3311C9221E011962C9311971296ED9120
:1059D000FC91139723E020831296ED91FC9113978D
:1059E0002FEF218322E014962C9314974091A0313D
:1059F0005091A13120E1FA0121831482888199819B
:105A0000EC01E881F981BD01199580E001C081E0D8
:105A1000DF91CF9108950F931F93CF93DF9300975A
:105A2000A1F1EA01062FA091A231B091A3311C92FD
:105A300011E011961C9311971296ED91FC9113971A
:105A400023E0208314961C9314974091A031509129
:105A5000A13120E1FA0121831483FC01808191812D
:105A6000FC0120813181BD01F9011995E091A0313E
:105A7000F091A131A281B3818C91602F682311F044
:105A8000188301C01882808101C081E0DF91CF912D
:105A90001F910F9108950F931F93CF93DF9300975A
:105AA000B9F1EA01062FBC01A091A231B091A33156
:105AB0001C9211E011961C93119712968D919C9156
:105AC000139722E0FC01208314961C9314974091B5
:105AD000A0315091A13180E1FA0181831483FB014F
