:100000000C9439170C945A170C945A170C945A17CD
:100010000C945A170C945A170C945A170C945A179C
:100020000C945A170C945A170C945A170C945A178C
:100030000C945A170C94B7400C945A170C945A17F6
:100040000C945A170C945A170C945A170C945A176C
:100050000C945A170C945A170C945A170C945A175C
:100060000C945A170C947D190C945A170C9453192C
:100070000C945A170C945A170C945A170C945A173C
:100080000C945A170C945A170C945A170C945A172C
:100090000C945A170C945A170C945A170C945A171C
:1000A0000C945A170C945A170C945A170C945A170C
:1000B0000C945A170C945A170C948F400C945A179E
:1000C0000C945A170C945A170C945A170C945A17EC
:1000D0000C945A170C945A170C945A170C945A17DC
:1000E0000C945A170C945A170C945A170C945A17CC
:1000F0000C945A170C945A170C945A170C945A17BC
:100100000C945A170C945A170C945A170C945A17AB
:100110000C945A170C945A170C945A170C945A179B
:100120000C945A170C945A170C945A170C945A178B
:100130000C945A170C945A170C945A170C945A177B
:100140000C945A170C945A170C945A170C945A176B
:100150000C945A170C945A170C945A170C945A175B
:100160000C945A170C945A170C945A170C945A174B
:100170000C945A170C945A170C945A170C945A173B
:100180000C945A170C945A170C945A170C945A172B
:100190000C945A170C945A170C945A170C945A171B
:1001A0000C945A170C945A170C945A170C945A170B
:1001B0000C945A170C945A170C945A170C945A17FB
:1001C0000C945A170C945A170C945A170C945A17EB
:1001D0000C945A170C945A170C945A170C945A17DB
:1001E0000C945A170C945A176E1A721A761A7A1AB5
:1001F0007E1A821A861A8A1A08340134B3330134FB
:10020000C0330134CD330134DA330134E733013400
:10021000F433B434B434D534EF34963491340135F6
:10022000F434AA34A034AF34A534CB35C735A9355E
:10023000C735AE35C735B335C735B835C735BD3524
:10024000C735C235C436BA364E36BA366036BA36D7
:100250007236BA368436BA369636BA36A836FB3790
:10026000F737D937F737DE37F737E337F737E83778
:10027000F737ED37F737F237D938D1387D38D138FD
:100280008B38D1389938D138A738D138B538D138EA
:10029000C3383C3A383A1A3A383A1F3A383A243A8C
:1002A000383A293A383A2E3A383A333A063BFF3A46
:1002B000B13AFF3ABE3AFF3ACB3AFF3AD83AFF3A60
:1002C000E53AFF3AF23AE23BDE3BC03BDE3BC53B60
:1002D000DE3BCA3BDE3BCF3BDE3BD43BDE3BD93B88
:1002E0008A3C833C353C833C423C833C4F3C833CD2
:1002F0005C3C833C693C833C763C20451C45FE4489
:100300001C4503451C4508451C450D451C4512452B
:100310001C45174599459545774595457C45954537
:1003200081459545864595458B459545904566475C
:100330005F4711475F471E475F472B475F47384777
:100340005F4745475F4752470C94761A0C94796093
:100350000C9447320C94CB3A0C9472360C94C65FD2
:100360000C94861A0C94B3350C94E8370C94815F86
:100370000C94B4340C94CC600C948A1A0C940345FD
:100380000C94063B0C94152B0C9447300C94D534EC
:100390000C940D450C9420450C94B8350C941147E1
:1003A0000C945C3C0C94AE350C945D2B0C94A935EC
:1003B0000C9430640C94CC630C94E53A0C94DE2DD0
:1003C0000C9495450C94E7330C94875F0C9432653C
:1003D0000C94BA360C94AF340C9481450C94936110
:1003E0000C948B5F0C943C600C94D9370C949464FF
:1003F0000C94BE2A0C94132A0C94192A0C947E1A7D
:100400000C9454310C94FD2E0C94C0330C94112A8E
:100410000C94353C0C94D1380C9445470C94BE3A5E
:100420000C94C7350C944E360C9417450C94FE442E
:100430000C947F5F0C94BA2E0C9496310C94E63099
:100440000C94D43B0C9496340C9460360C94835FDB
:100450000C94BD350C94F4340C94C6470C940134C0
:100460000C94D83A0C947D380C94F6290C948B3863
:100470000C943C3A0C94072B0C94C5310C941B2A19
:100480000C94FC290C94592E0C942B470C9423317A
:100490000C948B300C94A7380C942D2E0C944A2B72
:1004A0000C94DF470C94243A0C94112C0C941245B4
:1004B0000C94383A0C94A5340C94FF3A0C94FB3706
:1004C0000C940A300C948A2A0C94DE3B0C94EA2F8C
:1004D0000C94CA3B0C94895F0C94E3370C94C4369B
:1004E0000C94763C0C941E470C9438470C94F737C8
:1004F0000C94F4330C94152A0C94AA340C94B13A4D
:100500000C947C450C94254F0C9499380C94B16252
:100510000C94502F0C9408340C940D2A0C94821ACD
:100520000C94362A0C947A1A0C942E2B0C94524765
:100530000C94E23B0C941F3A0C94DE370C94CF3BA6
:100540000C940E320C9496360C94A0340C94686380
:100550000C94A8360C9466470C94FC640C945C17BD
:100560000C94693C0C940F4F0C94C53B0C940F2ACF
:100570000C94F2370C945F470C94E96E0C94904500
:100580000C94DA330C94833C0C94502C0C947745E7
:100590000C94EF340C94E3470C94C03B0C94D12B97
:1005A0000C94D62A0C946E1A0C94DB470C94CD3321
:1005B0000C94CB350C941C450C94B3330C948B45A4
:1005C0000C94F23A0C94C3380C949F2B0C943C6519
:1005D0000C9401350C9456620C9491340C94ED37C4
:1005E0000C94B6470C941A3A0C9427610C94172A71
:1005F0000C942E3A0C94AF640C9499450C949C2E58
:100600000C9403620C94D9380C944F3C0C94B5387C
:100610000C948A3C0C94423C0C9417650C94D93B86
:100620000C948D2F0C9408450C94855F0C941B2F13
:100630000C94AD2F0C9484360C948D5F0C94E16473
:100640000C9486450C94293A0C94C6300C94333A99
:100650000C94C2350C94721A0C943C2B6364696E32
:100660006F70737578585B001D03ED01DCFDCCF5F0
:10067000BCE5ACC5A86EBCE5ACC59C85960392C133
:10068000912190966572726F723A20756E726563F1
:100690006F676E697A656420636F6D6D616E64204B
:1006A0006F7074696F6E0A00596F752068617665A6
:1006B000206265656E206772616E74656420726F7A
:1006C0006F74207065726D697373696F6E73210A40
:1006D0000054686973206973206E6F7420616E2006
:1006E0006F7065726174696E672073797374656D7C
:1006F000210A00436F6D6D616E64733A0A00557391
:100700006167653A205B636D645D205B2D7C2D2DF8
:100710005D5B617267315D205B2D7C2D2D5D5B61C2
:100720007267325D2E2E2E0A005475726E206F662F
:1007300066206F75747075747320287065722063FD
:1007400068616E6E656C292E005365742070726549
:100750007363616C617220666F722063616C6C6997
:1007600062726174696F6E2E005365742063616CF0
:100770006C6962726174696F6E204E20646976697B
:100780006465722E004368616E676520696E7465EA
:10079000726E616C207265666572656E6365204479
:1007A0004143206F757470757420766F6C74616747
:1007B00065004144524636353138204C6F7720422F
:1007C000616E6400414452463635313820486967CD
:1007D000682062616E6400536574207468652052FD
:1007E00046534120617474656E74756174696F6EEF
:1007F0002E203020746F203238202830644220743C
:100800006F202D32386442292E00426974206261C3
:100810006E67206F7065726174696F6E2E20313A59
:1008200020777269746520303A20726561640042F5
:1008300069742062616E672064617461206F662054
:100840004441432E004269742062616E67206164F6
:100850006472657373206F66204441432E004578AF
:10086000656375746520746865207365726465736B
:1008700020746573742E2028302D352920746573FB
:1008800074207061747465726E2E005365742074E8
:10089000686520696E746572706F6C6174696F6EE3
:1008A0002031782830292C2032782831292C203406
:1008B000782832292C203878283429206F7220316A
:1008C00036782838292E00456E61626C6520746880
:1008D000652050412028706F77657220616D706CC3
:1008E0006966696572292070726F74656374696FD7
:1008F0006E20636972637569742E203120746F20D5
:10090000656E61626C652E005365742074686520A5
:10091000636D6420696E7075742066726F6D204A15
:10092000455344283029206F7220535049283129DB
:100930002E0053657420746865202846292066724D
:10094000616D657320706572206D756C74692D66BC
:1009500072616D652E005365742074686520284DA2
:100960002920636F6E76657274657273207065728C
:10097000206C696E6B2E00536574207468652028A6
:100980004C29206C616E657320706572206C696EF5
:100990006B2E005365742074686520667265712043
:1009A0006F7574707574206F662065787465726EEB
:1009B000616C2044414320636C6B206166746572F6
:1009C00020696E7465726E616C20434C4B206369C4
:1009D000726375697420284D487A292E0045525259
:1009E0004F523A204661696C656420746F207365CC
:1009F00074001D03ED01DCFDCCF5BCE5ACC5A86EB3
:100A0000BCE5ACC59C85960392C19121909650722D
:100A1000696E7473206F7574207468652068656CE6
:100A200070206D656E7520666F7220746865206237
:100A30006F6172642E0045786974732066726F6D01
:100A4000207468697320626F617264206261636BF5
:100A500020746F20746865204449474954414C20F4
:100A6000626F6172642E00426F6F746C6F616465B7
:100A700072206F7074696F6E732E004F4E2F4F4649
:100A8000462073776974636865732C202830206969
:100A900073204F46462C2031206973204F4E290089
:100AA000436F6D6D616E647320666F722061636366
:100AB000657373696E672074686520686561727418
:100AC000626561742073746174757300436F6E7432
:100AD000726F6C732074686520626F617264206C41
:100AE0006576656C2066756E6374696F6E732E2013
:100AF00053657175656E7469616C206578656320F6
:100B00006F6620617267756D656E74732E00526535
:100B1000616420616E6420777269746520636F6D13
:100B20006D616E647320666F7220646562756767BD
:100B3000696E672E00436F6D6D616E647320666F22
:100B4000722073657474696E6720484D4339383874
:100B50002067726F75702064656C6179732E004335
:100B60006F6D6D616E647320666F7220736574744F
:100B7000696E67204A4553442F504C4C204E2F52EB
:100B800020646976696465727300436F6D6D616E90
:100B9000647320666F722073657474696E67207465
:100BA0006865204C4D4B30343832382064656C61B8
:100BB0007920636C6F636B732E00436F6D6D616E94
:100BC000647320666F722073657474696E67207435
:100BD0006865204C4D4B30343832382064656C6188
:100BE0007920636C6F636B732E00436F6D6D616E64
:100BF000647320666F72206D616E6167696E672035
:100C000074686520434C4B2067656E65726174693A
:100C10006F6E207468726F756768204C4D4B30346E
:100C20003832382C20414435363234522C20484D4D
:100C3000433938372E00436F6D6D616E64732066E3
:100C40006F72206D616E6167696E672074686520E0
:100C5000434C4B2067656E65726174696F6E2074DA
:100C600068726F756768204C4D4B30343832382CC1
:100C700020414435363234522C20484D43393837E0
:100C80002E005072696E7473206F757420746865DD
:100C90002068656C70206D656E7520666F722074BB
:100CA000686520626F6172642E00457869747320F4
:100CB00066726F6D207468697320626F6172642060
:100CC0006261636B20746F207468652044494749F2
:100CD00054414C20626F6172642E00426F6F746CDD
:100CE0006F61646572206F7074696F6E732E004F50
:100CF0004E2F4F46462073776974636865732C20C6
:100D00002830206973204F46462C203120697320FB
:100D10004F4E290053746174757320616E642066B0
:100D2000756E6374696F6E73207573656420666F8A
:100D30007220636865636B696E6720746865206202
:100D40006F6172642E2000436F6E74726F6C73203B
:100D500074686520626F617264206C6576656C20D2
:100D600066756E6374696F6E732E20536571756559
:100D70006E7469616C2065786563206F66206172AE
:100D800067756D656E74732E00457865637574655F
:100D900073207465737420766563746F72732E00AC
:100DA00052656769737465722064756D707320662F
:100DB0006F72207265737065637469766520706503
:100DC000726970686572616C732E00436F6E747225
:100DD0006F6C73207468652066726F6E74656E64E4
:100DE0002052462073776974636865732E00436FE1
:100DF0006D6D616E647320666F722074686520414A
:100E000044524636353138207661726961626C65CC
:100E1000206761696E20616D706C69666965722E0C
:100E2000005072696E7473206F7574207468652049
:100E300068656C70206D656E7520666F72207468D1
:100E40006520626F6172642E004578697473206654
:100E5000726F6D207468697320626F6172642062C2
:100E600061636B20746F207468652044494749545E
:100E7000414C20626F6172642E00426F6F746C6F20
:100E800061646572206F7074696F6E732E004F4ECF
:100E90002F4F46462073776974636865732C20284A
:100EA00030206973204F46462C2031206973204F33
:100EB0004E2900436F6E74726F6C732074686520E6
:100EC000626F617264206C6576656C2066756E6316
:100ED00074696F6E732E2053657175656E746961E8
:100EE0006C2065786563206F6620617267756D653B
:100EF0006E74732E0050726F766964657320746827
:100F00006520737461747573206F66207468652042
:100F1000626F6172642E0052656769737465722036
:100F200064756D707320666F72207265737065638F
:100F300074697665207065726970686572616C733A
:100F40002E00436F6E74726F6C7320746865206638
:100F5000726F6E74656E6420524620737769746395
:100F60006865732E00436F6D6D616E647320666FEC
:100F700072207468652044414333384A38342E0067
:100F800052756E7320737065636966696564207459
:100F900065737420766563746F72206F6620746861
:100FA000652041445246363531380052756E732003
:100FB000737065636966696564207465737420760F
:100FC0006563746F72206F662074686520414443C6
:100FD000313644583337300052756E732073706564
:100FE00063696669656420746573742076656374EB
:100FF0006F72206F66207468652050434139353325
:10100000382E00436C6561722074686520737065CA
:10101000636966696564204750494F582070696E5E
:10102000206C6F772E005365742074686520737090
:1010300065636966696564204750494F5820706947
:101040006E20686967682E003E2126100310D80FB5
:10105000AB0F800F5072696E7473206F75742069C6
:101060006E20766572626F7365206D6F64652E20E9
:101070003120746F20656E61626C652E004E6F20AA
:10108000617267756D656E74206E656365737361FB
:1010900072792E00456E7465722074686520626FE7
:1010A0006F746C6F616465722E00484D4339383738
:1010B000004C4D4B30343032380052657475726ECE
:1010C00073204D43552064657669636520696E66BB
:1010D0006F726D6174696F6E2E00476574732C209A
:1010E000616E64207468656E207265736574732C1C
:1010F00020504C4C204C6F7373206F66204C6F63F4
:101100006B205374617475732E004765747320509F
:101110004C4C204C6F636B204465746563742053A2
:1011200074617475730048656172746265617420DE
:10113000696E697469616C697A6174696F6E206641
:10114000756E6374696F6E20746F207365742063AD
:101150006F756E74657220746F203000486561721F
:1011600074626561742066756E6374696F6E207455
:101170006F2072657365742074686520686561729C
:10118000746265617420636F756E74657200486582
:10119000617274626561742066756E6374696F6EE6
:1011A00020746F20616E642066726F6D20746865B4
:1011B000207365727665720053656C656374732085
:1011C000474C45206D6F64653A204D43555F474C51
:1011D00045283129206F722053594E54485F46509C
:1011E00047415F474C45202832290050726F76698D
:1011F0006465732074686520616D6F756E74206F0F
:10120000662052414D206C656674202862797465B1
:1012100073292E0050726F76696465732074686557
:101220002074656D70657261747572652028302D4B
:1012300031292E00426C696E6B7320746865204CF6
:101240004544206120737065636966696564206E3A
:10125000756D626572206F662074696D65732E000E
:101260005072696E7473206F757420746865207392
:101270006F66747761726520616E64206861726464
:10128000776172652076657273696F6E2E00547592
:10129000726E732065766572797468696E67206F07
:1012A00066662E005475726E206F666620706572D9
:1012B0006970686572616C732E00506F776572207B
:1012C0006379636C65207065726970686572616CC2
:1012D0007320616E642072756E7320626F61726438
:1012E00020696E69742028706572206368616E6E73
:1012F000656C292E0052756E7320646961676E6F8C
:1013000073746963206F6E207065726970686572AE
:10131000616C2028706572206368616E6E656C294F
:101320002E2053686F756C64207072696E74206132
:101330006C6C207265676973746572732E005475E6
:10134000726E206F6E206F757470757473202870C4
:101350006572206368616E6E656C292E0052657738
:101360007269746520616C6C207265677320666FAA
:101370007220656E7469726520626F6172642E00FE
:101380005265616420616E642077726974652063C0
:101390006F6D6D616E647320666F72206465627537
:1013A0006767696E672E004765742F736574204800
:1013B0004D432052782042756666657220626961ED
:1013C000732028302069732064656661756C742C05
:1013D000203120666F722073696E75736F64696166
:1013E0006C202F206E6F6E2D4C565045434C204183
:1013F0004320636F75706C696E672E2900476574B2
:101400002F73657420484D43207265666572656E62
:10141000636520696E7075742064697669646572AD
:1014200073202876616C69642064697669646572EA
:101430007320617265203D20325E6E2C206E3D313E
:101440002E2E3529004765742F7365742064656CF2
:101450006179206C696E6520736574706F696E7454
:101460002E004765742F73657420746865206F754E
:1014700074707574206C61756E6368207068617338
:10148000652E005365742065697468657220535930
:101490004E43206F7220534C4950207573696E671C
:1014A0002053504920636F6D6D756E696361746977
:1014B0006F6E2E004765742F736574207468652005
:1014C00053594E432064656C617920646976696480
:1014D00065722E0053656C65637473206265747762
:1014E00065656E207468652074776F20484D4339B8
:1014F000383820646576696365732028726566658F
:1015000072656E636520616E64206C6D6B292E00C0
:1015100053657420636C6F636B20646976696465DE
:10152000722E00536574204E20646976696465727A
:1015300020666F7220504C4C2E0053657420522050
:101540006469766964657220666F7220504C4C2E17
:101550000053656C65637420646976696465722004
:10156000746F207365742E00536574206469676915
:1015700074616C2064656C617920636C6F636B2EA1
:101580000053656C656374206465766963652063E8
:101590006C6F636B2E0053656C656374204A455312
:1015A00044206F7220504C4C2E0052652D7379638D
:1015B00068726F6E697A65206F75747075742064D7
:1015C000697669646572732066726F6D20626F74EC
:1015D00068204C4D4B73005365742074686520443B
:1015E000414320636F6E74726F6C6C696E67205834
:1015F0004F20567265662C20302D343039362066E7
:1016000072616374696F6E205665787400497373F4
:101610007565205359535245462070756C73657338
:101620002066726F6D204A4553442E00456E6162FC
:101630006C65206578742D31304D487A207265666E
:101640006572656E6365202831292E005072696EBF
:101650007473206F757420696E20766572626F7383
:1016600065206D6F64652E203120746F20656E617A
:10167000626C652E00456E74657220746865206228
:101680006F6F746C6F616465722E004E6F206172B3
:1016900067756D656E74206E6563657373617279CD
:1016A0002E004144433136445833373000414452D0
:1016B000463635313800484D433833784C5036473C
:1016C0000052657475726E73204D435520646576C3
:1016D00069636520696E666F726D6174696F6E2EE5
:1016E00000504C4C204C6F636B20446574656374F0
:1016F000696F6E204D656368616E69736D2E004879
:10170000656172746265617420696E7469616C6987
:101710007A6174696F6E2066756E6374696F6E208E
:10172000746F2073657420636F756E7465722074B6
:101730006F203000436F6D6D616E6420666F7220A4
:10174000726573657474696E672074686520686576
:10175000617274626561742076616C756520666F74
:10176000722074686520525820626F617264004371
:101770006F6D6D616E6420666F72207072696E7439
:10178000696E67207468652063757272656E742077
:101790006865617274626561742076616C7565203C
:1017A0006F662074686520525820626F6172640011
:1017B00053656C6563747320474C45206D6F646599
:1017C0003A204D43555F474C45283129206F722000
:1017D000465047415F474C452028322900426C69FA
:1017E0006E6B7320746865204C45442061207370D3
:1017F00065636966696564206E756D626572206FE8
:10180000662074696D65732E0050726F7669646529
:1018100073207468652074656D706572617475728B
:10182000652028302D31292E004F75747075747322
:1018300020612031362D6269742072657065617493
:10184000696E672073657175656E6365205B302C0A
:101850002032363238302C20302C202D32363332A4
:10186000385D2066726F6D207468652041444320A6
:10187000636F72652E00456E61626C696E672074DD
:1018800068652053595352454620646574656374F6
:10189000696F6E20676174652E203120746F20653A
:1018A0006E61626C652C203020746F2064697361F6
:1018B000626C6500546865204144432077696C6C14
:1018C000206F7574707574204A45534420546573B5
:1018D00074205061747465726E732E20303A206FDC
:1018E00066662C20313A204432312E352C20323A93
:1018F000204B32382E352C20333A20727074204918
:101900004C412C20343A2072616D702C20353A20E5
:10191000484947482E005468652041444320776970
:101920006C6C20656E61626C65207468652053592B
:101930005352454620646574656374696F6E206711
:1019400061746520666F72204A45534420696E6950
:101950007469616C697A6174696F6E2E0050726F80
:1019600076696465732074686520616D6F756E7447
:10197000206F662052414D206C6566742028627984
:10198000746573292E005072696E7473206F7574BC
:101990002074686520736F66747761726520616E6C
:1019A000642068617264776172652076657273691C
:1019B0006F6E2E005475726E732065766572797441
:1019C00068696E67206F66662E005475726E206FB0
:1019D0006666207065726970686572616C732E004E
:1019E000506F776572206379636C652070657269EA
:1019F00070686572616C7320616E642072756E73BD
:101A000020626F61726420696E697420287065724B
:101A1000206368616E6E656C292E005475726E20AD
:101A20006F6666206F7574707574732028706572A8
:101A3000206368616E6E656C292E0052756E73208E
:101A4000646961676E6F73746963206F6E2070657F
:101A5000726970686572616C2028706572206368B5
:101A6000616E6E656C292E2053686F756C642070F2
:101A700072696E7420616C6C20726567697374653D
:101A800072732E005475726E206F6E206F757470B5
:101A90007574732028706572206368616E6E656C62
:101AA000292E005265777269746520616C6C207212
:101AB00065677320666F7220656E74697265206257
:101AC0006F6172642E0044756D707320616C6C20C0
:101AD0007468652072656769737465727320666FD8
:101AE00072207468652041445246363531380044CE
:101AF000756D7073207468652072656769737465AD
:101B0000727320666F722074686520726567756CE9
:101B1000617220616E64205246204750494F580040
:101B200044756D707320616C6C20746865207265FB
:101B30006769737465727320666F722074686520BC
:101B4000414443313644583337302E004144463403
:101B50003335352F41444635333535206175746F43
:101B600063616C20656E61626C6520283120666F50
:101B70007220656E61626C65293E3E0041444634C8
:101B80003335352F41444635333535204469726548
:101B9000637420526567697374657220416363657D
:101BA0007373203C3C323862697420646174613E16
:101BB0003C3462697420616464726573733E3E00F4
:101BC00053656C656374732044534120417474659C
:101BD0006E756174696F6E2C2028303A2030644233
:101BE0006D202D3E203132373A2033312E37356487
:101BF000426D290053656C65637420504C4C204F36
:101C0000757470757420506F7765722028303A2093
:101C10002D3464426D2C20313A202D3164426D2CDC
:101C200020323A203264426D2C20333A203564420F
:101C30006D29004D7574657320746865204C4F20C4
:101C40004672657175656E63792053796E74686547
:101C500073697A6572207768656E207573656400B4
:101C600053656C656374732074686520636F72726A
:101C70006563742046696C7465722042616E6B20E6
:101C8000666F72206120676976656E206672657185
:101C900075656E637920696E206B487A00456E61C8
:101CA000626C652F44697361626C652056434F20F6
:101CB0004F7574707574204672657175656E6379C1
:101CC00020446F75626C65720053657420504C4CF3
:101CD0002056434F204F757470757420446976699F
:101CE0006465722076616C75652E20312C20322C53
:101CF00020342C2036202E2E2036320053657420BE
:101D0000504C4C20466565646261636B2044697683
:101D1000696465722076616C75652E203136207499
:101D20006F203532343235350053657420504C4CB9
:101D300020496E70757420446976696465722076F6
:101D4000616C75652E203120746F20313633383345
:101D50000053656C656374207468652074617267F4
:101D6000657420504C4C2028302920484D4338338E
:101D7000302028312920484D4338333300536574CF
:101D80007320426173652042616E64205661726106
:101D900063746F7220766F6C746167652028302DD4
:101DA0003430393629203056202D20322E35560039
:101DB000504C4C20496E7075742052656665726592
:101DC0006E6365204672657175656E637900537741
:101DD0006565707320484D433833332066726571F2
:101DE00075656E63792066726F6D20302E324748BC
:101DF0007A20746F203647487A20776974682061AA
:101E00002073746570206F662031304D487A00531E
:101E10006574732066726571206F6620484D433883
:101E20003333206F75747075742C20696E204B48A5
:101E30007A2E0042797061737320746865204C4E6D
:101E400041206F6E20746865206869676820626150
:101E50006E642E2042797061737328312920746872
:101E600065204C4E41206F72206E6F742830292EF1
:101E70000043686F6F7365207468652068696768E0
:101E80002028302E352D362047487A29206F7220A1
:101E90006C6F7720284443202D20302E3520474872
:101EA0007A292062616E642E20486967682831298A
:101EB000206F72206C6F772830292E0053657420B4
:101EC0005647412773207077722D6D6F64652062CD
:101ED00061736564206F6E204C5020636F726E6575
:101EE0007220667265712E20312069662066696CE9
:101EF000746572206D6F646520616E642033314DAE
:101F0000487A203C2042572C20656C73652036307F
:101F1000204D487A203C2042570053657420564794
:101F200041277320696E70757420616E616C6F67F4
:101F300020617474656E756174696F6E20696E20BE
:101F400064422E20476F6573207468726F756768EE
:101F500020414435363234522E00536574205647A2
:101F600041277320706F737420616D702067616901
:101F70006E2E20302D313A20332F3964422E0053FB
:101F8000657420564741277320616E616C6F67202E
:101F90006761696E2E20302E31644220636F6E744B
:101FA000726F6C6C65642C20496E7075743A2030C9
:101FB000202D2037323020282D3130326442202D20
:101FC000202D333064422900536574205647412741
:101FD00073206469676974616C206761696E2E2083
:101FE00033644220696E6372656D656E74732C2074
:101FF000496E7075743A2030202D203820283432F4
:102000006442202D20363664422900436865636BA4
:1020100020696620564741206761696E20697320F8
:10202000746F6F204869676820666F7220746865F6
:10203000204144432E2028303A204E6F2C20313A44
:1020400020596573290053656C65637420564741B8
:10205000204368616E6E656C2028303A20426F74B0
:10206000682C20493A20312C20513A20322900474F
:102070006574205647412773206761696E2E0053AF
:102080006574205647412773206761696E2E2028AA
:1020900043616C6C7320646761696E20616E6420BB
:1020A000616761696E292E20496E7075743A20301F
:1020B000202D20393520282D36306442202D203324
:1020C0003564422900536574205647412773204CDC
:1020D0005020636F726E6572206672657120696E42
:1020E000204D487A2E0042797061737320746865C0
:1020F000205647412773204C502066696C746572E6
:102100002E203120746F20656E61626C652E004E4A
:10211000756C6C20746865205647412773206F7575
:1021200074707574204443206F6666736574732EF3
:10213000203120746F20656E61626C652E005370D3
:102140006563696679207768696368206368616E92
:102150006E656C20612C622C632C64204F522062CF
:102160006974206D61736B2E204D5553542073702C
:1021700065636966792066697273742E00507269AE
:102180006E7473206F757420696E20766572626F4D
:102190007365206D6F64652E203120746F20656E2D
:1021A00061626C652E004E6F20617267756D656EA1
:1021B00074206E65636573736172792E00456E7469
:1021C00065722074686520626F6F746C6F616465FE
:1021D000722E00484D433833784C50364700444106
:1021E0004333384A38340053656C65637420474C78
:1021F00045206D6F64653A204D43555F474C452837
:10220000312920465047415F474C45283229004537
:102210006E61626C6573204A455344205359535292
:1022200045462047617465004F757470757420656C
:102230006E61626C65283129206F72206469736158
:10224000626C652830292E0050726F766964657360
:102250002074686520616D6F756E74206F66205202
:10226000414D206C65667420286279746573292E4F
:102270000050726F766964657320746865207465B8
:102280006D70657261747572652028302D31292E4C
:1022900000426C696E6B7320746865204C45442065
:1022A0006120737065636966696564206E756D622F
:1022B0006572206F662074696D65732E00507269B7
:1022C0006E7473206F75742074686520736F667404
:1022D0007761726520616E642068617264776172F3
:1022E000652076657273696F6E2E005475726E7319
:1022F0002065766572797468696E67206F66662EF0
:10230000005475726E206F66662070657269706821
:102310006572616C732E00506F776572206379630C
:102320006C65207065726970686572616C7320619C
:102330006E642072756E7320626F61726420696EC4
:1023400069742028706572206368616E6E656C29FF
:102350002E005475726E206F6666206F75747075EE
:1023600074732028706572206368616E6E656C29D5
:102370002E0052756E7320646961676E6F737469A5
:1023800063206F6E207065726970686572616C2081
:1023900028706572206368616E6E656C292E20530B
:1023A000686F756C64207072696E7420616C6C204B
:1023B0007265676973746572732E005475726E204E
:1023C0006F6E206F7574707574732028706572203D
:1023D0006368616E6E656C292E0052657772697450
:1023E0006520616C6C207265677320666F72206572
:1023F0006E7469726520626F6172642E005265743A
:1024000075726E73204D435520646576696365204F
:10241000696E666F726D6174696F6E2E004C6F63CA
:102420006B20446574656374696F6E204D656368E5
:10243000616E69736D0048656172746265617420D4
:10244000696E697469616C697A6174696F6E20661E
:10245000756E6374696F6E20746F2073657420638A
:102460006F756E74657220746F203000436F6D6DF0
:10247000616E6420666F7220726573657474696E34
:1024800067207468652063757272656E7420686574
:10249000617274626561742076616C7565206F6627
:1024A00020545820626F61726400436F6D6D616EDD
:1024B0006420666F72207468652063757272656E41
:1024C00074206865617274626561742076616C75F0
:1024D00065206F662074686520545820626F6172B1
:1024E000640044756D707320746865207265676957
:1024F000737465727320666F72207468652044413E
:102500004333384A38340044756D707320746865FD
:102510002072656769737465727320666F722074C8
:10252000686520726567756C617220616E64205207
:1025300046204750494F5800414446343335352FE3
:1025400041444635333535206175746F63616C20C5
:10255000656E61626C6520283120666F7220656E41
:1025600061626C65293E3E00414446343335352F67
:1025700041444635333535204469726563742052D1
:102580006567697374657220416363657373203C8A
:102590003C323862697420646174613E3C34626923
:1025A0007420616464726573733E3E00524620413C
:1025B0007474656E7561746F722053657474696E9E
:1025C000672028303A20306442202D3E20313237B7
:1025D0003A202D33312E373564422900504C4C209F
:1025E0004F757470757420506F7765722028303A7B
:1025F000202D3464426D2C20313A202D3164426DFF
:102600002C20323A202B3264426D2C20333A202B7E
:102610003564426D290053656C656374732074687A
:102620006520636F72726563742046696C746572AD
:102630002042616E6B20666F72206120676976654B
:102640006E206672657175656E637920696E206BA8
:10265000487A004D7574657320746865204C4F206E
:102660004672657175656E63792053796E7468651D
:1026700073697A6572207768656E2075736564008A
:10268000456E61626C652F44697361626C652056AA
:10269000434F204F7574707574204672657175656F
:1026A0006E637920446F75626C65720053657420A7
:1026B000504C4C2056434F204F7574707574204415
:1026C0006976696465722076616C75652E20312C9F
:1026D00020322C20342C2036202E2E20363200534F
:1026E000657420504C4C20466565646261636B20C4
:1026F000446976696465722076616C75652E203157
:102700003620746F203532343235350053657420ED
:10271000504C4C20496E707574204469766964652C
:10272000722076616C75652E203120746F203136F1
:102730003338330053656C656374207468652074A6
:10274000617267657420504C4C2028302920484D18
:10275000433833302028312920484D433833330063
:102760004E6565647320746F2062652063616C6CD4
:102770006564206C6173742E2053657473207468D3
:1027800065204951204D6F64756C61746F722E2005
:102790002869652E202D69203137202D7120313395
:1027A000202D6D29005365742074686520495120DF
:1027B0004D6F64756C61746F722051206269617332
:1027C00020766F6C746167652028696E2064562CD2
:1027D0002066726F6D20302D3234206456292E0011
:1027E00053657420746865204951204D6F64756C81
:1027F00061746F722049206269617320766F6C7416
:102800006167652028696E2064562C2066726F6DA2
:1028100020302D3234206456292E00504C4C20524A
:1028200065666572656E636520496E7075742028F3
:10283000696E206B487A290053657473206672654F
:1028400071206F6620484D43383333206F757470A4
:1028500075742C20696E204B487A2E004279706185
:10286000737320746865204C4E41206F6E2074682D
:102870006520686967682062616E642E2042797005
:1028800061737328312920746865204C4E41206F94
:1028900072206E6F742830292E0043686F6F736545
:1028A0002074686520686967682028302E352D36C9
:1028B0002047487A29206F72206C6F772028444384
:1028C000202D20302E352047487A292062616E6401
:1028D0002E2048696768283129206F72206C6F7735
:1028E0002830292E0052657475726E7320746865E5
:1028F000206F722764206C616E65206572726F7242
:1029000073206F6620746865206669727374203462
:10291000206C616E65730053657420746865207364
:10292000656C6563746564205461702076616C75B4
:102930006520666F722074686520536D616C6C2031
:102940004672616374696F6E616C2044656C617975
:1029500000536D616C6C204672616374696F6E61C7
:102960006C2044656C6179205461702073656C65DE
:1029700063746F72004C61726765204672616374A4
:10298000696F6E616C2044656C61792C20436F65C2
:102990006666696369656E74205365742073656C3F
:1029A000656374696F6E2E2028496E2044617461DE
:1029B00073686565742900536574207468652044E4
:1029C000697468657220416D706C69747564652CFA
:1029D0002030206973204D6178696D756D20283431
:1029E00020626974732900456E61626C652F4469C9
:1029F0007361626C6520446974686572204D697802
:102A0000657200456E61626C652F44697361626C2A
:102A10006520446974686572696E6700456E61621D
:102A20006C652F44697361626C6520496E766572CE
:102A300073652053696E632046696C746572005338
:102A40006D616C6C204672616374696F6E616C209D
:102A500044656C61792050617468205365747469B1
:102A60006E677300536D616C6C20467261637469AC
:102A70006F6E616C2044656C617920536574746974
:102A80006E6773004C61726765204672616374699A
:102A90006F6E616C2044656C617920536574746954
:102AA0006E677300514D43207068617365206F66D7
:102AB000667365742C203132626974732C202D305A
:102AC0002E35202D20302E34393937352C207265A3
:102AD00066657220746F20646174617368656574E3
:102AE00000514D43206761696E206F66667365749F
:102AF0002C203131626974732C20646563696D61C7
:102B00006C20706E742040206C656674206F6620A7
:102B1000626974392C2072616E67652030202D2027
:102B2000312E393939302C204C53423D302E303043
:102B3000303937363600514D43204443206F6666A6
:102B40007365742C203133626974732C206D656158
:102B5000737572656420696E20444143204C534272
:102B6000277300496E697469616C697A65732061C5
:102B70006E6420636F6E6669677572657320746832
:102B800065204A455344206C696E6B2E0044756D78
:102B900070206F757420616C6C206F66207468659E
:102BA000207265676973746572732E00476574736C
:102BB000207468652074656D7065726174757265E6
:102BC000206F6620746865204441432E00456E6185
:102BD000626C6520746865206D697865722E20319D
:102BE00020746F20656E61626C652E0053657420E1
:102BF000746865204E434F206C6F776572203332C6
:102C00002D626974732072656769737465722C2014
:102C1000777269746520746F2075707065722033E7
:102C2000322D6269747320666972737421212A2AB5
:102C30000053657420746865204E434F2075707092
:102C400065722033322D626974732072656769730F
:102C50007465722E005370656369667920776869C0
:102C6000636820696E7465726E616C204441432014
:102C70006368616E6E656C3A2028302D33292041DF
:102C80002D442E0053706563696679207768696307
:102C900068206368616E6E656C20612C622C632C09
:102CA000642C204F5220626974206D61736B2E205A
:102CB0004D55535420737065636966792066697257
:102CC00073742E00360CEA0BBA0B8A0B5F0B350BB4
:102CD0000E0BCC0AA00A7B0A670A360A0E0AEE0D12
:102CE000CB0DA00D890D470D140DEF0CDB0CAA0CBC
:102CF000820C650F420F170FF50EB30E8E0E7A0E73
:102D0000490E210E54107D109410B110AA108E118E
:102D10005C1126110A11DA10BA105D133E13F51278
:102D2000BA12A4128E12601234121412EB11B811DE
:102D300096158013D414B414831462144514FD132F
:102D4000A713961551153A152315101596158115CB
:102D500068159615811568150D16AA152C160D16F1
:102D6000D7154C1675168B163E21B616AD16A21643
:102D70003E216F173417FF16E116C1163E21A31A24
:102D8000841A3B1A1B1AE019CA19B41986195D195D
:102D90001619B418761829180918DD17B0173E212E
:102DA000201BEF1AC61A3E21711E331E0F1ECE1DA8
:102DB000B01D7D1D511D291DFC1CC91C9D1C601CC6
:102DC000331CF41BC01B7C1B4C1B3E210F21E62037
:102DD000C5207F206F2046200B20C81F7F1F5A1F51
:102DE0001A1FBC1E7D21A621BD21842CDE21D321EA
:102DF000842CDA23BB237223522317230123EB22D3
:102E0000BD2291227122482228220F22E721842C00
:102E1000AA246C2436241D24FD23842C0725E224B7
:102E2000842C9A285C2838281B28E027A5276027AF
:102E300034270C27DF26AC26802653261626DC25D1
:102E4000AC2568253825842C552C312CEC2BCD2B2A
:102E5000AC2B8D2B632B362BE12AA42A842A642ADF
:102E60003F2A1C2A032AE729B7297529512917293E
:102E7000E52811241FBECFEFCDBFDFE5DEBF00E0A8
:102E80000CBF19E3A0E0B0E2ECE5FCEF00E00BBF03
:102E900002C007900D92AE3CB107D9F722E4AEEC28
:102EA000B9E301C01D92A933B207E1F70E9449734B
:102EB0000C942C7E0C940000682F80E090E20E941D
:102EC000125C80E090E00895DF92EF92FF920F9302
:102ED0001F93CF93DF9300D0CDB7DEB780919000E2
:102EE0008983809191008A83809192008B838E01E7
:102EF0000F5F1F4F81E0E82E87E2F82E93E0D92E76
:102F0000D00EF80181918F011F928F93FF92EF9263
:102F10000E94E4770F900F900F900F90D012F1CF96
:102F20008AE090E00E94F67780E02396CDBFDEBF76
:102F3000DF91CF911F910F91FF90EF90DF90089557
:102F40006150710981099109D9F708959F92AF9253
:102F5000BF92CF92DF92EF92FF920F931F93CF9386
:102F6000DF9300EA16E024E0F801258398E09583DA
:102F700081E0868380E88583C12C36E0D32E42E051
:102F8000942EF601968250E8E52E56E0F52EF701D4
:102F90009582D0E2D5832683958390E496838583BA
:102FA00065E377EB8CE090E00E94A017F801958232
:102FB0006AE67EE689E190E00E94A0178AE10E941D
:102FC000CC5F9C0142ED51E467ED71E485EF91E443
:102FD0000E94DD4BC82F85EF91E40E94094BC80F7A
:102FE00060E085EF91E40E94D048C80F85EF91E43E
:102FF0000E94874BC80F6BE775E085EF91E40E9454
:10300000B849C80F65E372E880E090E00E94A0171D
:10301000F601958265E372E880E090E00E94A017D7
:103020008DE10E94CC5F8C0122ED31E447ED51E44B
:1030300063E270E287EF91E40E94E747C80F87EFF1
:1030400091E40E94984CC80F87EF91E40E94EE4BE8
:10305000C80F60E6A62E66E0B62EF501D683D583AE
:103060006AE171E480E090E00E94A0178CE10E9488
:10307000CC5F8C0122ED31E447ED51E462E270E275
:103080008BEF91E40E94E747C80F8BEF91E40E9419
:10309000984CC80F8BEF91E40E94EE4BC80F80E173
:1030A000F501868385836AE171E480E090E00E9407
:1030B000A017F601968295826AE171E480E090E0C3
:1030C0000E94A01788E10E94CC5F9C0142ED51E470
:1030D00067ED71E48DE192E40E94B719C80FF70122
:1030E00096826AE171E480E090E00E94A0178DE191
:1030F00092E40E944320C80F65E176E185E090E00C
:103100000E94A0178DE192E40E944350C80F60E531
:1031100073EC80E090E00E94A0178DE192E40E94A1
:103120008650C80F65E377EB8CE090E00E94A01713
:1031300063E070E08DE192E40E94931A60E573EC25
:1031400080E090E00E94A01789E10E94CC5F9C0182
:1031500042ED51E467ED71E48BE192E40E94B7190E
:10316000C80FF701D6836AE171E480E090E00E9425
:10317000A0178BE192E40E944320C80F65E176E13D
:1031800085E090E00E94A0178BE192E40E94674FD7
:10319000C80F60E573EC80E090E00E94A0178BE11F
:1031A00092E40E94AE4FC80F65E377EB8CE090E0AD
:1031B0000E94A01763E070E08BE192E40E94931AF2
:1031C00060E573EC80E090E00E94A01781E090E061
:1031D0000E94E54E8C2FDF91CF911F910F91FF90B0
:1031E000EF90DF90CF90BF90AF909F9008950F9396
:1031F0001F93CF93DF93C0E0D0E006E017E28C2F5F
:103200000E9489241F928F93DF93CF931F930F9374
:103210000E94E47721960F900F900F900F900F90DF
:103220000F90C630D10559F780E0DF91CF911F9103
:103230000F910895DF92EF92FF920F931F93CF9318
:10324000DF93CDB7DEB72B97CDBFDEBFCE010196A2
:103250000E94EF668E010F5F1F4F81E0E82E87E22C
:10326000F82E9BE0D92ED00EF80181918F011F928C
:103270008F93FF92EF920E94E4770F900F900F9040
:103280000F90D012F1CF8AE090E00E94F67780E0B4
:103290002B96CDBFDEBFDF91CF911F910F91FF9095
:1032A000EF90DF9008951F920F920FB60F921124A6
:1032B0000BB60F922F933F934F935F936F937F9330
:1032C0008F939F93AF93BF93EF93FF9380E090E230
:1032D0000E94225CFF91EF91BF91AF919F918F91DE
:1032E0007F916F915F914F913F912F910F900BBE06
:1032F0000F900FBE0F901F9018951F920F920FB650
:103300000F9211240BB60F922F933F934F935F931D
:103310006F937F938F939F93AF93BF93EF93FF939D
:1033200020E040E050E060E070E080E090E20E9449
:103330004C5CFF91EF91BF91AF919F918F917F91E5
:103340006F915F914F913F912F910F900BBE0F9016
:103350000FBE0F901F90189560E078E488EE91E022
:1033600008950C94AC190C94B1190C94B3190097EE
:1033700069F0FC012083318360930342709304421F
:10338000409301425093024280E0089581E0089505
:103390006150710981099109D9F708950C94B51903
:1033A000CF93DF93FC01DB01108282E08183848371
:1033B000C281D381842F86958770888362817381CF
:1033C00080E8489FA0011124E90188818770482B7B
:1033D000EB0149831C9282E111968C93119783E053
:1033E00014968C93149712962D913C911397828189
:1033F0009381EC018881E901888312962D913C919B
:10340000139782819381EC018981E9018983129666
:103410000D90BC91A02D0280F381E02D8181129648
:103420008C93DF91CF910895CF92DF92EF92FF922C
:103430000F931F93CF93DF93FC010E211F21108266
:1034400082E081838483A281B381C80196958795A8
:10345000E701D695C7959C2F9095E9015881952352
:10346000892B8C93A281B381079500270795E79458
:10347000EE24E794E0948981E822E02A1196EC9208
:103480000280F381E02DD6019C9197708181807834
:10349000982B842F8F70B8E08B9FA0011124492BAB
:1034A0004183EB011C82DF91CF911F910F91FF901F
:1034B000EF90DF90CF9008950F931F93462F50E029
:1034C0004830510568F5DC01FA010FEF1FEF20E0ED
:1034D0008827EC50FF4F8F4F0C94747540E050E0FC
:1034E00060E01BC04FE050E061E017C041E050E0F9
:1034F00062E013C04AE350E063E00FC04BE050E0ED
:1035000064E00BC040E250E065E007C041E050E0FD
:1035100066E003C040E050E067E0CD010E94034C4C
:103520001F910F910895AF92BF92CF92DF92EF92C9
:103530000F931F93CF93DF931F92CDB7DEB76C012C
:103540005B018BE389836091034270910442E12C1B
:1035500000E09E012F5F3F4F4FE551E08091014217
:10356000909102420E947D41D6018D919C914091A3
:103570000342509104426091014270910242DC0189
:10358000ED91FC911995F601808191814091034262
:10359000509104426091014270910242DC01ED9130
:1035A000FC911995811142C06091034270910442CF
:1035B000A50180910142909102420E946141F60171
:1035C0008081918140910342509104426091014277
:1035D00070910242DC01ED91FC91199560910342DA
:1035E00070910442DB011296ED91FC9113971281C8
:1035F0008AE389839E012F5F3F4F4FE551E0809121
:103600000142909102420E947D41F60180819181A8
:1036100040910342509104426091014270910242F4
:10362000DC01ED91FC911995812F01C082E00F9092
:10363000DF91CF911F910F91EF90DF90CF90BF90CE
:10364000AF900895AF92BF92CF92DF92EF920F9317
:10365000CF93DF931F92CDB7DEB76C015B01498337
:1036600063E070E00E94931AC114D10409F16091E3
:10367000034270910442E12C00E09E012F5F3F4F16
:10368000A50180910142909102420E947D41D601A4
:103690008D919C914091034250910442609101426E
:1036A00070910242DC01ED91FC91199580E001C01E
:1036B00081E00F90DF91CF910F91EF90DF90CF904D
:1036C000BF90AF9008954F925F926F927F92AF92AA
:1036D000BF92CF92DF92EF92FF920F931F93CF93FF
:1036E000DF930097A1F1142F5B01EC010E94931A64
:1036F000482E512C612C712CB701A601002E04C05C
:10370000440F551F661F771F0A94D2F740955095B6
:10371000609570954421552166217721812F90E095
:10372000A0E0B0E0C822D922EA22FB2204C0CC0CDF
:10373000DD1CEE1CFF1C0A95D2F74C295D296E2971
:103740007F29B501CE010E94221B80E001C081E0EB
:10375000DF91CF911F910F91FF90EF90DF90CF906D
:10376000BF90AF907F906F905F904F900895CF93F0
:103770006F3321E0720709F409C208F009C16E3104
:1037800021E0720709F4FEC108F086C06D3021E027
:10379000720709F423C208F040C0653021E07207C7
:1037A00009F41CC2E0F4611521E0720709F4E4C1D8
:1037B00048F46115710509F413C26230710509F40A
:1037C0000DC20AC2633021E0720709F407C208F093
:1037D000D7C1613021E0720709F4D0C1FDC1683062
:1037E00021E0720709F4C8C158F4663021E072077D
:1037F00009F4C8C1673021E0720709F4C5C1ECC102
:103800006B3021E0720709F4E9C108F0B9C16930F1
:1038100021E0720709F4B2C1DFC1653121E072070E
:1038200009F4DCC1F0F4603121E0720709F4A4C1AD
:1038300058F46E3021E0720709F4A4C16F3021E022
:10384000720709F4A1C1C8C1633121E0720709F40C
:10385000C5C108F095C1613121E0720709F48EC13C
:10386000BBC1693121E0720709F488C140F46731B6
:1038700021E0720709F488C108F07EC183C16C3170
:1038800021E0720709F47CC108F0A8C16B3121E086
:10389000720709F4A3C1A0C16F3221E0720709F4D5
:1038A00073C108F03FC0663221E0720709F46AC1B3
:1038B000F0F4613221E0720709F460C158F46F310D
:1038C00021E0720709F460C1603221E0720709F457
:1038D00053C182C1643221E0720709F451C108F07A
:1038E0007DC1633221E0720709F478C175C16B3282
:1038F00021E0720709F472C168F4683221E07207AE
:1039000009F43AC108F440C1693221E0720709F4B0
:1039100035C162C16D3221E0720709F45FC108F060
:1039200031C12EC1673321E0720709F42DC1C8F4FB
:10393000633321E0720709F451C158F4603321E088
:10394000720709F419C1613321E0720709F416C145
:1039500043C1653321E0720709F440C108F012C188
:103960000FC16B3321E0720709F406C148F46933D3
:1039700021E0720709F41AC108F030C1C1E231C177
:103980006D3321E0720709F425C108F00FC126C18B
:103990006C3521E0720709F411C108F079C06E346A
:1039A00021E0720708F042C06C3421E0720708F091
:1039B00015C1653421E0720709F4EEC0E0F4623409
:1039C00021E0720709F402C158F4603421E0720763
:1039D00009F4ECC0613421E0720709F4FFC0FCC0B7
:1039E000633421E0720709F4D3C0643421E0720724
:1039F00009F4F4C0F1C0683421E0720709F4E0C0B2
:103A000060F4663421E0720709F4EAC0673421E00B
:103A1000720709F0E1C0C8E1E4C06A3421E072072E
:103A200009F4DCC008F4CCC0C6E1DBC0643521E099
:103A3000720709F4B3C0B8F4603521E0720709F4E5
:103A4000B5C058F46E3421E0720709F4A3C06F3496
:103A500021E0720709F4A0C0BFC0613521E0720700
:103A600009F4AEC0BBC0683521E0720709F496C006
:103A700030F4663521E0720709F490C0AFC06A35B2
:103A800021E0720709F48CC008F4A8C0CEE1A9C0F7
:103A90006B3621E0720709F48FC0A8F5653621E086
:103AA0007207F8F4633621E0720708F097C06F35AB
:103AB00021E0720709F476C058F46D3521E07207F1
:103AC00009F480C06E3521E0720709F487C084C014
:103AD000613621E0720709F467C008F47FC0C4EAC8
:103AE00080C0683621E0720730F4663621E0720744
:103AF00008F074C05BC0693621E0720709F458C051
:103B000008F058C053C0643721E0720709F45AC066
:103B1000A8F46E3621E0720709F450C008F45EC0C4
:103B2000623721E0720709F44BC008F057C06137D3
:103B300021E0720709F050C0CAEA53C0633821E09F
:103B4000720709F443C070F46D3721E07207E1F1A8
:103B5000623821E07207D1F16C3721E07207E1F59C
:103B6000C5E13FC0653821E07207A1F188F16838EE
:103B700021E0720799F130C0CFE033C0C8E831C00E
:103B8000C8E02FC0C2EB2DC0C5E52BC0C9E029C0DD
:103B9000CDE527C0C0EC25C0CFE723C0C1E021C0E0
:103BA000C5E01FC0CBE31DC0C4E01BC0C3E019C00B
:103BB000C9E517C0CFE115C0CDEB13C0CBE111C0F3
:103BC000C2E00FC0CAE00DC0C3E30BC0C6E009C02D
:103BD000C0E507C0CDE005C0C0E006C0C0E001C040
:103BE000C0E14C2F0E94221B8C2FCF910895CF93C0
:103BF0006F3321E0720709F415C208F00CC16E3171
:103C000021E0720709F40AC208F086C06D3021E095
:103C1000720709F41DC208F040C0653021E0720748
:103C200009F416C2E0F4611521E0720709F4F0C14D
:103C300048F46115710509F41FC26230710509F479
:103C400019C216C2633021E0720709F413C208F0EA
:103C5000E3C1613021E0720709F4DCC109C26830B8
:103C600021E0720709F4D4C158F4663021E07207EC
:103C700009F4D4C1673021E0720709F4D1C1F8C159
:103C80006B3021E0720709F4F5C108F0C5C1693055
:103C900021E0720709F4BEC1EBC1653121E0720772
:103CA00009F4D6C1F0F4603121E0720709F4B0C123
:103CB00058F46E3021E0720709F4B0C16F3021E092
:103CC000720709F4ADC1D4C1633121E0720709F470
:103CD000D1C108F0A1C1613121E0720709F49AC194
:103CE000C7C1693121E0720709F494C140F467311A
:103CF00021E0720709F494C108F08AC18FC16C31C8
:103D000021E0720709F488C108F0A2C16B3121E0FB
:103D1000720709F4AFC1ACC16F3221E0720709F438
:103D20007FC108F03FC0663221E0720709F476C116
:103D3000F0F4613221E0720709F46CC158F46F317C
:103D400021E0720709F46CC1603221E0720709F4C6
:103D50005FC18EC1643221E0720709F45DC108F0D1
:103D600077C1633221E0720709F484C181C16B32EB
:103D700021E0720709F47EC168F4683221E072071D
:103D800009F446C108F44CC1693221E0720709F414
:103D900041C16EC16D3221E0720709F459C108F0CA
:103DA0003DC13AC1673321E0720709F439C1C8F453
:103DB000633321E0720709F45DC158F4603321E0F8
:103DC000720709F425C1613321E0720709F422C1A9
:103DD0004FC1653321E0720709F43AC108F01EC1F2
:103DE0001BC16D3321E0720758F46B3321E0720779
:103DF00008F040C1693321E0720709F42BC11CC1EE
:103E00006D3321E0720709F431C16E3321E072078E
:103E100009F410C12DC16C3521E0720709F418C1F5
:103E200008F079C06E3421E0720708F042C06C34AB
:103E300021E0720708F01EC1653421E0720709F421
:103E4000F7C0E0F4623421E0720709F40BC158F4C2
:103E5000603421E0720709F4FDC0613421E072078B
:103E600009F408C105C1633421E0720709F4DCC01C
:103E7000643421E0720709F4FDC0FAC0683421E01F
:103E8000720709F4E7C060F4663421E0720709F4B0
:103E9000F3C0673421E0720709F0EAC0C8E1EDC061
:103EA0006A3421E0720709F4E5C008F4D3C0C6E122
:103EB000E4C0643521E0720709F4BEC0B8F460358F
:103EC00021E0720709F4B6C058F46E3421E072079D
:103ED00009F4ACC06F3421E0720709F4A9C0C8C06E
:103EE000613521E0720709F4B5C0C4C0683521E02E
:103EF000720709F4A1C030F4663521E0720709F4B5
:103F00009BC0B8C06A3521E0720709F497C008F475
:103F1000B1C0CEE1B2C06B3621E0720709F496C0A1
:103F2000A8F5653621E07207F0F4633621E07207E8
:103F300008F0A0C06F3521E0720709F481C058F481
:103F40006D3521E0720709F487C06E3521E07207F4
:103F500009F490C08DC0613621E0720709F472C087
:103F600008F070C087C0683621E0720730F466360A
:103F700021E0720708F07EC079C0693621E072073F
:103F800009F462C008F472C0CFE177C0643721E061
:103F9000720709F461C0F8F46E3621E0720709F483
:103FA00057C058F46C3621E0720709F451C06D36E1
:103FB00021E0720709F452C05BC0623721E072074A
:103FC00009F448C008F056C0613721E0720709F0D3
:103FD0004FC0CAEA52C0633821E0720709F442C0F8
:103FE00068F46D3721E07207D9F1623821E0720779
:103FF000C9F16C3721E0720789F13AC0653821E0D8
:104000007207A1F188F1683821E0720799F130C098
:10401000C8E033C0C8E831C0C8E22FC0C2EB2DC031
:10402000C5E52BC0C9E029C0CEE527C0C0EC25C03E
:10403000CFE723C0C3E021C0C1E01FC0C1E41DC061
:10404000CBE31BC0C4E019C0C1E517C0CDEB15C060
:10405000CBE113C0C2E011C0CAE00FC0C5E10DC082
:10406000C3E30BC0C6E009C0C0E507C0CDE005C092
:10407000C0E006C0C0E001C0C0E14C2F0E94221B7E
:104080008C2FCF910895CF93DF93009701F1EC012E
:1040900040E860E070E00E94221B40E160E070E0D8
:1040A000CE010E94221B40E062E070E0CE010E943F
:1040B000221B43E069E471E0CE010E94221B4BE326
:1040C0006FE571E0CE010E94221B80E001C081E01B
:1040D000DF91CF910895CF93DF93EC0164E00E94CC
:1040E000B04D9F938F938EE597E29F938F930E949D
:1040F000E47764E0CE010E94B04D292F30E02170BA
:1041000033273F932F9385E19AE29F938F930E94E9
:10411000E4778DB79EB708968DBF9EBF80E0DF9194
:10412000CF9108950F931F93CF93DF930097F1F0F2
:104130008B01EC016230710530F08BE697E20E9452
:10414000FC7783E014C064E00E94B04D482F012B3F
:1041500011F0426001C04D7F50E00FEF1FEF20E0F3
:1041600064E0CE010E94034C80E001C081E0DF9159
:10417000CF911F910F910895CF92DF92EF92FF920E
:104180000F931F93CF93DF931F92CDB7DEB70097A6
:1041900011F16C0166E00E94B04D382F3D7FE32E97
:1041A000F12C0FEF1FEF20E0A70166E0C601398375
:1041B0000E94034C39813260432F50E020E066E0DA
:1041C000C6010E94034C20E0A70166E0C6010E94E0
:1041D000034C80E001C081E00F90DF91CF911F91EF
:1041E0000F91FF90EF90DF90CF900895EF92FF92A4
:1041F0000F931F93CF93DF930097C9F0EC0166E014
:104200000E94B04D7C01E894E0F8FF240FEF1FEF0F
:1042100020E0A70166E0CE010E94034CA7014160A7
:1042200020E066E0CE010E94034C80E001C081E006
:10423000DF91CF911F910F91FF90EF90089500971C
:10424000B1F067E00E94B04D880F892F881F990B4D
:1042500091959F938F9385E19AE29F938F930E940C
:10426000E4770F900F900F900F9080E0089581E019
:10427000089590915100982381E009F480E0089519
:10428000CF93C82F8C2F0E9439218823D9F3CF9147
:10429000089508958FBF08958FB7F8940895CF9328
:1042A000C82F0E944C21E0E5F0E020819C2F9095E2
:1042B00092239083CF910C944A21CF93C82F0E94D0
:1042C0004C21E0E5F0E090819C2B9083CF910C9401
:1042D0004A21883011F00C945D210895CF93DF932B
:1042E000C82FD62F0E944C21EC2FF0E0E059FF4F51
:1042F0006081D62BD083DF91CF910C944A211F93FC
:10430000CF93DF931F92CDB7DEB7182F69830E943A
:104310004C21E12FF0E0E059FF4F698160959081D9
:10432000692360830F90DF91CF911F910C944A21F4
:104330008FEF809370008093710080937200809360
:10434000730080937400809375008093760082E000
:104350000E94692182E00E94402161E080E490E0B7
:104360000E94407581E00C944F21FC01848195816D
:10437000019741F56115710529F18081918146818F
:10438000578141505109481B590B2281338128170D
:10439000390728F42F5F3F4F240F351F02C0281B19
:1043A000390B2617370770F04617570728F4641B98
:1043B000750B6150710902C0680F791F60837183AA
:1043C00080E0089581E00895FC01428153812081BD
:1043D00031812417350758F4421B530B268137814E
:1043E0002150310981E04217530740F406C0241BD5
:1043F000350B81E02130310509F080E00895CF933D
:10440000DF93EC014C815D812A813B81429FC00199
:10441000439F900D529F900D112428853985820F5E
:10442000931F0E94DB77CE010E94E4212E813F8101
:10443000882351F088819981019688839983821716
:10444000930710F0188219828A819B8101968A83D2
:104450009B838217930710F01A821B82CE010E9461
:10446000E42191E08927DF91CF910895FC0181E05B
:1044700040815181228133814217530709F080E046
:1044800008950F931F93CF93DF93EC018B010E944C
:10449000362281111FC04C815D8188819981489F9E
:1044A0009001499F300D589F300D11246885798502
:1044B000620F731FC8010E94DB7788819981019682
:1044C000888399832E813F818217930728F0188271
:1044D000198202C080E001C081E0DF91CF911F917D
:1044E0000F910895AF92BF92CF92DF92EF92FF9219
:1044F0000F931F93CF93DF931F92CDB7DEB7009733
:1045000011F480E021C061157105D9F36A017B01C6
:104510008C01A12CB12CAC14BD0499F3BE016F5FCA
:104520007F4FC8010E944122811102C081E00CC06E
:10453000BE016F5F7F4FC7010E94FF218823B1F347
:104540008FEFA81AB80AE7CF0F90DF91CF911F9194
:104550000F91FF90EF90DF90CF90BF90AF900895B4
:10456000FC0182819381408151818417950720F459
:1045700026813781820F931F841B950B0895EF923C
:10458000FF920F931F93CF93DF93009709F46AC0B4
:10459000EC010E943622811165C02A813B8189018C
:1045A000E12CF12C688179816217730709F449C005
:1045B00088859985FC01E20FF31F4081483071F036
:1045C0000115110511F40E811F81015011092115EA
:1045D000310511F42E813F812150310940E050E036
:1045E000FA01EE0DFF1DDC01A20FB31FAC91A83044
:1045F00019F060E070E016C062177307D1F34F5FE7
:104600005F4F2115310511F42E813F812150310971
:10461000E7CF2115310511F42E813F812150310959
:104620006F5F7F4F64177507A1F7DC01A20FB31FFF
:104630004C91483021F0DC01A00FB11F4C937F0159
:10464000B1CFCE010E94B02296958795E816F90663
:1046500018F40883198304C01A821B8218821982F5
:1046600080E001C081E0DF91CF911F910F91FF9019
:10467000EF9008950F931F93CF93DF93FC01248154
:10468000358121303105F9F48B01EC010E94B02213
:1046900008171907C0F428813981B801620F731F08
:1046A0008E819F81288539856817790738F0AB019D
:1046B000481B590BF901E40FF51F03C0F901E60F80
:1046C000F71F808101C080E0DF91CF911F910F9192
:1046D0000895AF92BF92DF92EF92FF920F931F93D4
:1046E000CF93DF93009721F10115110509F1DC014A
:1046F0001696ED91FC911797E217F307C8F0EA01BF
:10470000D62E5C017901E40EF51ECE15DF0581F091
:10471000BE01C5010E943A239E012F5F3F4F8D11BC
:1047200005C0F801C083D18380E003C0E901EDCF6B
:1047300081E0DF91CF911F910F91FF90EF90DF907B
:10474000BF90AF9008958F929F92AF92BF92CF92F9
:10475000DF92EF92FF920F931F93CF93DF93FC01B1
:10476000248135812130310509F040C05A016B01A7
:104770007C010E94B0224C01F60100811181EC0104
:104780002197B801C7010E943A239FED980F9E35EB
:1047900050F48D3241F0E8010815190551F0F60189
:1047A0000083118306C00C171D07A8F70F5F1F4F6A
:1047B000E8CF840101501109BE01C7010E943A23CC
:1047C00081528E3560F0C815D90571F0F6018081EF
:1047D0009181C81BD90BF501C083D18305C0C017D7
:1047E000D10788F72196E8CF80E001C081E0DF9112
:1047F000CF911F910F91FF90EF90DF90CF90BF90DE
:10480000AF909F908F9008955F926F927F928F925A
:104810009F92AF92BF92CF92DF92EF92FF920F934F
:104820001F93CF93DF93FC01248135812130310523
:1048300051F57B018C010E94B0223C01C0E0D0E028
:10484000C615D70501F16E01570145018E189F0865
:10485000F50151905F01552069F0C614D70479F035
:10486000B601C8010E943A23FFEFCF1ADF0A58129F
:1048700006C0EBCF892839F0CE01019606C0892801
:1048800011F02196DDCF80E090E0DF91CF911F9174
:104890000F91FF90EF90DF90CF90BF90AF909F90DF
:1048A0008F907F906F905F900895FC01108211822D
:1048B000128213820895FC011082118212821382E7
:1048C0004483558326833783608771870895FC016D
:1048D00080E090E0262F30E0D901082E02C0B59587
:1048E000A7950A94E2F7A0FF05C0DF01A80FB91F42
:1048F00050965C9301968830910571F740FF07C090
:1049000041FF02C0658301C06683618308956283AD
:1049100008950F931F93CF93DF931F92CDB7DEB708
:1049200089830E94506700EC11E08981F80180833F
:1049300087E00E943A67F80184810F90DF91CF9160
:104940001F910F9108952F923F924F925F926F9215
:104950007F928F929F92AF92BF92CF92DF92EF920F
:10496000FF920F931F93CF93DF93CDB7DEB72A97B4
:10497000CDBFDEBF4B015C011A012B833C830A874C
:104980006B017C01CC24E894D0F8AB81BC81AB2BCB
:1049900009F46FC00E9450672601370100E011E062
:1049A0001D822A85222359F0C301B2010E9421678A
:1049B00089839A83019639F021E02D8304C08FEF1B
:1049C0009FEF89839A83D301C2010296A11DB11D75
:1049D0008E839F83A887B987AB81BC81109761F1D3
:1049E00084149504A604B70481F41197AB83BC83A7
:1049F000BFEF8B1A9B0AAB0ABB0AF10181911F0121
:104A000089838B819C81892BB9F0D301C2010196E6
:104A1000A11DB11D88159905AA05BB0569F4AB81D7
:104A2000BC811197AB83BC838E809F80A884B9849E
:104A3000F10181911F018A8349815A81C301B20129
:104A40001E940F004E805F806884798401501109A4
:104A500009F0A7CF2D81C701B601222319F00E94CA
:104A6000A16702C00E94B96782E0D80EE11CF11C68
:104A70008CCF2A96CDBFDEBFDF91CF911F910F91D2
:104A8000FF90EF90DF90CF90BF90AF909F908F906E
:104A90007F906F905F904F903F902F9008952F924E
:104AA0003F924F925F926F927F928F929F92AF92BE
:104AB000BF92CF92DF92EF92FF920F931F93CF930B
:104AC000DF931F921F92CDB7DEB75A0179016B01B8
:104AD00010E088248A94982CE114F10409F44DC064
:104AE000412C512C32011201002379F0C2010E94A5
:104AF00036678983C20101960E9436678A8389815D
:104B00009A81019621F011E002C089829A82E11413
:104B1000F10401F1C214D30469F481E0E81AF10848
:104B2000EFEFCE1ADE0AF50181915F018983E1146E
:104B3000F10481F0C10101968C159D0559F4F1E055
:104B4000EF1AF108610122E0C20ED11CF50181913A
:104B50005F018A8349815A81C301B2011E940F000B
:104B6000F2E04F0E511C611C711C411422E05206F0
:104B70006104710409F0B7CFAFCF11110E9499679A
:104B80000F900F90DF91CF911F910F91FF90EF90B9
:104B9000DF90CF90BF90AF909F908F907F906F905D
:104BA0005F904F903F902F900C949167EF92FF92FF
:104BB0000F931F93CF93DF9371707A01E20EF31E70
:104BC000EA018B01041B150BCE01800F911FCE153E
:104BD000DF0521F00E9436678993F6CFDF91CF91F0
:104BE0001F910F91FF90EF900895CF92DF92EF9277
:104BF000FF920F931F93CF93DF936B017C01EA0128
:104C000089010E9450670C0F1D1FC017D10759F072
:104C1000C701B6010E94266789938FEFC81AD80A88
:104C2000E80AF80AF2CFDF91CF911F910F91FF9020
:104C3000EF90DF90CF900895CF92DF92EF92FF92A6
:104C40001F93CF93DF93C0ECD1E01A85EAE3EA87A4
:104C50006883C72ED82EE92EFF24C982AA27BB2736
:104C60008A832C83BB27A52F942F832F8D83CA0182
:104C7000AA27BB278E8361E08BEC91E00E944075F0
:104C80001A87DF91CF911F91FF90EF90DF90CF9027
:104C900008950E94506780E30C943A67CF93DF93A6
:104CA0001F92CDB7DEB789830E945067898120E2C9
:104CB000829FC0011124E0ECF1E012829183808395
:104CC00082E30F90DF91CF910C943A67CF93DF93FB
:104CD0001F92CDB7DEB789830E945067898120E299
:104CE000829FC0011124E0ECF1E012829183808365
:104CF00084E30F90DF91CF910C943A67CF93DF93C9
:104D00001F92CDB7DEB789830E945067898120E268
:104D1000829FC0011124E0ECF1E012829183808334
:104D200085E30F90DF91CF910C943A67CF93DF9397
:104D30001F921F92CDB7DEB76A8389830E945067A6
:104D40000E9430678981E82FF0E0F05F6A8160831C
:104D50000F900F90DF91CF910C942A670F931F93C0
:104D6000CF938C010E945067C0E0F80161918F01E0
:104D70008C2F0E949626CF5FC032B9F7CF911F913A
:104D80000F9108950E9450678091CF0181FF05C067
:104D900086E38093CA010C944B670895CF93DF9309
:104DA000D82F0E94C2260E945067C0E06D2F8C2F22
:104DB0000E949626CF5FC032C9F7DF91CF91089548
:104DC0008FEF0E94CE260C944926CF93C82F8FEFE9
:104DD0000E94CE268C2FCF910C944E262F923F927C
:104DE0004F925F926F927F928F929F92AF92BF92FB
:104DF000CF92DF92EF92FF920F931F93CF93DF93A7
:104E0000CDB7DEB76897CDBFDEBF009709F4A3C06A
:104E1000672B09F4A3C04115510509F4A2C00A8B00
:104E20001B8B122F4A017C011D821E820E94B02220
:104E3000212F30E02E873F8789010E5F1F4FBC0175
:104E400061507109C7010E943A238D30E1F4C70116
:104E50000E94BF22C7010E94B022888B998BAE01AD
:104E60004D5F5F4FBE016B5F7F4FC7010E94A32361
:104E70008F83811108C06B807C80AD80BE8024014F
:104E8000C12CD12C26C00F839AC2D201ED91FC9186
:104E9000E00FF11F3080332069F0B8016A0D7B1DEF
:104EA000C7010E943A23831105C00F5F1F4F0615EB
:104EB000170559F7F20180819181FC01E00FF11F84
:104EC0008081F6E04F0E511C882359F02FEFC21A53
:104ED000D20A8E859F85C816D90618F400E010E026
:104EE000E6CFB501C7010E943A238C3641F038E283
:104EF000432E36E2532E85010852164212C0B501E8
:104F00006F5F7F4FC7010E943A23833781F7C70144
:104F10000E94B022BC01C7010E94B5218AEB97E232
:104F200068C1B801640D751DC7010E943A23D20102
:104F30009D912D01891318C0BCE24B16B6E25B06A9
:104F400081F7C7010E94B022BC01C7010E94B521B0
:104F50008BED97E24EC1B1E0BF8331C2E1E0EF8358
:104F60002EC2F1E0FF832BC2A60CB71CA982BA8225
:104F700086E08C9DA0018D9D500D11249401240F7D
:104F8000351F288739871C861D86A12CB12CEE85FC
:104F9000FF85EC15FD0509F4EDC049815A8128898A
:104FA0003989241B350B8E010F5F1F4F6DE2C7013E
:104FB0000E946923882329F0A114B10409F0E7C0F5
:104FC000EAC0A114B10409F0E2C0AE014D5F5F4F29
:104FD000BE016F5F7F4FC7010E94A3232B813C81DD
:104FE0002A873B87232B99F2A980BA80B5016150AB
:104FF0007109C7010E943A238D3271F4B5016250E4
:105000007109C7010E943A2321E090E08D3209F036
:1050100020E0622E792E02C0612C712CA885B98502
:1050200014968C91282F30E02C8B3D8B812C912C69
:10503000212C312C2C893D892216330608F084C09E
:10504000A885B98512960D911C911397B1E06B1646
:10505000710451F5F801E80DF91D42805380A20159
:1050600000E010E0DA012D91AD012223A9F0B80192
:105070006A0D7B1DC701288F4E8B5F8B0E943A23E0
:10508000288D4E895F89821307C00F5F1F4F2A85C5
:105090003B850217130731F7F201E00FF11F808102
:1050A000882309F4B1C00BC0B501C7010E943A239F
:1050B000F801E80DF91D9481891709F4A5C0FFEFE7
:1050C0002F1A3F0A21E1820E911CB4CF80E090E0BC
:1050D000980124523E4B4901D9011C92892B09F0B9
:1050E000CAC0B1E1B29DF001B39DF00D1124A885B5
:1050F000B98512968D919C911397E80FF91F8781BE
:105100009085A185B28585879687A787B08BA98270
:10511000BA822A853B852B833C8321E1229DF001C5
:10512000239DF00D1124A885B98512968D919C912F
:105130001397E80FF91F0190F081E02D1995EA8986
:10514000FB899081890F8083A885B98514968C91FD
:1051500090E031E020E08215930509F030E0A32EC5
:10516000B22E29813A818B819C81820F931F898382
:105170009A830DCF28893989232B09F40CC182E940
:1051800097E20E94FC77A114B10409F410C182E9EE
:1051900097E20E94FC77C7010E94B022BC01C701C0
:1051A0000E94B52188899989892B29F1AB2851F46E
:1051B000AE85BF85AC15BD0529F0EC85FD85EF2BCF
:1051C000D1F408C02C853D85232B21F031E03C0D26
:1051D0003F83F5C024E030E04DE065EB77E2A88541
:1051E000B9858D919C910E9482728F838111EECF3F
:1051F000E6C00E94FC778BE297E29F938F930E9418
:10520000E4770F900F90DBC08C859D8501968C878D
:105210009D878A859B858A0D9B1D89839A83AE0114
:105220004D5F5F4FBE016F5F7F4FC7010E94A32399
:105230004B805C8089819A812CED622E21E4722E54
:1052400000E010E0DC01AC5DB1444D010415150532
:1052500081F04114510409F439CFB401660D771D72
:10526000C7010E943A23F30181933F010F5F1F4F53
:10527000EDCFC8012DCF69807A80B30161507109EB
:10528000C7010E943A238D3209F42BCF31E1329DC0
:105290005001339DB00C1124A885B9851296ED916B
:1052A000FC911397EA0DFB1D8681811106C03D9686
:1052B000FF93EF93ABE8B7E23FC0813021F43D9616
:1052C000FF93EF9357C0823079F5A80141505109FF
:1052D000F4013197808190EE980F9F35A0F0FA018C
:1052E000E452FE4B1082E885F98582819381FC01AE
:1052F000EA0DFB1D6DED71E4838594850E94DB77DB
:105300000B831C830ACF873251F30931110538F71B
:10531000B801660D771DC7010E943A23D4018D9311
:105320004D010F5F1F4FD1CF833009F0F6CE3D9670
:10533000FF93EF93A8E9BAE2BF93AF93ACEDB1E46A
:10534000BF93AF930E9428780F900F900F900F900B
:105350000F900F90892B09F0E0CEA885B9851296A1
:105360008D919C911397A80EB91EBDE0AB0EB11C98
:10537000BF92AF92AFE8B7E2BF93AF93ACEDB1E4A9
:10538000BF93AF930E9428780F900F900F900F90CB
:105390000F900F90C2CEA114B10409F0F8CEC7014E
:1053A0000E94B022BC01C7010E94B52124CFC701D1
:1053B0000E94B022BC01C7010E94B521F9CE8F81A5
:1053C0006896CDBFDEBFDF91CF911F910F91FF9007
:1053D000EF90DF90CF90BF90AF909F908F907F9095
:1053E0006F905F904F903F902F9008951092FF41E3
:1053F0001092004280E00895809123259091242509
:105400002091FF4130910042821B930B01968093C3
:10541000FF419093004280E0089580E0089580E08D
:10542000089580E0089580E0089580E0089580E088
:10543000089580E00895809100428F938091FF410C
:105440008F9384E099E39F938F930E94E4778091F8
:10545000FF419091004201968093FF41909300425A
:105460000F900F900F900F9080E00895809125206D
:105470001F928F9383E098E29F938F930E94E4772B
:10548000809124201F928F938DE198E29F938F93B8
:105490000E94E4778091492190914A21A0914B216B
:1054A000B0914C212DB73EB7285F3F4F2DBF3EBF77
:1054B00081309105A105B10511F481E00CC0823065
:1054C0009105A105B10511F483E005C00397A1057D
:1054D000B10529F484E080932520809324208091D5
:1054E00025201F928F9387E398E29F938F930E94CA
:1054F000E477809124201F928F938DE498E29F930C
:105500008F930E94E4778DB79EB708968DBF9EBF9C
:1055100080E00895CF93DF9300D01F92CDB7DEB720
:10552000CE010196092E000CAA0BBB0B4091314213
:10553000509132424115510511F449E352E4052ED0
:10554000000C660B770B841B950BA60BB70BBF9358
:10555000AF939F938F9383E698E29F938F930E94DC
:10556000E4770F900F900F900F900F900F9080E0C6
:105570002496CDBFDEBFDF91CF910895E0E7F0E242
:1055800081A18F9380A18F93878D8F93868D8F9329
:1055900088E798E29F938F930E94E4770F900F9093
:1055A0000F900F900F900F9080E008950F931F932E
:1055B000CF93DF93C0911621CB30D8F480E1809354
:1055C000A606D0E0CC0FDD1F10E000E1812F90E0B7
:1055D0008C179D0754F465E176E185E090E00E9428
:1055E000A0170093A7061F5FF1CF80E18093A60666
:1055F00008C086E898E29F938F930E94E4770F900B
:105600000F9080E0DF91CF911F910F9108950E943C
:10561000E25F882341F08EE898E29F938F930E9487
:10562000E4770F900F9080E008950E94A61794E011
:105630009093A50698E09093A50692E09093A60615
:1056400090930606882341F08EE898E29F938F930B
:105650000E94E4770F900F9080E008950E94A617B3
:10566000882341F08EE898E29F938F930E94E4771D
:105670000F900F9080E008950E946365882341F0A9
:105680008EE898E29F938F930E94E4770F900F909B
:1056900080E008958091FD25813049F086E998E207
:1056A0009F938F930E94E4770F900F9004C00E9405
:1056B0009D4E8111F3CF80E0089580914525909112
:1056C0004625A0914725B09148258B309105A1052D
:1056D000B10531F185319105A105B10539F18C3064
:1056E0009105A105B105F1F04697A105B10501F1BC
:1056F0008FEA98E20E94FC7761E08DE192E40E94DB
:105700008F4462E08DE192E40E948F448CEC98E239
:105710000E94FC7761E08BE192E40E948F4408C014
:1057200061E001C062E08DE192E405C061E001C08A
:1057300062E08BE192E40E948F4480E00895CF9371
:10574000DF931F921F92CDB7DEB7AE014F5F5F4F61
:1057500061E080E092E00E947E688A818F93898177
:105760008F9388EE98E29F938F930E94E477AE0127
:105770004F5F5F4F62E080E092E00E947E688A8126
:105780008F9389818F9386EF98E29F938F930E94E6
:10579000E477CDBFDEBF80E00F900F90DF91CF9117
:1057A000089580915A2190915B21A0915C21B09144
:1057B0005D2181309105A105B10539F460916B211E
:1057C00070916C218DE192E40AC00297A105B105A8
:1057D00011F560916B2170916C218BE192E40E9434
:1057E000931A1F928F9384E099E29F938F930E9464
:1057F000E4770F900F900F900F9083E090E0A0E07F
:10580000B0E080935A2190935B21A0935C21B093E8
:105810005D2180E0089585E199E20E94FC7781E0B6
:10582000089561E08091D0229091D122A091D2225E
:10583000B091D322892B8A2B8B2B09F460E08091C5
:10584000AF219091B021A091B121B091B2218130CE
:105850009105A105B10519F48BEF91E406C00297FB
:10586000A105B105B9F487EF91E40E94B04D880F0E
:10587000892F881F990B91959F938F9388E399E2C5
:105880009F938F930E94E4770F900F900F900F904B
:1058900080E0089581E499E20E94FC7781E0089518
:1058A000EF92FF920F931F93CF93DF9383E699E2DA
:1058B0000E94FC778FEA98E20E94FC7761E08DE11C
:1058C00092E40E948F4462E08DE192E40E948F4452
:1058D00080E899E20E94FC7761E08DE192E40E9409
:1058E0004D4662E08DE192E40E944D468CEC98E2D8
:1058F0000E94FC7761E08BE192E40E948F4462E0B9
:105900008BE192E40E948F448EE999E20E94FC7739
:1059100061E08BE192E40E944D4662E08BE192E40B
:105920000E944D468091880681701F928F938BEB69
:1059300099E29F938F930E94E477809188068295E5
:1059400081701F928F9389ED99E29F938F930E94AC
:10595000E47761E08BEF91E40E94B04DEC0161E0EF
:105960008BEF91E40E94B04DDF93CF939F938F9381
:1059700088EF99E29F938F930E94E47761E087EF2D
:1059800091E40E94B04DEC0161E087EF91E40E9448
:10599000B04DDF93CF939F938F938DE19AE29F93C6
:1059A0008F930E94E47763E070E08DE192E40E94BF
:1059B000931A1F928F9382E49AE29F938F930E948F
:1059C000E47763E070E08BE192E40E94931A1F9207
:1059D0008F9381E69AE29F938F930E94E4778AE007
:1059E00090E00E94F6778FE79AE20E94FC778DB7ED
:1059F0009EB74C968DBF9EBFC0E0D0E005E91AE28D
:105A00007CE8E72E7AE2F72ECE0103978D3F9105D1
:105A1000F0F0CE0183709927892B51F4DF93CF9357
:105A2000FF92EF920E94E4770F900F900F900F90EB
:105A3000BE018DE192E40E94931A1F928F931F93EF
:105A40000F930E94E4770F900F900F900F90219684
:105A5000C83891E0D907C1F68DE99AE20E94FC7737
:105A6000C0E0D0E005E91AE26CE8E62E6AE2F62E24
:105A7000CE0103978D3F9105F0F0CE0183709927F9
:105A8000892B51F4DF93CF93FF92EF920E94E4773A
:105A90000F900F900F900F90BE018BE192E40E9447
:105AA000931A1F928F931F930F930E94E4770F9086
:105AB0000F900F900F902196C83881E0D807C1F65B
:105AC0008AE090E00E94F6778AE090E00E94F67704
:105AD00089EA9AE20E94FC77C0E0D0E05CE8E52E1B
