:100000000C9436190C9457190C9457190C945719D1
:100010000C9457190C9457190C9457190C945719A0
:100020000C9457190C9457190C9457190C94571990
:100030000C9457190C94542B0C9457190C94571971
:100040000C9457190C9457190C9457190C94571970
:100050000C9457190C9457190C9457190C94571960
:100060000C9457190C943A200C9457190C941020A6
:100070000C9457190C9457190C9457190C94571940
:100080000C9457190C9457190C9457190C94571930
:100090000C9457190C9457190C9457190C94571920
:1000A0000C9457190C9457190C9457190C94571910
:1000B0000C9457190C9457190C942C2B0C94571919
:1000C0000C9457190C9457190C9457190C945719F0
:1000D0000C9457190C9457190C9457190C945719E0
:1000E0000C9457190C9457190C9457190C945719D0
:1000F0000C9457190C9457190C9457190C945719C0
:100100000C9457190C9457190C9457190C945719AF
:100110000C9457190C9457190C9457190C9457199F
:100120000C9457190C9457190C9457190C9457198F
:100130000C9457190C9457190C9457190C9457197F
:100140000C9457190C9457190C9457190C9457196F
:100150000C9457190C9457190C9457190C9457195F
:100160000C9457190C9457190C9457190C9457194F
:100170000C9457190C9457190C9457190C9457193F
:100180000C9457190C9457190C9457190C9457192F
:100190000C9457190C9457190C9457190C9457191F
:1001A0000C9457190C9457190C9457190C9457190F
:1001B0000C9457190C9457190C9457190C945719FF
:1001C0000C9457190C9457190C9457190C945719EF
:1001D0000C9457190C9457190C9457190C945719DF
:1001E0000C9457190C9457191C2CEF2B192CF22B2B
:1001F000F52BF82BFB2BFE2B012C042C072C0A2CA7
:100200000D2C102C132C162C343D383D3C3D423D1A
:10021000483D563D5C3D623D663D6A3D7C3D803DCE
:10022000843D8A3D903D9E3DA43DAA3DAE3DB23DFC
:10023000EA4BF44BFE4B084C124C1C4C264C5D50C8
:10024000304C3A4C444C4E4C584C624C6C4C764CB6
:10025000804C8A4C944C9E4CA84CB24CBC4CC64C26
:10026000D04CDA4CE44CEE4CF84C024D0C4D164D93
:10027000204D2A4D344D3E4D484D524D5C4D664DFE
:10028000704D7A4D844D8E4D984DA24DAC4DB64D6E
:10029000C04DCA4DD44DDE4DE84D5D505D505D50B2
:1002A0005D505D505D50F24DFC4D064E104E1A4EA5
:1002B000244E5D505D505D505D502E4E384E424E86
:1002C0004C4E564E604E6A4E744E7E4E884E924E46
:1002D0009C4EA64EB04EBA4EC44ECE4ED84EE24EB6
:1002E000EC4EF64E004F0A4F144F5D501E4F284FF4
:1002F000324F3C4F464F504F5A4F644F6E4F784FDE
:10030000824F8C4F964FA04FAA4FB44FBE4FC84F4D
:10031000D24FDC4FE64FF04FFA4F04500E501850BA
:1003200022502C50365040504A505450D470D07007
:100330009D70D070A270A770AB70B070B570B970BE
:10034000BE70C370C7700C94344D0C94CE4E0C9498
:10035000E61B0C9486440C94DA4C0C94B04E0C942E
:10036000004F0C94A84C0C944E4C0C949E3D0C9455
:10037000F8450C94124C0C94C4460C94D24F0C9437
:100380009E4B0C945D190C94383D0C942A4D0C94A2
:10039000324F0C940C4D0C94464F0C94C44E0C945C
:1003A000EA4B0C9451480C94F4450C94384E0C9440
:1003B000623D0C94072C0C941C2C0C94D2270C94AA
:1003C0007E4E0C9474440C9424490C9456280C943E
:1003D000803D0C945C3D0C943A4C0C94A24D0C94D2
:1003E000B1460C9469190C942C500C949C4E0C94AE
:1003F000843D0C948D2A0C94EC4E0C94B9700C94A2
:10040000261B0C9476440C94824F0C94424E0C9410
:100410009D700C94F84C0C94391C0C94162C0C9474
:10042000021B0C94204D0C94744E0C941A4E0C9498
:1004300039480C94B5700C94563D0C948C440C9433
:1004400080440C948E440C94A64E0C9481490C94D8
:10045000FC440C94584C0C94C44B0C945B190C94B5
:1004600004500C946A3D0C946F190C94764C0C94C7
:100470001E4F0C94524D0C94AA4F0C94DC4F0C94CC
:10048000444C0C94984D0C945E280C94504F0C9452
:10049000F04F0C94C04D0C9439460C94BE700C94E3
:1004A000804C0C94144F0C94FB200C94F44B0C9443
:1004B000D84E0C943E4D0C94944C0C94E24E0C94FB
:1004C00082440C9410490C94844D0C94921B0C940F
:1004D0004A1B0C94C3700C94B24C0C94C64C0C94F4
:1004E000CA4D0C94042C0C9484280C94A2700C9487
:1004F000664D0C94FC4D0C94FC450C947A4B0C947A
:10050000264C0C94DB460C94012C0C94E84D0C9476
:10051000C7450C94B23D0C9411460C94F24D0C94CA
:10052000284F0C94254B0C946A4E0C9478450C94EF
:100530007C440C947A4D0C940A2C0C9422500C940C
:10054000A1870C94784F0C9459440C945B440C9400
:10055000F22B0C94BE4F0C9472200C94464B0C94CE
:1005600092200C94884E0C94B04B0C94AE250C94B5
:1005700090450C94663D0C948C200C943C4F0C944C
:10058000192C0C94BA4E0C94064E0C948A4C0C9474
:10059000C6200C94AC4D0C948C4F0C942E4E0C94A5
:1005A00061440C9436500C94102C0C94164D0C9401
:1005B000F52B0C945D500C9489490C9431450C94A6
:1005C000624C0C94604E0C94D04C0C94924E0C9453
:1005D000FB1B0C946E1B0C94DE4D0C94B0700C94B1
:1005E00035460C9488440C94C84F0C941C4C0C94C5
:1005F000A4190C94024D0C940A4F0C94A04F0C9427
:1006000052460C94EE4C0C94D1450C9463190C9406
:10061000304C0C94E64F0C94FB2B0C94FE2B0C945A
:10062000D0700C94F64E0C944C4E0C94644F0C9479
:100630004B1C0C94AB700C949C450C9490440C9403
:10064000564E0C947C3D0C944A500C94104E0C94D5
:10065000C7440C9472440C94244E0C94F82B0C94C4
:10066000C7700C94484D0C9484440C94BC4C0C946E
:10067000B64D0C94FA4F0C948E4D0C94F0450C949E
:10068000D44D0C94E6450C94964F0C94D4700C9475
:10069000FE4B0C94A7700C9440280C94423D0C9493
:1006A0000E500C945A490C94EF2B0C94903D0C94E2
:1006B0008A3D0C9492440C94B44F0C94084C0C94C6
:1006C000483D0C94132C0C9486450C94343D0C94AA
:1006D0006C4C0C9454500C94AA3D0C948A440C9489
:1006E00078440C94E44C0C9466450C947E440C9431
:1006F000704D0C94FB4A0C9418500C9482450C9449
:100700007A440C9459190C940D2C0C949E4C0C9416
:100710005A4F0C945C4D0C946E4F0C94A43D0C9469
:10072000AE3D0C9440500C94AC450C943C3D63643D
:10073000696E6F70737578585B0001DF0001D5003A
:1007400001CC0001C20001B90001B00001A8000104
:100750009F00019900019100018900018000017949
:1007600000017100016C01016401015F0101590187
:10077000015201014B01014401013D010137020118
:100780002F02012A02012402011F02011A02011490
:1007900002010E020108020101020287010280012A
:1007A000027A01027401026C01026601025F020218
:1007B0005E02025802025202024C02024602023F4C
:1007C00002023A02023603022F03022A0302240322
:1007D000021F04021E04021804021204020E040284
:1007E000080402020404BE0104B80104B10104AB10
:1007F0000104A60204A002049C02049602049002D2
:10080000048B02048502048002047A020474020448
:100810006F03046B03046603046003045E0304585F
:1008200003045403044F03044A0304450304400330
:10083000043C04043704043304042E04042A04048E
:100840002404042004041E04041A040416040412DC
:1008500004040D0404090404040404000408BC0096
:1008600008B70008B20008AE0008A90008A40008F4
:10087000A000089C00089700089300088F01088CCE
:1008800001088801088401087F01087B01087601BE
:10089000087201086F01086B01086701086301080D
:1008A0005F01085C01085801085401085101084F14
:1008B00002084C02084802084402084102083D02AE
:1008C000083902083602083202082F02082C0208F2
:1008D00028020825021D03ED01DCFDCCF5BCE5ACCA
:1008E000C5A86EBCE5ACC59C85960392C1912190CC
:1008F000966572726F723A20756E7265636F676E7D
:10090000697A656420636F6D6D616E64206F7074C9
:10091000696F6E0A00596F7520686176652062659F
:10092000656E206772616E74656420726F6F7420EB
:100930007065726D697373696F6E73210A00546814
:100940006973206973206E6F7420616E206F70650B
:10095000726174696E672073797374656D210A0022
:1009600055736167653A205B636D645D205B2D7C28
:100970002D2D5D5B617267315D205B2D7C2D2D5DC2
:100980005B617267325D2E2E2E0A005475726E20E6
:100990006F6666206F757470757473202870657249
:1009A000206368616E6E656C292E0053657420703B
:1009B00072657363616C617220666F722063616C33
:1009C0006C6962726174696F6E2E00536574206386
:1009D000616C6C6962726174696F6E204E2064692B
:1009E00076696465722E004368616E676520696E82
:1009F0007465726E616C207265666572656E6365A2
:100A000020444143206F757470757420766F6C7448
:100A1000616765004144524636353138204C6F7766
:100A20002042616E640041445246363531382048D8
:100A30006967682062616E6400536574207468653C
:100A4000205246534120617474656E7475617469F7
:100A50006F6E2E203020746F203238202830644290
:100A600020746F202D32386442292E004269742090
:100A700062616E67206F7065726174696F6E2E209F
:100A8000313A20777269746520303A20726561646A
:100A9000004269742062616E672064617461206F36
:100AA00066204441432E004269742062616E6720D3
:100AB00061646472657373206F66204441432E0045
:100AC0004578656375746520746865207365726424
:100AD000657320746573742E2028302D3529207499
:100AE000657374207061747465726E2E0053657442
:100AF0002074686520696E746572706F6C617469CA
:100B00006F6E2031782830292C2032782831292C1A
:100B10002034782832292C203878283429206F7204
:100B2000203136782838292E00456E61626C6520A8
:100B30007468652050412028706F77657220616D60
:100B4000706C6966696572292070726F7465637470
:100B5000696F6E20636972637569742E2031207429
:100B60006F20656E61626C652E0053657420746839
:100B70006520636D6420696E7075742066726F6D98
:100B8000204A455344283029206F72205350492869
:100B900031292E0053657420746865202846292069
:100BA0006672616D657320706572206D756C746915
:100BB0002D6672616D652E00536574207468652022
:100BC000284D2920636F6E7665727465727320708C
:100BD0006572206C696E6B2E0053657420746865B5
:100BE00020284C29206C616E657320706572206C22
:100BF000696E6B2E0053657420746865206672659B
:100C000071206F7574707574206F662065787465D7
:100C1000726E616C2044414320636C6B206166748A
:100C2000657220696E7465726E616C20434C4B2056
:100C30006369726375697420284D487A292E0045CE
:100C400072726F722E0A001D03ED01DCFDCCF5BC43
:100C5000E5ACC5A86EBCE5ACC59C85960392C19178
:100C600021909601DF0001D50001CC0001C20001F6
:100C7000B90001B00001A800019F00019900019195
:100C800000018900018000017900017100016C01FF
:100C9000016401015F01015901015201014B010190
:100CA0004401013D01013702012F02012A02012402
:100CB00002011F02011A02011402010E02010802C0
:100CC000010102028701028001027A01027401021D
:100CD0006C01026601025F02025E020258020252C9
:100CE00002024C02024602023F02023A02023603AC
:100CF000022F03022A03022403021F04021E04021D
:100D00001804021204020E0402080402020404BEC3
:100D10000104B80104B10104AB0104A60204A0025D
:100D2000049C02049602049002048B0204850204CF
:100D30008002047A02047402046F03046B030466E5
:100D400003046003045E03045803045403044F03C4
:100D5000044A03044503044003043C040437040428
:100D60003304042E04042A04042404042004041E6E
:100D700004041A04041604041204040D04040904EF
:100D800004040404000408BC0008B70008B200080A
:100D9000AE0008A90008A40008A000089C0008975D
:100DA00000089300088F01088C010888010884015D
:100DB000087F01087B01087601087201086F0108AD
:100DC0006B01086701086301085F01085C010858AE
:100DD00001085401085101084F02084C020848025A
:100DE000084402084102083D020839020836020898
:100DF0003202082F02082C0208280208250250722D
:100E0000696E7473206F7574207468652068656CF2
:100E100070206D656E7520666F7220746865206243
:100E20006F6172642E0045786974732066726F6D0D
:100E3000207468697320626F617264206261636B01
:100E400020746F20746865204449474954414C2000
:100E5000626F6172642E00426F6F746C6F616465C3
:100E600072206F7074696F6E732E004F4E2F4F4655
:100E7000462073776974636865732C202830206975
:100E800073204F46462C2031206973204F4E290095
:100E9000436F6D6D616E647320666F722061636372
:100EA000657373696E672074686520686561727424
:100EB000626561742073746174757300436F6E743E
:100EC000726F6C732074686520626F617264206C4D
:100ED0006576656C2066756E6374696F6E732E201F
:100EE00053657175656E7469616C20657865632002
:100EF0006F6620617267756D656E74732E00526542
:100F0000616420616E6420777269746520636F6D1F
:100F10006D616E647320666F7220646562756767C9
:100F2000696E672E00436F6D6D616E647320666F2E
:100F3000722073657474696E6720484D4339383880
:100F40002067726F75702064656C6179732E004341
:100F50006F6D6D616E647320666F7220736574745B
:100F6000696E67204A4553442F504C4C204E2F52F7
:100F700020646976696465727300436F6D6D616E9C
:100F8000647320666F722073657474696E67207471
:100F90006865204C4D4B30343832382064656C61C4
:100FA0007920636C6F636B732E00436F6D6D616EA0
:100FB000647320666F722073657474696E67207441
:100FC0006865204C4D4B30343832382064656C6194
:100FD0007920636C6F636B732E00436F6D6D616E70
:100FE000647320666F72206D616E6167696E672041
:100FF00074686520434C4B2067656E657261746947
:101000006F6E207468726F756768204C4D4B30347A
:101010003832382C20414435363234522C20484D59
:10102000433938372E00436F6D6D616E64732066EF
:101030006F72206D616E6167696E672074686520EC
:10104000434C4B2067656E65726174696F6E2074E6
:1010500068726F756768204C4D4B30343832382CCD
:1010600020414435363234522C20484D43393837EC
:101070002E005072696E7473206F757420746865E9
:101080002068656C70206D656E7520666F722074C7
:10109000686520626F6172642E0045786974732000
:1010A00066726F6D207468697320626F617264206C
:1010B0006261636B20746F207468652044494749FE
:1010C00054414C20626F6172642E00426F6F746CE9
:1010D0006F61646572206F7074696F6E732E004F5C
:1010E0004E2F4F46462073776974636865732C20D2
:1010F0002830206973204F46462C20312069732008
:101100004F4E290053746174757320616E642066BC
:10111000756E6374696F6E73207573656420666F96
:101120007220636865636B696E672074686520620E
:101130006F6172642E2000436F6E74726F6C732047
:1011400074686520626F617264206C6576656C20DE
:1011500066756E6374696F6E732E20536571756565
:101160006E7469616C2065786563206F66206172BA
:1011700067756D656E74732E00457865637574656B
:1011800073207465737420766563746F72732E00B8
:1011900052656769737465722064756D707320663B
:1011A0006F7220726573706563746976652070650F
:1011B000726970686572616C732E00436F6E747231
:1011C0006F6C73207468652066726F6E74656E64F0
:1011D0002052462073776974636865732E00436FED
:1011E0006D6D616E647320666F7220746865204156
:1011F00044524636353138207661726961626C65D9
:10120000206761696E20616D706C69666965722E18
:10121000005072696E7473206F7574207468652055
:1012200068656C70206D656E7520666F72207468DD
:101230006520626F6172642E004578697473206660
:10124000726F6D207468697320626F6172642062CE
:1012500061636B20746F207468652044494749546A
:10126000414C20626F6172642E00426F6F746C6F2C
:1012700061646572206F7074696F6E732E004F4EDB
:101280002F4F46462073776974636865732C202856
:1012900030206973204F46462C2031206973204F3F
:1012A0004E2900436F6E74726F6C732074686520F2
:1012B000626F617264206C6576656C2066756E6322
:1012C00074696F6E732E2053657175656E746961F4
:1012D0006C2065786563206F6620617267756D6547
:1012E0006E74732E0050726F766964657320746833
:1012F0006520737461747573206F6620746865204F
:10130000626F6172642E0052656769737465722042
:1013100064756D707320666F72207265737065639B
:1013200074697665207065726970686572616C7346
:101330002E00436F6E74726F6C7320746865206644
:10134000726F6E74656E64205246207377697463A1
:101350006865732E00436F6D6D616E647320666FF8
:1013600072207468652044414333384A38342E0073
:1013700052756E7320737065636966696564207465
:1013800065737420766563746F72206F662074686D
:10139000652041445246363531380052756E73200F
:1013A000737065636966696564207465737420761B
:1013B0006563746F72206F662074686520414443D2
:1013C000313644583337300052756E732073706570
:1013D00063696669656420746573742076656374F7
:1013E0006F72206F66207468652050434139353331
:1013F000382E00436C6561722074686520737065D7
:10140000636966696564204750494F582070696E6A
:10141000206C6F772E00536574207468652073709C
:1014200065636966696564204750494F5820706953
:101430006E20686967682E002E251614F313C813F2
:101440009B1370135072696E7473206F75742069EA
:101450006E20766572626F7365206D6F64652E20F5
:101460003120746F20656E61626C652E004E6F20B6
:10147000617267756D656E74206E65636573736107
:1014800072792E00456E7465722074686520626FF3
:101490006F746C6F616465722E00484D4339383744
:1014A000004C4D4B30343032380052657475726EDA
:1014B00073204D43552064657669636520696E66C7
:1014C0006F726D6174696F6E2E00476574732C20A6
:1014D000616E64207468656E207265736574732C28
:1014E00020504C4C204C6F7373206F66204C6F6300
:1014F0006B205374617475732E00476574732050AC
:101500004C4C204C6F636B204465746563742053AE
:1015100074617475730048656172746265617420EA
:10152000696E697469616C697A6174696F6E20664D
:10153000756E6374696F6E20746F207365742063B9
:101540006F756E74657220746F203000486561722B
:1015500074626561742066756E6374696F6E207461
:101560006F207265736574207468652068656172A8
:10157000746265617420636F756E7465720048658E
:10158000617274626561742066756E6374696F6EF2
:1015900020746F20616E642066726F6D20746865C0
:1015A000207365727665720053656C656374732091
:1015B000474C45206D6F64653A204D43555F474C5D
:1015C00045283129206F722053594E54485F4650A8
:1015D00047415F474C45202832290050726F766999
:1015E0006465732074686520616D6F756E74206F1B
:1015F000662052414D206C656674202862797465BE
:1016000073292E0050726F76696465732074686563
:101610002074656D70657261747572652028302D57
:1016200031292E00426C696E6B7320746865204C02
:101630004544206120737065636966696564206E46
:10164000756D626572206F662074696D65732E001A
:101650005072696E7473206F75742074686520739E
:101660006F66747761726520616E64206861726470
:10167000776172652076657273696F6E2E0054759E
:10168000726E732065766572797468696E67206F13
:1016900066662E005475726E206F666620706572E5
:1016A0006970686572616C732E00506F7765722087
:1016B0006379636C65207065726970686572616CCE
:1016C0007320616E642072756E7320626F61726444
:1016D00020696E69742028706572206368616E6E7F
:1016E000656C292E0052756E7320646961676E6F98
:1016F00073746963206F6E207065726970686572BB
:10170000616C2028706572206368616E6E656C295B
:101710002E2053686F756C64207072696E7420613E
:101720006C6C207265676973746572732E005475F2
:10173000726E206F6E206F757470757473202870D0
:101740006572206368616E6E656C292E0052657744
:101750007269746520616C6C207265677320666FB6
:101760007220656E7469726520626F6172642E000A
:101770005265616420616E642077726974652063CC
:101780006F6D6D616E647320666F72206465627543
:101790006767696E672E004765742F73657420480C
:1017A0004D432052782042756666657220626961F9
:1017B000732028302069732064656661756C742C11
:1017C000203120666F722073696E75736F64696172
:1017D0006C202F206E6F6E2D4C565045434C20418F
:1017E0004320636F75706C696E672E2900476574BE
:1017F0002F73657420484D43207265666572656E6F
:10180000636520696E7075742064697669646572B9
:1018100073202876616C69642064697669646572F6
:101820007320617265203D20325E6E2C206E3D314A
:101830002E2E3529004765742F7365742064656CFE
:101840006179206C696E6520736574706F696E7460
:101850002E004765742F73657420746865206F755A
:1018600074707574206C61756E6368207068617344
:10187000652E00536574206569746865722053593C
:101880004E43206F7220534C4950207573696E6728
:101890002053504920636F6D6D756E696361746983
:1018A0006F6E2E004765742F736574207468652011
:1018B00053594E432064656C61792064697669648C
:1018C00065722E0053656C6563747320626574776E
:1018D00065656E207468652074776F20484D4339C4
:1018E000383820646576696365732028726566659B
:1018F00072656E636520616E64206C6D6B292E00CD
:1019000053657420636C6F636B20646976696465EA
:10191000722E00536574204E206469766964657286
:1019200020666F7220504C4C2E005365742052205C
:101930006469766964657220666F7220504C4C2E23
:101940000053656C65637420646976696465722010
:10195000746F207365742E00536574206469676921
:1019600074616C2064656C617920636C6F636B2EAD
:101970000053656C656374206465766963652063F4
:101980006C6F636B2E0053656C656374204A45531E
:1019900044206F7220504C4C2E0052652D73796399
:1019A00068726F6E697A65206F75747075742064E3
:1019B000697669646572732066726F6D20626F74F8
:1019C00068204C4D4B730053657420746865204447
:1019D000414320636F6E74726F6C6C696E67205840
:1019E0004F20567265662C20302D343039362066F3
:1019F00072616374696F6E20566578740049737301
:101A00007565205359535245462070756C73657344
:101A10002066726F6D204A4553442E00456E616208
:101A20006C65206578742D31304D487A207265667A
:101A30006572656E6365202831292E005072696ECB
:101A40007473206F757420696E20766572626F738F
:101A500065206D6F64652E203120746F20656E6186
:101A6000626C652E00456E74657220746865206234
:101A70006F6F746C6F616465722E004E6F206172BF
:101A800067756D656E74206E6563657373617279D9
:101A90002E004144433136445833373000414452DC
:101AA000463635313800484D433833784C50364748
:101AB0000052657475726E73204D435520646576CF
:101AC00069636520696E666F726D6174696F6E2EF1
:101AD00000504C4C204C6F636B20446574656374FC
:101AE000696F6E204D656368616E69736D2E004885
:101AF000656172746265617420696E7469616C6994
:101B00007A6174696F6E2066756E6374696F6E209A
:101B1000746F2073657420636F756E7465722074C2
:101B20006F203000436F6D6D616E6420666F7220B0
:101B3000726573657474696E672074686520686582
:101B4000617274626561742076616C756520666F80
:101B5000722074686520525820626F61726400437D
:101B60006F6D6D616E6420666F72207072696E7445
:101B7000696E67207468652063757272656E742083
:101B80006865617274626561742076616C75652048
:101B90006F662074686520525820626F617264001D
:101BA00053656C6563747320474C45206D6F6465A5
:101BB0003A204D43555F474C45283129206F72200C
:101BC000465047415F474C452028322900426C6906
:101BD0006E6B7320746865204C45442061207370DF
:101BE00065636966696564206E756D626572206FF4
:101BF000662074696D65732E0050726F7669646536
:101C000073207468652074656D7065726174757297
:101C1000652028302D31292E004F7574707574732E
:101C200020612031362D626974207265706561749F
:101C3000696E672073657175656E6365205B302C16
:101C40002032363238302C20302C202D32363332B0
:101C5000385D2066726F6D207468652041444320B2
:101C6000636F72652E00456E61626C696E672074E9
:101C70006865205359535245462064657465637402
:101C8000696F6E20676174652E203120746F206546
:101C90006E61626C652C203020746F206469736102
:101CA000626C6500546865204144432077696C6C20
:101CB000206F7574707574204A45534420546573C1
:101CC00074205061747465726E732E20303A206FE8
:101CD00066662C20313A204432312E352C20323A9F
:101CE000204B32382E352C20333A20727074204924
:101CF0004C412C20343A2072616D702C20353A20F2
:101D0000484947482E00546865204144432077697C
:101D10006C6C20656E61626C652074686520535937
:101D20005352454620646574656374696F6E20671D
:101D300061746520666F72204A45534420696E695C
:101D40007469616C697A6174696F6E2E0050726F8C
:101D500076696465732074686520616D6F756E7453
:101D6000206F662052414D206C6566742028627990
:101D7000746573292E005072696E7473206F7574C8
:101D80002074686520736F66747761726520616E78
:101D90006420686172647761726520766572736928
:101DA0006F6E2E005475726E73206576657279744D
:101DB00068696E67206F66662E005475726E206FBC
:101DC0006666207065726970686572616C732E005A
:101DD000506F776572206379636C652070657269F6
:101DE00070686572616C7320616E642072756E73C9
:101DF00020626F61726420696E6974202870657258
:101E0000206368616E6E656C292E005475726E20B9
:101E10006F6666206F7574707574732028706572B4
:101E2000206368616E6E656C292E0052756E73209A
:101E3000646961676E6F73746963206F6E2070658B
:101E4000726970686572616C2028706572206368C1
:101E5000616E6E656C292E2053686F756C642070FE
:101E600072696E7420616C6C207265676973746549
:101E700072732E005475726E206F6E206F757470C1
:101E80007574732028706572206368616E6E656C6E
:101E9000292E005265777269746520616C6C20721E
:101EA00065677320666F7220656E74697265206263
:101EB0006F6172642E0044756D707320616C6C20CC
:101EC0007468652072656769737465727320666FE4
:101ED00072207468652041445246363531380044DA
:101EE000756D7073207468652072656769737465B9
:101EF000727320666F722074686520726567756CF6
:101F0000617220616E64205246204750494F58004C
:101F100044756D707320616C6C2074686520726507
:101F20006769737465727320666F722074686520C8
:101F3000414443313644583337302E00414446340F
:101F40003335352F41444635333535206175746F4F
:101F500063616C20656E61626C6520283120666F5C
:101F60007220656E61626C65293E3E0041444634D4
:101F70003335352F41444635333535204469726554
:101F80006374205265676973746572204163636589
:101F90007373203C3C323862697420646174613E22
:101FA0003C3462697420616464726573733E3E0000
:101FB00053656C65637473204453412041747465A8
:101FC0006E756174696F6E2C2028303A203064423F
:101FD0006D202D3E203132373A2033312E37356493
:101FE000426D290053656C65637420504C4C204F42
:101FF000757470757420506F7765722028303A20A0
:102000002D3464426D2C20313A202D3164426D2CE8
:1020100020323A203264426D2C20333A203564421B
:102020006D29004D7574657320746865204C4F20D0
:102030004672657175656E63792053796E74686553
:1020400073697A6572207768656E207573656400C0
:1020500053656C656374732074686520636F727276
:102060006563742046696C7465722042616E6B20F2
:10207000666F72206120676976656E206672657191
:1020800075656E637920696E206B487A00456E61D4
:10209000626C652F44697361626C652056434F2002
:1020A0004F7574707574204672657175656E6379CD
:1020B00020446F75626C65720053657420504C4CFF
:1020C0002056434F204F75747075742044697669AB
:1020D0006465722076616C75652E20312C20322C5F
:1020E00020342C2036202E2E2036320053657420CA
:1020F000504C4C20466565646261636B2044697690
:10210000696465722076616C75652E2031362074A5
:102110006F203532343235350053657420504C4CC5
:1021200020496E7075742044697669646572207602
:10213000616C75652E203120746F20313633383351
:102140000053656C65637420746865207461726700
:10215000657420504C4C2028302920484D4338339A
:10216000302028312920484D4338333300536574DB
:102170007320426173652042616E64205661726112
:1021800063746F7220766F6C746167652028302DE0
:102190003430393629203056202D20322E35560045
:1021A000504C4C20496E707574205265666572659E
:1021B0006E6365204672657175656E63790053774D
:1021C0006565707320484D433833332066726571FE
:1021D00075656E63792066726F6D20302E324748C8
:1021E0007A20746F203647487A20776974682061B6
:1021F0002073746570206F662031304D487A00532B
:102200006574732066726571206F6620484D43388F
:102210003333206F75747075742C20696E204B48B1
:102220007A2E0042797061737320746865204C4E79
:1022300041206F6E2074686520686967682062615C
:102240006E642E204279706173732831292074687E
:1022500065204C4E41206F72206E6F742830292EFD
:102260000043686F6F7365207468652068696768EC
:102270002028302E352D362047487A29206F7220AD
:102280006C6F7720284443202D20302E352047487E
:102290007A292062616E642E204869676828312996
:1022A000206F72206C6F772830292E0053657420C0
:1022B0005647412773207077722D6D6F64652062D9
:1022C00061736564206F6E204C5020636F726E6581
:1022D0007220667265712E20312069662066696CF5
:1022E000746572206D6F646520616E642033314DBA
:1022F000487A203C2042572C20656C73652036308C
:10230000204D487A203C20425700536574205647A0
:1023100041277320696E70757420616E616C6F6700
:1023200020617474656E756174696F6E20696E20CA
:1023300064422E20476F6573207468726F756768FA
:1023400020414435363234522E00536574205647AE
:1023500041277320706F737420616D70206761690D
:102360006E2E20302D313A20332F3964422E005307
:10237000657420564741277320616E616C6F67203A
:102380006761696E2E20302E31644220636F6E7457
:10239000726F6C6C65642C20496E7075743A2030D5
:1023A000202D2037323020282D3130326442202D2C
:1023B000202D33306442290053657420564741274D
:1023C00073206469676974616C206761696E2E208F
:1023D00033644220696E6372656D656E74732C2080
:1023E000496E7075743A2030202D20382028343200
:1023F0006442202D20363664422900436865636BB1
:1024000020696620564741206761696E2069732004
:10241000746F6F204869676820666F722074686502
:10242000204144432E2028303A204E6F2C20313A50
:1024300020596573290053656C65637420564741C4
:10244000204368616E6E656C2028303A20426F74BC
:10245000682C20493A20312C20513A20322900475B
:102460006574205647412773206761696E2E0053BB
:102470006574205647412773206761696E2E2028B6
:1024800043616C6C7320646761696E20616E6420C7
:10249000616761696E292E20496E7075743A20302B
:1024A000202D20393520282D36306442202D203330
:1024B0003564422900536574205647412773204CE8
:1024C0005020636F726E6572206672657120696E4E
:1024D000204D487A2E0042797061737320746865CC
:1024E000205647412773204C502066696C746572F2
:1024F0002E203120746F20656E61626C652E004E57
:10250000756C6C20746865205647412773206F7581
:1025100074707574204443206F6666736574732EFF
:10252000203120746F20656E61626C652E005370DF
:102530006563696679207768696368206368616E9E
:102540006E656C20612C622C632C64204F522062DB
:102550006974206D61736B2E204D55535420737038
:1025600065636966792066697273742E00507269BA
:102570006E7473206F757420696E20766572626F59
:102580007365206D6F64652E203120746F20656E39
:1025900061626C652E004E6F20617267756D656EAD
:1025A00074206E65636573736172792E00456E7475
:1025B00065722074686520626F6F746C6F6164650A
:1025C000722E00484D433833784C50364700444112
:1025D0004333384A38340053656C65637420474C84
:1025E00045206D6F64653A204D43555F474C452843
:1025F000312920465047415F474C45283229004544
:102600006E61626C6573204A45534420535953529E
:1026100045462047617465004F7574707574206578
:102620006E61626C65283129206F72206469736164
:10263000626C652830292E0050726F76696465736C
:102640002074686520616D6F756E74206F6620520E
:10265000414D206C65667420286279746573292E5B
:102660000050726F766964657320746865207465C4
:102670006D70657261747572652028302D31292E58
:1026800000426C696E6B7320746865204C45442071
:102690006120737065636966696564206E756D623B
:1026A0006572206F662074696D65732E00507269C3
:1026B0006E7473206F75742074686520736F667410
:1026C0007761726520616E642068617264776172FF
:1026D000652076657273696F6E2E005475726E7325
:1026E0002065766572797468696E67206F66662EFC
:1026F000005475726E206F6666207065726970682E
:102700006572616C732E00506F7765722063796318
:102710006C65207065726970686572616C732061A8
:102720006E642072756E7320626F61726420696ED0
:1027300069742028706572206368616E6E656C290B
:102740002E005475726E206F6666206F75747075FA
:1027500074732028706572206368616E6E656C29E1
:102760002E0052756E7320646961676E6F737469B1
:1027700063206F6E207065726970686572616C208D
:1027800028706572206368616E6E656C292E205317
:10279000686F756C64207072696E7420616C6C2057
:1027A0007265676973746572732E005475726E205A
:1027B0006F6E206F75747075747320287065722049
:1027C0006368616E6E656C292E005265777269745C
:1027D0006520616C6C207265677320666F7220657E
:1027E0006E7469726520626F6172642E0052657446
:1027F00075726E73204D435520646576696365205C
:10280000696E666F726D6174696F6E2E004C6F63D6
:102810006B20446574656374696F6E204D656368F1
:10282000616E69736D0048656172746265617420E0
:10283000696E697469616C697A6174696F6E20662A
:10284000756E6374696F6E20746F20736574206396
:102850006F756E74657220746F203000436F6D6DFC
:10286000616E6420666F7220726573657474696E40
:1028700067207468652063757272656E7420686580
:10288000617274626561742076616C7565206F6633
:1028900020545820626F61726400436F6D6D616EE9
:1028A0006420666F72207468652063757272656E4D
:1028B00074206865617274626561742076616C75FC
:1028C00065206F662074686520545820626F6172BD
:1028D000640044756D707320746865207265676963
:1028E000737465727320666F72207468652044414A
:1028F0004333384A38340044756D7073207468650A
:102900002072656769737465727320666F722074D4
:10291000686520726567756C617220616E64205213
:1029200046204750494F5800414446343335352FEF
:1029300041444635333535206175746F63616C20D1
:10294000656E61626C6520283120666F7220656E4D
:1029500061626C65293E3E00414446343335352F73
:1029600041444635333535204469726563742052DD
:102970006567697374657220416363657373203C96
:102980003C323862697420646174613E3C3462692F
:102990007420616464726573733E3E005246204148
:1029A0007474656E7561746F722053657474696EAA
:1029B000672028303A20306442202D3E20313237C3
:1029C0003A202D33312E373564422900504C4C20AB
:1029D0004F757470757420506F7765722028303A87
:1029E000202D3464426D2C20313A202D3164426D0B
:1029F0002C20323A202B3264426D2C20333A202B8B
:102A00003564426D290053656C6563747320746886
:102A10006520636F72726563742046696C746572B9
:102A20002042616E6B20666F722061206769766557
:102A30006E206672657175656E637920696E206BB4
:102A4000487A004D7574657320746865204C4F207A
:102A50004672657175656E63792053796E74686529
:102A600073697A6572207768656E20757365640096
:102A7000456E61626C652F44697361626C652056B6
:102A8000434F204F7574707574204672657175657B
:102A90006E637920446F75626C65720053657420B3
:102AA000504C4C2056434F204F7574707574204421
:102AB0006976696465722076616C75652E20312CAB
:102AC00020322C20342C2036202E2E20363200535B
:102AD000657420504C4C20466565646261636B20D0
:102AE000446976696465722076616C75652E203163
:102AF0003620746F203532343235350053657420FA
:102B0000504C4C20496E7075742044697669646538
:102B1000722076616C75652E203120746F203136FD
:102B20003338330053656C656374207468652074B2
:102B3000617267657420504C4C2028302920484D24
:102B4000433833302028312920484D43383333006F
:102B50004E6565647320746F2062652063616C6CE0
:102B60006564206C6173742E2053657473207468DF
:102B700065204951204D6F64756C61746F722E2011
:102B80002869652E202D69203137202D71203133A1
:102B9000202D6D29005365742074686520495120EB
:102BA0004D6F64756C61746F72205120626961733E
:102BB00020766F6C746167652028696E2064562CDE
:102BC0002066726F6D20302D3234206456292E001D
:102BD00053657420746865204951204D6F64756C8D
:102BE00061746F722049206269617320766F6C7422
:102BF0006167652028696E2064562C2066726F6DAF
:102C000020302D3234206456292E00504C4C205256
:102C100065666572656E636520496E7075742028FF
:102C2000696E206B487A290053657473206672655B
:102C300071206F6620484D43383333206F757470B0
:102C400075742C20696E204B487A2E004279706191
:102C5000737320746865204C4E41206F6E20746839
:102C60006520686967682062616E642E2042797011
:102C700061737328312920746865204C4E41206FA0
:102C800072206E6F742830292E0043686F6F736551
:102C90002074686520686967682028302E352D36D5
:102CA0002047487A29206F72206C6F772028444390
:102CB000202D20302E352047487A292062616E640D
:102CC0002E2048696768283129206F72206C6F7741
:102CD0002830292E0052657475726E7320746865F1
:102CE000206F722764206C616E65206572726F724E
:102CF00073206F662074686520666972737420346F
:102D0000206C616E65730053657420746865207370
:102D1000656C6563746564205461702076616C75C0
:102D20006520666F722074686520536D616C6C203D
:102D30004672616374696F6E616C2044656C617981
:102D400000536D616C6C204672616374696F6E61D3
:102D50006C2044656C6179205461702073656C65EA
:102D600063746F72004C61726765204672616374B0
:102D7000696F6E616C2044656C61792C20436F65CE
:102D80006666696369656E74205365742073656C4B
:102D9000656374696F6E2E2028496E2044617461EA
:102DA00073686565742900536574207468652044F0
:102DB000697468657220416D706C69747564652C06
:102DC0002030206973204D6178696D756D2028343D
:102DD00020626974732900456E61626C652F4469D5
:102DE0007361626C6520446974686572204D69780E
:102DF000657200456E61626C652F44697361626C37
:102E00006520446974686572696E6700456E616229
:102E10006C652F44697361626C6520496E766572DA
:102E200073652053696E632046696C746572005344
:102E30006D616C6C204672616374696F6E616C20A9
:102E400044656C61792050617468205365747469BD
:102E50006E677300536D616C6C20467261637469B8
:102E60006F6E616C2044656C617920536574746980
:102E70006E6773004C6172676520467261637469A6
:102E80006F6E616C2044656C617920536574746960
:102E90006E677300514D43207068617365206F66E3
:102EA000667365742C203132626974732C202D3066
:102EB0002E35202D20302E34393937352C207265AF
:102EC00066657220746F20646174617368656574EF
:102ED00000514D43206761696E206F6666736574AB
:102EE0002C203131626974732C20646563696D61D3
:102EF0006C20706E742040206C656674206F6620B4
:102F0000626974392C2072616E67652030202D2033
:102F1000312E393939302C204C53423D302E30304F
:102F2000303937363600514D43204443206F6666B2
:102F30007365742C203133626974732C206D656164
:102F4000737572656420696E20444143204C53427E
:102F5000277300496E697469616C697A65732061D1
:102F60006E6420636F6E666967757265732074683E
:102F700065204A455344206C696E6B2E0044756D84
:102F800070206F757420616C6C206F6620746865AA
:102F9000207265676973746572732E004765747378
:102FA000207468652074656D7065726174757265F2
:102FB000206F6620746865204441432E00456E6191
:102FC000626C6520746865206D697865722E2031A9
:102FD00020746F20656E61626C652E0053657420ED
:102FE000746865204E434F206C6F776572203332D2
:102FF0002D626974732072656769737465722C2021
:10300000777269746520746F2075707065722033F3
:10301000322D6269747320666972737421212A2AC1
:103020000053657420746865204E434F207570709E
:1030300065722033322D626974732072656769731B
:103040007465722E005370656369667920776869CC
:10305000636820696E7465726E616C204441432020
:103060006368616E6E656C3A2028302D33292041EB
:103070002D442E0053706563696679207768696313
:1030800068206368616E6E656C20612C622C632C15
:10309000642C204F5220626974206D61736B2E2066
:1030A0004D55535420737065636966792066697263
:1030B00073742E002610DA0FAA0F7A0F4F0F250F08
:1030C000FE0EBC0E900E6B0E570E260EFE0DDE1180
:1030D000BB119011791137110411DF10CB109A1028
:1030E0007210551332130713E512A3127E126A12DF
:1030F0003912111244146D148414A1149A147E15FB
:103100004C151615FA14CA14AA144D172E17E516E5
:10311000AA1694167E16501624160416DB15A8154A
:1031200086197017C418A418731852183518ED179B
:103130009717861941192A19131900198619711937
:103140005819861971195819FD199A191C1AFD195F
:10315000C7193C1A651A7B1A2E25A61A9D1A921AAF
:103160002E255F1B241BEF1AD11AB11A2E25931E90
:10317000741E2B1E0B1ED01DBA1DA41D761D4D1DC9
:10318000061DA41C661C191CF91BCD1BA01B2E259B
:10319000101FDF1EB61E2E2561222322FF21BE2115
:1031A000A0216D2141211921EC20B9208D20502032
:1031B0002320E41FB01F6C1F3C1F2E25FF24D624A4
:1031C000B5246F245F243624FB23B8236F234A23BE
:1031D0000A23AC226D259625AD257430CE25C32556
:1031E0007430CA27AB27622742270727F126DB2640
:1031F000AD268126612638261826FF25D72574306E
:103200009A285C2826280D28ED277430F728D22824
:1032100074308A2C4C2C282C0B2CD02B952B502B1B
:10322000242BFC2ACF2A9C2A702A432A062ACC293E
:103230009C2958292829743045302130DC2FBD2F96
:103240009C2F7D2F532F262FD12E942E742E542E4B
:103250002F2E0C2EF32DD72DA72D652D412D072DAB
:10326000D52C436F6D6D616E64733A0011241FBEDF
:10327000CFEFCDBFDFE5DEBF00E00CBF1DE2A0E079
:10328000B0E2EAE5FDE201E00BBF02C007900D925B
:10329000A03AB107D9F716E3A0EABDE201C01D923A
:1032A000AA31B107E1F70E94038C0C94AB960C9401
:1032B000000080E0089580E0089586E097E20E9493
:1032C000759080E0089586E097E20E94759080E016
:1032D000089586E097E20E94759080E008958091BD
:1032E000162390911723A0911823B0911923AC01B4
:1032F000BD0141505109610971094436510561050B
:10330000710558F4AC01BD014051510961097109C1
:10331000413551056105710530F48BE197E20E945A
:10332000759081E0089581369105A105B10540F0C1
:103330008156910991E001C0990F8A95EAF7892F8A
:1033400080930B2680E00895682F88E090E20E9429
:103350005B6880E090E00895DF92EF92FF920F9318
:103360001F93CF93DF9300D0CDB7DEB7809190004D
:103370008983809191008A83809192008B838E0152
:103380000F5F1F4F82E2E82E87E2F82E93E0D92EDE
:10339000D00EF80181918F011F928F93FF92EF92CF
:1033A0000E945B900F900F900F900F90D012F1CF72
:1033B0008AE090E00E946F9080E02396CDBFDEBF50
:1033C000DF91CF911F910F91FF90EF90DF900895C3
:1033D0006150710981099109D9F708958F929F92DF
:1033E000AF92BF92CF92DF92EF92FF920F931F9313
:1033F000CF93DF936B017C0190900B2600E010E0EF
:10340000C0E0A92CB12C88248394C501002E02C0F1
:10341000959587950A94E2F780FFB0C0882D002E1D
:1034200001C0880F0A94EAF780930B2640E060E120
:1034300080EB95E30E94227CD82F40E060E280EB95
:1034400095E30E94227C8D0FC80F40E060E480EB82
:1034500095E30E94227CC80F40E060E880EB95E392
:103460000E94227CC80F81E2C8168AEAD80684E44A
:10347000E806F10440F040E060E180EB95E30E9453
:10348000227C41E068C081ECC81686ECD8068DE24B
:10349000E806F10440F040E060E180EB95E30E9433
:1034A000227C40E035C081E6C81683EED80686E16E
:1034B000E806F10440F041E060E180EB95E30E9412
:1034C000227C41E03EC081EBC81681E7D8068BE044
:1034D000E806F10470F041E060E180EB95E30E94C2
:1034E000227C40E060E280EB95E30E94227C41E098
:1034F00015C089EDC81688EBD80685E0E806F1040A
:10350000A0F041E060E180EB95E30E94227C41E085
:1035100060E280EB95E30E94227C40E060E480EB77
:1035200095E30E94227C41E022C040E060E180EB14
:1035300095E3C114D104E104F10451F00E94227C0E
:1035400040E060E280EB95E30E94227C41E009C00C
:103550000E94227C40E060E280EB95E30E94227CA6
:1035600040E060E480EB95E30E94227C40E060E86C
:1035700080EB95E30E94227C90920B260F5F1F4FF9
:103580000430110509F041CF8C2FDF91CF911F91AD
:103590000F91FF90EF90DF90CF90BF90AF909F90F2
:1035A0008F900895CF93C0910B2681E080930B26D6
:1035B00040E060E286EB95E30E94227C84E0809309
:1035C0000B2640E060E286EB95E30E94227CC093EC
:1035D0000B26CF910895CF930E94D21AC0910B264B
:1035E0008C2F837011F081E001C084E080930B2662
:1035F00041E060E286EB95E30E94227CC0930B26BB
:10360000CF9108950F931F930E94EB1A0091042409
:1036100010910524209106243091072440912723FE
:10362000509128236091292370912A2382EB95E3FE
:103630000E94BE58892B21F08BE197E20E94759081
:103640000E94D21A80E01F910F9108950F931F934B
:103650000E94EB1A0091F3231091F4232091F5239B
:103660003091F623409127235091282360912923FC
:1036700070912A2382EB95E30E940C58892B21F04C
:103680008BE197E20E9475900E94D21A80E01F9110
:103690000F9108950F931F930E94EB1A0091E2235C
:1036A0001091E3232091E4233091E52340912723D7
:1036B000509128236091292370912A2382EB95E36E
:1036C0000E943858892B21F08BE197E20E94759077
:1036D0000E94D21A80E01F910F9108950F931F93BB
:1036E0000E94EB1A0091D1231091D2232091D32371
:1036F0003091D4234091272350912823609129238E
:1037000070912A2382EB95E30E94E057892B21F0E8
:103710008BE197E20E9475900E94D21A80E01F917F
:103720000F910895AF92BF92CF92DF92EF92FF92E6
:103730000F931F93CF93C0910B260E94EB1AC1FBEE
:10374000AA24A0F8B12CC0FBEE24E0F8F12CEA0C7E
:10375000FB1CEF2881F081E080930B2680918D2364
:10376000813729F482EB95E30E94483B04C082EB49
:1037700095E30E94203BC3FBCC24C0F8D12CC2FBB4
:10378000002700F910E00C0D1D1D012B81F084E0D5
:1037900080930B2680918D23863629F082EB95E36A
:1037A0000E94483B04C082EB95E30E94203B0E94AC
:1037B000D21AC0930B2680E0CF911F910F91FF90FA
:1037C000EF90DF90CF90BF90AF9008950E94EB1ADA
:1037D00080910B269FEF980F9F3028F08BE197E2A6
:1037E0000E94759004C00E9428278111F7CF0E9483
:1037F000D21A80E00895CF93DF931F92CDB7DEB742
:103800000E94EB1A80910B2681508F3038F50E9470
:10381000EB1A61E08091B2359091B3350E942A8510
:10382000BE016F5F7F4F82EB95E30E94B35360E070
:103830008091B2359091B3350E942A8589811F927B
:103840008F9387E297E29F938F930E945B900E94F1
:10385000D21A0F900F900F900F9004C08BE197E257
:103860000E9475900E94D21A80E00F90DF91CF9154
:1038700008950E94EB1A60915A2382EB95E30E940F
:103880008C41882321F08BE197E20E9475900E9481
:10389000D21A80E008958F929F92AF92BF92CF92FA
:1038A000DF92EF92FF920F931F930E94EB1A80908A
:1038B000382390903923A0903A23B0903B23940171
:1038C000A50160E070E080E090E000E20E94BE8E22
:1038D0008090492390904A23A0904B23B0904C2392
:1038E0002829E32FE929042F0A29152F1B29E22E65
:1038F000FE2E9B01AC016091272382EB95E30E9491
:103900005052882321F08BE197E20E9475900E942B
:10391000D21A80E01F910F91FF90EF90DF90CF902F
:10392000BF90AF909F908F900895EF92FF920F936A
:103930001F93CF93DF938EED95E30E94F378C82F0A
:1039400084EB95E30E947032C80FF0900B268FE055
:1039500080930B2600E010E0EE24E39480910B2688
:1039600090E0002E02C0959587950A94E2F780FFBB
:1039700019C08E2D002E01C0880F0A94EAF780939B
:103980000B2640E061E086EB95E30E94227CD82F75
:1039900040E060E886EB95E30E94227C8D0FC80F23
:1039A000F0920B260F5F1F4F04301105B9F68C2FD4
:1039B000DF91CF911F910F91FF90EF900895EF92BB
:1039C000FF920F931F93CF93DF9300E010E0C0E0CE
:1039D000EE24E394F12CC701002E02C0880F991F3A
:1039E0000A94E2F79C0125703327232B31F1809351
:1039F0000B2640E064E086EB95E30E94537BD82FD2
:103A000040E060E286EB95E30E94537B8D0FC80F88
:103A100041E060E486EB95E30E94537BC80F41E0F0
:103A200064E086EB95E30E94227CC80F40E060E2F0
:103A300086EB95E30E94227CC80F0F5F1F4F043076
:103A4000110549F6E12CF12C01E010E0C8010E2C23
:103A500002C0880F991F0A94E2F79C012A7033274D
:103A6000232B09F48BC080930B2640E064E086EBA7
:103A700095E30E94537BD82F40E068E086EB95E306
:103A80000E94537B8D0FC80F40E060E186EB95E309
:103A90000E94537BC80F40E060E286EB95E30E94F2
:103AA000537BC80F40E060E486EB95E30E94537BB4
:103AB000C80F41E064E086EB95E30E94227CC80FCA
:103AC00040E060E486EB95E30E94227CC80F41E071
:103AD00060E286EB95E30E94227CC80F40E060E143
:103AE00086EB95E30E94227CC80F40E068E086EBFD
:103AF00095E30E94227CC80F41E060E486EB95E3E9
:103B00000E94227CC80F65E176E185E090E00E948A
:103B1000E81941E060E186EB95E30E94227CC80F42
:103B20006AE171E480E090E00E94E81940E060E121
:103B300086EB95E30E94227CC80F40E060E286EBB2
:103B400095E30E94227CC80F6AE171E480E090E076
:103B50000E94E81941E060E186EB95E30E94227C37
:103B6000C80F6AE171E480E090E00E94E81941E04A
:103B700068E086EB95E30E94227CC80F8FEFE81A7D
:103B8000F80A84E0E816F10409F060CF8FE0809332
:103B90000B268C2FDF91CF911F910F91FF90EF900B
:103BA0000895CF92DF92EF92FF920F931F93CF93DE
:103BB000DF93DFE0D0930B2626EA35E34BEA55E3AB
:103BC0006FEA76E282EB95E30E940A33C82F2DEB71
:103BD00036E246EA55E36BEA75E384EA95E30E9430
:103BE000FE24C80FF0900B2626EA35E34BEA55E396
:103BF00067E876E286EB95E30E94D27CC80F26EA5E
:103C000035E34BEA55E365E976E280EB95E30E9404
:103C1000D27CC80F09ED16E226EA35E34BEA55E3FC
:103C20006AE270E28EED95E30E941079C80FF0927F
:103C30000B262BEC36E246EA55E36BEA75E384EBA0
:103C400095E30E946A70C80F64EA75E38CED95E312
:103C50000E943279D0930B26E12CF12C0FE010E07A
:103C6000DD24D394C8010E2C02C0959587950A9443
:103C7000E2F780FF9AC08D2D0E2C01C0880F0A94A8
:103C8000EAF780930B2686EB95E30E94897CC82E89
:103C900080EB95E30E94897C8C0DC80F40E061E0C9
:103CA00080EB95E30E94537BC80F41E062E080EB1C
:103CB00095E30E94537BC80F40E064E080EB95E3FE
:103CC0000E94537BC80F40E068E080EB95E30E94C0
:103CD000537BC80F40E060E180EB95E30E94537B8B
:103CE000C80F40E060E280EB95E30E94537BC80F71
:103CF00040E060E480EB95E30E94537BC80F40E016
:103D000060E880EB95E30E94537BC80F40E061E0E0
:103D100086EB95E30E94537BC80F40E060E886EB9A
:103D200095E30E94537BC80F41E061E080EB95E38F
:103D30000E94227CC80F41E064E080EB95E30E9482
:103D4000227CC80F41E068E080EB95E30E94227C72
:103D5000C80F41E060E180EB95E30E94227CC80F30
:103D600041E060E280EB95E30E94227CC80F40E0D6
:103D700060E480EB95E30E94227CC80F41E060E89C
:103D800080EB95E30E94227CC80F41E061E086EB66
:103D900095E30E94227CC80F41E060E886EB95E342
:103DA0000E94227CC80FD0930B268FEFE81AF80AE6
:103DB00084E0E816F10409F055CF0E94DF1C0E9450
:103DC000DF1C8FE080930B2600E010E080910B2633
:103DD00090E0002E02C0959587950A94E2F780FF47
:103DE00007C041E068E080EB95E30E94227CC80FA9
:103DF0000F5F1F4F0430110549F784EB95E30E94D4
:103E0000EC70C80F84EA95E30E942A24C80F8EED57
:103E100095E30E940779C80F81E080930B260E94EA
:103E2000EB1A82EB95E30E94203BC80F0E94D21A46
:103E300084E080930B260E94EB1A82EB95E30E94AC
:103E4000483BC80F0E94D21A00E010E0D1E08D2F4D
:103E5000002E01C0880F0A94EAF780930B2641E1F7
:103E600050E061E170E08CED95E30E94657DC80F44
:103E70000F5F1F4F0430110551F761E78EED95E399
:103E80000E94C378C80F8FE080930B2684EB95E3E4
:103E90000E943632C80F60E070E0CB010E94EE193C
:103EA0008C0FDF91CF911F910F91FF90EF90DF90DA
:103EB000CF9008950F931F93CF93DF93C0E0D0E08E
:103EC00000E417E28C2F0E94295F1F928F93DF93EB
:103ED000CF931F930F930E945B9021960F900F90AA
:103EE0000F900F900F900F90C630D10559F780E0DA
:103EF000DF91CF911F910F910895DF92EF92FF9282
:103F00000F931F93CF93DF93CDB7DEB72B97CDBF22
:103F1000DEBFCE0101960E94A67F8E010F5F1F4F6C
:103F200082E2E82E87E2F82E9BE0D92ED00EF8012F
:103F300081918F011F928F93FF92EF920E945B906D
:103F40000F900F900F900F90D012F1CF8AE090E079
:103F50000E946F9080E02B96CDBFDEBFDF91CF91A6
:103F60001F910F91FF90EF90DF900895CF9382E51E
:103F700097E29F938F9385E597E29F938F930E949B
:103F80005B9088E697E29F938F9381E797E29F93F8
:103F90008F930E945B908DE797E29F938F9386E8C3
:103FA00097E29F938F930E945B9084E997E29F939F
:103FB0008F9388EA97E29F938F930E945B9086EBA2
:103FC00097E29F938F930E945B900E947D1FC82F62
:103FD0008AEC97E29F938F930E945B900E94AC19AA
:103FE000C80F87ED97E29F938F930E945B9080911B
:103FF00093001F928F9389E89BE29F938F930E9477
:104000005B9086EE97E20E9475900E945A1F2DB732
:104010003EB7265E3F4F2DBF3EBF8C0FCF91089518
:104020001F920F920FB60F9211240BB60F922F937F
:104030003F934F935F936F937F938F939F93AF9330
:10404000BF93EF93FF9388E090E20E946B68FF912B
:10405000EF91BF91AF919F918F917F916F915F9100
:104060004F913F912F910F900BBE0F900FBE0F906D
:104070001F9018951F920F920FB60F9211240BB636
:104080000F922F933F934F935F936F937F938F93F1
:104090009F93AF93BF93EF93FF9320E040E050E0F6
:1040A00060E070E088E090E20E949568FF91EF91F7
:1040B000BF91AF919F918F917F916F915F914F9140
:1040C0003F912F910F900BBE0F900FBE0F901F903E
:1040D000189560E078E488EE91E008950C946920EA
:1040E0000C946E2080918D2590918E25A0918F2526
:1040F000B091902581309105A105B10511F481E0C1
:1041000005C00297A105B10529F482E080939124AE
:104110008093902480E008950E94EB1A0E94D21AA6
:1041200080E00895CF93DF9300D01F92CDB7DEB724
:10413000CE010196AA2797FDA095BA2F409110367F
:10414000509111364115510511F44AE156E36627A5
:1041500057FD6095762F841B950BA60BB70BBF936D
:10416000AF939F938F9385E198E29F938F930E94E3
:104170005B900F900F900F900F900F900F9080E03A
:104180002496CDBFDEBFDF91CF91089580919E250B
:1041900090919F25A091A025B091A125AC01BD01D2
:1041A0004150510961097109443651056105710594
:1041B00058F4AC01BD014051510961097109413503
:1041C00051056105710530F48BE197E20E9475900D
:1041D00081E0089581369105A105B10540F0815631
:1041E000910991E001C0990F8A95EAF7892F809390
:1041F0000B2680E008950F931F93CF93DF93C09118
:104200003825CB30D8F480E480930606D0E0CC0F7C
:10421000DD1F10E000E4812F90E08C179D0754F41F
:1042200065E176E185E090E00E94E81900930706D9
:104230001F5FF1CF80E48093060604C08BE197E214
:104240000E94759080E0DF91CF911F910F910895AA
:104250000C947020FC01108283E081838483A2810E
:10426000B3814C93A281B38111963C930280F38178
:10427000E02D2283FB0114820895FC01108283E06B
:1042800081838483A281B38180E38C93A281B381F3
:1042900011961C920280F381E02D4283FB0114826F
:1042A0000895FC01108283E081838483A281B3811D
:1042B00080E28C93A281B38111961C920280F381DB
:1042C000E02D80E1489FA0011124422B4283FB0195
:1042D00014820895FC01108283E081838483A2818B
:1042E000B38188E28C93A281B38111961C920280E3
:1042F000F381E02D4283FB0114820895FC011082BA
:1043000083E081838483A281B38188E38C93A2813B
:10431000B38111961C920280F381E02D4283FB0150
:1043200014820895FC01108283E081838483A2813A
:10433000B3818FE08C93A281B38111961C9202808D
:10434000F381E02D1282FB0114820895FC0110829A
:1043500083E081838483A281B38187E08C93A281EF
:10436000B381CA0124E0969587952A95E1F71196C5
:104370008C930280F381E02D4295407F4283FB01C4
:1043800014820895FC01108283E081838483A281DA
:10439000B38148604C93A281B38111961C92028034
:1043A000F381E02D1282FB0114820895FC0110823A
:1043B00083E081838483A281B3812C93A281B38122
:1043C000CA0124E0969587952A95E1F711968C937A
:1043D0000280F381E02D4295407F4283FB011482ED
:1043E0000895EF92FF920F931F93CF93DF9300975F
:1043F000D1F06230D0F4462FEC01E090BA35F09065
:10440000BB350091B8351091B935B701C8010E948C
:104410007E2188819981DC01ED91FC91A701B80191
:10442000199580E003C081E001C082E0DF91CF9167
:104430001F910F91FF90EF900895EF92FF920F93CD
:104440001F93CF93DF930097C9F0EC01E090BA354A
:10445000F090BB350091B8351091B9352FE043E0AD
:10446000B701C8010E94512188819981DC01ED9139
:10447000FC91A701B801199580E001C081E0DF91AE
:10448000CF911F910F91FF90EF900895EF92FF92BF
:104490000F931F93CF93DF93009719F1643018F5B2
:1044A000EC01E090BA35F090BB350091B835109131
:1044B000B935E1E0F0E0CF0102C0880F991F6A959D
:1044C000E2F79C0143E0B701C8010E9451218881B5
:1044D0009981DC01ED91FC91A701B801199580E06B
:1044E00003C081E001C082E0DF91CF911F910F9165
:1044F000FF90EF900895EF92FF920F931F93CF9349
:10450000DF930097C9F0EC01E090BA35F090BB352D
:104510000091B8351091B9352FE040E0B701C801DE
:104520000E94512188819981DC01ED91FC91A701C4
:10453000B801199580E001C081E0DF91CF911F9112
:104540000F91FF90EF900895EF92FF920F931F93BA
:10455000CF93DF93009719F1643018F5EC01E090E8
:10456000BA35F090BB350091B8351091B935E1E01E
:10457000F0E0CF0102C0880F991F6A95E2F79C0115
:1045800040E0B701C8010E94512188819981DC0176
:10459000ED91FC91A701B801199580E003C081E07D
:1045A00001C082E0DF91CF911F910F91FF90EF90BA
:1045B0000895EF92FF920F931F93CF93DF9300978D
:1045C00061F1AB01EC01E090BA35F090BB350091A0
:1045D000B8351091B935B701C8010E94A62188816C
:1045E0009981DC01ED91FC91A701B8011995E0904A
:1045F000BA35F090BB350091B8351091B935B70197
:10460000C8010E94922188819981DC01ED91FC9181
:10461000A701B801199580E001C081E0DF91CF9139
:104620001F910F91FF90EF900895CF92DF92EF923C
:10463000FF921F93CF93DF93009779F1443078F581
:10464000142FAB01EC01C090BA35D090BB35E0908F
:10465000B835F090B935212FB601C7010E94D62197
:1046600088819981DC01ED91FC91A601B701199532
:10467000C090BA35D090BB35E090B835F090B935E0
:10468000412FB601C7010E94C22188819981DC01B6
:10469000ED91FC91A601B701199580E001C082E07F
:1046A000DF91CF911F91FF90EF90DF90CF90089511
:1046B000EF92FF920F931F93CF93DF930097C9F070
:1046C000EC01E090BA35F090BB350091B83510910F
:1046D000B9352FE043E0B701C8010E94512188811C
:1046E0009981DC01ED91FC91A701B801199580E059
:1046F00001C081E0DF91CF911F910F91FF90EF906A
:104700000895EF92FF920F931F93CF93DF9300973B
:10471000C9F09A01AB01EC01E090BA35F090BB35DD
:104720000091B8351091B935B701C8010E942A210E
:1047300088819981DC01ED91FC91A701B80119955F
:1047400080E001C081E0DF91CF911F910F91FF9038
:10475000EF900895EF92FF920F931F93CF93DF9303
:104760000097C9F0EC01E090BA35F090BB350091AC
:10477000B8351091B9352FE043E0B701C8010E9468
:10478000512188819981DC01ED91FC91A701B8014B
:10479000199580E001C081E0DF91CF911F910F91C9
:1047A000FF90EF900895EF92FF920F931F93CF9396
:1047B000DF930097C1F0EC01E090BA35F090BB3583
:1047C0000091B8351091B93541E0B701C8010E9498
:1047D0006A2188819981DC01ED91FC91A701B801E2
:1047E000199580E001C081E0DF91CF911F910F9179
:1047F000FF90EF900895EF92FF920F931F93CF9346
:10480000DF930097C9F0EC01E090BA35F090BB352A
:104810000091B8351091B9352FE043E0B701C801D8
:104820000E94512188819981DC01ED91FC91A701C1
:10483000B801199580E001C081E0DF91CF911F910F
:104840000F91FF90EF90089521E0892B09F020E06F
:10485000822F0895EF92FF920F931F93CF93DF93D0
:10486000009709F46DC0EC01E090BA35F090BB35CB
:104870000091B8351091B93541E0B701C8010E94E7
:104880007E2188819981DC01ED91FC91A701B8011D
:104890001995E090BA35F090BB350091B83510917C
:1048A000B93540E0B701C8010E943D218881998156
:1048B000DC01ED91FC91A701B8011995E090BA35A2
:1048C000F090BB350091B8351091B9352FE043E039
:1048D000B701C8010E94512188819981DC01ED91C5
:1048E000FC91A701B8011995E090BA35F090BB355D
:1048F0000091B8351091B93540E050E0B701C801DA
:104900000E94A62188819981DC01ED91FC91A7018B
:10491000B8011995E090BA35F090BB350091B835E3
:104920001091B935B701C8010E94922188819981FF
:10493000DC01ED91FC91A701B801199580E001C05F
:1049400081E0DF91CF911F910F91FF90EF9008953B
:10495000EF92FF920F931F93CF93DF93009709F489
:1049600045C0EC010E942A24E090BA35F090BB3596
:104970000091B8351091B9354FEF57E0B701C80134
:104980000E94A62188819981DC01ED91FC91A7010B
:10499000B8011995E090BA35F090BB350091B83563
:1049A0001091B935B701C8010E949221888199817F
:1049B000DC01ED91FC91A701B8011995E090BA35A1
:1049C000F090BB350091B8351091B9352FE040E03B
:1049D000B701C8010E94512188819981DC01ED91C4
:1049E000FC91A701B801199580E001C081E0DF9139
:1049F000CF911F910F91FF90EF900895009769F06C
:104A0000FC01208331836093BA357093BB354093AA
:104A1000B8355093B93580E0089581E00895EF925C
:104A2000FF920F931F93CF93DF93C62F60930B26B4
:104A3000E62EF12C882319F100E010E0D1E0C70147
:104A4000002E02C0959587950A94E2F780FF10C06A
:104A50008D2F002E01C0880F0A94EAF780930B2651
:104A600041E060E886EB95E30E94227CC0930B2630
:104A70000F5F1F4F0430110511F7D1E02BC084EBFD
:104A800095E30E94363260E070E0CB010E94EE199F
:104A900000E010E0D1E0C701002E02C09595879597
:104AA0000A94E2F780FF10C08D2F002E01C0880FFE
:104AB0000A94EAF780930B2640E060E886EB95E3E2
:104AC0000E94227CC0930B260F5F1F4F04301105FC
:104AD00011F7D0E0C0FF0DC081E080930B260E944B
:104AE000EB1A4D2F60E082EB95E30E94265A0E945C
:104AF000D21AC1FF0DC081E080930B260E94EB1AF1
:104B00004D2F61E082EB95E30E94265A0E94D21A53
:104B1000C2FF0DC084E080930B260E94EB1A4D2F3C
:104B200060E082EB95E30E94265A0E94D21AC3FFEE
:104B30000DC084E080930B260E94EB1A4D2F61E09C
:104B400082EB95E30E94265A0E94D21A80E0DF9100
:104B5000CF911F910F91FF90EF90089580916B2559
:104B600090916C25A0916D25B0916E2560910B26DA
:104B7000892B8A2B8B2B31F08FEF860F8F3048F4E7
:104B800081E005C08FEF860F8F3018F480E00E941F
:104B90000F2580E00895CF92DF92EF92FF920F935E
:104BA0001F93CF93DF93C82F80930B2600E010E074
:104BB000D1E0611156C080910B2690E0002E02C01A
:104BC000959587950A94E2F780FF1CC08D2F002EE3
:104BD00001C0880F0A94EAF780930B2640E064E056
:104BE00086EB95E30E94227C40E061E086EB95E352
:104BF0000E94227C41E060E886EB95E30E94227CE3
:104C0000C0930B260F5F1F4F04301105A1F600E083
:104C100010E0EC2EF12CCC24C394D12CC701002E33
:104C200002C0959587950A94E2F780FF0EC0C601F1
:104C3000002E01C0880F0A94EAF700FD8695809344
:104C40000B260E94EB1A0E94D21A0F5F1F4F0430EE
:104C5000110521F7C0930B2684EB95E30E94703277
:104C60005AC080910B2690E0002E02C09595879542
:104C70000A94E2F780FF1CC08D2F002E01C0880F20
:104C80000A94EAF780930B2641E064E086EB95E313
:104C90000E94227C41E061E086EB95E30E94227C49
:104CA00040E060E886EB95E30E94227CC0930B26EF
:104CB0000F5F1F4F04301105A1F600E010E0EC2E4D
:104CC000F12CCC24C394D12CC701002E02C09595A1
:104CD00087950A94E2F780FF0EC0C601002E01C03E
:104CE000880F0A94EAF700FD869580930B260E94B0
:104CF000EB1A0E94D21A0F5F1F4F0430110521F7E3
:104D0000C0930B2684EB95E30E94363260E070E09E
:104D1000CB010E94EE1980E0DF91CF911F910F919E
:104D2000FF90EF90DF90CF9008953F924F925F9267
:104D30006F927F928F929F92AF92BF92CF92DF92AB
:104D4000EF92FF920F931F93CF93DF9300D01F92A8
:104D5000CDB7DEB7382E4B0180930B26E12CF12C1A
:104D6000682E712C8FE4482E88E2582E94E6C92EC6
:104D700098E2D92E2BE7A22E28E2B22EC3010E2CE8
:104D800002C0959587950A94E2F780FF43C081E0C1
:104D900090E00E2C02C0880F991F0A94E2F78093CE
:104DA0000B269F938F93AAE2B8E2BF93AF930E9422
:104DB0005B908E010F5F1F4F9E012E5F3F4FAE0134
:104DC0004D5F5F4FBE016C5F7F4FC4010E943E7913
:104DD0008C811F928F93ABE3B8E2BF93AF930E9495
:104DE0005B908B811F928F935F924F920E945B909A
:104DF0008A811F928F93DF92CF920E945B9089816C
:104E00001F928F93BF92AF920E945B9030920B26BD
:104E1000CDBFDEBFBFEFEB1AFB0A84E0E816F1045A
:104E200009F0ACCF80E02496CDBFDEBFDF91CF91FB
:104E30001F910F91FF90EF90DF90CF90BF90AF90B8
:104E40009F908F907F906F905F904F903F900895CC
:104E5000CF92DF92EF92FF920F931F93CF93DF9346
:104E60001F92CDB7DEB780930B260E94EB1AC12CA0
:104E7000D12C03E918E28CE9E82E88E2F82E6C2D9B
:104E800080E8C816D10409F18C2D837061F4DF929B
:104E9000CF921F930F9369830E945B900F900F90A6
:104EA0000F900F90698182EB95E30E94F7539F93D7
:104EB0008F93FF92EF920E945B908FEFC81AD80AEF
:104EC0000F900F900F900F90DACF8AE090E00E9441
:104ED0006F9082EB95E30E94675A0E94D21A80E09D
:104EE0000F90DF91CF911F910F91FF90EF90DF9086
:104EF000CF900895CF92DF92EF92FF920F931F937E
:104F0000CF93DF931F921F92CDB7DEB780930B260E
:104F100019821A8283EAE82E86E2F82E00E010E079
:104F200094EAC92E98E2D92E80910B2690E0002EAB
:104F300002C0959587950A94E2F780FF1FC0AE01E5
:104F40004F5F5F4FF801E555F94D6081F7018081B2
:104F500091810E9435818A818F9389818F93C801C5
:104F60008F5B9F4F9F938F93DF92CF920E945B90B6
:104F70000F900F900F900F900F900F900F5F1F4F9B
:104F8000F2E0EF0EF11C0430110571F680E00F9095
:104F90000F90DF91CF911F910F91FF90EF90DF90D5
:104FA000CF90089580910B269FEF980F9F3028F0A7
:104FB0008BE197E20E94759004C00E947A278111CC
:104FC000F7CF80E008959F92AF92BF92CF92DF9289
:104FD000EF92FF920F931F93CF93DF931F92CDB762
:104FE000DEB7E82E80930B26198200E010E0F12C4A
:104FF000A82EB12C9924939487EBC82E88E2D82E42
:10500000C501002E02C0959587950A94E2F780FFAE
:1050100024C0892D002E01C0880F0A94EAF78093DE
:105020000B26AE014F5F5F4F62E080EB95E30E947D
:10503000117BF80E89811F928F9380910B261F920E
:105040008F93DF92CF920E945B90E0920B260F909D
:105050000F900F900F900F900F900F5F1F4F043025
:10506000110571F68F2D0F90DF91CF911F910F9148
:10507000FF90EF90DF90CF90BF90AF909F900895FA
:1050800082E597E29F938F9385E597E29F938F93B5
:105090000E945B900F900F900F900F9020E0409136
:1050A000072669E084EC95E20C94618A8EED98E223
:1050B0000E9475900E94888080E00895CF9380912F
:1050C000C0259091C125A091C225B091C325892BFF
:1050D0008A2B8B2B29F084EB95E30E947A320BC04C
:1050E00084EB95E30E943632C82F60E070E0CB017C
:1050F0000E94EE198C0F882321F08BE197E20E9429
:10510000759080E0CF910895CF9380917C25909108
:105110007D25A0917E25B0917F25C0910B26892BFE
:105120008A2B8B2BB9F1C0FF0DC081E080930B2639
:105130000E94EB1A61E070E082EB95E30E94CC5193
:105140000E94D21AC1FF0DC081E080930B260E94FD
:10515000EB1A61E070E082EB95E30E94CC510E9473
:10516000D21AC2FF0DC084E080930B260E94EB1A76
:1051700061E070E082EB95E30E94CC510E94D21A6C
:10518000C3FF44C084E080930B260E94EB1A61E0C9
:1051900070E036C0C0FF0DC081E080930B260E94F6
:1051A000EB1A60E070E082EB95E30E94CC510E9424
:1051B000D21AC1FF0DC081E080930B260E94EB1A2A
:1051C00060E070E082EB95E30E94CC510E94D21A1D
:1051D000C2FF0DC084E080930B260E94EB1A60E0B2
:1051E00070E082EB95E30E94CC510E94D21AC3FF7B
:1051F0000DC084E080930B260E94EB1A60E070E003
:1052000082EB95E30E94CC510E94D21AC0930B26E8
:1052100080E0CF910895CF93DF93E091CB35F0916B
:10522000CC35A091CD35B091CE358091D1359091CE
:10523000D23518962D913C9119978217930718F53E
:1052400016964D915C9117979C012F5F3F4F2093CD
:10525000D1353093D2352781EA01C80FD91F288371
:105260002091D1353091D23518968D919C91199716
:105270002817390718F482E083830AC087E0838304
:105280001092D53505C083E0838389EF8093D535AF
:10529000DF91CF910895E091CB35F091CC35A0917D
:1052A000CD35B091CE358091CF359091D0351496D3
:1052B0002D913C9115978217930764F49C012F5F01
:1052C0003F4F2093CF353093D035A80FB91F11969B
:1052D0008C9122C08091D1359091D23518962D9124
:1052E0003C91199782179307C8F42091D335222354
:1052F00021F0868181608683089516962D913C91D8
:105300001797AC014F5F5F4F4093D1355093D23523
:10531000D901A80FB91F8C918783089583E08383F7
:105320001092D5350895FC019481937081E09130FD
:1053300009F080E008958091D5358038E1F38091BF
:10534000CB359091CC350E949329811101C0F7CFC4
:105350008091D5351092D43508958FBF08958FB7B9
:10536000F89408959091D435992319F081110DC0C6
:10537000FFCF0E94AF2991E09093D43590E89093AD
:10538000D5350E94AD2980E0089586EF089560E04C
:1053900078E488EE91E008950C94C7290C94CC2908
:1053A0000C94CE290C94D029DC01ED91FC9111973D
:1053B00048634087ED91FC91660F63870895FC0177
:1053C000608371834283538324833583DC01AA5B2A
:1053D000BF4F1C9211961C9211961C9211961C9212
:1053E000E25BFF4F10820895FF920F931F93CF93BC
:1053F000DF93009771F16115710559F1F42EEB01FE
:105400008C018A850E94B229811124C00093CB357A
:105410001093CC35C093CD35D093CE351092CF3587
:105420001092D0351092D1351092D235F092D335FA
:105430008881880F2C813D81232B11F4F11081602C
:10544000F8018683DF91CF911F910F91FF900C940B
:105450009B2988EFDF91CF911F910F91FF900895C5
:105460000C94F429DF92EF92FF920F931F93CF9346
:10547000DF931F92CDB7DEB78C01DC011296ED9061
:10548000FC9013971092C1351092C4351092C53517
:105490006093C6357093C735842F90E08093C835EC
:1054A0009093C9351092CA35D12CF8018085D81651
:1054B00030F5D8011696ED91FC911797608170E058
:1054C0008D2D90E00D2C02C0759567950A94E2F73A
:1054D00060FF17C01496ED91FC911597E80FF91F26
:1054E00080818093C035422F60EC75E3C70129832A
:1054F0000E94302A2981811106C0222311F080E008
:1055000003C0D394D2CF81E00F90DF91CF911F9150
:105510000F91FF90EF90DF900895CF92DF92EF927E
:10552000FF920F931F93CF93DF936C017B018A014E
:10553000FB01C1818FEF8C0F8F3020F081E0F801EB
:1055400080834EC0FB012481822F6C2F0E94A58D89
:105550009111F4CF211102C0C0E019C0D0E0F701D1
:1055600084816C2F0E94A58DD817B0F7F701628156
:105570007381DC9F600D711D112420E04C2FC6014A
:105580000E94322A811102C0DF5FE9CFC1E0F80139
:10559000D181D03110F184818823F9F0DF506D2F53
:1055A0000E94A58D9111CACFF12CF80184816D2F35
:1055B0000E94A58DF81688F4F80162817381FD9E22
:1055C000600D711D112421E04D2FC6010E94322A69
:1055D000811102C0F394E9CFC1E0F801C0838C2FA0
:1055E000DF91CF911F910F91FF90EF90DF90CF90BF
:1055F0000895FC01DB0114968C91858388EB8183EF
:1056000081E08483EBECF5E311861286E0EAF0E0BA
:10561000828182608283789480E00895E091CB3526
:10562000F091CC35848183FF06C08860848383E059
:10563000838386EF0EC0982F947121F083E08383DB
:105640008FEF07C086FD0C944B2987FD0C940B2926
:105650008BEF8093D53508951F920F920FB60F925E
:1056600011240BB60F922F933F934F935F936F9339
:105670007F938F939F93AF93BF93EF93FF930E947A
:105680000E2BFF91EF91BF91AF919F918F917F91E1
:105690006F915F914F913F912F910F900BBE0F90A3
:1056A0000FBE0F901F9018951F920F920FB60F927A
:1056B00011240BB60F922F933F934F935F936F93E9
:1056C0007F938F939F93AF93BF93EF93FF930E942A
:1056D0000E2BFF91EF91BF91AF919F918F917F9191
:1056E0006F915F914F913F912F910F900BBE0F9053
:1056F0000FBE0F901F901895CF93DF931F92CDB7D9
:10570000DEB76983FC01E65BFF4FBE016F5F7F4F31
:10571000808191810E949F5C91E089270F90DF91A9
:10572000CF910895FB01108283E1818384E084831B
:10573000A281B3811C92A281B38111961C92A28195
:10574000B38112961C920280F381E02D4383089569
:10575000EF92FF920F931F93FC01108284E08183EC
:105760008483A281B3811C93A281B38111960C938F
:10577000A281B3811296FC920280F381E02D8E2DDE
:10578000807F4F70482B4383FB0114821F910F9140
:10579000FF90EF9008958823A9F020E030E090E09A
:1057A000482F50E0BA01022E02C0759567950A9401
:1057B000E2F760FD922F2F5F3F4F2730310591F7C1
:1057C000892F089583E0089590E08031910588F550
:1057D000FC018827EC50FF4F8F4F0C94B68E86E764
:1057E00092E0089582EE94E0089588E196E00895AD
:1057F00088E597E008958EE898E0089584EC99E0B4
:1058000008958AEF9AE008958AE39CE0089580E77E
:105810009DE0089586EA9EE008958CED9FE008954E
:105820008CE191E1089582E592E1089588E893E1A1
:1058300008958CEA93E0089586E391E008950F932C
:105840001F93CF93DF93009709F4F0C061157105A2
:1058500009F4EEC0EB018C0160E00E94EC7781114D
:105860000CC08091BC359091BD35A091BE35B091F2
:10587000BF3588839983AA83BB8361E0C8010E94F6
:10588000EC7781110CC08091BC359091BD35A09111
:10589000BE35B091BF358C839D83AE83BF8362E0FC
:1058A000C8010E94EC7781110CC08091BC359091A9
:1058B000BD35A091BE35B091BF3588879987AA873D
:1058C000BB8763E0C8010E94EC7781110CC0809116
:1058D000BC359091BD35A091BE35B091BF358C8758
:1058E0009D87AE87BF8764E0C8010E94EC77811175
:1058F0000CC08091BC359091BD35A091BE35B09162
:10590000BF35888B998BAA8BBB8B65E0C8010E9441
:10591000EC7781110CC08091BC359091BD35A09180
:10592000BE35B091BF358C8B9D8BAE8BBF8B66E047
:10593000C8010E94EC7781110CC08091BC35909118
:10594000BD35A091BE35B091BF35888F998FAA8F94
:10595000BB8F67E0C8010E94EC7781110CC0809179
:10596000BC359091BD35A091BE35B091BF358C8FBF
:105970009D8FAE8FBF8F68E0C8010E94EC778111C8
:105980000CC08091BC359091BD35A091BE35B091D1
:10599000BF3588A399A3AAA3BBA369E0C8010E944D
:1059A000EC7781110CC08091BC359091BD35A091F0
:1059B000BE35B091BF358CA39DA3AEA3BFA36AE053
:1059C000C8010E94EC7781110CC08091BC35909188
:1059D000BD35A091BE35B091BF3588A799A7AAA7BC
:1059E000BBA76BE0C8010E94EC7781110CC08091CD
:1059F000BC359091BD35A091BE35B091BF358CA717
:105A00009DA7AEA7BFA76CE0C8010E94EC778111EB
:105A100011C04091BC355091BD356091BE3570913B
:105A2000BF3548AB59AB6AAB7BAB05C081E003C067
:105A300083E001C080E0DF91CF911F910F91089525
:105A40008F929F92AF92BF92CF92DF92EF92FF928E
:105A50000F934A015B0120EF8222642F6F70CC24E8
:105A6000CA94DC2C760100E0A50194010E94277DF8
:105A700080E00F91FF90EF90DF90CF90BF90AF90BC
:105A80009F908F900895CF92DF92EF92FF920F93A5
:105A9000009729F14115510521E06207710550F485
:105AA000411551056105710549F441E050E060E0A0
:105AB00070E004C04FEF5FEF60E070E0BA0155277F
:105AC00044279A01AB0120613460CC24CA94DC2CB9
:105AD000760100E06CE00E94277D80E001C081E05B
