:100000000C9437170C9458170C9458170C945817D5
:100010000C9458170C9458170C9458170C945817A4
:100020000C9458170C9458170C9458170C94581794
:100030000C9458170C94C8480C9458170C945817E3
:100040000C9458170C9458170C9458170C94581774
:100050000C9458170C9458170C9458170C94581764
:100060000C9458170C9477190C9458170C944D193C
:100070000C9458170C9458170C9458170C94581744
:100080000C9458170C9458170C9458170C94581734
:100090000C9458170C9458170C9458170C94581724
:1000A0000C9458170C9458170C9458170C94581714
:1000B0000C9458170C9458170C94A0480C9458178B
:1000C0000C9458170C9458170C9458170C945817F4
:1000D0000C9458170C9458170C9458170C945817E4
:1000E0000C9458170C9458170C9458170C945817D4
:1000F0000C9458170C9458170C9458170C945817C4
:100100000C9458170C9458170C9458170C945817B3
:100110000C9458170C9458170C9458170C945817A3
:100120000C9458170C9458170C9458170C94581793
:100130000C9458170C9458170C9458170C94581783
:100140000C9458170C9458170C9458170C94581773
:100150000C9458170C9458170C9458170C94581763
:100160000C9458170C9458170C9458170C94581753
:100170000C9458170C9458170C9458170C94581743
:100180000C9458170C9458170C9458170C94581733
:100190000C9458170C9458170C9458170C94581723
:1001A0000C9458170C9458170C9458170C94581713
:1001B0000C9458170C9458170C9458170C94581703
:1001C0000C9458170C9458170C9458170C945817F3
:1001D0000C9458170C9458170C9458170C945817E3
:1001E0000C9458170C945817681A6C1A701A741AD1
:1001F000781A7C1A801A841A193C123CC43B123CAF
:10020000D13B123CDE3B123CEB3B123CF83B123C38
:10021000053CC53CC53CE63C003DA73CA23C123D2C
:10022000053DBB3CB13CC03CB63CDC3DD83DBA3D95
:10023000D83DBF3DD83DC43DD83DC93DD83DCE3D5C
:10024000D83DD33DD53ECB3E5F3ECB3E713ECB3E0F
:10025000833ECB3E953ECB3EA73ECB3EB93E0C40C7
:100260000840EA3F0840EF3F0840F43F0840F93FAC
:100270000840FE3F08400340EA40E2408E40E24032
:100280009C40E240AA40E240B840E240C640E24022
:10029000D4404D4249422B424942304249423542C4
:1002A00049423A4249423F4249424442174310437D
:1002B000C2421043CF421043DC421043E942104394
:1002C000F64210430343F343EF43D143EF43D64396
:1002D000EF43DB43EF43E043EF43E543EF43EA43C0
:1002E0009B4494444644944453449444604494440A
:1002F0006D4494447A4494448744314D2D4D0F4DC0
:100300002D4D144D2D4D194D2D4D1E4D2D4D234D63
:100310002D4D284DAA4DA64D884DA64D8D4DA64D6F
:10032000924DA64D974DA64D9C4DA64DA14D774F94
:10033000704F224F704F2F4F704F3C4F704F494FAF
:10034000704F564F704F634F0C94BB3C0C949029E8
:100350000C94A23C0C941F290C9413290C94104368
:100360000C94EF3F0C9497630C9408400C94974DB9
:100370000C9430420C949B440C94A73C0C94602D3C
:100380000C947E2D0C94774F0C94781A0C94142EA8
:100390000C945F640C94D53E0C94EB3B0C9444425B
:1003A0000C94AA2F0C94D4400C943C290C94FE3F3E
:1003B0000C94A64D0C94CE610C9439210C94712EA2
:1003C0000C94142B0C94D33D0C94AC640C94B56E2B
:1003D0000C94E9420C94D6430C94E85F0C94C43D11
:1003E0000C94E05F0C94053D0C942D4D0C94C12DA4
:1003F0000C94B13C0C9487440C94F43F0C940B2F58
:100400000C94EA400C94C53C0C94CE2E0C94B63C53
:100410000C94D2300C945A300C946C1A0C946828BA
:100420000C94D83D0C94E2640C945E610C94E5430A
:100430000C94C6400C942B420C9418300C94E72F6B
:100440000C9433210C94193C0C94EA3F0C94DC2955
:100450000C9419290C94F6420C945F3E0C943A4289
:100460000C94EE5F0C94314D0C94C93D0C94632AAE
:100470000C94833E0C94123C0C9449420C94224FF1
:100480000C941E4D0C94EC5F0C94DC3D0C94E65FD8
:100490000C94422A0C947A640C943F420C940B31D5
:1004A0000C949C400C941B290C94CB3E0C946044FF
:1004B0000C943C4F0C94A14D0C94704F0C94D14370
:1004C0000C94494F0C94BF3D0C9403400C947C62F7
:1004D0000C94D13B0C94E0430C9497600C945344DF
:1004E0000C94C7640C949C4D0C94AE2E0C947E28F6
:1004F0000C940F4D0C94CF420C94C03C0C94E240F1
:100500000C94C0280C945E210C94741A0C944F2FF8
:100510000C9494440C9462210C94FB630C947C1A0C
:100520000C94A73E0C94C4290C9433630C94E25FA2
:100530000C94DC420C94634F0C94FD640C94701A80
:100540000C94234D0C94F2600C94BA3D0C94123D23
:100550000C940C400C94EA430C9407650C947A4478
:100560000C945A170C944D420C94B8400C941743B9
:100570000C94AA400C94884D0C94F12C0C94EF43ED
:100580000C9444310C94A22C0C94194D0C941D29FC
:100590000C94801A0C94F93F0C948D4D0C94C43B30
:1005A0000C94953E0C942F4F0C94D52A0C94DF2D6F
:1005B0000C94B93E0C948E400C9402290C94952A0C
:1005C0000C94053C0C94144D0C940D2A0C94C242CE
:1005D0000C94502A0C9446440C94681A0C94003DD8
:1005E0000C94AA4D0C94DE3B0C94841A0C94E45F9A
:1005F0000C9417290C94F83B0C9466210C94564FDC
:100600000C941D2D0C9489300C9435420C94342A92
:100610000C94284D0C946D440C94CE3D0C941B2AE4
:100620000C948A2F0C9403430C9421290C94713E52
:100630000C9421620C94E63C0C9481310C94DB43C5
:100640000C94F3430C9415290C94512E0C94924D58
:100650000C9449210C94EA5F6364696E6F70737542
:1006600078585B001D03ED01DCFDCCF5BCE5ACC5A5
:10067000A86EBCE5ACC59C85960392C1912190966D
:100680006572726F723A20756E7265636F676E691C
:100690007A656420636F6D6D616E64206F7074693C
:1006A0006F6E0A00596F7520686176652062656516
:1006B0006E206772616E74656420726F6F74207053
:1006C00065726D697373696F6E73210A005468698E
:1006D00073206973206E6F7420616E206F70657275
:1006E0006174696E672073797374656D210A0043C4
:1006F0006F6D6D616E64733A0A0055736167653A98
:10070000205B636D645D205B2D7C2D2D5D5B6172D4
:1007100067315D205B2D7C2D2D5D5B617267325DE5
:100720002E2E2E0A005475726E206F6666206F752D
:1007300074707574732028706572206368616E6EC2
:10074000656C292E00536574207072657363616C4B
:10075000617220666F722063616C6C696272617491
:10076000696F6E2E005365742063616C6C696272F0
:100770006174696F6E204E20646976696465722EBB
:10078000004368616E676520696E7465726E616CA6
:10079000207265666572656E636520444143206F13
:1007A000757470757420766F6C7461676500414470
:1007B000524636353138204C6F772042616E6400E6
:1007C00041445246363531382048696768206261B5
:1007D0006E6400536574207468652052465341204E
:1007E000617474656E74756174696F6E2E2030204B
:1007F000746F203238202830644220746F202D32EC
:10080000386442292E004269742062616E67206F4D
:100810007065726174696F6E2E20313A207772694B
:10082000746520303A207265616400426974206208
:10083000616E672064617461206F66204441432EBD
:10084000004269742062616E67206164647265733E
:1008500073206F66204441432E00457865637574AC
:1008600065207468652073657264657320746573B0
:10087000742E2028302D3529207465737420706102
:10088000747465726E2E00536574207468652069F7
:100890006E746572706F6C6174696F6E2031782848
:1008A00030292C2032782831292C203478283229FC
:1008B0002C203878283429206F7220313678283857
:1008C000292E00456E61626C652074686520504178
:1008D0002028706F77657220616D706C696669653C
:1008E00072292070726F74656374696F6E2063691A
:1008F00072637569742E203120746F20656E616299
:100900006C652E005365742074686520636D6420E7
:10091000696E7075742066726F6D204A4553442865
:100920003029206F72205350492831292E005365F9
:10093000742074686520284629206672616D65738D
:1009400020706572206D756C74692D6672616D65BD
:100950002E005365742074686520284D2920636F2C
:100960006E7665727465727320706572206C696E44
:100970006B2E005365742074686520284C29206C08
:10098000616E657320706572206C696E6B2E00530A
:100990006574207468652066726571206F75747067
:1009A0007574206F662065787465726E616C204482
:1009B000414320636C6B20616674657220696E74BC
:1009C00065726E616C20434C4B206369726375697C
:1009D0007420284D487A292E004552524F523A2011
:1009E0004661696C656420746F20736574001D0333
:1009F000ED01DCFDCCF5BCE5ACC5A86EBCE5ACC535
:100A00009C85960392C1912190965072696E747381
:100A1000206F7574207468652068656C70206D6542
:100A20006E7520666F722074686520626F617264F3
:100A30002E0045786974732066726F6D2074686942
:100A40007320626F617264206261636B20746F2037
:100A5000746865204449474954414C20626F617273
:100A6000642E00426F6F746C6F61646572206F70EA
:100A700074696F6E732E004F4E2F4F46462073776A
:100A80006974636865732C202830206973204F4691
:100A9000462C2031206973204F4E2900436F6D6D25
:100AA000616E647320666F7220616363657373693E
:100AB0006E67207468652068656172746265617430
:100AC0002073746174757300436F6E74726F6C730E
:100AD0002074686520626F617264206C6576656C55
:100AE0002066756E6374696F6E732E205365717521
:100AF000656E7469616C2065786563206F6620613E
:100B00007267756D656E74732E0052656164206145
:100B10006E6420777269746520636F6D6D616E64B9
:100B20007320666F7220646562756767696E672EF1
:100B300000436F6D6D616E647320666F7220736524
:100B40007474696E6720484D433938382067726F76
:100B500075702064656C6179732E00436F6D6D61F3
:100B60006E647320666F722073657474696E67209B
:100B70004A4553442F504C4C204E2F5220646976E6
:100B8000696465727300436F6D6D616E6473206696
:100B90006F722073657474696E6720746865204C89
:100BA0004D4B30343832382064656C617920636C89
:100BB0006F636B732E00436F6D6D616E647320669F
:100BC0006F722073657474696E6720746865204C59
:100BD0004D4B30343832382064656C617920636C59
:100BE0006F636B732E00436F6D6D616E647320666F
:100BF0006F72206D616E6167696E67207468652031
:100C0000434C4B2067656E65726174696F6E20742A
:100C100068726F756768204C4D4B30343832382C11
:100C200020414435363234522C20484D4339383730
:100C30002E00436F6D6D616E647320666F72206D60
:100C4000616E6167696E672074686520434C4B2054
:100C500067656E65726174696F6E207468726F7516
:100C60006768204C4D4B30343832382C20414435A5
:100C7000363234522C20484D433938372E005072CA
:100C8000696E7473206F7574207468652068656C74
:100C900070206D656E7520666F72207468652062C5
:100CA0006F6172642E0045786974732066726F6D8F
:100CB000207468697320626F617264206261636B83
:100CC00020746F20746865204449474954414C2082
:100CD000626F6172642E00426F6F746C6F61646545
:100CE00072206F7074696F6E732E004F4E2F4F46D7
:100CF000462073776974636865732C2028302069F7
:100D000073204F46462C2031206973204F4E290016
:100D100053746174757320616E642066756E6374BC
:100D2000696F6E73207573656420666F72206368E7
:100D300065636B696E672074686520626F617264B9
:100D40002E2000436F6E74726F6C73207468652080
:100D5000626F617264206C6576656C2066756E6387
:100D600074696F6E732E2053657175656E74696159
:100D70006C2065786563206F6620617267756D65AC
:100D80006E74732E004578656375746573207465A1
:100D9000737420766563746F72732E005265676991
:100DA000737465722064756D707320666F72207243
:100DB00065737065637469766520706572697068C3
:100DC0006572616C732E00436F6E74726F6C73206A
:100DD0007468652066726F6E74656E64205246207A
:100DE00073776974636865732E00436F6D6D616E10
:100DF000647320666F7220746865204144524636E1
:100E0000353138207661726961626C65206761698D
:100E10006E20616D706C69666965722E0050726932
:100E20006E7473206F7574207468652068656C70CB
:100E3000206D656E7520666F722074686520626F24
:100E40006172642E0045786974732066726F6D203C
:100E50007468697320626F617264206261636B20E1
:100E6000746F20746865204449474954414C20629E
:100E70006F6172642E00426F6F746C6F6164657293
:100E8000206F7074696F6E732E004F4E2F4F464661
:100E90002073776974636865732C20283020697328
:100EA000204F46462C2031206973204F4E290043A5
:100EB0006F6E74726F6C732074686520626F6172FC
:100EC00064206C6576656C2066756E6374696F6E00
:100ED000732E2053657175656E7469616C20657839
:100EE0006563206F6620617267756D656E74732E21
:100EF0000050726F7669646573207468652073743E
:100F000061747573206F662074686520626F61720A
:100F1000642E0052656769737465722064756D7024
:100F20007320666F7220726573706563746976658D
:100F3000207065726970686572616C732E00436F12
:100F40006E74726F6C73207468652066726F6E7455
:100F5000656E642052462073776974636865732EEA
:100F600000436F6D6D616E647320666F72207468EC
:100F7000652044414333384A38342E0052756E732D
:100F80002073706563696669656420746573742095
:100F9000766563746F72206F6620746865204144C3
:100FA0005246363531380052756E73207370656362
:100FB0006966696564207465737420766563746F0F
:100FC00072206F662074686520414443313644586E
:100FD0003337300052756E732073706563696669CC
:100FE0006564207465737420766563746F72206F16
:100FF000662074686520504341393533382E0043EC
:101000006C656172207468652073706563696669D8
:101010006564204750494F582070696E206C6F7787
:101020002E0053657420746865207370656369666B
:10103000696564204750494F582070696E2068697F
:1010400067682E003A212210FF0FD40FA70F7C0FE4
:101050005072696E7473206F757420696E207665A6
:1010600072626F7365206D6F64652E203120746F1E
:1010700020656E61626C652E004E6F20617267752F
:101080006D656E74206E65636573736172792E0091
:10109000456E7465722074686520626F6F746C6F42
:1010A000616465722E00484D43393837004C4D4B12
:1010B00030343032380052657475726E73204D438F
:1010C000552064657669636520696E666F726D612F
:1010D00074696F6E2E00476574732C20616E6420F6
:1010E0007468656E207265736574732C20504C4C67
:1010F000204C6F7373206F66204C6F636B205374AA
:10110000617475732E004765747320504C4C204CED
:101110006F636B20446574656374205374617475E8
:10112000730048656172746265617420696E6974E8
:1011300069616C697A6174696F6E2066756E63743B
:10114000696F6E20746F2073657420636F756E74A1
:10115000657220746F203000486561727462656149
:10116000742066756E6374696F6E20746F2072658B
:101170007365742074686520686561727462656166
:101180007420636F756E7465720048656172746275
:101190006561742066756E6374696F6E20746F206C
:1011A000616E642066726F6D20746865207365726D
:1011B0007665720053656C6563747320474C4520F7
:1011C0006D6F64653A204D43555F474C4528312982
:1011D000206F722053594E54485F465047415F4735
:1011E0004C45202832290050726F7669646573205F
:1011F00074686520616D6F756E74206F6620524152
:101200004D206C65667420286279746573292E0000
:1012100050726F7669646573207468652074656DBB
:1012200070657261747572652028302D31292E0029
:10123000426C696E6B7320746865204C4544206174
:1012400020737065636966696564206E756D62659B
:1012500072206F662074696D65732E005072696E1E
:101260007473206F75742074686520736F6674776B
:1012700061726520616E6420686172647761726575
:101280002076657273696F6E2E005475726E7320CE
:1012900065766572797468696E67206F66662E0080
:1012A0005475726E206F666620706572697068652D
:1012B00072616C732E00506F776572206379636C76
:1012C00065207065726970686572616C7320616E0B
:1012D000642072756E7320626F61726420696E693A
:1012E000742028706572206368616E6E656C292EAB
:1012F0000052756E7320646961676E6F7374696301
:10130000206F6E207065726970686572616C20284C
:10131000706572206368616E6E656C292E2053685B
:101320006F756C64207072696E7420616C6C2072D1
:1013300065676973746572732E005475726E206FE1
:101340006E206F75747075747320287065722063D9
:1013500068616E6E656C292E0052657772697465DE
:1013600020616C6C207265677320666F7220656EF9
:101370007469726520626F6172642E0052656164E7
:1013800020616E6420777269746520636F6D6D6192
:101390006E647320666F7220646562756767696E3C
:1013A000672E004765742F73657420484D432052A3
:1013B0007820427566666572206269617320283004
:1013C0002069732064656661756C742C2031206619
:1013D0006F722073696E75736F6469616C202F2062
:1013E0006E6F6E2D4C565045434C20414320636F29
:1013F00075706C696E672E29004765742F7365746C
:1014000020484D43207265666572656E636520698C
:101410006E707574206469766964657273202876CD
:10142000616C6964206469766964657273206172B5
:1014300065203D20325E6E2C206E3D312E2E3529EA
:10144000004765742F7365742064656C6179206C46
:10145000696E6520736574706F696E742E004765E0
:10146000742F73657420746865206F75747075745B
:10147000206C61756E63682070686173652E00531F
:101480006574206569746865722053594E43206FF6
:101490007220534C4950207573696E672053504930
:1014A00020636F6D6D756E69636174696F6E2E0078
:1014B0004765742F736574207468652053594E43D3
:1014C0002064656C617920646976696465722E00B8
:1014D00053656C65637473206265747765656E200F
:1014E0007468652074776F20484D4339383820641C
:1014F00065766963657320287265666572656E63DB
:101500006520616E64206C6D6B292E00536574201C
:10151000636C6F636B20646976696465722E005337
:101520006574204E206469766964657220666F7206
:1015300020504C4C2E00536574205220646976690B
:1015400064657220666F7220504C4C2E0053656C9F
:10155000656374206469766964657220746F2073B2
:1015600065742E00536574206469676974616C202A
:1015700064656C617920636C6F636B2E0053656CDE
:101580006563742064657669636520636C6F636B63
:101590002E0053656C656374204A455344206F7276
:1015A00020504C4C2E0052652D73796368726F6E1B
:1015B000697A65206F7574707574206469766964E2
:1015C0006572732066726F6D20626F7468204C4D77
:1015D0004B73005365742074686520444143206355
:1015E0006F6E74726F6C6C696E6720584F20567204
:1015F00065662C20302D3430393620667261637474
:10160000696F6E2056657874004973737565205351
:1016100059535245462070756C7365732066726F1E
:101620006D204A4553442E00456E61626C6520650D
:1016300078742D31304D487A207265666572656E1A
:101640006365202831292E005072696E7473206FF3
:10165000757420696E20766572626F7365206D6F98
:1016600064652E203120746F20656E61626C652E7A
:1016700000456E7465722074686520626F6F746CCB
:101680006F616465722E004E6F20617267756D65C3
:101690006E74206E65636573736172792E004144C8
:1016A00043313644583337300041445246363531A1
:1016B0003800484D433833784C50364700526574F3
:1016C00075726E73204D435520646576696365209D
:1016D000696E666F726D6174696F6E2E00504C4C4E
:1016E000204C6F636B20446574656374696F6E2072
:1016F0004D656368616E69736D2E00486561727433
:101700006265617420696E7469616C697A6174697B
:101710006F6E2066756E6374696F6E20746F2073D0
:10172000657420636F756E74657220746F2030006D
:10173000436F6D6D616E6420666F722072657365B4
:101740007474696E6720746865206865617274627C
:101750006561742076616C756520666F72207468AF
:101760006520525820626F61726400436F6D6D6135
:101770006E6420666F72207072696E74696E672085
:101780007468652063757272656E74206865617235
:1017900074626561742076616C7565206F66207473
:1017A000686520525820626F6172640053656C65F1
:1017B00063747320474C45206D6F64653A204D4338
:1017C000555F474C45283129206F722046504741CC
:1017D0005F474C452028322900426C696E6B7320AC
:1017E000746865204C4544206120737065636966A8
:1017F000696564206E756D626572206F662074691C
:101800006D65732E0050726F76696465732074681D
:10181000652074656D70657261747572652028301D
:101820002D31292E004F757470757473206120312D
:10183000362D62697420726570656174696E672007
:1018400073657175656E6365205B302C20323632AE
:1018500038302C20302C202D32363332385D206643
:10186000726F6D207468652041444320636F726518
:101870002E00456E61626C696E6720746865205346
:10188000595352454620646574656374696F6E20D0
:10189000676174652E203120746F20656E61626C03
:1018A000652C203020746F2064697361626C650060
:1018B000546865204144432077696C6C206F7574CF
:1018C000707574204A4553442054657374205061E8
:1018D000747465726E732E20303A206F66662C2009
:1018E000313A204432312E352C20323A204B3238D6
:1018F0002E352C20333A2072707420494C412C2014
:10190000343A2072616D702C20353A20484947489E
:101910002E00546865204144432077696C6C206533
:101920006E61626C65207468652053595352454658
:1019300020646574656374696F6E206761746520E7
:10194000666F72204A45534420696E697469616C00
:10195000697A6174696F6E2E0050726F7669646582
:10196000732074686520616D6F756E74206F6620DA
:1019700052414D206C656674202862797465732924
:101980002E005072696E7473206F757420746865D0
:1019900020736F66747761726520616E6420686180
:1019A0007264776172652076657273696F6E2E005E
:1019B0005475726E732065766572797468696E67A6
:1019C000206F66662E005475726E206F66662070FA
:1019D00065726970686572616C732E00506F77650F
:1019E00072206379636C65207065726970686572D6
:1019F000616C7320616E642072756E7320626F611A
:101A0000726420696E697420287065722063686151
:101A10006E6E656C292E005475726E206F6666209E
:101A20006F757470757473202870657220636861B7
:101A30006E6E656C292E0052756E73206469616745
:101A40006E6F73746963206F6E2070657269706861
:101A50006572616C2028706572206368616E6E65C6
:101A60006C292E2053686F756C64207072696E74D7
:101A700020616C6C207265676973746572732E00E7
:101A80005475726E206F6E206F757470757473204C
:101A900028706572206368616E6E656C292E005235
:101AA00065777269746520616C6C2072656773205C
:101AB000666F7220656E7469726520626F61726410
:101AC0002E0044756D707320616C6C207468652005
:101AD00072656769737465727320666F72207468CB
:101AE000652041445246363531380044756D707377
:101AF0002074686520726567697374657273206607
:101B00006F722074686520726567756C6172206100
:101B10006E64205246204750494F580044756D70FE
:101B20007320616C6C2074686520726567697374DA
:101B300065727320666F722074686520414443317A
:101B40003644583337302E00414446343335352F30
:101B500041444635333535206175746F63616C20BF
:101B6000656E61626C6520283120666F7220656E3B
:101B700061626C65293E3E00414446343335352F61
:101B800041444635333535204469726563742052CB
:101B90006567697374657220416363657373203C84
:101BA0003C323862697420646174613E3C3462691D
:101BB0007420616464726573733E3E0053656C65A6
:101BC0006374732044534120417474656E7561746D
:101BD000696F6E2C2028303A203064426D202D3EF3
:101BE000203132373A2033312E373564426D2900A7
:101BF00053656C65637420504C4C204F7574707540
:101C00007420506F7765722028303A202D3464425A
:101C10006D2C20313A202D3164426D2C20323A2037
:101C20003264426D2C20333A203564426D29004DD8
:101C30007574657320746865204C4F204672657119
:101C400075656E63792053796E74686573697A651A
:101C500072207768656E20757365640053656C65E6
:101C60006374732074686520636F72726563742097
:101C700046696C7465722042616E6B20666F7220DB
:101C80006120676976656E206672657175656E6341
:101C90007920696E206B487A00456E61626C652F11
:101CA00044697361626C652056434F204F757470B0
:101CB0007574204672657175656E637920446F7521
:101CC000626C65720053657420504C4C2056434F33
:101CD000204F75747075742044697669646572204C
:101CE00076616C75652E20312C20322C20342C200E
:101CF00036202E2E2036320053657420504C4C2056
:101D0000466565646261636B2044697669646572E7
:101D10002076616C75652E20313620746F20353247
:101D2000343235350053657420504C4C20496E7068
:101D3000757420446976696465722076616C756596
:101D40002E203120746F2031363338330053656CC8
:101D500065637420746865207461726765742050CF
:101D60004C4C2028302920484D433833302028312E
:101D70002920484D43383333005365747320426142
:101D800073652042616E64205661726163746F7284
:101D900020766F6C746167652028302D34303936B9
:101DA00029203056202D20322E355600504C4C2004
:101DB000496E707574205265666572656E63652044
:101DC0004672657175656E637900537765657073EA
:101DD00020484D43383333206672657175656E63F4
:101DE000792066726F6D20302E3247487A20746FEA
:101DF000203647487A2077697468206120737465BB
:101E000070206F662031304D487A0053657473201E
:101E100066726571206F6620484D43383333206FFA
:101E200075747075742C20696E204B487A2E0042B0
:101E3000797061737320746865204C4E41206F6E19
:101E40002074686520686967682062616E642E206E
:101E500042797061737328312920746865204C4E73
:101E600041206F72206E6F742830292E0043686FF6
:101E70006F73652074686520686967682028302E54
:101E8000352D362047487A29206F72206C6F7720D5
:101E9000284443202D20302E352047487A292062BF
:101EA000616E642E2048696768283129206F72208E
:101EB0006C6F772830292E005365742056474127D0
:101EC00073207077722D6D6F646520626173656435
:101ED000206F6E204C5020636F726E6572206672A8
:101EE00065712E20312069662066696C74657220E8
:101EF0006D6F646520616E642033314D487A203CFB
:101F00002042572C20656C7365203630204D487A6E
:101F1000203C2042570053657420564741277320C8
:101F2000696E70757420616E616C6F672061747486
:101F3000656E756174696F6E20696E2064422E2033
:101F4000476F6573207468726F7567682041443508
:101F5000363234522E005365742056474127732081
:101F6000706F737420616D70206761696E2E203010
:101F70002D313A20332F3964422E00536574205698
:101F80004741277320616E616C6F67206761696EDE
:101F90002E20302E31644220636F6E74726F6C6C31
:101FA00065642C20496E7075743A2030202D2037DE
:101FB000323020282D3130326442202D202D333014
:101FC0006442290053657420564741277320646991
:101FD000676974616C206761696E2E2033644220EA
:101FE000696E6372656D656E74732C20496E7075D1
:101FF000743A2030202D2038202834326442202D9D
:1020000020363664422900436865636B2069662088
:10201000564741206761696E20697320746F6F2095
:102020004869676820666F72207468652041444380
:102030002E2028303A204E6F2C20313A20596573DB
:10204000290053656C6563742056474120436861DD
:102050006E6E656C2028303A20426F74682C2049DF
:102060003A20312C20513A203229004765742056FD
:1020700047412773206761696E2E005365742056AF
:1020800047412773206761696E2E202843616C6C7D
:102090007320646761696E20616E642061676169A5
:1020A0006E292E20496E7075743A2030202D20390B
:1020B0003520282D36306442202D203335644229C6
:1020C00000536574205647412773204C5020636F9E
:1020D000726E6572206672657120696E204D487A55
:1020E0002E004279706173732074686520564741F1
:1020F0002773204C502066696C7465722E20312045
:10210000746F20656E61626C652E004E756C6C207C
:10211000746865205647412773206F757470757415
:10212000204443206F6666736574732E20312074DB
:102130006F20656E61626C652E0053706563696621
:1021400079207768696368206368616E6E656C20CA
:10215000612C622C632C64204F5220626974206DC4
:1021600061736B2E204D55535420737065636966FF
:10217000792066697273742E005072696E747320D0
:102180006F757420696E20766572626F7365206D5D
:102190006F64652E203120746F20656E61626C65FE
:1021A0002E004E6F20617267756D656E74206E65CE
:1021B000636573736172792E00456E746572207465
:1021C000686520626F6F746C6F616465722E004881
:1021D0004D433833784C5036470044414333384AF6
:1021E00038340053656C65637420474C45206D6F2F
:1021F00064653A204D43555F474C452831292046B8
:102200005047415F474C4528322900456E61626C5A
:102210006573204A4553442053595352454620473D
:10222000617465004F757470757420656E61626CC1
:1022300065283129206F722064697361626C65289A
:1022400030292E0050726F7669646573207468655A
:1022500020616D6F756E74206F662052414D206C49
:1022600065667420286279746573292E0050726F38
:102270007669646573207468652074656D70657235
:1022800061747572652028302D31292E00426C69E9
:102290006E6B7320746865204C4544206120737018
:1022A00065636966696564206E756D626572206F2D
:1022B000662074696D65732E005072696E747320A8
:1022C0006F75742074686520736F667477617265CA
:1022D00020616E6420686172647761726520766542
:1022E0007273696F6E2E005475726E732065766519
:1022F00072797468696E67206F66662E0054757215
:102300006E206F6666207065726970686572616CB8
:10231000732E00506F776572206379636C6520704F
:1023200065726970686572616C7320616E64207299
:10233000756E7320626F61726420696E6974202803
:10234000706572206368616E6E656C292E0054752D
:10235000726E206F6666206F7574707574732028B6
:10236000706572206368616E6E656C292E0052750F
:102370006E7320646961676E6F73746963206F6E3A
:10238000207065726970686572616C202870657272
:10239000206368616E6E656C292E2053686F756CC2
:1023A00064207072696E7420616C6C20726567695C
:1023B00073746572732E005475726E206F6E206F89
:1023C0007574707574732028706572206368616E0F
:1023D0006E656C292E005265777269746520616C98
:1023E0006C207265677320666F7220656E74697207
:1023F0006520626F6172642E0052657475726E732F
:10240000204D43552064657669636520696E666F6B
:10241000726D6174696F6E2E004C6F636B20446542
:1024200074656374696F6E204D656368616E69736E
:102430006D0048656172746265617420696E6974CB
:1024400069616C697A6174696F6E2066756E637418
:10245000696F6E20746F2073657420636F756E747E
:10246000657220746F203000436F6D6D616E642063
:10247000666F7220726573657474696E6720746824
:10248000652063757272656E74206865617274622E
:102490006561742076616C7565206F6620545820E4
:1024A000626F61726400436F6D6D616E6420666F70
:1024B00072207468652063757272656E7420686539
:1024C000617274626561742076616C7565206F66F7
:1024D0002074686520545820626F617264004475EE
:1024E0006D707320746865207265676973746572B6
:1024F0007320666F72207468652044414333384A04
:1025000038340044756D7073207468652072656797
:1025100069737465727320666F72207468652072C7
:102520006567756C617220616E6420524620475069
:10253000494F5800414446343335352F41444635E0
:10254000333535206175746F63616C20656E61622F
:102550006C6520283120666F7220656E61626C6543
:10256000293E3E00414446343335352F41444635FB
:102570003335352044697265637420526567697329
:1025800074657220416363657373203C3C3238622A
:10259000697420646174613E3C34626974206164D2
:1025A00064726573733E3E00524620417474656EDA
:1025B0007561746F722053657474696E672028307A
:1025C0003A20306442202D3E203132373A202D33DC
:1025D000312E373564422900504C4C204F757470B1
:1025E000757420506F7765722028303A202D34643E
:1025F000426D2C20313A202D3164426D2C20323A2C
:10260000202B3264426D2C20333A202B3564426DEE
:10261000290053656C656374732074686520636F6B
:1026200072726563742046696C7465722042616ED3
:102630006B20666F72206120676976656E20667216
:10264000657175656E637920696E206B487A004DFF
:102650007574657320746865204C4F2046726571EF
:1026600075656E63792053796E74686573697A65F0
:1026700072207768656E207573656400456E6162CF
:102680006C652F44697361626C652056434F204F1F
:102690007574707574204672657175656E63792006
:1026A000446F75626C65720053657420504C4C2009
:1026B00056434F204F757470757420446976696471
:1026C00065722076616C75652E20312C20322C20AD
:1026D000342C2036202E2E203632005365742050A4
:1026E0004C4C20466565646261636B204469766981
:1026F0006465722076616C75652E20313620746FAA
:10270000203532343235350053657420504C4C201E
:10271000496E7075742044697669646572207661CB
:102720006C75652E203120746F20313633383300BC
:1027300053656C65637420746865207461726765A5
:102740007420504C4C2028302920484D43383330D9
:102750002028312920484D43383333004E656564C5
:102760007320746F2062652063616C6C6564206CFB
:102770006173742E20536574732074686520495109
:10278000204D6F64756C61746F722E202869652E00
:10279000202D69203137202D71203133202D6D29D6
:1027A0000053657420746865204951204D6F64752D
:1027B0006C61746F722051206269617320766F6C56
:1027C000746167652028696E2064562C2066726FDC
:1027D0006D20302D3234206456292E00536574202C
:1027E000746865204951204D6F64756C61746F7217
:1027F0002049206269617320766F6C74616765207F
:1028000028696E2064562C2066726F6D20302D3240
:1028100034206456292E00504C4C20526566657257
:10282000656E636520496E7075742028696E206B33
:10283000487A2900536574732066726571206F664B
:1028400020484D43383333206F75747075742C20D5
:10285000696E204B487A2E00427970617373207440
:102860006865204C4E41206F6E2074686520686951
:1028700067682062616E642E2042797061737328EC
:10288000312920746865204C4E41206F72206E6F94
:10289000742830292E0043686F6F73652074686553
:1028A00020686967682028302E352D362047487A01
:1028B00029206F72206C6F7720284443202D203010
:1028C0002E352047487A292062616E642E2048699F
:1028D0006768283129206F72206C6F772830292E85
:1028E0000052657475726E7320746865206F72276C
:1028F00064206C616E65206572726F7273206F6602
:10290000207468652066697273742034206C616E6F
:10291000657300536574207468652073656C656326
:10292000746564205461702076616C756520666FF3
:10293000722074686520536D616C6C20467261630F
:1029400074696F6E616C2044656C617900536D61D0
:102950006C6C204672616374696F6E616C204465B3
:102960006C6179205461702073656C6563746F725B
:10297000004C61726765204672616374696F6E61B5
:102980006C2044656C61792C20436F6566666963D1
:1029900069656E74205365742073656C6563746932
:1029A0006F6E2E2028496E204461746173686565DE
:1029B00074290053657420746865204469746865DF
:1029C0007220416D706C69747564652C20302069CB
:1029D00073204D6178696D756D20283420626974AB
:1029E000732900456E61626C652F44697361626C86
:1029F0006520446974686572204D69786572004588
:102A00006E61626C652F44697361626C6520446914
:102A100074686572696E6700456E61626C652F440B
:102A2000697361626C6520496E76657273652053C7
:102A3000696E632046696C74657200536D616C6CDD
:102A4000204672616374696F6E616C2044656C61CD
:102A50007920506174682053657474696E677300DF
:102A6000536D616C6C204672616374696F6E616C4A
:102A70002044656C61792053657474696E677300D6
:102A80004C61726765204672616374696F6E616C38
:102A90002044656C61792053657474696E677300B6
:102AA000514D43207068617365206F66667365746D
:102AB0002C203132626974732C202D302E35202D5C
:102AC00020302E34393937352C20726566657220F6
:102AD000746F2064617461736865657400514D435F
:102AE000206761696E206F66667365742C203131D2
:102AF000626974732C20646563696D616C20706E0B
:102B0000742040206C656674206F66206269743999
:102B10002C2072616E67652030202D20312E3939CE
:102B200039302C204C53423D302E3030303937363E
:102B30003600514D43204443206F66667365742C04
:102B4000203133626974732C206D65617375726511
:102B50006420696E20444143204C5342277300494E
:102B60006E697469616C697A657320616E64206353
:102B70006F6E6669677572657320746865204A4573
:102B80005344206C696E6B2E0044756D70206F7518
:102B90007420616C6C206F662074686520726567B4
:102BA0006973746572732E00476574732074686569
:102BB0002074656D7065726174757265206F662032
:102BC000746865204441432E00456E61626C652047
:102BD000746865206D697865722E203120746F20CD
:102BE000656E61626C652E005365742074686520A3
:102BF0004E434F206C6F7765722033322D626974BB
:102C0000732072656769737465722C2077726974BA
:102C10006520746F2075707065722033322D626983
:102C2000747320666972737421212A2A00536574B3
:102C300020746865204E434F207570706572203394
:102C4000322D626974732072656769737465722EC0
:102C500000537065636966792077686963682069E5
:102C60006E7465726E616C20444143206368616ECE
:102C70006E656C3A2028302D332920412D442E00DA
:102C80005370656369667920776869636820636853
:102C9000616E6E656C20612C622C632C642C204F5D
:102CA0005220626974206D61736B2E204D55535410
:102CB00020737065636966792066697273742E008B
:102CC000320CE60BB60B860B5B0B310B0A0BC80AFA
:102CD0009C0A770A630A320A0A0AEA0DC70D9C0D9C
:102CE000850D430D100DEB0CD70CA60C7E0C610F5F
:102CF0003E0F130FF10EAF0E8A0E760E450E1D0E0F
:102D0000501079109010AD10A6108A115811221190
:102D10000611D610B61059133A13F112B612A012BA
:102D20008A125C1230121012E711B41192157C1342
:102D3000D014B0147F145E144114F913A313921528
:102D40004D1536151F150C1592157D156415921528
:102D50007D1564150916A61528160916D3154816EB
:102D6000711687163A21B216A9169E163A216B17CC
:102D70003017FB16DD16BD163A219F1A801A371A36
:102D8000171ADC19C619B019821959191219B01875
:102D9000721825180518D917AC173A211C1BEB1A05
:102DA000C21A3A216D1E2F1E0B1ECA1DAC1D791DA5
:102DB0004D1D251DF81CC51C991C5C1C2F1CF01BEF
:102DC000BC1B781B481B3A210B21E220C1207B2031
:102DD0006B2042200720C41F7B1F561F161FB81EE2
:102DE0007921A221B921802CDA21CF21802CD62370
:102DF000B7236E234E231323FD22E722B9228D220F
:102E00006D22442224220B22E321802CA624682454
:102E100032241924F923802C0325DE24802C9628C3
:102E2000582834281728DC27A1275C2730270827B3
:102E3000DB26A8267C264F261226D825A825642521
:102E40003425802C512C2D2CE82BC92BA82B892B19
:102E50005F2B322BDD2AA02A802A602A3B2A182ADF
:102E6000FF29E329B32971294D291329E1281124C8
:102E70001FBECFEFCDBFDFE5DEBF00E00CBF19E323
:102E8000A0E0B0E2EEE0FCEF00E00BBF02C0079074
:102E90000D92A637B107D9F711E4A6E7B9E301C04F
:102EA0001D92A13EB107E1F70E9415730C94057EB7
:102EB0000C940000682F80E090E20E94725C80E039
:102EC00090E00895DF92EF92FF920F931F93CF93BC
:102ED000DF9300D0CDB7DEB78091900089838091D9
:102EE00091008A83809192008B838E010F5F1F4F28
:102EF00080EFE82E86E2F82E93E0D92ED00EF8016E
:102F000081918F011F928F93FF92EF920E94B5776C
:102F10000F900F900F900F90D012F1CF8AE090E0B9
:102F20000E94C97780E02396CDBFDEBFDF91CF91AD
:102F30001F910F91FF90EF90DF90089561507109FC
:102F400081099109D9F708959F92AF92BF92CF92CC
:102F5000DF92EF92FF920F931F93CF93DF9300EADC
:102F600016E024E0F801258398E0958381E08683CC
:102F700080E88583C12C36E0D32E42E0942EF60102
:102F8000968250E8E52E56E0F52EF7019582D0E2C4
:102F9000D5832683958390E49683858365E377EBD9
:102FA0008CE090E00E949E17F80195826AE67EE62A
:102FB00089E190E00E949E178AE10E9427609C01AF
:102FC0004AE751E46FE771E484E991E40E946025E7
:102FD000C82F84E991E40E948C24C80F60E084E942
:102FE00091E40E945322C80F84E991E40E940A25CB
:102FF000C80F6BE775E084E991E40E943B23C80F9A
:1030000065E372E880E090E00E949E17F6019582E9
:1030100065E372E880E090E00E949E178DE10E94D7
:1030200027608C012AE731E44FE751E463E270E264
:1030300086E991E40E946A21C80F86E991E40E9422
:103040001B26C80F86E991E40E947125C80F60E62F
:10305000A62E66E0B62EF501D683D5836AE171E42B
:1030600080E090E00E949E178CE10E9427608C0116
:103070002AE731E44FE751E462E270E28AE991E441
:103080000E946A21C80F8AE991E40E941B26C80F9A
:103090008AE991E40E947125C80F80E1F5018683D9
:1030A00085836AE171E480E090E00E949E17F6015A
:1030B000968295826AE171E480E090E00E949E171A
:1030C00088E10E9427609C014AE751E46FE771E4C0
:1030D00088E891E40E94B119C80FF70196826AE16D
:1030E00071E480E090E00E949E1788E891E40E94DD
:1030F0003D20C80F65E176E185E090E00E949E17D3
:1031000088E891E40E94A350C80F60E573EC80E06A
:1031100090E00E949E1788E891E40E94E650C80F54
:1031200065E377EB8CE090E00E949E1763E070E02F
:1031300088E891E40E948D1A60E573EC80E090E0ED
:103140000E949E1789E10E9427609C014AE751E492
:103150006FE771E486E891E40E94B119C80FF701A6
:10316000D6836AE171E480E090E00E949E1786E8D1
:1031700091E40E943D20C80F65E176E185E090E092
:103180000E949E1786E891E40E94C74FC80F60E531
:1031900073EC80E090E00E949E1786E891E40E9424
:1031A0000E50C80F65E377EB8CE090E00E949E170D
:1031B00063E070E086E891E40E948D1A60E573ECAC
:1031C00080E090E00E949E178C2FDF91CF911F919D
:1031D0000F91FF90EF90DF90CF90BF90AF909F90B6
:1031E00008950F931F93CF93DF93C0E0D0E005EFD6
:1031F00016E28C2F0E9424351F928F93DF93CF937A
:103200001F930F930E94B57721960F900F900F9008
:103210000F900F900F90C630D10559F780E0DF91E5
:10322000CF911F910F910895DF92EF92FF920F932C
:103230001F93CF93DF93CDB7DEB72B97CDBFDEBF04
:10324000CE0101960E94BA668E010F5F1F4F80EF7C
:10325000E82E86E2F82E9BE0D92ED00EF80181915F
:103260008F011F928F93FF92EF920E94B5770F907C
:103270000F900F900F90D012F1CF8AE090E00E9453
:10328000C97780E02B96CDBFDEBFDF91CF911F9134
:103290000F91FF90EF90DF9008951F920F920FB65D
:1032A0000F9211240BB60F922F933F934F935F937E
:1032B0006F937F938F939F93AF93BF93EF93FF93FE
:1032C00080E090E20E94825CFF91EF91BF91AF910C
:1032D0009F918F917F916F915F914F913F912F912E
:1032E0000F900BBE0F900FBE0F901F9018951F925E
:1032F0000F920FB60F9211240BB60F922F933F939C
:103300004F935F936F937F938F939F93AF93BF93ED
:10331000EF93FF9320E040E050E060E070E080E059
:1033200090E20E94AC5CFF91EF91BF91AF919F91B1
:103330008F917F916F915F914F913F912F910F905E
:103340000BBE0F900FBE0F901F90189560E078E4B1
:1033500088EE91E008950C94A6190C94AB190C9486
:10336000AD19009769F0FC01208331836093B94166
:103370007093BA414093B7415093B84180E00895AB
:1033800081E008956150710981099109D9F7089583
:103390000C94AF19CF93DF93FC01DB01108282E024
:1033A00081838483C281D381842F869587708883AB
:1033B0006281738180E8489FA0011124E90188811E
:1033C0008770482BEB0149831C9282E111968C9304
:1033D000119783E014968C93149712962D913C913B
:1033E000139782819381EC018881E9018883129689
:1033F0002D913C91139782819381EC018981E901A0
:10340000898312960D90BC91A02D0280F381E02D4E
:10341000818112968C93DF91CF910895CF92DF92A4
:10342000EF92FF920F931F93CF93DF93FC010E2136
:103430001F21108282E081838483A281B381C8012D
:1034400096958795E701D695C7959C2F9095E901AC
:1034500058819523892B8C93A281B38107950027EE
:103460000795E794EE24E794E0948981E822E02A26
:103470001196EC920280F381E02DD6019C91977019
:1034800081818078982B842F8F70B8E08B9FA0016A
:103490001124492B4183EB011C82DF91CF911F91B5
:1034A0000F91FF90EF90DF90CF9008950F931F93AF
:1034B000462F50E04830510568F5DC01FA010FEF66
:1034C0001FEF20E08827EC50FF4F8F4F0C942E7693
:1034D00040E050E060E01BC04FE050E061E017C00A
:1034E00041E050E062E013C04AE350E063E00FC007
:1034F0004BE050E064E00BC040E250E065E007C004
:1035000041E050E066E003C040E050E067E0CD01FC
:103510000E9486251F910F910895AF92BF92CF927E
:10352000DF92EF920F931F93CF93DF931F92CDB74C
:10353000DEB76C015B018BE389836091B9417091C7
:10354000BA41E12C00E09E012F5F3F4F4FE551E073
:103550008091B7419091B8410E948E49D6018D91DA
:103560009C914091B9415091BA416091B74170919D
:10357000B841DC01ED91FC911995F60180819181B2
:103580004091B9415091BA416091B7417091B841B1
:10359000DC01ED91FC911995811142C06091B94116
:1035A0007091BA41A5018091B7419091B8410E94B4
:1035B0007249F601808191814091B9415091BA419F
:1035C0006091B7417091B841DC01ED91FC91199582
:1035D0006091B9417091BA41DB011296ED91FC9175
:1035E000139712818AE389839E012F5F3F4F4FE536
:1035F00051E08091B7419091B8410E948E49F60107
:10360000808191814091B9415091BA416091B74117
:103610007091B841DC01ED91FC911995812F01C0A9
:1036200082E00F90DF91CF911F910F91EF90DF908B
:10363000CF90BF90AF900895AF92BF92CF92DF929C
:10364000EF920F93CF93DF931F92CDB7DEB76C014C
:103650005B01498363E070E00E948D1AC114D104BC
:1036600009F16091B9417091BA41E12C00E09E01ED
:103670002F5F3F4FA5018091B7419091B8410E94C3
:103680008E49D6018D919C914091B9415091BA419A
:103690006091B7417091B841DC01ED91FC911995B1
:1036A00080E001C081E00F90DF91CF910F91EF900A
:1036B000DF90CF90BF90AF9008954F925F926F923E
:1036C0007F92AF92BF92CF92DF92EF92FF920F93D1
:1036D0001F93CF93DF930097A1F1142F5B01EC01AF
:1036E0000E948D1A482E512C612C712CB701A60115
:1036F000002E04C0440F551F661F771F0A94D2F78F
:10370000409550956095709544215521662177210B
:10371000812F90E0A0E0B0E0C822D922EA22FB226B
:1037200004C0CC0CDD1CEE1CFF1C0A95D2F74C2902
:103730005D296E297F29B501CE010E941C1B80E006
:1037400001C081E0DF91CF911F910F91FF90EF9029
:10375000DF90CF90BF90AF907F906F905F904F9031
:103760000895CF936F3321E0720709F409C208F07E
:1037700009C16E3121E0720709F4FEC108F086C06C
:103780006D3021E0720709F423C208F040C06530B3
:1037900021E0720709F41CC2E0F4611521E0720710
:1037A00009F4E4C148F46115710509F413C26230EB
:1037B000710509F40DC20AC2633021E0720709F4F1
:1037C00007C208F0D7C1613021E0720709F4D0C107
:1037D000FDC1683021E0720709F4C8C158F46630B1
:1037E00021E0720709F4C8C1673021E0720709F4CB
:1037F000C5C1ECC16B3021E0720709F4E9C108F0E2
:10380000B9C1693021E0720709F4B2C1DFC1653185
:1038100021E0720709F4DCC1F0F4603121E07207A5
:1038200009F4A4C158F46E3021E0720709F4A4C170
:103830006F3021E0720709F4A1C1C8C1633121E0F2
:10384000720709F4C5C108F095C1613121E0720722
:1038500009F48EC1BBC1693121E0720709F488C146
:1038600040F4673121E0720709F488C108F07EC195
:1038700083C16C3121E0720709F47CC108F0A8C152
:103880006B3121E0720709F4A3C1A0C16F3221E0BE
:10389000720709F473C108F03FC0663221E0720775
:1038A00009F46AC1F0F4613221E0720709F460C1E1
:1038B00058F46F3121E0720709F460C1603221E0F1
:1038C000720709F453C182C1643221E0720709F41E
:1038D00051C108F07DC1633221E0720709F478C15B
:1038E00075C16B3221E0720709F472C168F4683265
:1038F00021E0720709F43AC108F440C1693221E0BD
:10390000720709F435C162C16D3221E0720709F412
:103910005FC108F031C12EC1673321E0720709F49D
:103920002DC1C8F4633321E0720709F451C158F482
:10393000603321E0720709F419C1613321E0720795
:1039400009F416C143C1653321E0720709F440C18F
:1039500008F012C10FC16B3321E0720709F406C1F0
:1039600048F4693321E0720709F41AC108F030C144
:10397000C1E231C16D3321E0720709F425C108F0BD
:103980000FC126C16C3521E0720709F411C108F09E
:1039900079C06E3421E0720708F042C06C3421E037
:1039A000720708F015C1653421E0720709F4EEC012
:1039B000E0F4623421E0720709F402C158F4603483
:1039C00021E0720709F4ECC0613421E0720709F4C8
:1039D000FFC0FCC0633421E0720709F4D3C0643433
:1039E00021E0720709F4F4C0F1C0683421E07207E5
:1039F00009F4E0C060F4663421E0720709F4EAC01B
:103A0000673421E0720709F0E1C0C8E1E4C06A341C
:103A100021E0720709F4DCC008F4CCC0C6E1DBC0C9
:103A2000643521E0720709F4B3C0B8F4603521E0D1
:103A3000720709F4B5C058F46E3421E0720709F436
:103A4000A3C06F3421E0720709F4A0C0BFC0613584
:103A500021E0720709F4AEC0BBC0683521E07207EF
:103A600009F496C030F4663521E0720709F490C07D
:103A7000AFC06A3521E0720709F48CC008F4A8C011
:103A8000CEE1A9C06B3621E0720709F48FC0A8F51A
:103A9000653621E07207F8F4633621E0720708F01A
:103AA00097C06F3521E0720709F476C058F46D3580
:103AB00021E0720709F480C06E3521E0720709F435
:103AC00087C084C0613621E0720709F467C008F43A
:103AD0007FC0C4EA80C0683621E0720730F46636E1
:103AE00021E0720708F074C05BC0693621E07207FC
:103AF00009F458C008F058C053C0643721E0720779
:103B000009F45AC0A8F46E3621E0720709F450C0D7
:103B100008F45EC0623721E0720709F44BC008F078
:103B200057C0613721E0720709F050C0CAEA53C09C
:103B3000633821E0720709F443C070F46D3721E067
:103B40007207E1F1623821E07207D1F16C3721E0B0
:103B50007207E1F5C5E13FC0653821E07207A1F1C8
:103B600088F1683821E0720799F130C0CFE033C0A6
:103B7000C8E831C0C8E02FC0C2EB2DC0C5E52BC0DE
:103B8000C9E029C0CDE527C0C0EC25C0CFE723C0E0
:103B9000C1E021C0C5E01FC0CBE31DC0C4E01BC015
:103BA000C3E019C0C9E517C0CFE115C0CDEB13C004
:103BB000CBE111C0C2E00FC0CAE00DC0C3E30BC02F
:103BC000C6E009C0C0E507C0CDE005C0C0E006C042
:103BD000C0E001C0C0E14C2F0E941C1B8C2FCF9174
:103BE0000895CF936F3321E0720709F415C208F0EE
:103BF0000CC16E3121E0720709F40AC208F086C0D8
:103C00006D3021E0720709F41DC208F040C0653034
:103C100021E0720709F416C2E0F4611521E0720791
:103C200009F4F0C148F46115710509F41FC262304E
:103C3000710509F419C216C2633021E0720709F454
:103C400013C208F0E3C1613021E0720709F4DCC15E
:103C500009C2683021E0720709F4D4C158F4663013
:103C600021E0720709F4D4C1673021E0720709F43A
:103C7000D1C1F8C16B3021E0720709F4F5C108F039
:103C8000C5C1693021E0720709F4BEC1EBC16531DD
:103C900021E0720709F4D6C1F0F4603121E0720727
:103CA00009F4B0C158F46E3021E0720709F4B0C1D4
:103CB0006F3021E0720709F4ADC1D4C1633121E056
:103CC000720709F4D1C108F0A1C1613121E0720786
:103CD00009F49AC1C7C1693121E0720709F494C19E
:103CE00040F4673121E0720709F494C108F08AC1F9
:103CF0008FC16C3121E0720709F488C108F0A2C1BC
:103D00006B3121E0720709F4AFC1ACC16F3221E021
:103D1000720709F47FC108F03FC0663221E07207E4
:103D200009F476C1F0F4613221E0720709F46CC144
:103D300058F46F3121E0720709F46CC1603221E060
:103D4000720709F45FC18EC1643221E0720709F481
:103D50005DC108F077C1633221E0720709F484C1C4
:103D600081C16B3221E0720709F47EC168F46832C8
:103D700021E0720709F446C108F44CC1693221E020
:103D8000720709F441C16EC16D3221E0720709F476
:103D900059C108F03DC13AC1673321E0720709F407
:103DA00039C1C8F4633321E0720709F45DC158F4E6
:103DB000603321E0720709F425C1613321E0720705
:103DC00009F422C14FC1653321E0720709F43AC1F9
:103DD00008F01EC11BC16D3321E0720758F46B332C
:103DE00021E0720708F040C1693321E0720709F44D
:103DF0002BC11CC16D3321E0720709F431C16E3350
:103E000021E0720709F410C12DC16C3521E0720761
:103E100009F418C108F079C06E3421E0720708F087
:103E200042C06C3421E0720708F01EC1653421E005
:103E3000720709F4F7C0E0F4623421E0720709F474
:103E40000BC158F4603421E0720709F4FDC06134FD
:103E500021E0720709F408C105C1633421E072074B
:103E600009F4DCC0643421E0720709F4FDC0FAC033
:103E7000683421E0720709F4E7C060F4663421E099
:103E8000720709F4F3C0673421E0720709F0EAC051
:103E9000C8E1EDC06A3421E0720709F4E5C008F416
:103EA000D3C0C6E1E4C0643521E0720709F4BEC0A6
:103EB000B8F4603521E0720709F4B6C058F46E34E6
:103EC00021E0720709F4ACC06F3421E0720709F4F5
:103ED000A9C0C8C0613521E0720709F4B5C0C4C0EB
:103EE000683521E0720709F4A1C030F4663521E09D
:103EF000720709F49BC0B8C06A3521E0720709F463
:103F000097C008F4B1C0CEE1B2C06B3621E07207B1
:103F100009F496C0A8F5653621E07207F0F463361F
:103F200021E0720708F0A0C06F3521E0720709F4A4
:103F300081C058F46D3521E0720709F487C06E35F1
:103F400021E0720709F490C08DC0613621E072074C
:103F500009F472C008F070C087C0683621E07207AB
:103F600030F4663621E0720708F07EC079C0693609
:103F700021E0720709F462C008F472C0CFE177C093
:103F8000643721E0720709F461C0F8F46E3621E06D
:103F9000720709F457C058F46C3621E0720709F42F
:103FA00051C06D3621E0720709F452C05BC0623720
:103FB00021E0720709F448C008F056C0613721E0DB
:103FC000720709F04FC0CAEA52C0633821E0720795
:103FD00009F442C068F46D3721E07207D9F1623804
:103FE00021E07207C9F16C3721E0720789F13AC00C
:103FF000653821E07207A1F188F1683821E0720785
:1040000099F130C0C8E033C0C8E831C0C8E22FC061
:10401000C2EB2DC0C5E52BC0C9E029C0CEE527C045
:10402000C0EC25C0CFE723C0C3E021C0C1E01FC062
:10403000C1E41DC0CBE31BC0C4E019C0C1E517C07B
:10404000CDEB15C0CBE113C0C2E011C0CAE00FC078
:10405000C5E10DC0C3E30BC0C6E009C0C0E507C0A1
:10406000CDE005C0C0E006C0C0E001C0C0E14C2FFB
:104070000E941C1B8C2FCF910895CF93DF93009744
:1040800001F1EC0140E860E070E00E941C1B40E19F
:1040900060E070E0CE010E941C1B40E062E070E036
:1040A000CE010E941C1B43E069E471E0CE010E9436
:1040B0001C1B4BE36FE571E0CE010E941C1B80E0EE
:1040C00001C081E0DF91CF910895CF93DF93EC01A0
:1040D00064E00E9433279F938F938DE497E29F9330
:1040E0008F930E94B57764E0CE010E943327292F79
:1040F00030E0217033273F932F9386E09DE29F931A
:104100008F930E94B5778DB79EB708968DBF9EBFDF
:1041100080E0DF91CF9108950F931F93CF93DF93AA
:104120000097F1F08B01EC016230710530F08AE507
:1041300097E20E94CF7783E014C064E00E943327A7
:10414000482F012B11F0426001C04D7F50E00FEF6E
:104150001FEF20E064E0CE010E94862580E001C0D0
:1041600081E0DF91CF911F910F910895CF92DF925F
:10417000EF92FF920F931F93CF93DF931F92CDB7D0
:10418000DEB7009711F16C0166E00E943327382FEB
:104190003D7FE32EF12C0FEF1FEF20E0A70166E03B
:1041A000C60139830E94862539813260432F50E051
:1041B00020E066E0C6010E94862520E0A70166E0B7
:1041C000C6010E94862580E001C081E00F90DF914A
:1041D000CF911F910F91FF90EF90DF90CF900895B6
:1041E000EF92FF920F931F93CF93DF930097C9F045
:1041F000EC0166E00E9433277C01E894E0F8FF249C
:104200000FEF1FEF20E0A70166E0CE010E94862598
:10421000A701416020E066E0CE010E94862580E093
:1042200001C081E0DF91CF911F910F91FF90EF903E
:1042300008950097B1F067E00E943327880F892F17
:10424000881F990B91959F938F9386E09DE29F9392
:104250008F930E94B5770F900F900F900F9080E092
:10426000089581E00895109284411092854180E084
:104270000895809193001F928F9381E097E29F931E
:104280008F930E94B5770F900F900F900F9080E062
:104290000895CF938AE797E20E94CF770E942E6518
:1042A000C82F882341F081EA97E29F938F930E9461
:1042B000B5770F900F908C2FCF9108950E9414190D
:1042C00080E008950E94F11880E008950E9462172E
:1042D00080E008950F931F930097C1F04115510599
:1042E000B9F021153105A1F00115110589F0FC0186
:1042F0006283738300831183409390415093914173
:1043000020938E4130938F4180E003C081E001C053
:1043100083E01F910F910895FC01108283E0818357
:104320008483A281B3814C93A281B38111963C9383
:104330000280F381E02D2283FB0114820895FC01A9
:10434000108283E081838483A281B38180E38C9394
:10435000A281B38111961C920280F381E02D4283E9
:10436000FB0114820895FC01108283E08183848321
:10437000A281B38180E28C93A281B38111961C92B9
:104380000280F381E02D80E1489FA0011124422B9F
:104390004283FB0114820895FC01108283E0818333
:1043A0008483A281B38188E28C93A281B381119628
:1043B0001C920280F381E02D4283FB011482089558
:1043C000FC01108283E081838483A281B38188E32E
:1043D0008C93A281B38111961C920280F381E02D0F
:1043E0004283FB0114820895FC01108283E08183E3
:1043F0008483A281B3818FE08C93A281B3811196D3
:104400001C920280F381E02D1282FB011482089538
:10441000FC01108283E081838483A281B38187E0E1
:104420008C93A281B381CA0124E0969587952A9541
:10443000E1F711968C930280F381E02D4295407F45
:104440004283FB0114820895FC01108283E0818382
:104450008483A281B38148604C93A281B381119679
:104460001C920280F381E02D1282FB0114820895D8
:10447000FC01108283E081838483A281B3812C9329
:10448000A281B381CA0124E0969587952A95E1F728
:1044900011968C930280F381E02D4295407F4283F8
:1044A000FB0114820895EF92FF920F931F93CF9315
:1044B000DF930097D1F06230D0F4462FEC01E0900A
:1044C0008C41F0908D4100918A4110918B41B70150
:1044D000C8010E94E02188819981DC01ED91FC9165
:1044E000A701B801199580E003C081E001C082E016
:1044F000DF91CF911F910F91FF90EF900895EF9270
:10450000FF920F931F93CF93DF930097C9F0EC01B5
:10451000E0908C41F0908D4100918A4110918B4147
:104520002FE043E0B701C8010E94B321888199813F
:10453000DC01ED91FC91A701B801199580E001C063
:1045400081E0DF91CF911F910F91FF90EF9008953F
:10455000EF92FF920F931F93CF93DF93009719F180
:10456000643018F5EC01E0908C41F0908D410091A1
:104570008A4110918B41E1E0F0E0CF0102C0880F49
:10458000991F6A95E2F79C0143E0B701C8010E94B8
:10459000B32188819981DC01ED91FC91A701B801DB
:1045A000199580E003C081E001C082E0DF91CF91E6
:1045B0001F910F91FF90EF900895EF92FF920F934C
:1045C0001F93CF93DF930097C9F0EC01E0908C41EB
:1045D000F0908D4100918A4110918B412FE040E095
:1045E000B701C8010E94B32188819981DC01ED9156
:1045F000FC91A701B801199580E001C081E0DF912D
:10460000CF911F910F91FF90EF900895EF92FF923D
:104610000F931F93CF93DF93009719F1643018F530
:10462000EC01E0908C41F0908D4100918A41109115
:104630008B41E1E0F0E0CF0102C0880F991F6A953D
:10464000E2F79C0140E0B701C8010E94B3218881D4
:104650009981DC01ED91FC91A701B801199580E0E9
:1046600003C081E001C082E0DF91CF911F910F91E3
:10467000FF90EF900895EF92FF920F931F93CF93C7
:10468000DF93009761F1AB01EC01E0908C41F09079
:104690008D4100918A4110918B41B701C8010E9460
:1046A000082288819981DC01ED91FC91A701B80174
:1046B0001995E0908C41F0908D4100918A411091C4
:1046C0008B41B701C8010E94F42188819981DC01E6
:1046D000ED91FC91A701B801199580E001C081E03E
:1046E000DF91CF911F910F91FF90EF900895CF929E
:1046F000DF92EF92FF921F93CF93DF93009779F1B0
:10470000443078F5142FAB01EC01C0908C41D0906F
:104710008D41E0908A41F0908B41212FB601C70175
:104720000E94382288819981DC01ED91FC91A601DB
:10473000B7011995C0908C41D0908D41E0908A418D
:10474000F0908B41412FB601C7010E94242288813D
:104750009981DC01ED91FC91A601B701199580E0EA
:1047600001C082E0DF91CF911F91FF90EF90DF9029
:10477000CF900895EF92FF920F931F93CF93DF9303
:104780000097C9F0EC01E0908C41F0908D410091D0
:104790008A4110918B412FE043E0B701C8010E948C
:1047A000B32188819981DC01ED91FC91A701B801C9
:1047B000199580E001C081E0DF91CF911F910F91A9
:1047C000FF90EF900895EF92FF920F931F93CF9376
:1047D000DF930097C9F09A01AB01EC01E0908C41A6
:1047E000F0908D4100918A4110918B41B701C80131
:1047F0000E948C2188819981DC01ED91FC91A701B7
:10480000B801199580E001C081E0DF91CF911F913F
:104810000F91FF90EF900895EF92FF920F931F93E7
:10482000CF93DF930097C9F0EC01E0908C41F090BA
:104830008D4100918A4110918B412FE043E0B701F7
:10484000C8010E94B32188819981DC01ED91FC911E
:10485000A701B801199580E001C081E0DF91CF91F7
:104860001F910F91FF90EF900895EF92FF920F9399
:104870001F93CF93DF930097C1F0EC01E0908C4140
:10488000F0908D4100918A4110918B4141E0B70138
:10489000C8010E94CC2188819981DC01ED91FC91B5
:1048A000A701B801199580E001C081E0DF91CF91A7
:1048B0001F910F91FF90EF900895EF92FF920F9349
:1048C0001F93CF93DF930097C9F0EC01E0908C41E8
:1048D000F0908D4100918A4110918B412FE043E08F
:1048E000B701C8010E94B32188819981DC01ED9153
:1048F000FC91A701B801199580E001C081E0DF912A
:10490000CF911F910F91FF90EF90089521E0892B97
:1049100009F020E0822F0895EF92FF920F931F93EA
:10492000CF93DF93009709F46DC0EC01E0908C41C8
:10493000F0908D4100918A4110918B4141E0B70187
:10494000C8010E94E02188819981DC01ED91FC91F0
:10495000A701B8011995E0908C41F0908D4100912C
:104960008A4110918B4140E0B701C8010E949F210C
:1049700088819981DC01ED91FC91A701B80119951D
:10498000E0908C41F0908D4100918A4110918B41D3
:104990002FE043E0B701C8010E94B32188819981CB
:1049A000DC01ED91FC91A701B8011995E0908C41D3
:1049B000F0908D4100918A4110918B4140E050E090
:1049C000B701C8010E94082288819981DC01ED911C
:1049D000FC91A701B8011995E0908C41F0908D41B0
:1049E00000918A4110918B41B701C8010E94F421C6
:1049F00088819981DC01ED91FC91A701B80119959D
:104A000080E001C081E0DF91CF911F910F91FF9075
:104A1000EF900895EF92FF920F931F93CF93DF9340
:104A2000009709F445C0EC010E948C24E0908C4171
:104A3000F0908D4100918A4110918B414FEF57E0EA
:104A4000B701C8010E94082288819981DC01ED919B
:104A5000FC91A701B8011995E0908C41F0908D412F
:104A600000918A4110918B41B701C8010E94F42145
:104A700088819981DC01ED91FC91A701B80119951C
:104A8000E0908C41F0908D4100918A4110918B41D2
:104A90002FE040E0B701C8010E94B32188819981CD
:104AA000DC01ED91FC91A701B801199580E001C0EE
:104AB00081E0DF91CF911F910F91FF90EF900895CA
:104AC000009769F0FC012083318360938C417093DF
:104AD0008D4140938A4150938B4180E0089581E05D
:104AE00008950F931F93CF93009759F08C01C0E066
:104AF0006C2FC8010E94561ACF5FC830C9F780E0FA
:104B000001C081E0CF911F910F9108958F929F92E4
:104B1000AF92BF92CF92DF92EF92FF920F931F93CB
:104B2000CF93DF934C017801C0919041D091914196
:104B3000A0908E41B0908F41DC011296CD90DC9018
:104B400013978A0102C0000F111F2A95E2F72A81EC
:104B50003B81462FBE01C5010E940E1AF4018081DF
:104B60009181DC01ED91FC91AE01B501DF91CF9116
:104B70001F910F91FF90EF90DF90CF90BF90AF907B
:104B80009F908F9019940F931F930097F9F09B01BA
:104B90002150310920323105D8F462237323672B69
:104BA000B9F440E050E02115310541F0B901615000
:104BB0007109262337234F5F5F4FF5CF0FEF1FEFAC
:104BC00020E062E00E94862580E003C081E001C011
:104BD00083E01F910F9108950F931F93009741F069
:104BE0000FEF1FEF20E00E94862580E090E002C0DA
:104BF00081E090E01F910F9108950F931F93CF9341
:104C0000DF93009791F0EC010FEF1FEF20E041E000
:104C100050E061E00E94862520E040E250E064E040
:104C2000CE010E94862580E001C081E0DF91CF9116
:104C30001F910F9108950F931F93CF93DF930097C8
:104C4000C9F0EC010FEF1FEF20E041E050E061E020
:104C50000E94862520E040E250E064E0CE010E9400
:104C6000862520E040E150E060E0CE010E948625EC
:104C700080E001C081E0DF91CF911F910F910895F5
:104C80000F931F93009781F0662321F065E00E9447
:104C9000561A08C00FEF10E020E040E150E065E058
:104CA0000E94862580E001C081E01F910F91089548
:104CB000DF92EF92FF920F931F93CF93DF93EC015C
:104CC000D62E0FEF1FEF20E040E150E065E00E949C
:104CD0008625E0909041F090914100918E41109195
:104CE0008F412A813B814D2DB701C8010E94CA190D
:104CF00088819981DC01ED91FC91A701B80119959A
:104D00000091904110919141D8011296ED91FC9142
:104D10001397218130E0220F331F8281881F88275B
:104D2000881F282B408150E0542F4427550F242BF7
:104D3000352B2093924130939341C901880F892FDD
:104D4000881F990B919512821296ED91FC91139701
:104D500087958827879581831296ED91FC9113970B
:104D60003083E0908E41F0908F4165E0CE010E944B
:104D7000561A0093904110939141E0928E41F09227
:104D80008F41F8018081DF91CF911F910F91FF90AA
:104D9000EF90DF900895EF92FF920F931F93CF93C0
:104DA000DF930097A1F17B01EC016E33710530F0C8
:104DB0008CEB97E20E94CF7783E02AC064E08DE31A
:104DC000E816F10451F4CE010E94582600E110E0EB
:104DD00024E040E050E064E015C0CE010E94582677
:104DE00000E110E024E041E050E064E0CE010E94E8
:104DF000862567E0CE010E9458260FE310E020E0F0
:104E0000A70167E0CE010E94862580E001C081E015
:104E1000DF91CF911F910F91FF90EF900895EF9246
:104E2000FF920F931F93CF93DF93009791F066301B
:104E3000710588F47B01EC0162E00E94582603E0D2
:104E400010E020E0A70162E0CE010E94862580E00C
:104E500003C081E001C083E0DF91CF911F910F91EA
:104E6000FF90EF900895009739F00E9458268091A6
:104E7000924190919341089581E090E008950097C8
:104E8000B1F066E00E943327292F269530E021708B
:104E900033273F932F9386E09DE29F938F930E9449
:104EA000B5770F900F900F900F9080E0089581E0FC
:104EB00008950F931F93CF93DF930097C1F0623053
:104EC0007105B8F48B01EC0166E00E943327482F8E
:104ED000012B11F44B7F01C0446050E00FEF1FEF36
:104EE00020E066E0CE010E94862580E003C081E0DC
:104EF00001C083E0DF91CF911F910F91089500973A
:104F0000B1F062E00E943327880F892F881F990B28
:104F100091959F938F9386E09DE29F938F930E943C
:104F2000B5770F900F900F900F9080E0089581E07B
:104F30000895EF92FF920F931F93CF93DF937C011D
:104F4000EB01009741F16230710570F0DF936F93D0
:104F500082EE97E29F938F930E94B5770F900F9008
:104F60000F900F9083E018C064E00E943327880FF1
:104F7000892F881F990B9195AC01477F517021971C
:104F800009F448600FEF1FEF20E064E0C7010E94C2
:104F9000862580E001C081E0DF91CF911F910F91C4
:104FA000FF90EF9008950097C9F064E00E943327C6
:104FB000880F892F881F990B919583FB882780F98B
:104FC0001F928F9386E197E29F938F930E94B5770C
:104FD0000F900F900F900F9080E0089581E008955A
:104FE000009701F162E00E943327880F892F881F04
:104FF000990B91959C012770332781E090E002C0C6
:10500000880F991F2A95E2F79F938F938BEA98E375
:105010009F938F930E94B5770F900F900F900F90F2
:1050200080E0089581E00895009731F060E00E94EB
:105030005826811103C0089581E0089582E0089503
:10504000CF9388E891E40E94A350C82F65E377EBE3
:105050008CE090E00E949E1788E891E40E94E65060
:10506000C80F65E377EB8CE090E00E949E1763E049
:1050700070E088E891E40E948D1A60E573EC80E0AE
:1050800090E00E949E1786E891E40E94C74FC80FE7
:1050900065E377EB8CE090E00E949E1786E891E450
:1050A0000E940E50C80F65E377EB8CE090E00E9401
:1050B0009E1763E070E086E891E40E948D1A60E537
:1050C00073EC80E090E00E949E178C2FCF910895A2
:1050D0008BE098E29F938F9380E198E29F938F9368
:1050E0000E94B5770F900F900F900F9022E04091A3
:1050F000BE256DE083E695E20C94757180911B25C9
:1051000090911C25A0911D25B0911E258B309105F5
:10511000A105B10531F185319105A105B10539F13F
:105120008C309105A105B105F1F04697A105B105B7
:1051300001F183E298E20E94CF7761E088E891E490
:105140000E945E4E62E088E891E40E945E4E81E437
:1051500098E20E94CF7761E086E891E40E945E4E7B
:1051600008C061E001C062E088E891E405C061E048
:1051700001C062E086E891E40E945E4E80E00895FE
:1051800080910A2590910B25A0910C25B0910D25B9
:105190008B309105A105B10531F185319105A1054E
:1051A000B10539F18C309105A105B105F1F04697B3
:1051B000A105B10501F18EE598E20E94CF7761E08B
:1051C00088E891E40E94A04C62E088E891E40E94A3
:1051D000A04C8BE798E20E94CF7761E086E891E4EB
:1051E0000E94A04C08C061E001C062E088E891E440
:1051F00005C061E001C062E086E891E40E94A04C35
:1052000080E008958091E8249091E92420918441E0
:1052100030918541821B930B01968093844190933A
:10522000854180E0089580E0089580E0089580E061
:10523000089580E0089580E0089580E0089580E07A
:105240000895809185418F93809184418F938BEA5B
:1052500098E39F938F930E94B577809184419091BA
:105260008541019680938441909385410F900F90E2
:105270000F900F9080E008958091C4251F928F9326
:1052800088E69BE29F938F930E94B5778091C32518
:105290001F928F9382E89BE29F938F930E94B57732
:1052A00080911F2190912021A0912121B091222154
:1052B0002DB73EB7285F3F4F2DBF3EBF81309105D0
:1052C000A105B10511F481E00CC082309105A10562
:1052D000B10511F483E005C00397A105B10529F4D8
:1052E00084E08093C4258093C3258091C4251F92B8
:1052F0008F938CE99BE29F938F930E94B577809167
:10530000C3251F928F9382EB9BE29F938F930E9402
:10531000B5778DB79EB708968DBF9EBF80E0089584
:10532000CF93DF9300D01F92CDB7DEB7CE010196A9
:10533000AA2797FDA095BA2F4091D7415091D84107
:105340004115510511F441EE51E4662757FD609572
:10535000762F841B950BA60BB70BBF93AF939F9330
:105360008F9388EC9BE29F938F930E94B5770F9069
:105370000F900F900F900F900F9080E02496CDBF6C
:10538000DEBFDF91CF910895E6E4F0E281A18F9333
:1053900080A18F93878D8F93868D8F938DED9BE268
:1053A0009F938F930E94B5770F900F900F900F905F
:1053B0000F900F9080E008950F931F93CF93DF938A
:1053C000C091EC20CB30D8F480E18093A606D0E0E9
:1053D000CC0FDD1F10E000E1812F90E08C179D07BE
:1053E00054F465E176E185E090E00E949E17009319
:1053F000A7061F5FF1CF80E18093A60608C08BEE61
:105400009BE29F938F930E94B5770F900F9080E05F
:10541000DF91CF911F910F9108950E943D608823E5
:1054200041F083EF9BE29F938F930E94B5770F909B
:105430000F9080E008950E94A41794E09093A50631
:1054400098E09093A50692E09093A60690930606A6
:10545000882341F083EF9BE29F938F930E94B5775F
:105460000F900F9080E008950E94A417882341F0C8
:1054700083EF9BE29F938F930E94B5770F900F90DD
:1054800080E008950E942E65882341F083EF9BE21F
:105490009F938F930E94B5770F900F9080E00895AF
:1054A0008091C225813049F08BEF9BE29F938F93CF
:1054B0000E94B5770F900F9004C00E9420288111A0
:1054C000F3CF80E00895CF93DF931F921F92CDB763
:1054D000DEB7AE014F5F5F4F61E080E092E00E9477
:1054E00049688A818F9389818F9384E19CE29F939D
:1054F0008F930E94B577AE014F5F5F4F62E080E00F
:1055000092E00E9449688A818F9389818F9382E219
:105510009CE29F938F930E94B577CDBFDEBF80E062
:105520000F900F90DF91CF9108958091302190914D
:105530003121A0913221B091332181309105A10513
:10554000B10539F4609141217091422188E891E4DC
:105550000AC00297A105B10511F560914121709132
:10556000422186E891E40E948D1A1F928F9380E376
:105570009CE29F938F930E94B5770F900F900F90AE
:105580000F9083E090E0A0E0B0E080933021909312
:105590003121A0933221B093332180E0089581E43A
:1055A0009CE20E94CF7781E0089561E08091A6227D
:1055B0009091A722A091A822B091A922892B8A2B91
:1055C0008B2B09F460E08091852190918621A09138
:1055D0008721B091882181309105A105B10519F489
:1055E0008AE991E406C00297A105B105B9F486E9FC
:1055F00091E40E943327880F892F881F990B91957A
:105600009F938F9384E69CE29F938F930E94B5773C
:105610000F900F900F900F9080E008958DE69CE220
:105620000E94CF7781E00895EF92FF920F931F932E
:10563000CF93DF938FE89CE20E94CF778EE598E2CC
:105640000E94CF7761E088E891E40E94A04C62E07C
:1056500088E891E40E94A04C83E298E20E94CF7710
:1056600061E088E891E40E945E4E62E088E891E49F
:105670000E945E4E8BE798E20E94CF7761E086E859
:1056800091E40E94A04C62E086E891E40E94A04C64
:1056900081E498E20E94CF7761E086E891E40E947D
:1056A0005E4E62E086E891E40E945E4E809188063C
:1056B00081701F928F938CEA9CE29F938F930E943C
:1056C000B57780918806829581701F928F938AECBE
:1056D0009CE29F938F930E94B57761E08AE991E401
:1056E0000E943327EC0161E08AE991E40E943327AC
:1056F000DF93CF939F938F9389EE9CE29F938F9339
:105700000E94B57761E086E991E40E943327EC01BD
:1057100061E086E991E40E943327DF93CF939F9362
:105720008F938EE09DE29F938F930E94B57763E005
:1057300070E088E891E40E948D1A1F928F9383E3B2
:105740009DE29F938F930E94B57763E070E086E8B7
:1057500091E40E948D1A1F928F9382E59DE29F93A0
:105760008F930E94B5778AE090E00E94C97780E726
:105770009DE20E94CF778DB79EB74C968DBF9EBF9E
:10578000C0E0D0E006E81DE27DE7E72E7DE2F72EDF
:10579000CE0103978D3F9105F0F0CE0183709927DC
:1057A000892B51F4DF93CF93FF92EF920E94B5774C
:1057B0000F900F900F900F90BE0188E891E40E9427
:1057C0008D1A1F928F931F930F930E94B5770F909E
:1057D0000F900F900F902196C83891E0D907C1F62D
:1057E0008EE89DE20E94CF77C0E0D0E006E81DE29F
:1057F0006DE7E62E6DE2F62ECE0103978D3F910503
:10580000F0F0CE0183709927892B51F4DF93CF9369
:10581000FF92EF920E94B5770F900F900F900F902C
:10582000BE0186E891E40E948D1A1F928F931F9308
:105830000F930E94B5770F900F900F900F902196C5
:10584000C83881E0D807C1F68AE090E00E94C977A5
:105850008AE090E00E94C9778AE99DE20E94CF77B2
:10586000C0E0D0E05DE7E52E5DE2F52E04E61CE247
:10587000CE0183709927892B51F4DF93CF93FF9248
:10588000EF920E94B5770F900F900F900F906C2FB2
:1058900086E991E40E943327880F892F881F990B8E
:1058A00091959F938F931F930F930E94B5772196A5
:1058B0000F900F900F900F90C830D105C9F68AE075
:1058C00090E00E94C9778DEA9DE20E94CF77C0E008
:1058D000D0E03DE7E32E3DE2F32E04E61CE2CE01EC
:1058E00083709927892B51F4DF93CF93FF92EF9226
:1058F0000E94B5770F900F900F900F906C2F8AE950
:1059000091E40E943327880F892F881F990B919566
:105910009F938F931F930F930E94B57721960F90BB
:105920000F900F900F90C830D105C9F68AE090E033
:105930000E94C97780E0DF91CF911F910F91FF9076
:10594000EF900895CF938091532090915420A0918F
:105950005520B0915620892B8A2B8B2BA1F088E8FB
:1059600091E40E94A350C82F88E891E40E94E65079
:10597000C80F86E891E40E94C74FC80F86E891E4FB
:105980000E940E5009C088E891E40E940B4EC82F77
:1059900086E891E40E940B4EC80F41F083EF9BE232
:1059A0009F938F930E94B5770F900F908091562010
:1059B0008F93809155208F93809154208F93809165
:1059C00053208F9381EC9DE29F938F930E94B57734
:1059D0000F900F900F900F900F900F908C2FCF91F2
:1059E00008958091852190918621A0918721B09181
:1059F000882181309105A105B10549F44091952296
:105A000050919622609184228AE991E40CC0029719
:105A1000A105B10561F440919522509196226091C3
:105A2000842286E991E40E94EC2580E008958DE6C9
:105A30009CE20E94CF7781E00895CF9380918521E9
:105A400090918621A0918721B09188218130910584
:105A5000A105B10539F460916222709163228AE94F
:105A600091E40AC00297A105B10509F5609162228F
:105A70007091632286E991E40E949927C82F8823B8
:105A8000E1F08FEC9DE29F938F9389ED99E09F93D6
:105A90008F9380EE9DE29F938F930E94B5770F9036
:105AA0000F900F900F900F900F908C2F07C08DE6E6
:105AB0009CE20E94CF7781E001C080E0CF91089501
:105AC0008091852190918621A0918721B091882194
:105AD00081309105A105B10519F48AE991E406C068
